{
  "_format": "hh-sol-artifact-1",
  "contractName": "SubscriptionPayments",
  "sourceName": "contracts/SubscriptionPayments.sol",
  "abi": [
    {
      "inputs": [
        {
          "internalType": "address",
          "name": "initialTreasury",
          "type": "address"
        }
      ],
      "stateMutability": "nonpayable",
      "type": "constructor"
    },
    {
      "inputs": [
        {
          "internalType": "address",
          "name": "owner",
          "type": "address"
        }
      ],
      "name": "OwnableInvalidOwner",
      "type": "error"
    },
    {
      "inputs": [
        {
          "internalType": "address",
          "name": "account",
          "type": "address"
        }
      ],
      "name": "OwnableUnauthorizedAccount",
      "type": "error"
    },
    {
      "anonymous": false,
      "inputs": [
        {
          "indexed": true,
          "internalType": "address",
          "name": "previousOwner",
          "type": "address"
        },
        {
          "indexed": true,
          "internalType": "address",
          "name": "newOwner",
          "type": "address"
        }
      ],
      "name": "OwnershipTransferred",
      "type": "event"
    },
    {
      "anonymous": false,
      "inputs": [
        {
          "indexed": true,
          "internalType": "uint256",
          "name": "planId",
          "type": "uint256"
        },
        {
          "indexed": false,
          "internalType": "uint256",
          "name": "price",
          "type": "uint256"
        },
        {
          "indexed": false,
          "internalType": "uint256",
          "name": "durationSeconds",
          "type": "uint256"
        }
      ],
      "name": "PlanUpdated",
      "type": "event"
    },
    {
      "anonymous": false,
      "inputs": [
        {
          "indexed": true,
          "internalType": "address",
          "name": "user",
          "type": "address"
        },
        {
          "indexed": true,
          "internalType": "uint256",
          "name": "planId",
          "type": "uint256"
        },
        {
          "indexed": false,
          "internalType": "uint256",
          "name": "price",
          "type": "uint256"
        },
        {
          "indexed": false,
          "internalType": "uint256",
          "name": "expiresAt",
          "type": "uint256"
        }
      ],
      "name": "Subscribed",
      "type": "event"
    },
    {
      "anonymous": false,
      "inputs": [
        {
          "indexed": true,
          "internalType": "address",
          "name": "payer",
          "type": "address"
        },
        {
          "indexed": false,
          "internalType": "uint256",
          "name": "amount",
          "type": "uint256"
        },
        {
          "indexed": false,
          "internalType": "uint256",
          "name": "timestamp",
          "type": "uint256"
        }
      ],
      "name": "SubscriptionPaid",
      "type": "event"
    },
    {
      "anonymous": false,
      "inputs": [
        {
          "indexed": true,
          "internalType": "address",
          "name": "oldTreasury",
          "type": "address"
        },
        {
          "indexed": true,
          "internalType": "address",
          "name": "newTreasury",
          "type": "address"
        }
      ],
      "name": "TreasuryUpdated",
      "type": "event"
    },
    {
      "inputs": [
        {
          "internalType": "address",
          "name": "user",
          "type": "address"
        }
      ],
      "name": "getSubscriptionExpiry",
      "outputs": [
        {
          "internalType": "uint256",
          "name": "",
          "type": "uint256"
        }
      ],
      "stateMutability": "view",
      "type": "function"
    },
    {
      "inputs": [],
      "name": "owner",
      "outputs": [
        {
          "internalType": "address",
          "name": "",
          "type": "address"
        }
      ],
      "stateMutability": "view",
      "type": "function"
    },
    {
      "inputs": [
        {
          "internalType": "uint256",
          "name": "amount",
          "type": "uint256"
        }
      ],
      "name": "paySubscription",
      "outputs": [
        {
          "internalType": "bool",
          "name": "",
          "type": "bool"
        }
      ],
      "stateMutability": "payable",
      "type": "function"
    },
    {
      "inputs": [
        {
          "internalType": "uint256",
          "name": "",
          "type": "uint256"
        }
      ],
      "name": "plans",
      "outputs": [
        {
          "internalType": "uint256",
          "name": "price",
          "type": "uint256"
        },
        {
          "internalType": "uint256",
          "name": "durationSeconds",
          "type": "uint256"
        },
        {
          "internalType": "bool",
          "name": "exists",
          "type": "bool"
        }
      ],
      "stateMutability": "view",
      "type": "function"
    },
    {
      "inputs": [],
      "name": "renounceOwnership",
      "outputs": [],
      "stateMutability": "nonpayable",
      "type": "function"
    },
    {
      "inputs": [
        {
          "internalType": "uint256",
          "name": "planId",
          "type": "uint256"
        },
        {
          "internalType": "uint256",
          "name": "price",
          "type": "uint256"
        },
        {
          "internalType": "uint256",
          "name": "durationSeconds",
          "type": "uint256"
        }
      ],
      "name": "setPlan",
      "outputs": [],
      "stateMutability": "nonpayable",
      "type": "function"
    },
    {
      "inputs": [
        {
          "internalType": "address",
          "name": "newTreasury",
          "type": "address"
        }
      ],
      "name": "setTreasury",
      "outputs": [],
      "stateMutability": "nonpayable",
      "type": "function"
    },
    {
      "inputs": [
        {
          "internalType": "uint256",
          "name": "planId",
          "type": "uint256"
        }
      ],
      "name": "subscribePlan",
      "outputs": [
        {
          "internalType": "bool",
          "name": "",
          "type": "bool"
        }
      ],
      "stateMutability": "payable",
      "type": "function"
    },
    {
      "inputs": [
        {
          "internalType": "address",
          "name": "",
          "type": "address"
        }
      ],
      "name": "subscriptionExpires",
      "outputs": [
        {
          "internalType": "uint256",
          "name": "",
          "type": "uint256"
        }
      ],
      "stateMutability": "view",
      "type": "function"
    },
    {
      "inputs": [
        {
          "internalType": "address",
          "name": "newOwner",
          "type": "address"
        }
      ],
      "name": "transferOwnership",
      "outputs": [],
      "stateMutability": "nonpayable",
      "type": "function"
    },
    {
      "inputs": [],
      "name": "treasury",
      "outputs": [
        {
          "internalType": "address",
          "name": "",
          "type": "address"
        }
      ],
      "stateMutability": "view",
      "type": "function"
    }
  ],
  "bytecode": "0x60803461011257601f6108e438819003918201601f19168301916001600160401b038311848410176101175780849260209460405283398101031261011257516001600160a01b03808216918290036101125733156100f9576000549060018060a01b0319913383821617600055604051913391167f8be0079c531659141344cd1fd0a4f28419497f9722a3daafe3b4186f6b6457e0600080a382156100b7575060015416176001556040516107b6908161012e8239f35b62461bcd60e51b815260206004820152601960248201527f54726561737572792061646472657373207265717569726564000000000000006044820152606490fd5b604051631e4fbdf760e01b815260006004820152602490fd5b600080fd5b634e487b7160e01b600052604160045260246000fdfe60406080815260048036101561001457600080fd5b600091823560e01c80635ddc8cb51461052a57806361d027b314610501578063715018a6146104a7578063725eb717146103435780637ac9b0981461028d57806385959f2f146101e25780638da5cb5b14610261578063b16206161461021c578063d8376ee2146101e2578063f0f44260146101295763f2fde38b1461009957600080fd5b34610125576020366003190112610125576001600160a01b03823581811693919290849003610121576100ca610645565b831561010b57505082546001600160a01b0319811683178455167f8be0079c531659141344cd1fd0a4f28419497f9722a3daafe3b4186f6b6457e08380a380f35b51631e4fbdf760e01b8152908101849052602490fd5b8480fd5b8280fd5b5034610125576020366003190112610125576001600160a01b038235818116939192908490036101215761015b610645565b831561019f575050816001549182167f4ab5be82436d353e61ca18726e984e561f5c1cc7c6d38b29d2553c790434705a8580a36001600160a01b0319161760015580f35b906020606492519162461bcd60e51b8352820152601760248201527f54726561737572792063616e6e6f74206265207a65726f0000000000000000006044820152fd5b50903461012557602036600319011261012557356001600160a01b0381169081900361012557828291602094526003845220549051908152f35b5090346101255760203660031901126101255760609282913581526002602052209081549160ff60026001830154920154169082519384526020840152151590820152f35b838234610289578160031936011261028957905490516001600160a01b039091168152602090f35b5080fd5b5090602036600319011261012557803590811561030b57506102d56020936102b68334146106a7565b8080808560018060a01b03600154165af16102cf6106f3565b5061073e565b815190815242838201527f6cd9d6bebf8cc2076dd424f83deb0559d8774d1c44178b4f676f9d50709fb1be823392a25160018152f35b606490602084519162461bcd60e51b835282015260126024820152710616d6f756e74206d757374206265203e20360741b6044820152fd5b5090602092836003193601126104a4578135918282526002855283822091610369610671565b918354835260ff6002600186015495898601968752015416158015878501526104705782511561043d5761039f835134146106a7565b42933383526003885286832054858111610435575b5051840180941161042257506103eb9033815260038752838682205580808060018060a01b03600154168651905af16102cf6106f3565b51908351918252848201527f5ad333a6d56a7ddb1e78d9ecb8047e9dafcb890a41a227ede8d950259a1f0f75833392a35160018152f35b634e487b7160e01b825260119052602490fd5b9450386103b4565b855162461bcd60e51b8152908101879052600d60248201526c696e76616c696420707269636560981b6044820152606490fd5b855162461bcd60e51b8152908101879052600e60248201526d1c1b185b881b9bdd08199bdd5b9960921b6044820152606490fd5b80fd5b83346104a457806003193601126104a4576104c0610645565b80546001600160a01b03198116825581906001600160a01b03167f8be0079c531659141344cd1fd0a4f28419497f9722a3daafe3b4186f6b6457e08280a380f35b83823461028957816003193601126102895760015490516001600160a01b039091168152602090f35b503461012557606036600319011261012557813591602435906044359061054f610645565b841561060a5781156105d05750907f353a42a683526219c00406d501f12ed3b877e06934a00242bc50ecf7a779919d9291610588610671565b828152600260208201918383528581019260018452888a5282602052868a2091518255516001820155019051151560ff8019835416911617905582519182526020820152a280f35b606490602085519162461bcd60e51b8352820152601460248201527306475726174696f6e206d757374206265203e20360641b6044820152fd5b606490602085519162461bcd60e51b83528201526015602482015274706c616e49642063616e6e6f74206265207a65726f60581b6044820152fd5b6000546001600160a01b0316330361065957565b60405163118cdaa760e01b8152336004820152602490fd5b604051906060820182811067ffffffffffffffff82111761069157604052565b634e487b7160e01b600052604160045260246000fd5b156106ae57565b60405162461bcd60e51b815260206004820152601960248201527f696e636f72726563742046494c20616d6f756e742073656e74000000000000006044820152606490fd5b3d156107395767ffffffffffffffff903d8281116106915760405192601f8201601f19908116603f01168401908111848210176106915760405282523d6000602084013e565b606090565b1561074557565b60405162461bcd60e51b8152602060048201526013602482015272119253081d1c985b9cd9995c8819985a5b1959606a1b6044820152606490fdfea2646970667358221220b77a58137f43e42172f96d1b3f98e0db2266edf9b9d9d99dc61e04f13dc9c5dd64736f6c63430008140033",
  "linkReferences": {},
  "deployedLinkReferences": {}
}