{"contracts/SubscriptionPayments.sol":{"SubscriptionPayments":{"abi":[{"inputs":[{"internalType":"address","name":"initialTreasury","type":"address"}],"stateMutability":"nonpayable","type":"constructor"},{"inputs":[{"internalType":"address","name":"owner","type":"address"}],"name":"OwnableInvalidOwner","type":"error"},{"inputs":[{"internalType":"address","name":"account","type":"address"}],"name":"OwnableUnauthorizedAccount","type":"error"},{"anonymous":false,"inputs":[{"indexed":true,"internalType":"address","name":"previousOwner","type":"address"},{"indexed":true,"internalType":"address","name":"newOwner","type":"address"}],"name":"OwnershipTransferred","type":"event"},{"anonymous":false,"inputs":[{"indexed":true,"internalType":"uint256","name":"planId","type":"uint256"},{"indexed":false,"internalType":"uint256","name":"price","type":"uint256"},{"indexed":false,"internalType":"uint256","name":"durationSeconds","type":"uint256"}],"name":"PlanUpdated","type":"event"},{"anonymous":false,"inputs":[{"indexed":true,"internalType":"address","name":"user","type":"address"},{"indexed":true,"internalType":"uint256","name":"planId","type":"uint256"},{"indexed":false,"internalType":"uint256","name":"price","type":"uint256"},{"indexed":false,"internalType":"uint256","name":"expiresAt","type":"uint256"}],"name":"Subscribed","type":"event"},{"anonymous":false,"inputs":[{"indexed":true,"internalType":"address","name":"payer","type":"address"},{"indexed":false,"internalType":"uint256","name":"amount","type":"uint256"},{"indexed":false,"internalType":"uint256","name":"timestamp","type":"uint256"}],"name":"SubscriptionPaid","type":"event"},{"anonymous":false,"inputs":[{"indexed":true,"internalType":"address","name":"oldTreasury","type":"address"},{"indexed":true,"internalType":"address","name":"newTreasury","type":"address"}],"name":"TreasuryUpdated","type":"event"},{"inputs":[{"internalType":"address","name":"user","type":"address"}],"name":"getSubscriptionExpiry","outputs":[{"internalType":"uint256","name":"","type":"uint256"}],"stateMutability":"view","type":"function"},{"inputs":[],"name":"owner","outputs":[{"internalType":"address","name":"","type":"address"}],"stateMutability":"view","type":"function"},{"inputs":[{"internalType":"uint256","name":"amount","type":"uint256"}],"name":"paySubscription","outputs":[{"internalType":"bool","name":"","type":"bool"}],"stateMutability":"payable","type":"function"},{"inputs":[{"internalType":"uint256","name":"","type":"uint256"}],"name":"plans","outputs":[{"internalType":"uint256","name":"price","type":"uint256"},{"internalType":"uint256","name":"durationSeconds","type":"uint256"},{"internalType":"bool","name":"exists","type":"bool"}],"stateMutability":"view","type":"function"},{"inputs":[],"name":"renounceOwnership","outputs":[],"stateMutability":"nonpayable","type":"function"},{"inputs":[{"internalType":"uint256","name":"planId","type":"uint256"},{"internalType":"uint256","name":"price","type":"uint256"},{"internalType":"uint256","name":"durationSeconds","type":"uint256"}],"name":"setPlan","outputs":[],"stateMutability":"nonpayable","type":"function"},{"inputs":[{"internalType":"address","name":"newTreasury","type":"address"}],"name":"setTreasury","outputs":[],"stateMutability":"nonpayable","type":"function"},{"inputs":[{"internalType":"uint256","name":"planId","type":"uint256"}],"name":"subscribePlan","outputs":[{"internalType":"bool","name":"","type":"bool"}],"stateMutability":"payable","type":"function"},{"inputs":[{"internalType":"address","name":"","type":"address"}],"name":"subscriptionExpires","outputs":[{"internalType":"uint256","name":"","type":"uint256"}],"stateMutability":"view","type":"function"},{"inputs":[{"internalType":"address","name":"newOwner","type":"address"}],"name":"transferOwnership","outputs":[],"stateMutability":"nonpayable","type":"function"},{"inputs":[],"name":"treasury","outputs":[{"internalType":"address","name":"","type":"address"}],"stateMutability":"view","type":"function"}],"evm":{"bytecode":{"linkReferences":{},"object":"60803461011257601f6108e438819003918201601f19168301916001600160401b038311848410176101175780849260209460405283398101031261011257516001600160a01b03808216918290036101125733156100f9576000549060018060a01b0319913383821617600055604051913391167f8be0079c531659141344cd1fd0a4f28419497f9722a3daafe3b4186f6b6457e0600080a382156100b7575060015416176001556040516107b6908161012e8239f35b62461bcd60e51b815260206004820152601960248201527f54726561737572792061646472657373207265717569726564000000000000006044820152606490fd5b604051631e4fbdf760e01b815260006004820152602490fd5b600080fd5b634e487b7160e01b600052604160045260246000fdfe60406080815260048036101561001457600080fd5b600091823560e01c80635ddc8cb51461052a57806361d027b314610501578063715018a6146104a7578063725eb717146103435780637ac9b0981461028d57806385959f2f146101e25780638da5cb5b14610261578063b16206161461021c578063d8376ee2146101e2578063f0f44260146101295763f2fde38b1461009957600080fd5b34610125576020366003190112610125576001600160a01b03823581811693919290849003610121576100ca610645565b831561010b57505082546001600160a01b0319811683178455167f8be0079c531659141344cd1fd0a4f28419497f9722a3daafe3b4186f6b6457e08380a380f35b51631e4fbdf760e01b8152908101849052602490fd5b8480fd5b8280fd5b5034610125576020366003190112610125576001600160a01b038235818116939192908490036101215761015b610645565b831561019f575050816001549182167f4ab5be82436d353e61ca18726e984e561f5c1cc7c6d38b29d2553c790434705a8580a36001600160a01b0319161760015580f35b906020606492519162461bcd60e51b8352820152601760248201527f54726561737572792063616e6e6f74206265207a65726f0000000000000000006044820152fd5b50903461012557602036600319011261012557356001600160a01b0381169081900361012557828291602094526003845220549051908152f35b5090346101255760203660031901126101255760609282913581526002602052209081549160ff60026001830154920154169082519384526020840152151590820152f35b838234610289578160031936011261028957905490516001600160a01b039091168152602090f35b5080fd5b5090602036600319011261012557803590811561030b57506102d56020936102b68334146106a7565b8080808560018060a01b03600154165af16102cf6106f3565b5061073e565b815190815242838201527f6cd9d6bebf8cc2076dd424f83deb0559d8774d1c44178b4f676f9d50709fb1be823392a25160018152f35b606490602084519162461bcd60e51b835282015260126024820152710616d6f756e74206d757374206265203e20360741b6044820152fd5b5090602092836003193601126104a4578135918282526002855283822091610369610671565b918354835260ff6002600186015495898601968752015416158015878501526104705782511561043d5761039f835134146106a7565b42933383526003885286832054858111610435575b5051840180941161042257506103eb9033815260038752838682205580808060018060a01b03600154168651905af16102cf6106f3565b51908351918252848201527f5ad333a6d56a7ddb1e78d9ecb8047e9dafcb890a41a227ede8d950259a1f0f75833392a35160018152f35b634e487b7160e01b825260119052602490fd5b9450386103b4565b855162461bcd60e51b8152908101879052600d60248201526c696e76616c696420707269636560981b6044820152606490fd5b855162461bcd60e51b8152908101879052600e60248201526d1c1b185b881b9bdd08199bdd5b9960921b6044820152606490fd5b80fd5b83346104a457806003193601126104a4576104c0610645565b80546001600160a01b03198116825581906001600160a01b03167f8be0079c531659141344cd1fd0a4f28419497f9722a3daafe3b4186f6b6457e08280a380f35b83823461028957816003193601126102895760015490516001600160a01b039091168152602090f35b503461012557606036600319011261012557813591602435906044359061054f610645565b841561060a5781156105d05750907f353a42a683526219c00406d501f12ed3b877e06934a00242bc50ecf7a779919d9291610588610671565b828152600260208201918383528581019260018452888a5282602052868a2091518255516001820155019051151560ff8019835416911617905582519182526020820152a280f35b606490602085519162461bcd60e51b8352820152601460248201527306475726174696f6e206d757374206265203e20360641b6044820152fd5b606490602085519162461bcd60e51b83528201526015602482015274706c616e49642063616e6e6f74206265207a65726f60581b6044820152fd5b6000546001600160a01b0316330361065957565b60405163118cdaa760e01b8152336004820152602490fd5b604051906060820182811067ffffffffffffffff82111761069157604052565b634e487b7160e01b600052604160045260246000fd5b156106ae57565b60405162461bcd60e51b815260206004820152601960248201527f696e636f72726563742046494c20616d6f756e742073656e74000000000000006044820152606490fd5b3d156107395767ffffffffffffffff903d8281116106915760405192601f8201601f19908116603f01168401908111848210176106915760405282523d6000602084013e565b606090565b1561074557565b60405162461bcd60e51b8152602060048201526013602482015272119253081d1c985b9cd9995c8819985a5b1959606a1b6044820152606490fdfea2646970667358221220b77a58137f43e42172f96d1b3f98e0db2266edf9b9d9d99dc61e04f13dc9c5dd64736f6c63430008140033","opcodes":"PUSH1 0x80 CALLVALUE PUSH2 0x112 JUMPI PUSH1 0x1F PUSH2 0x8E4 CODESIZE DUP2 SWAP1 SUB SWAP2 DUP3 ADD PUSH1 0x1F NOT AND DUP4 ADD SWAP2 PUSH1 0x1 PUSH1 0x1 PUSH1 0x40 SHL SUB DUP4 GT DUP5 DUP5 LT OR PUSH2 0x117 JUMPI DUP1 DUP5 SWAP3 PUSH1 0x20 SWAP5 PUSH1 0x40 MSTORE DUP4 CODECOPY DUP2 ADD SUB SLT PUSH2 0x112 JUMPI MLOAD PUSH1 0x1 PUSH1 0x1 PUSH1 0xA0 SHL SUB DUP1 DUP3 AND SWAP2 DUP3 SWAP1 SUB PUSH2 0x112 JUMPI CALLER ISZERO PUSH2 0xF9 JUMPI PUSH1 0x0 SLOAD SWAP1 PUSH1 0x1 DUP1 PUSH1 0xA0 SHL SUB NOT SWAP2 CALLER DUP4 DUP3 AND OR PUSH1 0x0 SSTORE PUSH1 0x40 MLOAD SWAP2 CALLER SWAP2 AND PUSH32 0x8BE0079C531659141344CD1FD0A4F28419497F9722A3DAAFE3B4186F6B6457E0 PUSH1 0x0 DUP1 LOG3 DUP3 ISZERO PUSH2 0xB7 JUMPI POP PUSH1 0x1 SLOAD AND OR PUSH1 0x1 SSTORE PUSH1 0x40 MLOAD PUSH2 0x7B6 SWAP1 DUP2 PUSH2 0x12E DUP3 CODECOPY RETURN JUMPDEST PUSH3 0x461BCD PUSH1 0xE5 SHL DUP2 MSTORE PUSH1 0x20 PUSH1 0x4 DUP3 ADD MSTORE PUSH1 0x19 PUSH1 0x24 DUP3 ADD MSTORE PUSH32 0x5472656173757279206164647265737320726571756972656400000000000000 PUSH1 0x44 DUP3 ADD MSTORE PUSH1 0x64 SWAP1 REVERT JUMPDEST PUSH1 0x40 MLOAD PUSH4 0x1E4FBDF7 PUSH1 0xE0 SHL DUP2 MSTORE PUSH1 0x0 PUSH1 0x4 DUP3 ADD MSTORE PUSH1 0x24 SWAP1 REVERT JUMPDEST PUSH1 0x0 DUP1 REVERT JUMPDEST PUSH4 0x4E487B71 PUSH1 0xE0 SHL PUSH1 0x0 MSTORE PUSH1 0x41 PUSH1 0x4 MSTORE PUSH1 0x24 PUSH1 0x0 REVERT INVALID PUSH1 0x40 PUSH1 0x80 DUP2 MSTORE PUSH1 0x4 DUP1 CALLDATASIZE LT ISZERO PUSH2 0x14 JUMPI PUSH1 0x0 DUP1 REVERT JUMPDEST PUSH1 0x0 SWAP2 DUP3 CALLDATALOAD PUSH1 0xE0 SHR DUP1 PUSH4 0x5DDC8CB5 EQ PUSH2 0x52A JUMPI DUP1 PUSH4 0x61D027B3 EQ PUSH2 0x501 JUMPI DUP1 PUSH4 0x715018A6 EQ PUSH2 0x4A7 JUMPI DUP1 PUSH4 0x725EB717 EQ PUSH2 0x343 JUMPI DUP1 PUSH4 0x7AC9B098 EQ PUSH2 0x28D JUMPI DUP1 PUSH4 0x85959F2F EQ PUSH2 0x1E2 JUMPI DUP1 PUSH4 0x8DA5CB5B EQ PUSH2 0x261 JUMPI DUP1 PUSH4 0xB1620616 EQ PUSH2 0x21C JUMPI DUP1 PUSH4 0xD8376EE2 EQ PUSH2 0x1E2 JUMPI DUP1 PUSH4 0xF0F44260 EQ PUSH2 0x129 JUMPI PUSH4 0xF2FDE38B EQ PUSH2 0x99 JUMPI PUSH1 0x0 DUP1 REVERT JUMPDEST CALLVALUE PUSH2 0x125 JUMPI PUSH1 0x20 CALLDATASIZE PUSH1 0x3 NOT ADD SLT PUSH2 0x125 JUMPI PUSH1 0x1 PUSH1 0x1 PUSH1 0xA0 SHL SUB DUP3 CALLDATALOAD DUP2 DUP2 AND SWAP4 SWAP2 SWAP3 SWAP1 DUP5 SWAP1 SUB PUSH2 0x121 JUMPI PUSH2 0xCA PUSH2 0x645 JUMP JUMPDEST DUP4 ISZERO PUSH2 0x10B JUMPI POP POP DUP3 SLOAD PUSH1 0x1 PUSH1 0x1 PUSH1 0xA0 SHL SUB NOT DUP2 AND DUP4 OR DUP5 SSTORE AND PUSH32 0x8BE0079C531659141344CD1FD0A4F28419497F9722A3DAAFE3B4186F6B6457E0 DUP4 DUP1 LOG3 DUP1 RETURN JUMPDEST MLOAD PUSH4 0x1E4FBDF7 PUSH1 0xE0 SHL DUP2 MSTORE SWAP1 DUP2 ADD DUP5 SWAP1 MSTORE PUSH1 0x24 SWAP1 REVERT JUMPDEST DUP5 DUP1 REVERT JUMPDEST DUP3 DUP1 REVERT JUMPDEST POP CALLVALUE PUSH2 0x125 JUMPI PUSH1 0x20 CALLDATASIZE PUSH1 0x3 NOT ADD SLT PUSH2 0x125 JUMPI PUSH1 0x1 PUSH1 0x1 PUSH1 0xA0 SHL SUB DUP3 CALLDATALOAD DUP2 DUP2 AND SWAP4 SWAP2 SWAP3 SWAP1 DUP5 SWAP1 SUB PUSH2 0x121 JUMPI PUSH2 0x15B PUSH2 0x645 JUMP JUMPDEST DUP4 ISZERO PUSH2 0x19F JUMPI POP POP DUP2 PUSH1 0x1 SLOAD SWAP2 DUP3 AND PUSH32 0x4AB5BE82436D353E61CA18726E984E561F5C1CC7C6D38B29D2553C790434705A DUP6 DUP1 LOG3 PUSH1 0x1 PUSH1 0x1 PUSH1 0xA0 SHL SUB NOT AND OR PUSH1 0x1 SSTORE DUP1 RETURN JUMPDEST SWAP1 PUSH1 0x20 PUSH1 0x64 SWAP3 MLOAD SWAP2 PUSH3 0x461BCD PUSH1 0xE5 SHL DUP4 MSTORE DUP3 ADD MSTORE PUSH1 0x17 PUSH1 0x24 DUP3 ADD MSTORE PUSH32 0x54726561737572792063616E6E6F74206265207A65726F000000000000000000 PUSH1 0x44 DUP3 ADD MSTORE REVERT JUMPDEST POP SWAP1 CALLVALUE PUSH2 0x125 JUMPI PUSH1 0x20 CALLDATASIZE PUSH1 0x3 NOT ADD SLT PUSH2 0x125 JUMPI CALLDATALOAD PUSH1 0x1 PUSH1 0x1 PUSH1 0xA0 SHL SUB DUP2 AND SWAP1 DUP2 SWAP1 SUB PUSH2 0x125 JUMPI DUP3 DUP3 SWAP2 PUSH1 0x20 SWAP5 MSTORE PUSH1 0x3 DUP5 MSTORE KECCAK256 SLOAD SWAP1 MLOAD SWAP1 DUP2 MSTORE RETURN JUMPDEST POP SWAP1 CALLVALUE PUSH2 0x125 JUMPI PUSH1 0x20 CALLDATASIZE PUSH1 0x3 NOT ADD SLT PUSH2 0x125 JUMPI PUSH1 0x60 SWAP3 DUP3 SWAP2 CALLDATALOAD DUP2 MSTORE PUSH1 0x2 PUSH1 0x20 MSTORE KECCAK256 SWAP1 DUP2 SLOAD SWAP2 PUSH1 0xFF PUSH1 0x2 PUSH1 0x1 DUP4 ADD SLOAD SWAP3 ADD SLOAD AND SWAP1 DUP3 MLOAD SWAP4 DUP5 MSTORE PUSH1 0x20 DUP5 ADD MSTORE ISZERO ISZERO SWAP1 DUP3 ADD MSTORE RETURN JUMPDEST DUP4 DUP3 CALLVALUE PUSH2 0x289 JUMPI DUP2 PUSH1 0x3 NOT CALLDATASIZE ADD SLT PUSH2 0x289 JUMPI SWAP1 SLOAD SWAP1 MLOAD PUSH1 0x1 PUSH1 0x1 PUSH1 0xA0 SHL SUB SWAP1 SWAP2 AND DUP2 MSTORE PUSH1 0x20 SWAP1 RETURN JUMPDEST POP DUP1 REVERT JUMPDEST POP SWAP1 PUSH1 0x20 CALLDATASIZE PUSH1 0x3 NOT ADD SLT PUSH2 0x125 JUMPI DUP1 CALLDATALOAD SWAP1 DUP2 ISZERO PUSH2 0x30B JUMPI POP PUSH2 0x2D5 PUSH1 0x20 SWAP4 PUSH2 0x2B6 DUP4 CALLVALUE EQ PUSH2 0x6A7 JUMP JUMPDEST DUP1 DUP1 DUP1 DUP6 PUSH1 0x1 DUP1 PUSH1 0xA0 SHL SUB PUSH1 0x1 SLOAD AND GAS CALL PUSH2 0x2CF PUSH2 0x6F3 JUMP JUMPDEST POP PUSH2 0x73E JUMP JUMPDEST DUP2 MLOAD SWAP1 DUP2 MSTORE TIMESTAMP DUP4 DUP3 ADD MSTORE PUSH32 0x6CD9D6BEBF8CC2076DD424F83DEB0559D8774D1C44178B4F676F9D50709FB1BE DUP3 CALLER SWAP3 LOG2 MLOAD PUSH1 0x1 DUP2 MSTORE RETURN JUMPDEST PUSH1 0x64 SWAP1 PUSH1 0x20 DUP5 MLOAD SWAP2 PUSH3 0x461BCD PUSH1 0xE5 SHL DUP4 MSTORE DUP3 ADD MSTORE PUSH1 0x12 PUSH1 0x24 DUP3 ADD MSTORE PUSH18 0x616D6F756E74206D757374206265203E203 PUSH1 0x74 SHL PUSH1 0x44 DUP3 ADD MSTORE REVERT JUMPDEST POP SWAP1 PUSH1 0x20 SWAP3 DUP4 PUSH1 0x3 NOT CALLDATASIZE ADD SLT PUSH2 0x4A4 JUMPI DUP2 CALLDATALOAD SWAP2 DUP3 DUP3 MSTORE PUSH1 0x2 DUP6 MSTORE DUP4 DUP3 KECCAK256 SWAP2 PUSH2 0x369 PUSH2 0x671 JUMP JUMPDEST SWAP2 DUP4 SLOAD DUP4 MSTORE PUSH1 0xFF PUSH1 0x2 PUSH1 0x1 DUP7 ADD SLOAD SWAP6 DUP10 DUP7 ADD SWAP7 DUP8 MSTORE ADD SLOAD AND ISZERO DUP1 ISZERO DUP8 DUP6 ADD MSTORE PUSH2 0x470 JUMPI DUP3 MLOAD ISZERO PUSH2 0x43D JUMPI PUSH2 0x39F DUP4 MLOAD CALLVALUE EQ PUSH2 0x6A7 JUMP JUMPDEST TIMESTAMP SWAP4 CALLER DUP4 MSTORE PUSH1 0x3 DUP9 MSTORE DUP7 DUP4 KECCAK256 SLOAD DUP6 DUP2 GT PUSH2 0x435 JUMPI JUMPDEST POP MLOAD DUP5 ADD DUP1 SWAP5 GT PUSH2 0x422 JUMPI POP PUSH2 0x3EB SWAP1 CALLER DUP2 MSTORE PUSH1 0x3 DUP8 MSTORE DUP4 DUP7 DUP3 KECCAK256 SSTORE DUP1 DUP1 DUP1 PUSH1 0x1 DUP1 PUSH1 0xA0 SHL SUB PUSH1 0x1 SLOAD AND DUP7 MLOAD SWAP1 GAS CALL PUSH2 0x2CF PUSH2 0x6F3 JUMP JUMPDEST MLOAD SWAP1 DUP4 MLOAD SWAP2 DUP3 MSTORE DUP5 DUP3 ADD MSTORE PUSH32 0x5AD333A6D56A7DDB1E78D9ECB8047E9DAFCB890A41A227EDE8D950259A1F0F75 DUP4 CALLER SWAP3 LOG3 MLOAD PUSH1 0x1 DUP2 MSTORE RETURN JUMPDEST PUSH4 0x4E487B71 PUSH1 0xE0 SHL DUP3 MSTORE PUSH1 0x11 SWAP1 MSTORE PUSH1 0x24 SWAP1 REVERT JUMPDEST SWAP5 POP CODESIZE PUSH2 0x3B4 JUMP JUMPDEST DUP6 MLOAD PUSH3 0x461BCD PUSH1 0xE5 SHL DUP2 MSTORE SWAP1 DUP2 ADD DUP8 SWAP1 MSTORE PUSH1 0xD PUSH1 0x24 DUP3 ADD MSTORE PUSH13 0x696E76616C6964207072696365 PUSH1 0x98 SHL PUSH1 0x44 DUP3 ADD MSTORE PUSH1 0x64 SWAP1 REVERT JUMPDEST DUP6 MLOAD PUSH3 0x461BCD PUSH1 0xE5 SHL DUP2 MSTORE SWAP1 DUP2 ADD DUP8 SWAP1 MSTORE PUSH1 0xE PUSH1 0x24 DUP3 ADD MSTORE PUSH14 0x1C1B185B881B9BDD08199BDD5B99 PUSH1 0x92 SHL PUSH1 0x44 DUP3 ADD MSTORE PUSH1 0x64 SWAP1 REVERT JUMPDEST DUP1 REVERT JUMPDEST DUP4 CALLVALUE PUSH2 0x4A4 JUMPI DUP1 PUSH1 0x3 NOT CALLDATASIZE ADD SLT PUSH2 0x4A4 JUMPI PUSH2 0x4C0 PUSH2 0x645 JUMP JUMPDEST DUP1 SLOAD PUSH1 0x1 PUSH1 0x1 PUSH1 0xA0 SHL SUB NOT DUP2 AND DUP3 SSTORE DUP2 SWAP1 PUSH1 0x1 PUSH1 0x1 PUSH1 0xA0 SHL SUB AND PUSH32 0x8BE0079C531659141344CD1FD0A4F28419497F9722A3DAAFE3B4186F6B6457E0 DUP3 DUP1 LOG3 DUP1 RETURN JUMPDEST DUP4 DUP3 CALLVALUE PUSH2 0x289 JUMPI DUP2 PUSH1 0x3 NOT CALLDATASIZE ADD SLT PUSH2 0x289 JUMPI PUSH1 0x1 SLOAD SWAP1 MLOAD PUSH1 0x1 PUSH1 0x1 PUSH1 0xA0 SHL SUB SWAP1 SWAP2 AND DUP2 MSTORE PUSH1 0x20 SWAP1 RETURN JUMPDEST POP CALLVALUE PUSH2 0x125 JUMPI PUSH1 0x60 CALLDATASIZE PUSH1 0x3 NOT ADD SLT PUSH2 0x125 JUMPI DUP2 CALLDATALOAD SWAP2 PUSH1 0x24 CALLDATALOAD SWAP1 PUSH1 0x44 CALLDATALOAD SWAP1 PUSH2 0x54F PUSH2 0x645 JUMP JUMPDEST DUP5 ISZERO PUSH2 0x60A JUMPI DUP2 ISZERO PUSH2 0x5D0 JUMPI POP SWAP1 PUSH32 0x353A42A683526219C00406D501F12ED3B877E06934A00242BC50ECF7A779919D SWAP3 SWAP2 PUSH2 0x588 PUSH2 0x671 JUMP JUMPDEST DUP3 DUP2 MSTORE PUSH1 0x2 PUSH1 0x20 DUP3 ADD SWAP2 DUP4 DUP4 MSTORE DUP6 DUP2 ADD SWAP3 PUSH1 0x1 DUP5 MSTORE DUP9 DUP11 MSTORE DUP3 PUSH1 0x20 MSTORE DUP7 DUP11 KECCAK256 SWAP2 MLOAD DUP3 SSTORE MLOAD PUSH1 0x1 DUP3 ADD SSTORE ADD SWAP1 MLOAD ISZERO ISZERO PUSH1 0xFF DUP1 NOT DUP4 SLOAD AND SWAP2 AND OR SWAP1 SSTORE DUP3 MLOAD SWAP2 DUP3 MSTORE PUSH1 0x20 DUP3 ADD MSTORE LOG2 DUP1 RETURN JUMPDEST PUSH1 0x64 SWAP1 PUSH1 0x20 DUP6 MLOAD SWAP2 PUSH3 0x461BCD PUSH1 0xE5 SHL DUP4 MSTORE DUP3 ADD MSTORE PUSH1 0x14 PUSH1 0x24 DUP3 ADD MSTORE PUSH20 0x6475726174696F6E206D757374206265203E203 PUSH1 0x64 SHL PUSH1 0x44 DUP3 ADD MSTORE REVERT JUMPDEST PUSH1 0x64 SWAP1 PUSH1 0x20 DUP6 MLOAD SWAP2 PUSH3 0x461BCD PUSH1 0xE5 SHL DUP4 MSTORE DUP3 ADD MSTORE PUSH1 0x15 PUSH1 0x24 DUP3 ADD MSTORE PUSH21 0x706C616E49642063616E6E6F74206265207A65726F PUSH1 0x58 SHL PUSH1 0x44 DUP3 ADD MSTORE REVERT JUMPDEST PUSH1 0x0 SLOAD PUSH1 0x1 PUSH1 0x1 PUSH1 0xA0 SHL SUB AND CALLER SUB PUSH2 0x659 JUMPI JUMP JUMPDEST PUSH1 0x40 MLOAD PUSH4 0x118CDAA7 PUSH1 0xE0 SHL DUP2 MSTORE CALLER PUSH1 0x4 DUP3 ADD MSTORE PUSH1 0x24 SWAP1 REVERT JUMPDEST PUSH1 0x40 MLOAD SWAP1 PUSH1 0x60 DUP3 ADD DUP3 DUP2 LT PUSH8 0xFFFFFFFFFFFFFFFF DUP3 GT OR PUSH2 0x691 JUMPI PUSH1 0x40 MSTORE JUMP JUMPDEST PUSH4 0x4E487B71 PUSH1 0xE0 SHL PUSH1 0x0 MSTORE PUSH1 0x41 PUSH1 0x4 MSTORE PUSH1 0x24 PUSH1 0x0 REVERT JUMPDEST ISZERO PUSH2 0x6AE JUMPI JUMP JUMPDEST PUSH1 0x40 MLOAD PUSH3 0x461BCD PUSH1 0xE5 SHL DUP2 MSTORE PUSH1 0x20 PUSH1 0x4 DUP3 ADD MSTORE PUSH1 0x19 PUSH1 0x24 DUP3 ADD MSTORE PUSH32 0x696E636F72726563742046494C20616D6F756E742073656E7400000000000000 PUSH1 0x44 DUP3 ADD MSTORE PUSH1 0x64 SWAP1 REVERT JUMPDEST RETURNDATASIZE ISZERO PUSH2 0x739 JUMPI PUSH8 0xFFFFFFFFFFFFFFFF SWAP1 RETURNDATASIZE DUP3 DUP2 GT PUSH2 0x691 JUMPI PUSH1 0x40 MLOAD SWAP3 PUSH1 0x1F DUP3 ADD PUSH1 0x1F NOT SWAP1 DUP2 AND PUSH1 0x3F ADD AND DUP5 ADD SWAP1 DUP2 GT DUP5 DUP3 LT OR PUSH2 0x691 JUMPI PUSH1 0x40 MSTORE DUP3 MSTORE RETURNDATASIZE PUSH1 0x0 PUSH1 0x20 DUP5 ADD RETURNDATACOPY JUMP JUMPDEST PUSH1 0x60 SWAP1 JUMP JUMPDEST ISZERO PUSH2 0x745 JUMPI JUMP JUMPDEST PUSH1 0x40 MLOAD PUSH3 0x461BCD PUSH1 0xE5 SHL DUP2 MSTORE PUSH1 0x20 PUSH1 0x4 DUP3 ADD MSTORE PUSH1 0x13 PUSH1 0x24 DUP3 ADD MSTORE PUSH19 0x119253081D1C985B9CD9995C8819985A5B1959 PUSH1 0x6A SHL PUSH1 0x44 DUP3 ADD MSTORE PUSH1 0x64 SWAP1 REVERT INVALID LOG2 PUSH5 0x6970667358 0x22 SLT KECCAK256 0xB7 PUSH27 0x58137F43E42172F96D1B3F98E0DB2266EDF9B9D9D99DC61E04F13D 0xC9 0xC5 0xDD PUSH5 0x736F6C6343 STOP ADDMOD EQ STOP CALLER "},"methodIdentifiers":{"getSubscriptionExpiry(address)":"d8376ee2","owner()":"8da5cb5b","paySubscription(uint256)":"7ac9b098","plans(uint256)":"b1620616","renounceOwnership()":"715018a6","setPlan(uint256,uint256,uint256)":"5ddc8cb5","setTreasury(address)":"f0f44260","subscribePlan(uint256)":"725eb717","subscriptionExpires(address)":"85959f2f","transferOwnership(address)":"f2fde38b","treasury()":"61d027b3"}}}}}