{"contracts/SealGuardAccessControl.sol":{"SealGuardAccessControl":{"abi":[{"inputs":[],"stateMutability":"nonpayable","type":"constructor"},{"inputs":[],"name":"AccessControlBadConfirmation","type":"error"},{"inputs":[{"internalType":"address","name":"account","type":"address"},{"internalType":"bytes32","name":"neededRole","type":"bytes32"}],"name":"AccessControlUnauthorizedAccount","type":"error"},{"inputs":[],"name":"ReentrancyGuardReentrantCall","type":"error"},{"anonymous":false,"inputs":[{"indexed":true,"internalType":"uint256","name":"documentId","type":"uint256"},{"indexed":true,"internalType":"address","name":"grantee","type":"address"},{"indexed":true,"internalType":"address","name":"grantor","type":"address"},{"indexed":false,"internalType":"uint256","name":"expiresAt","type":"uint256"}],"name":"AccessGranted","type":"event"},{"anonymous":false,"inputs":[{"indexed":true,"internalType":"uint256","name":"documentId","type":"uint256"},{"indexed":true,"internalType":"address","name":"grantee","type":"address"},{"indexed":true,"internalType":"address","name":"revoker","type":"address"}],"name":"AccessRevoked","type":"event"},{"anonymous":false,"inputs":[{"indexed":true,"internalType":"string","name":"organizationId","type":"string"},{"indexed":true,"internalType":"address","name":"member","type":"address"},{"indexed":false,"internalType":"string","name":"role","type":"string"}],"name":"OrganizationJoined","type":"event"},{"anonymous":false,"inputs":[{"indexed":true,"internalType":"string","name":"organizationId","type":"string"},{"indexed":true,"internalType":"address","name":"member","type":"address"}],"name":"OrganizationLeft","type":"event"},{"anonymous":false,"inputs":[{"indexed":true,"internalType":"bytes32","name":"role","type":"bytes32"},{"indexed":true,"internalType":"bytes32","name":"previousAdminRole","type":"bytes32"},{"indexed":true,"internalType":"bytes32","name":"newAdminRole","type":"bytes32"}],"name":"RoleAdminChanged","type":"event"},{"anonymous":false,"inputs":[{"indexed":true,"internalType":"bytes32","name":"role","type":"bytes32"},{"indexed":true,"internalType":"address","name":"account","type":"address"},{"indexed":true,"internalType":"address","name":"sender","type":"address"}],"name":"RoleGranted","type":"event"},{"anonymous":false,"inputs":[{"indexed":true,"internalType":"bytes32","name":"role","type":"bytes32"},{"indexed":true,"internalType":"address","name":"account","type":"address"},{"indexed":true,"internalType":"address","name":"sender","type":"address"}],"name":"RoleRevoked","type":"event"},{"inputs":[],"name":"ADMIN_ROLE","outputs":[{"internalType":"bytes32","name":"","type":"bytes32"}],"stateMutability":"view","type":"function"},{"inputs":[],"name":"AUDITOR_ROLE","outputs":[{"internalType":"bytes32","name":"","type":"bytes32"}],"stateMutability":"view","type":"function"},{"inputs":[],"name":"DEFAULT_ADMIN_ROLE","outputs":[{"internalType":"bytes32","name":"","type":"bytes32"}],"stateMutability":"view","type":"function"},{"inputs":[],"name":"DOCUMENT_MANAGER_ROLE","outputs":[{"internalType":"bytes32","name":"","type":"bytes32"}],"stateMutability":"view","type":"function"},{"inputs":[],"name":"MODERATOR_ROLE","outputs":[{"internalType":"bytes32","name":"","type":"bytes32"}],"stateMutability":"view","type":"function"},{"inputs":[],"name":"USER_ROLE","outputs":[{"internalType":"bytes32","name":"","type":"bytes32"}],"stateMutability":"view","type":"function"},{"inputs":[],"name":"VERIFIER_ROLE","outputs":[{"internalType":"bytes32","name":"","type":"bytes32"}],"stateMutability":"view","type":"function"},{"inputs":[{"internalType":"address","name":"user","type":"address"},{"internalType":"bytes32","name":"role","type":"bytes32"}],"name":"assignUserRole","outputs":[],"stateMutability":"nonpayable","type":"function"},{"inputs":[{"internalType":"address","name":"user","type":"address"},{"internalType":"uint8","name":"requiredLevel","type":"uint8"}],"name":"canPerformAction","outputs":[{"internalType":"bool","name":"","type":"bool"}],"stateMutability":"view","type":"function"},{"inputs":[{"internalType":"uint256","name":"","type":"uint256"},{"internalType":"address","name":"","type":"address"}],"name":"documentAccess","outputs":[{"internalType":"uint256","name":"documentId","type":"uint256"},{"internalType":"address","name":"grantee","type":"address"},{"internalType":"address","name":"grantor","type":"address"},{"internalType":"uint256","name":"expiresAt","type":"uint256"},{"internalType":"bool","name":"canRead","type":"bool"},{"internalType":"bool","name":"canVerify","type":"bool"},{"internalType":"bool","name":"canTransfer","type":"bool"},{"internalType":"uint256","name":"grantedAt","type":"uint256"},{"internalType":"bool","name":"isActive","type":"bool"}],"stateMutability":"view","type":"function"},{"inputs":[{"internalType":"uint256","name":"","type":"uint256"},{"internalType":"uint256","name":"","type":"uint256"}],"name":"documentAccessList","outputs":[{"internalType":"address","name":"","type":"address"}],"stateMutability":"view","type":"function"},{"inputs":[{"internalType":"uint256","name":"documentId","type":"uint256"},{"internalType":"address","name":"user","type":"address"}],"name":"getAccessPermission","outputs":[{"components":[{"internalType":"uint256","name":"documentId","type":"uint256"},{"internalType":"address","name":"grantee","type":"address"},{"internalType":"address","name":"grantor","type":"address"},{"internalType":"uint256","name":"expiresAt","type":"uint256"},{"internalType":"bool","name":"canRead","type":"bool"},{"internalType":"bool","name":"canVerify","type":"bool"},{"internalType":"bool","name":"canTransfer","type":"bool"},{"internalType":"uint256","name":"grantedAt","type":"uint256"},{"internalType":"bool","name":"isActive","type":"bool"}],"internalType":"struct SealGuardAccessControl.AccessPermission","name":"","type":"tuple"}],"stateMutability":"view","type":"function"},{"inputs":[{"internalType":"uint256","name":"documentId","type":"uint256"}],"name":"getDocumentAccessList","outputs":[{"internalType":"address[]","name":"","type":"address[]"}],"stateMutability":"view","type":"function"},{"inputs":[{"internalType":"string","name":"organizationId","type":"string"}],"name":"getOrganizationMembers","outputs":[{"internalType":"address[]","name":"","type":"address[]"}],"stateMutability":"view","type":"function"},{"inputs":[{"internalType":"bytes32","name":"role","type":"bytes32"}],"name":"getRoleAdmin","outputs":[{"internalType":"bytes32","name":"","type":"bytes32"}],"stateMutability":"view","type":"function"},{"inputs":[{"internalType":"address","name":"user","type":"address"}],"name":"getUserOrganizations","outputs":[{"internalType":"string[]","name":"","type":"string[]"}],"stateMutability":"view","type":"function"},{"inputs":[{"internalType":"address","name":"user","type":"address"}],"name":"getUserRole","outputs":[{"internalType":"bytes32","name":"","type":"bytes32"}],"stateMutability":"view","type":"function"},{"inputs":[{"internalType":"uint256","name":"documentId","type":"uint256"},{"internalType":"address","name":"grantee","type":"address"},{"internalType":"uint256","name":"expiresAt","type":"uint256"},{"internalType":"bool","name":"canRead","type":"bool"},{"internalType":"bool","name":"canVerify","type":"bool"},{"internalType":"bool","name":"canTransfer","type":"bool"}],"name":"grantDocumentAccess","outputs":[],"stateMutability":"nonpayable","type":"function"},{"inputs":[{"internalType":"bytes32","name":"role","type":"bytes32"},{"internalType":"address","name":"account","type":"address"}],"name":"grantRole","outputs":[],"stateMutability":"nonpayable","type":"function"},{"inputs":[{"internalType":"uint256","name":"documentId","type":"uint256"},{"internalType":"address","name":"user","type":"address"}],"name":"hasReadAccess","outputs":[{"internalType":"bool","name":"","type":"bool"}],"stateMutability":"view","type":"function"},{"inputs":[{"internalType":"bytes32","name":"role","type":"bytes32"},{"internalType":"address","name":"account","type":"address"}],"name":"hasRole","outputs":[{"internalType":"bool","name":"","type":"bool"}],"stateMutability":"view","type":"function"},{"inputs":[{"internalType":"address","name":"user","type":"address"},{"internalType":"bytes32","name":"requiredRole","type":"bytes32"}],"name":"hasRoleOrHigher","outputs":[{"internalType":"bool","name":"","type":"bool"}],"stateMutability":"view","type":"function"},{"inputs":[{"internalType":"uint256","name":"documentId","type":"uint256"},{"internalType":"address","name":"user","type":"address"}],"name":"hasTransferAccess","outputs":[{"internalType":"bool","name":"","type":"bool"}],"stateMutability":"view","type":"function"},{"inputs":[{"internalType":"uint256","name":"documentId","type":"uint256"},{"internalType":"address","name":"user","type":"address"}],"name":"hasVerifyAccess","outputs":[{"internalType":"bool","name":"","type":"bool"}],"stateMutability":"view","type":"function"},{"inputs":[{"internalType":"string","name":"organizationId","type":"string"},{"internalType":"string","name":"role","type":"string"}],"name":"joinOrganization","outputs":[],"stateMutability":"nonpayable","type":"function"},{"inputs":[{"internalType":"string","name":"organizationId","type":"string"}],"name":"leaveOrganization","outputs":[],"stateMutability":"nonpayable","type":"function"},{"inputs":[{"internalType":"string","name":"","type":"string"},{"internalType":"address","name":"","type":"address"}],"name":"orgMemberDetails","outputs":[{"internalType":"address","name":"member","type":"address"},{"internalType":"string","name":"role","type":"string"},{"internalType":"uint256","name":"joinedAt","type":"uint256"},{"internalType":"bool","name":"isActive","type":"bool"}],"stateMutability":"view","type":"function"},{"inputs":[{"internalType":"string","name":"","type":"string"},{"internalType":"uint256","name":"","type":"uint256"}],"name":"organizationMembers","outputs":[{"internalType":"address","name":"","type":"address"}],"stateMutability":"view","type":"function"},{"inputs":[{"internalType":"bytes32","name":"role","type":"bytes32"},{"internalType":"address","name":"callerConfirmation","type":"address"}],"name":"renounceRole","outputs":[],"stateMutability":"nonpayable","type":"function"},{"inputs":[{"internalType":"uint256","name":"documentId","type":"uint256"},{"internalType":"address","name":"grantee","type":"address"}],"name":"revokeDocumentAccess","outputs":[],"stateMutability":"nonpayable","type":"function"},{"inputs":[{"internalType":"bytes32","name":"role","type":"bytes32"},{"internalType":"address","name":"account","type":"address"}],"name":"revokeRole","outputs":[],"stateMutability":"nonpayable","type":"function"},{"inputs":[{"internalType":"bytes32","name":"","type":"bytes32"}],"name":"roleHierarchy","outputs":[{"internalType":"uint8","name":"","type":"uint8"}],"stateMutability":"view","type":"function"},{"inputs":[{"internalType":"bytes4","name":"interfaceId","type":"bytes4"}],"name":"supportsInterface","outputs":[{"internalType":"bool","name":"","type":"bool"}],"stateMutability":"view","type":"function"},{"inputs":[{"internalType":"address","name":"","type":"address"},{"internalType":"uint256","name":"","type":"uint256"}],"name":"userOrganizations","outputs":[{"internalType":"string","name":"","type":"string"}],"stateMutability":"view","type":"function"},{"inputs":[{"internalType":"address","name":"","type":"address"}],"name":"userRoles","outputs":[{"internalType":"bytes32","name":"","type":"bytes32"}],"stateMutability":"view","type":"function"}],"evm":{"bytecode":{"linkReferences":{},"object":"604060808152346200014f57600180556200001a3362000154565b506200002633620001d4565b50620000323362000265565b506200003e33620002f1565b506200004a336200038e565b5062000056336200041a565b506200006233620004a6565b5060006000805160206200275483398151915281526002602052818082209160ff19926001848254161790556000805160206200279483398151915281528181206002848254161790557f59a1c48e5837ad7a7f3dcedcbe129bf3249ec4fbf651fd4f5e2600ead39fe2f58152818120600384825416179055600080516020620027148339815191528152818120600384825416179055600080516020620027348339815191528152818120600484825416179055600080516020620027748339815191529283825260058383209182541617905533815260036020522055516121c19081620005338239f35b600080fd5b6001600160a01b031660008181527fad3228b676f7d3cd4284a5443f17f1962b36e491b30a40b2405849e597ba5fb5602052604081205490919060ff16620001d057818052816020526040822081835260205260408220600160ff198254161790553391600080516020620026f48339815191528180a4600190565b5090565b6001600160a01b031660008181527f7d7ffb7a348e1c6a02869081a26547b49160dd3df72d1d75a570eb9b698292ec6020526040812054909190600080516020620027748339815191529060ff166200026057808352826020526040832082845260205260408320600160ff19825416179055600080516020620026f4833981519152339380a4600190565b505090565b6001600160a01b031660008181527ff179aafcc4ff8137fca1ef3b9ec4d165f87016ba123e7973fba770bc55e240e36020526040812054909190600080516020620027348339815191529060ff166200026057808352826020526040832082845260205260408320600160ff19825416179055600080516020620026f4833981519152339380a4600190565b6001600160a01b031660008181527f0d2d6a5d08cb5d871289c0a3ca855d9da72909a111c24cce2d5c2b34a20daa5460205260408120549091907f59a1c48e5837ad7a7f3dcedcbe129bf3249ec4fbf651fd4f5e2600ead39fe2f59060ff166200026057808352826020526040832082845260205260408320600160ff19825416179055600080516020620026f4833981519152339380a4600190565b6001600160a01b031660008181527f1da0b5176dfe03406af5a6eed66ca01dda9b45ac4da671c3fa379cb93717ef816020526040812054909190600080516020620027948339815191529060ff166200026057808352826020526040832082845260205260408320600160ff19825416179055600080516020620026f4833981519152339380a4600190565b6001600160a01b031660008181527fbf3b6dd38e3cc808ccaccb8a7923e5b15f6cba5b28de1eb5e0ed78ed1ba901a16020526040812054909190600080516020620027148339815191529060ff166200026057808352826020526040832082845260205260408320600160ff19825416179055600080516020620026f4833981519152339380a4600190565b6001600160a01b031660008181527f61e9d7e5b9ecb953628610c8e8aed5035eb527e78ac991a2d11b46a9539131896020526040812054909190600080516020620027548339815191529060ff166200026057808352826020526040832082845260205260408320600160ff19825416179055600080516020620026f4833981519152339380a460019056fe608060408181526004908136101561001657600080fd5b600092833560e01c90816301ffc9a71461177d575080630b6abe8b1461171157806313119161146116d657806314ebc2d81461162b5780631bc5a1dc14611395578063248a9ca31461136b57806326efadd7146113435780632782085114610a9c5780632859171a146112d65780632f2ff15d146112ae57806336568abe1461126757806339825cf21461123e57806339e32d31146112095780633fef6a5614610f2b5780634db6585114610de557806358cd8ca514610d3c57806369366e5714610d145780636b0cdf1d14610b0f5780636e1d616e14610ad457806374d5e10014610a9c57806375b238fc14610a61578063797669c914610a26578063856e00191461095f57806391d1485414610919578063969772bc146108e8578063a217fddf146108cd578063a260d07f1461087f578063aa097ef014610778578063cffafec21461073d578063d0fb985014610622578063d4b5bf561461058f578063d4ee154314610564578063d547741f14610527578063e7705db6146104e85763f147add0146101a557600080fd5b346104e457602091826003193601126104e057803567ffffffffffffffff81116104dc576101d6903690830161186a565b906101df611b94565b8251928251938581818601966101f681838a6118f2565b81016008815203019020338752855260039460ff86838920015416156104ac5781518181865161022781838b6118f2565b810160088152030190203388528152858288200160ff19815416905581518181865161025481838b6118f2565b81016006815203019020875b81548082101561049e576102748284611915565b90546001600160a01b0392918b1b1c8216331461029b57505061029690612046565b610260565b60009991929394959697989919810190811161048b576102f4928594926102c86102d5936102f998611915565b9054911b1c169184611915565b90919082549060031b9160018060a01b03809116831b921b1916179055565b61206b565b3386526007815281862091865b83548082101561047e5761032c6103336103208488611915565b5085519283809261197d565b0382611848565b8481519101208751892014610351575061034c90612046565b610306565b92939495965090506000199182810190811161046b5761037461037c9186611915565b509185611915565b610459579061038a916120ae565b8254801561044657019261039e8484611915565b919091610434575090816103b3879354611943565b806103f4575b50505050555b6103c93391612026565b7f9fdbd38db638563dfdf213622a60ee0d000ebabad5efa2807bde424e404f2db88380a36001805580f35b83601f808311600114610411575050509050555b833880806103b9565b839294829461042d93528420940160051c840160018501611f02565b5555610408565b634e487b7160e01b8752869052602486fd5b634e487b7160e01b875260318552602487fd5b634e487b7160e01b8852878652602488fd5b634e487b7160e01b885260118652602488fd5b50505050505090506103bf565b634e487b7160e01b8b526011885260248bfd5b5050509091929394506102f9565b905162461bcd60e51b815291820152600c60248201526b2737ba10309036b2b6b132b960a11b6044820152606490fd5b8480fd5b8380fd5b8280fd5b838234610523578160031936011261052357602090517f0ce23c3e399818cfee81a7ab0880f714e53d7672b08df0fa62f2843416e1ea098152f35b5080fd5b50346104e457806003193601126104e457610560913561055b600161054a6118c6565b938387528660205286200154611a38565b611afa565b5080f35b5090346104e45760203660031901126104e4578160209360ff92358152600285522054169051908152f35b50913461061f578260031936011261061f576105a96118dc565b6001600160a01b031681526007602052828120805460243591908210156104e457906105d491611915565b92909261060d57835161060990856105f7826105f0818961197d565b0383611848565b51918291602083526020830190611a13565b0390f35b634e487b7160e01b8252819052602490fd5b80fd5b50346104e457806003193601126104e45761063b6118dc565b602435927fa49807205ce4d355092ef5a8a18f56e8913cf4a201fbe287825b095693c2177591828652602092868452848720338852845260ff85882054161561071f57506001600160a01b0381169182156106e55750906106ca60039392868852600284526106b160ff878a2054161515611e47565b8288528484528588205481816106d4575b505086611a7c565b5085525282205580f35b6106dd91611afa565b5038816106c2565b845162461bcd60e51b81529081018490526014602482015273496e76616c69642075736572206164647265737360601b6044820152606490fd5b845163e2517d3f60e01b815233818501526024810191909152604490fd5b838234610523578160031936011261052357602090517f5520d115ceffb88f02315d646cd7618d18024f657afe794865243ed5b75fb04f8152f35b5091903461052357602090816003193601126104e4576001600160a01b0361079e6118dc565b168352600782528383209182549167ffffffffffffffff831161086c575092908451906107d0858260051b0183611848565b8082528482018094845285842084915b83831061084157505050508451938085019181865251809252858501958260051b8601019392955b8287106108155785850386f35b909192938280610831600193603f198a82030186528851611a13565b9601920196019592919092610808565b60018881928b9a97989a5161085a8161032c818961197d565b815201920192019190969493966107e0565b634e487b7160e01b855260419052602484fd5b50823461061f578160031936011261061f5760243592358152600560205281812090815484101561061f57506020926108b791611915565b905491519160018060a01b039160031b1c168152f35b83823461052357816003193601126105235751908152602090f35b50823461061f578160031936011261061f57506109106020926109096118c6565b9035611d8c565b90519015158152f35b5090346104e457816003193601126104e4578160209360ff9261093a6118c6565b903582528186528282206001600160a01b039091168252855220549151911615158152f35b5090346104e457816003193601126104e457803567ffffffffffffffff81116104e05782916109909136910161186a565b926109b1602061099e6118c6565b95818551938285809451938492016118f2565b6008908201908152030190206001600160a01b0394851682526020522080548251931691906109ee846109e7816001850161197d565b0385611848565b60ff600360028301549201541690610a1783519586958652608060208701526080860190611a13565b92840152151560608301520390f35b838234610523578160031936011261052357602090517f71f3d55856e4058ed06ee057d79ada615f65cdf5f9ee88181b914225088f834f8152f35b838234610523578160031936011261052357602090517fa49807205ce4d355092ef5a8a18f56e8913cf4a201fbe287825b095693c217758152f35b8382346105235760203660031901126105235760209181906001600160a01b03610ac46118dc565b1681526003845220549051908152f35b838234610523578160031936011261052357602090517f59a1c48e5837ad7a7f3dcedcbe129bf3249ec4fbf651fd4f5e2600ead39fe2f58152f35b50346104e457806003193601126104e457813590610b2b6118c6565b610b33611b94565b7f5520d115ceffb88f02315d646cd7618d18024f657afe794865243ed5b75fb04f8552602091858352808620338752835260ff81872054168015610d0d575b8015610ce4575b15610ca2578386528483528086206001600160a01b03928316808852908452818720600601805491949160ff811615610c6a5760ff1916905584875260059052852090855b825480821015610c5e57829085610bd58487611915565b939054600394851b1c1614610bf4575050610bef90612046565b610bbe565b9091939495966000198201918211610c4b57506102f4928594926102c86102d593610c1e98611915565b33917f260547d4038414ef72f081dcde91825693dff9bc433178f3e92ad36e0cd227508480a46001805580f35b634e487b7160e01b895260119052602488fd5b50505050909150610c1e565b835162461bcd60e51b815280890184905260126024820152711058d8d95cdcc81b9bdd0819dc985b9d195960721b6044820152606490fd5b5162461bcd60e51b8152808501839052601f60248201527f4e6f7420617574686f72697a656420746f207265766f6b6520616363657373006044820152606490fd5b508386528483528086206001600160a01b03838116885290845281872060020154163314610b79565b5085610b72565b50823461061f578160031936011261061f5750610910602092610d356118c6565b9035611bb7565b50346104e457806003193601126104e457918260ff61012094610d5d6118c6565b93853581528560205281812060018060a01b03809616825260205220918254948460018501541694600285015416600385015491850154928460066005880154970154169681519889526020890152870152606086015281811615156080860152818160081c16151560a086015260101c16151560c084015260e08301521515610100820152f35b50919034610523578260031936011261052357610e006118c6565b83805193610e0d85611815565b80855280602086015280828601528060608601528060808601528060a08601528060c08601528060e086015280610100809601528335815283602052818120600160a01b6001900380941682526020522090845192610e6b84611815565b82549586855282600185015416916020860192835283600286015416918087019283526003860154916060880192835286015494608088019360ff8716151585528160a08a01968860081c60ff161515885260c08b019860101c60ff16151589528b60058b01549a60e08d019b8c526006015460ff169b019a15158b5284519c8d52511660208c0152511690890152516060880152511515608087015251151560a086015251151560c08501525160e08401525115159082015261012090f35b5090346104e45760c03660031901126104e4578035610f486118c6565b916044359360643590811515820361120557608435948515158096036112015760a435928315158094036111fd57610f7e611b94565b6001600160a01b0382169687156111ba57338814611177577f5520d115ceffb88f02315d646cd7618d18024f657afe794865243ed5b75fb04f8a526020948a8652848b20338c52865260ff858c2054168015611170575b1561112d57908a9392918a6110cf575b6110787f9ffcf664651d52310aeb78c0f8382ca5078d2de7d3cf618cb5ce6e5cabf00992988a87528089528787208c885289528a8888209689600689019960ff8b5416156110b5575b5050508655600186016bffffffffffffffffffffffff60a01b908d82825416179055600287019033908254161790558c6003870155850193849060ff801983541691151516179055565b61ff0062ff000084549260101b169260081b169062ffff00191617179055600542910155600160ff19825416179055519485523394a46001805580f35b6110c593815260058d5220611b6f565b8a388f8a9061102e565b91935091939495428a11156110ea57959493918a9391610fe5565b855162461bcd60e51b8152908101879052601d60248201527f4578706972792074696d65206d75737420626520696e206675747572650000006044820152606490fd5b845162461bcd60e51b8152808801879052601e60248201527f4e6f7420617574686f72697a656420746f206772616e742061636365737300006044820152606490fd5b508a610fd5565b835162461bcd60e51b8152602081880152601b60248201527f43616e6e6f74206772616e742061636365737320746f2073656c6600000000006044820152606490fd5b835162461bcd60e51b8152602081880152601760248201527f496e76616c6964206772616e74656520616464726573730000000000000000006044820152606490fd5b8880fd5b8780fd5b8680fd5b8382346105235780600319360112610523576112236118dc565b6024359260ff8416840361061f575060209261091091611ec4565b83823461052357806003193601126105235760209061091061125e6118dc565b60243590611e82565b508290346105235780600319360112610523576112826118c6565b90336001600160a01b0383160361129f5750610560919235611afa565b5163334bd91960e11b81528390fd5b50346104e457806003193601126104e45761056091356112d1600161054a6118c6565b611a7c565b5090346104e457816003193601126104e45780359067ffffffffffffffff82116104e0576113069136910161186a565b91611322602060243594818551938285809451938492016118f2565b8101600681520301902090815484101561061f57506020926108b791611915565b50823461061f578160031936011261061f57506109106020926113646118c6565b9035611c8e565b5090346104e45760203660031901126104e457816020936001923581528085522001549051908152f35b50346104e457806003193601126104e45767ffffffffffffffff9180358381116104dc576113c6903690830161186a565b6024918235858111611205576113df903690830161186a565b926113e8611b94565b8251156115e9576113fb84511515611e47565b8451958351916020978881818801956114158183896118f2565b81016008815203019020338a52885260ff6003888b200154166115b557611458875186516114448183886118f2565b810190600682528a81339303019020611b6f565b33895260078852868920805490600160401b8210156115a3579061148191600182018155611915565b611592578561148f91611f5e565b8651936080850192831185841017611581575050926115607f39e664301c7d6a710381efac98d5565f2f5d7cbb1cd7366f352467896a809b439593600361156594611577978a523383528a6115448d8c838701918b83528188019442865261150b8160608b019860018a528d86519384928392519283916118f2565b600890820190815203019020338352905220955186546001600160a01b0319166001600160a01b03919091161786555160018601611f5e565b51600284015551151591019060ff801983541691151516179055565b612026565b93519182918683523396830190611a13565b0390a36001805580f35b634e487b7160e01b8a526041905288fd5b50634e487b7160e01b895288845288fd5b634e487b7160e01b8b5260418652828bfd5b8360106064928a8a519362461bcd60e51b85528401528201526f20b63932b0b23c90309036b2b6b132b960811b6044820152fd5b906017606492602087519362461bcd60e51b85528401528201527f496e76616c6964206f7267616e697a6174696f6e2049440000000000000000006044820152fd5b50346104e457602091826003193601126104e05780359067ffffffffffffffff82116104dc5761166284916116749336910161186a565b818451938285809451938492016118f2565b810160068152030190209281518093808654928381520195835280832092905b8282106116b65761060986866116ac828b0383611848565b51918291826117d1565b83546001600160a01b031687529586019560019384019390910190611694565b838234610523578160031936011261052357602090517f14823911f2da1b49f045a0929a60b8c1f2a7fc8c06c7284ca3e8ab4e193a08c88152f35b50346104e457602091826003193601126104e057358352600582528083209281518093808654928381520195835280832092905b82821061175d5761060986866116ac828b0383611848565b83546001600160a01b031687529586019560019384019390910190611745565b849084346104e45760203660031901126104e4573563ffffffff60e01b81168091036104e45760209250637965db0b60e01b81149081156117c0575b5015158152f35b6301ffc9a760e01b149050836117b9565b6020908160408183019282815285518094520193019160005b8281106117f8575050505090565b83516001600160a01b0316855293810193928101926001016117ea565b610120810190811067ffffffffffffffff82111761183257604052565b634e487b7160e01b600052604160045260246000fd5b90601f8019910116810190811067ffffffffffffffff82111761183257604052565b81601f820112156118c15780359067ffffffffffffffff8211611832576040519261189f601f8401601f191660200185611848565b828452602083830101116118c157816000926020809301838601378301015290565b600080fd5b602435906001600160a01b03821682036118c157565b600435906001600160a01b03821682036118c157565b60005b8381106119055750506000910152565b81810151838201526020016118f5565b805482101561192d5760005260206000200190600090565b634e487b7160e01b600052603260045260246000fd5b90600182811c92168015611973575b602083101461195d57565b634e487b7160e01b600052602260045260246000fd5b91607f1691611952565b906000929180549161198e83611943565b9182825260019384811690816000146119f057506001146119b0575b50505050565b90919394506000526020928360002092846000945b8386106119dc5750505050010190388080806119aa565b8054858701830152940193859082016119c5565b9294505050602093945060ff191683830152151560051b010190388080806119aa565b90602091611a2c815180928185528580860191016118f2565b601f01601f1916010190565b80600052600060205260406000203360005260205260ff6040600020541615611a5e5750565b6044906040519063e2517d3f60e01b82523360048301526024820152fd5b9060009180835282602052604083209160018060a01b03169182845260205260ff60408420541615600014611af557808352826020526040832082845260205260408320600160ff198254161790557f2f8788117e7eff1d82e926ec794901d17c78024a50270940304540a733656f0d339380a4600190565b505090565b9060009180835282602052604083209160018060a01b03169182845260205260ff604084205416600014611af55780835282602052604083208284526020526040832060ff1981541690557ff6391f5c32d9c69d2a47ea670b442974b53935d1edc7fd64eb21e047a839171b339380a4600190565b90815491600160401b83101561183257826102d5916001611b9295018155611915565b565b600260015414611ba5576002600155565b604051633ee5aeb560e01b8152600490fd5b90600091825260046020526040822060018060a01b0380921683526020526101006040832060405192611be984611815565b81548452806001830154166020850152600282015416604084015260038101549283606082015260ff600660048401549382808616159586156080870152818160081c16151560a087015260101c16151560c0850152600581015460e085015201541615908115938491015291611c86575b50611c82578015159081611c78575b50611c755750600190565b90565b9050421138611c6a565b5090565b905038611c5b565b6001600160a01b0391821660008181527f1da0b5176dfe03406af5a6eed66ca01dda9b45ac4da671c3fa379cb93717ef8160205260408082205491949392909160ff16611d8257610100928552600460205281852090855260205280842090805193611cf985611815565b825485528060018401541660208601526002830154169084015260038101549283606082015260ff60066004840154938285161515608085015282808660081c161595861560a087015260101c16151560c0850152600581015460e085015201541615908115938491015291611c865750611c82578015159081611c785750611c755750600190565b5050505050600190565b90600091825260046020526040822060018060a01b0380921683526020526101006040832060405192611dbe84611815565b81548452806001830154166020850152600282015416604084015260038101549283606082015260ff600681600485015481811615156080860152818160081c16151560a086015260101c161593841560c0850152600581015460e085015201541615908115938491015291611c865750611c82578015159081611c785750611c755750600190565b15611e4e57565b60405162461bcd60e51b815260206004820152600c60248201526b496e76616c696420726f6c6560a01b6044820152606490fd5b6001600160a01b03166000908152600360205260408120548015611ebe578160409160ff93526002602052828282205416938152205416111590565b50905090565b6001600160a01b03166000908152600360205260409020548015611efb57600052600260205260ff80604060002054169116111590565b5050600090565b818110611f0d575050565b60008155600101611f02565b9190601f8111611f2857505050565b611b92926000526020600020906020601f840160051c83019310611f54575b601f0160051c0190611f02565b9091508190611f47565b919091825167ffffffffffffffff811161183257611f8681611f808454611943565b84611f19565b602080601f8311600114611fc2575081929394600092611fb7575b50508160011b916000199060031b1c1916179055565b015190503880611fa1565b90601f198316958460005282600020926000905b88821061200e57505083600195969710611ff5575b505050811b019055565b015160001960f88460031b161c19169055388080611feb565b80600185968294968601518155019501930190611fd6565b61203e906020604051928284809451938492016118f2565b810103902090565b60001981146120555760010190565b634e487b7160e01b600052601160045260246000fd5b805480156120985760001901906120828282611915565b81549060018060a01b039060031b1b1916905555565b634e487b7160e01b600052603160045260246000fd5b90808214612187576120c08154611943565b9067ffffffffffffffff82116118325781906120e6826120e08654611943565b86611f19565b600090601f831160011461211c576000926121115750508160011b916000199060031b1c1916179055565b015490503880611fa1565b81526020808220858352818320935090601f1985169083905b82821061216e57505090846001959493921061215557505050811b019055565b015460001960f88460031b161c19169055388080611feb565b8495819295850154815560018091019601940190612135565b505056fea26469706673582212205c6313bc149d5dd49d9494fba6720cfd75e764c0d84d32c24c084b2cc0d845df64736f6c634300081400332f8788117e7eff1d82e926ec794901d17c78024a50270940304540a733656f0d5520d115ceffb88f02315d646cd7618d18024f657afe794865243ed5b75fb04f71f3d55856e4058ed06ee057d79ada615f65cdf5f9ee88181b914225088f834f14823911f2da1b49f045a0929a60b8c1f2a7fc8c06c7284ca3e8ab4e193a08c8a49807205ce4d355092ef5a8a18f56e8913cf4a201fbe287825b095693c217750ce23c3e399818cfee81a7ab0880f714e53d7672b08df0fa62f2843416e1ea09","opcodes":"PUSH1 0x40 PUSH1 0x80 DUP2 MSTORE CALLVALUE PUSH3 0x14F JUMPI PUSH1 0x1 DUP1 SSTORE PUSH3 0x1A CALLER PUSH3 0x154 JUMP JUMPDEST POP PUSH3 0x26 CALLER PUSH3 0x1D4 JUMP JUMPDEST POP PUSH3 0x32 CALLER PUSH3 0x265 JUMP JUMPDEST POP PUSH3 0x3E CALLER PUSH3 0x2F1 JUMP JUMPDEST POP PUSH3 0x4A CALLER PUSH3 0x38E JUMP JUMPDEST POP PUSH3 0x56 CALLER PUSH3 0x41A JUMP JUMPDEST POP PUSH3 0x62 CALLER PUSH3 0x4A6 JUMP JUMPDEST POP PUSH1 0x0 PUSH1 0x0 DUP1 MLOAD PUSH1 0x20 PUSH3 0x2754 DUP4 CODECOPY DUP2 MLOAD SWAP2 MSTORE DUP2 MSTORE PUSH1 0x2 PUSH1 0x20 MSTORE DUP2 DUP1 DUP3 KECCAK256 SWAP2 PUSH1 0xFF NOT SWAP3 PUSH1 0x1 DUP5 DUP3 SLOAD AND OR SWAP1 SSTORE PUSH1 0x0 DUP1 MLOAD PUSH1 0x20 PUSH3 0x2794 DUP4 CODECOPY DUP2 MLOAD SWAP2 MSTORE DUP2 MSTORE DUP2 DUP2 KECCAK256 PUSH1 0x2 DUP5 DUP3 SLOAD AND OR SWAP1 SSTORE PUSH32 0x59A1C48E5837AD7A7F3DCEDCBE129BF3249EC4FBF651FD4F5E2600EAD39FE2F5 DUP2 MSTORE DUP2 DUP2 KECCAK256 PUSH1 0x3 DUP5 DUP3 SLOAD AND OR SWAP1 SSTORE PUSH1 0x0 DUP1 MLOAD PUSH1 0x20 PUSH3 0x2714 DUP4 CODECOPY DUP2 MLOAD SWAP2 MSTORE DUP2 MSTORE DUP2 DUP2 KECCAK256 PUSH1 0x3 DUP5 DUP3 SLOAD AND OR SWAP1 SSTORE PUSH1 0x0 DUP1 MLOAD PUSH1 0x20 PUSH3 0x2734 DUP4 CODECOPY DUP2 MLOAD SWAP2 MSTORE DUP2 MSTORE DUP2 DUP2 KECCAK256 PUSH1 0x4 DUP5 DUP3 SLOAD AND OR SWAP1 SSTORE PUSH1 0x0 DUP1 MLOAD PUSH1 0x20 PUSH3 0x2774 DUP4 CODECOPY DUP2 MLOAD SWAP2 MSTORE SWAP3 DUP4 DUP3 MSTORE PUSH1 0x5 DUP4 DUP4 KECCAK256 SWAP2 DUP3 SLOAD AND OR SWAP1 SSTORE CALLER DUP2 MSTORE PUSH1 0x3 PUSH1 0x20 MSTORE KECCAK256 SSTORE MLOAD PUSH2 0x21C1 SWAP1 DUP2 PUSH3 0x533 DUP3 CODECOPY RETURN JUMPDEST PUSH1 0x0 DUP1 REVERT JUMPDEST PUSH1 0x1 PUSH1 0x1 PUSH1 0xA0 SHL SUB AND PUSH1 0x0 DUP2 DUP2 MSTORE PUSH32 0xAD3228B676F7D3CD4284A5443F17F1962B36E491B30A40B2405849E597BA5FB5 PUSH1 0x20 MSTORE PUSH1 0x40 DUP2 KECCAK256 SLOAD SWAP1 SWAP2 SWAP1 PUSH1 0xFF AND PUSH3 0x1D0 JUMPI DUP2 DUP1 MSTORE DUP2 PUSH1 0x20 MSTORE PUSH1 0x40 DUP3 KECCAK256 DUP2 DUP4 MSTORE PUSH1 0x20 MSTORE PUSH1 0x40 DUP3 KECCAK256 PUSH1 0x1 PUSH1 0xFF NOT DUP3 SLOAD AND OR SWAP1 SSTORE CALLER SWAP2 PUSH1 0x0 DUP1 MLOAD PUSH1 0x20 PUSH3 0x26F4 DUP4 CODECOPY DUP2 MLOAD SWAP2 MSTORE DUP2 DUP1 LOG4 PUSH1 0x1 SWAP1 JUMP JUMPDEST POP SWAP1 JUMP JUMPDEST PUSH1 0x1 PUSH1 0x1 PUSH1 0xA0 SHL SUB AND PUSH1 0x0 DUP2 DUP2 MSTORE PUSH32 0x7D7FFB7A348E1C6A02869081A26547B49160DD3DF72D1D75A570EB9B698292EC PUSH1 0x20 MSTORE PUSH1 0x40 DUP2 KECCAK256 SLOAD SWAP1 SWAP2 SWAP1 PUSH1 0x0 DUP1 MLOAD PUSH1 0x20 PUSH3 0x2774 DUP4 CODECOPY DUP2 MLOAD SWAP2 MSTORE SWAP1 PUSH1 0xFF AND PUSH3 0x260 JUMPI DUP1 DUP4 MSTORE DUP3 PUSH1 0x20 MSTORE PUSH1 0x40 DUP4 KECCAK256 DUP3 DUP5 MSTORE PUSH1 0x20 MSTORE PUSH1 0x40 DUP4 KECCAK256 PUSH1 0x1 PUSH1 0xFF NOT DUP3 SLOAD AND OR SWAP1 SSTORE PUSH1 0x0 DUP1 MLOAD PUSH1 0x20 PUSH3 0x26F4 DUP4 CODECOPY DUP2 MLOAD SWAP2 MSTORE CALLER SWAP4 DUP1 LOG4 PUSH1 0x1 SWAP1 JUMP JUMPDEST POP POP SWAP1 JUMP JUMPDEST PUSH1 0x1 PUSH1 0x1 PUSH1 0xA0 SHL SUB AND PUSH1 0x0 DUP2 DUP2 MSTORE PUSH32 0xF179AAFCC4FF8137FCA1EF3B9EC4D165F87016BA123E7973FBA770BC55E240E3 PUSH1 0x20 MSTORE PUSH1 0x40 DUP2 KECCAK256 SLOAD SWAP1 SWAP2 SWAP1 PUSH1 0x0 DUP1 MLOAD PUSH1 0x20 PUSH3 0x2734 DUP4 CODECOPY DUP2 MLOAD SWAP2 MSTORE SWAP1 PUSH1 0xFF AND PUSH3 0x260 JUMPI DUP1 DUP4 MSTORE DUP3 PUSH1 0x20 MSTORE PUSH1 0x40 DUP4 KECCAK256 DUP3 DUP5 MSTORE PUSH1 0x20 MSTORE PUSH1 0x40 DUP4 KECCAK256 PUSH1 0x1 PUSH1 0xFF NOT DUP3 SLOAD AND OR SWAP1 SSTORE PUSH1 0x0 DUP1 MLOAD PUSH1 0x20 PUSH3 0x26F4 DUP4 CODECOPY DUP2 MLOAD SWAP2 MSTORE CALLER SWAP4 DUP1 LOG4 PUSH1 0x1 SWAP1 JUMP JUMPDEST PUSH1 0x1 PUSH1 0x1 PUSH1 0xA0 SHL SUB AND PUSH1 0x0 DUP2 DUP2 MSTORE PUSH32 0xD2D6A5D08CB5D871289C0A3CA855D9DA72909A111C24CCE2D5C2B34A20DAA54 PUSH1 0x20 MSTORE PUSH1 0x40 DUP2 KECCAK256 SLOAD SWAP1 SWAP2 SWAP1 PUSH32 0x59A1C48E5837AD7A7F3DCEDCBE129BF3249EC4FBF651FD4F5E2600EAD39FE2F5 SWAP1 PUSH1 0xFF AND PUSH3 0x260 JUMPI DUP1 DUP4 MSTORE DUP3 PUSH1 0x20 MSTORE PUSH1 0x40 DUP4 KECCAK256 DUP3 DUP5 MSTORE PUSH1 0x20 MSTORE PUSH1 0x40 DUP4 KECCAK256 PUSH1 0x1 PUSH1 0xFF NOT DUP3 SLOAD AND OR SWAP1 SSTORE PUSH1 0x0 DUP1 MLOAD PUSH1 0x20 PUSH3 0x26F4 DUP4 CODECOPY DUP2 MLOAD SWAP2 MSTORE CALLER SWAP4 DUP1 LOG4 PUSH1 0x1 SWAP1 JUMP JUMPDEST PUSH1 0x1 PUSH1 0x1 PUSH1 0xA0 SHL SUB AND PUSH1 0x0 DUP2 DUP2 MSTORE PUSH32 0x1DA0B5176DFE03406AF5A6EED66CA01DDA9B45AC4DA671C3FA379CB93717EF81 PUSH1 0x20 MSTORE PUSH1 0x40 DUP2 KECCAK256 SLOAD SWAP1 SWAP2 SWAP1 PUSH1 0x0 DUP1 MLOAD PUSH1 0x20 PUSH3 0x2794 DUP4 CODECOPY DUP2 MLOAD SWAP2 MSTORE SWAP1 PUSH1 0xFF AND PUSH3 0x260 JUMPI DUP1 DUP4 MSTORE DUP3 PUSH1 0x20 MSTORE PUSH1 0x40 DUP4 KECCAK256 DUP3 DUP5 MSTORE PUSH1 0x20 MSTORE PUSH1 0x40 DUP4 KECCAK256 PUSH1 0x1 PUSH1 0xFF NOT DUP3 SLOAD AND OR SWAP1 SSTORE PUSH1 0x0 DUP1 MLOAD PUSH1 0x20 PUSH3 0x26F4 DUP4 CODECOPY DUP2 MLOAD SWAP2 MSTORE CALLER SWAP4 DUP1 LOG4 PUSH1 0x1 SWAP1 JUMP JUMPDEST PUSH1 0x1 PUSH1 0x1 PUSH1 0xA0 SHL SUB AND PUSH1 0x0 DUP2 DUP2 MSTORE PUSH32 0xBF3B6DD38E3CC808CCACCB8A7923E5B15F6CBA5B28DE1EB5E0ED78ED1BA901A1 PUSH1 0x20 MSTORE PUSH1 0x40 DUP2 KECCAK256 SLOAD SWAP1 SWAP2 SWAP1 PUSH1 0x0 DUP1 MLOAD PUSH1 0x20 PUSH3 0x2714 DUP4 CODECOPY DUP2 MLOAD SWAP2 MSTORE SWAP1 PUSH1 0xFF AND PUSH3 0x260 JUMPI DUP1 DUP4 MSTORE DUP3 PUSH1 0x20 MSTORE PUSH1 0x40 DUP4 KECCAK256 DUP3 DUP5 MSTORE PUSH1 0x20 MSTORE PUSH1 0x40 DUP4 KECCAK256 PUSH1 0x1 PUSH1 0xFF NOT DUP3 SLOAD AND OR SWAP1 SSTORE PUSH1 0x0 DUP1 MLOAD PUSH1 0x20 PUSH3 0x26F4 DUP4 CODECOPY DUP2 MLOAD SWAP2 MSTORE CALLER SWAP4 DUP1 LOG4 PUSH1 0x1 SWAP1 JUMP JUMPDEST PUSH1 0x1 PUSH1 0x1 PUSH1 0xA0 SHL SUB AND PUSH1 0x0 DUP2 DUP2 MSTORE PUSH32 0x61E9D7E5B9ECB953628610C8E8AED5035EB527E78AC991A2D11B46A953913189 PUSH1 0x20 MSTORE PUSH1 0x40 DUP2 KECCAK256 SLOAD SWAP1 SWAP2 SWAP1 PUSH1 0x0 DUP1 MLOAD PUSH1 0x20 PUSH3 0x2754 DUP4 CODECOPY DUP2 MLOAD SWAP2 MSTORE SWAP1 PUSH1 0xFF AND PUSH3 0x260 JUMPI DUP1 DUP4 MSTORE DUP3 PUSH1 0x20 MSTORE PUSH1 0x40 DUP4 KECCAK256 DUP3 DUP5 MSTORE PUSH1 0x20 MSTORE PUSH1 0x40 DUP4 KECCAK256 PUSH1 0x1 PUSH1 0xFF NOT DUP3 SLOAD AND OR SWAP1 SSTORE PUSH1 0x0 DUP1 MLOAD PUSH1 0x20 PUSH3 0x26F4 DUP4 CODECOPY DUP2 MLOAD SWAP2 MSTORE CALLER SWAP4 DUP1 LOG4 PUSH1 0x1 SWAP1 JUMP INVALID PUSH1 0x80 PUSH1 0x40 DUP2 DUP2 MSTORE PUSH1 0x4 SWAP1 DUP2 CALLDATASIZE LT ISZERO PUSH2 0x16 JUMPI PUSH1 0x0 DUP1 REVERT JUMPDEST PUSH1 0x0 SWAP3 DUP4 CALLDATALOAD PUSH1 0xE0 SHR SWAP1 DUP2 PUSH4 0x1FFC9A7 EQ PUSH2 0x177D JUMPI POP DUP1 PUSH4 0xB6ABE8B EQ PUSH2 0x1711 JUMPI DUP1 PUSH4 0x13119161 EQ PUSH2 0x16D6 JUMPI DUP1 PUSH4 0x14EBC2D8 EQ PUSH2 0x162B JUMPI DUP1 PUSH4 0x1BC5A1DC EQ PUSH2 0x1395 JUMPI DUP1 PUSH4 0x248A9CA3 EQ PUSH2 0x136B JUMPI DUP1 PUSH4 0x26EFADD7 EQ PUSH2 0x1343 JUMPI DUP1 PUSH4 0x27820851 EQ PUSH2 0xA9C JUMPI DUP1 PUSH4 0x2859171A EQ PUSH2 0x12D6 JUMPI DUP1 PUSH4 0x2F2FF15D EQ PUSH2 0x12AE JUMPI DUP1 PUSH4 0x36568ABE EQ PUSH2 0x1267 JUMPI DUP1 PUSH4 0x39825CF2 EQ PUSH2 0x123E JUMPI DUP1 PUSH4 0x39E32D31 EQ PUSH2 0x1209 JUMPI DUP1 PUSH4 0x3FEF6A56 EQ PUSH2 0xF2B JUMPI DUP1 PUSH4 0x4DB65851 EQ PUSH2 0xDE5 JUMPI DUP1 PUSH4 0x58CD8CA5 EQ PUSH2 0xD3C JUMPI DUP1 PUSH4 0x69366E57 EQ PUSH2 0xD14 JUMPI DUP1 PUSH4 0x6B0CDF1D EQ PUSH2 0xB0F JUMPI DUP1 PUSH4 0x6E1D616E EQ PUSH2 0xAD4 JUMPI DUP1 PUSH4 0x74D5E100 EQ PUSH2 0xA9C JUMPI DUP1 PUSH4 0x75B238FC EQ PUSH2 0xA61 JUMPI DUP1 PUSH4 0x797669C9 EQ PUSH2 0xA26 JUMPI DUP1 PUSH4 0x856E0019 EQ PUSH2 0x95F JUMPI DUP1 PUSH4 0x91D14854 EQ PUSH2 0x919 JUMPI DUP1 PUSH4 0x969772BC EQ PUSH2 0x8E8 JUMPI DUP1 PUSH4 0xA217FDDF EQ PUSH2 0x8CD JUMPI DUP1 PUSH4 0xA260D07F EQ PUSH2 0x87F JUMPI DUP1 PUSH4 0xAA097EF0 EQ PUSH2 0x778 JUMPI DUP1 PUSH4 0xCFFAFEC2 EQ PUSH2 0x73D JUMPI DUP1 PUSH4 0xD0FB9850 EQ PUSH2 0x622 JUMPI DUP1 PUSH4 0xD4B5BF56 EQ PUSH2 0x58F JUMPI DUP1 PUSH4 0xD4EE1543 EQ PUSH2 0x564 JUMPI DUP1 PUSH4 0xD547741F EQ PUSH2 0x527 JUMPI DUP1 PUSH4 0xE7705DB6 EQ PUSH2 0x4E8 JUMPI PUSH4 0xF147ADD0 EQ PUSH2 0x1A5 JUMPI PUSH1 0x0 DUP1 REVERT JUMPDEST CALLVALUE PUSH2 0x4E4 JUMPI PUSH1 0x20 SWAP2 DUP3 PUSH1 0x3 NOT CALLDATASIZE ADD SLT PUSH2 0x4E0 JUMPI DUP1 CALLDATALOAD PUSH8 0xFFFFFFFFFFFFFFFF DUP2 GT PUSH2 0x4DC JUMPI PUSH2 0x1D6 SWAP1 CALLDATASIZE SWAP1 DUP4 ADD PUSH2 0x186A JUMP JUMPDEST SWAP1 PUSH2 0x1DF PUSH2 0x1B94 JUMP JUMPDEST DUP3 MLOAD SWAP3 DUP3 MLOAD SWAP4 DUP6 DUP2 DUP2 DUP7 ADD SWAP7 PUSH2 0x1F6 DUP2 DUP4 DUP11 PUSH2 0x18F2 JUMP JUMPDEST DUP2 ADD PUSH1 0x8 DUP2 MSTORE SUB ADD SWAP1 KECCAK256 CALLER DUP8 MSTORE DUP6 MSTORE PUSH1 0x3 SWAP5 PUSH1 0xFF DUP7 DUP4 DUP10 KECCAK256 ADD SLOAD AND ISZERO PUSH2 0x4AC JUMPI DUP2 MLOAD DUP2 DUP2 DUP7 MLOAD PUSH2 0x227 DUP2 DUP4 DUP12 PUSH2 0x18F2 JUMP JUMPDEST DUP2 ADD PUSH1 0x8 DUP2 MSTORE SUB ADD SWAP1 KECCAK256 CALLER DUP9 MSTORE DUP2 MSTORE DUP6 DUP3 DUP9 KECCAK256 ADD PUSH1 0xFF NOT DUP2 SLOAD AND SWAP1 SSTORE DUP2 MLOAD DUP2 DUP2 DUP7 MLOAD PUSH2 0x254 DUP2 DUP4 DUP12 PUSH2 0x18F2 JUMP JUMPDEST DUP2 ADD PUSH1 0x6 DUP2 MSTORE SUB ADD SWAP1 KECCAK256 DUP8 JUMPDEST DUP2 SLOAD DUP1 DUP3 LT ISZERO PUSH2 0x49E JUMPI PUSH2 0x274 DUP3 DUP5 PUSH2 0x1915 JUMP JUMPDEST SWAP1 SLOAD PUSH1 0x1 PUSH1 0x1 PUSH1 0xA0 SHL SUB SWAP3 SWAP2 DUP12 SHL SHR DUP3 AND CALLER EQ PUSH2 0x29B JUMPI POP POP PUSH2 0x296 SWAP1 PUSH2 0x2046 JUMP JUMPDEST PUSH2 0x260 JUMP JUMPDEST PUSH1 0x0 SWAP10 SWAP2 SWAP3 SWAP4 SWAP5 SWAP6 SWAP7 SWAP8 SWAP9 SWAP10 NOT DUP2 ADD SWAP1 DUP2 GT PUSH2 0x48B JUMPI PUSH2 0x2F4 SWAP3 DUP6 SWAP5 SWAP3 PUSH2 0x2C8 PUSH2 0x2D5 SWAP4 PUSH2 0x2F9 SWAP9 PUSH2 0x1915 JUMP JUMPDEST SWAP1 SLOAD SWAP2 SHL SHR AND SWAP2 DUP5 PUSH2 0x1915 JUMP JUMPDEST SWAP1 SWAP2 SWAP1 DUP3 SLOAD SWAP1 PUSH1 0x3 SHL SWAP2 PUSH1 0x1 DUP1 PUSH1 0xA0 SHL SUB DUP1 SWAP2 AND DUP4 SHL SWAP3 SHL NOT AND OR SWAP1 SSTORE JUMP JUMPDEST PUSH2 0x206B JUMP JUMPDEST CALLER DUP7 MSTORE PUSH1 0x7 DUP2 MSTORE DUP2 DUP7 KECCAK256 SWAP2 DUP7 JUMPDEST DUP4 SLOAD DUP1 DUP3 LT ISZERO PUSH2 0x47E JUMPI PUSH2 0x32C PUSH2 0x333 PUSH2 0x320 DUP5 DUP9 PUSH2 0x1915 JUMP JUMPDEST POP DUP6 MLOAD SWAP3 DUP4 DUP1 SWAP3 PUSH2 0x197D JUMP JUMPDEST SUB DUP3 PUSH2 0x1848 JUMP JUMPDEST DUP5 DUP2 MLOAD SWAP2 ADD KECCAK256 DUP8 MLOAD DUP10 KECCAK256 EQ PUSH2 0x351 JUMPI POP PUSH2 0x34C SWAP1 PUSH2 0x2046 JUMP JUMPDEST PUSH2 0x306 JUMP JUMPDEST SWAP3 SWAP4 SWAP5 SWAP6 SWAP7 POP SWAP1 POP PUSH1 0x0 NOT SWAP2 DUP3 DUP2 ADD SWAP1 DUP2 GT PUSH2 0x46B JUMPI PUSH2 0x374 PUSH2 0x37C SWAP2 DUP7 PUSH2 0x1915 JUMP JUMPDEST POP SWAP2 DUP6 PUSH2 0x1915 JUMP JUMPDEST PUSH2 0x459 JUMPI SWAP1 PUSH2 0x38A SWAP2 PUSH2 0x20AE JUMP JUMPDEST DUP3 SLOAD DUP1 ISZERO PUSH2 0x446 JUMPI ADD SWAP3 PUSH2 0x39E DUP5 DUP5 PUSH2 0x1915 JUMP JUMPDEST SWAP2 SWAP1 SWAP2 PUSH2 0x434 JUMPI POP SWAP1 DUP2 PUSH2 0x3B3 DUP8 SWAP4 SLOAD PUSH2 0x1943 JUMP JUMPDEST DUP1 PUSH2 0x3F4 JUMPI JUMPDEST POP POP POP POP SSTORE JUMPDEST PUSH2 0x3C9 CALLER SWAP2 PUSH2 0x2026 JUMP JUMPDEST PUSH32 0x9FDBD38DB638563DFDF213622A60EE0D000EBABAD5EFA2807BDE424E404F2DB8 DUP4 DUP1 LOG3 PUSH1 0x1 DUP1 SSTORE DUP1 RETURN JUMPDEST DUP4 PUSH1 0x1F DUP1 DUP4 GT PUSH1 0x1 EQ PUSH2 0x411 JUMPI POP POP POP SWAP1 POP SSTORE JUMPDEST DUP4 CODESIZE DUP1 DUP1 PUSH2 0x3B9 JUMP JUMPDEST DUP4 SWAP3 SWAP5 DUP3 SWAP5 PUSH2 0x42D SWAP4 MSTORE DUP5 KECCAK256 SWAP5 ADD PUSH1 0x5 SHR DUP5 ADD PUSH1 0x1 DUP6 ADD PUSH2 0x1F02 JUMP JUMPDEST SSTORE SSTORE PUSH2 0x408 JUMP JUMPDEST PUSH4 0x4E487B71 PUSH1 0xE0 SHL DUP8 MSTORE DUP7 SWAP1 MSTORE PUSH1 0x24 DUP7 REVERT JUMPDEST PUSH4 0x4E487B71 PUSH1 0xE0 SHL DUP8 MSTORE PUSH1 0x31 DUP6 MSTORE PUSH1 0x24 DUP8 REVERT JUMPDEST PUSH4 0x4E487B71 PUSH1 0xE0 SHL DUP9 MSTORE DUP8 DUP7 MSTORE PUSH1 0x24 DUP9 REVERT JUMPDEST PUSH4 0x4E487B71 PUSH1 0xE0 SHL DUP9 MSTORE PUSH1 0x11 DUP7 MSTORE PUSH1 0x24 DUP9 REVERT JUMPDEST POP POP POP POP POP POP SWAP1 POP PUSH2 0x3BF JUMP JUMPDEST PUSH4 0x4E487B71 PUSH1 0xE0 SHL DUP12 MSTORE PUSH1 0x11 DUP9 MSTORE PUSH1 0x24 DUP12 REVERT JUMPDEST POP POP POP SWAP1 SWAP2 SWAP3 SWAP4 SWAP5 POP PUSH2 0x2F9 JUMP JUMPDEST SWAP1 MLOAD PUSH3 0x461BCD PUSH1 0xE5 SHL DUP2 MSTORE SWAP2 DUP3 ADD MSTORE PUSH1 0xC PUSH1 0x24 DUP3 ADD MSTORE PUSH12 0x2737BA10309036B2B6B132B9 PUSH1 0xA1 SHL PUSH1 0x44 DUP3 ADD MSTORE PUSH1 0x64 SWAP1 REVERT JUMPDEST DUP5 DUP1 REVERT JUMPDEST DUP4 DUP1 REVERT JUMPDEST DUP3 DUP1 REVERT JUMPDEST DUP4 DUP3 CALLVALUE PUSH2 0x523 JUMPI DUP2 PUSH1 0x3 NOT CALLDATASIZE ADD SLT PUSH2 0x523 JUMPI PUSH1 0x20 SWAP1 MLOAD PUSH32 0xCE23C3E399818CFEE81A7AB0880F714E53D7672B08DF0FA62F2843416E1EA09 DUP2 MSTORE RETURN JUMPDEST POP DUP1 REVERT JUMPDEST POP CALLVALUE PUSH2 0x4E4 JUMPI DUP1 PUSH1 0x3 NOT CALLDATASIZE ADD SLT PUSH2 0x4E4 JUMPI PUSH2 0x560 SWAP2 CALLDATALOAD PUSH2 0x55B PUSH1 0x1 PUSH2 0x54A PUSH2 0x18C6 JUMP JUMPDEST SWAP4 DUP4 DUP8 MSTORE DUP7 PUSH1 0x20 MSTORE DUP7 KECCAK256 ADD SLOAD PUSH2 0x1A38 JUMP JUMPDEST PUSH2 0x1AFA JUMP JUMPDEST POP DUP1 RETURN JUMPDEST POP SWAP1 CALLVALUE PUSH2 0x4E4 JUMPI PUSH1 0x20 CALLDATASIZE PUSH1 0x3 NOT ADD SLT PUSH2 0x4E4 JUMPI DUP2 PUSH1 0x20 SWAP4 PUSH1 0xFF SWAP3 CALLDATALOAD DUP2 MSTORE PUSH1 0x2 DUP6 MSTORE KECCAK256 SLOAD AND SWAP1 MLOAD SWAP1 DUP2 MSTORE RETURN JUMPDEST POP SWAP2 CALLVALUE PUSH2 0x61F JUMPI DUP3 PUSH1 0x3 NOT CALLDATASIZE ADD SLT PUSH2 0x61F JUMPI PUSH2 0x5A9 PUSH2 0x18DC JUMP JUMPDEST PUSH1 0x1 PUSH1 0x1 PUSH1 0xA0 SHL SUB AND DUP2 MSTORE PUSH1 0x7 PUSH1 0x20 MSTORE DUP3 DUP2 KECCAK256 DUP1 SLOAD PUSH1 0x24 CALLDATALOAD SWAP2 SWAP1 DUP3 LT ISZERO PUSH2 0x4E4 JUMPI SWAP1 PUSH2 0x5D4 SWAP2 PUSH2 0x1915 JUMP JUMPDEST SWAP3 SWAP1 SWAP3 PUSH2 0x60D JUMPI DUP4 MLOAD PUSH2 0x609 SWAP1 DUP6 PUSH2 0x5F7 DUP3 PUSH2 0x5F0 DUP2 DUP10 PUSH2 0x197D JUMP JUMPDEST SUB DUP4 PUSH2 0x1848 JUMP JUMPDEST MLOAD SWAP2 DUP3 SWAP2 PUSH1 0x20 DUP4 MSTORE PUSH1 0x20 DUP4 ADD SWAP1 PUSH2 0x1A13 JUMP JUMPDEST SUB SWAP1 RETURN JUMPDEST PUSH4 0x4E487B71 PUSH1 0xE0 SHL DUP3 MSTORE DUP2 SWAP1 MSTORE PUSH1 0x24 SWAP1 REVERT JUMPDEST DUP1 REVERT JUMPDEST POP CALLVALUE PUSH2 0x4E4 JUMPI DUP1 PUSH1 0x3 NOT CALLDATASIZE ADD SLT PUSH2 0x4E4 JUMPI PUSH2 0x63B PUSH2 0x18DC JUMP JUMPDEST PUSH1 0x24 CALLDATALOAD SWAP3 PUSH32 0xA49807205CE4D355092EF5A8A18F56E8913CF4A201FBE287825B095693C21775 SWAP2 DUP3 DUP7 MSTORE PUSH1 0x20 SWAP3 DUP7 DUP5 MSTORE DUP5 DUP8 KECCAK256 CALLER DUP9 MSTORE DUP5 MSTORE PUSH1 0xFF DUP6 DUP9 KECCAK256 SLOAD AND ISZERO PUSH2 0x71F JUMPI POP PUSH1 0x1 PUSH1 0x1 PUSH1 0xA0 SHL SUB DUP2 AND SWAP2 DUP3 ISZERO PUSH2 0x6E5 JUMPI POP SWAP1 PUSH2 0x6CA PUSH1 0x3 SWAP4 SWAP3 DUP7 DUP9 MSTORE PUSH1 0x2 DUP5 MSTORE PUSH2 0x6B1 PUSH1 0xFF DUP8 DUP11 KECCAK256 SLOAD AND ISZERO ISZERO PUSH2 0x1E47 JUMP JUMPDEST DUP3 DUP9 MSTORE DUP5 DUP5 MSTORE DUP6 DUP9 KECCAK256 SLOAD DUP2 DUP2 PUSH2 0x6D4 JUMPI JUMPDEST POP POP DUP7 PUSH2 0x1A7C JUMP JUMPDEST POP DUP6 MSTORE MSTORE DUP3 KECCAK256 SSTORE DUP1 RETURN JUMPDEST PUSH2 0x6DD SWAP2 PUSH2 0x1AFA JUMP JUMPDEST POP CODESIZE DUP2 PUSH2 0x6C2 JUMP JUMPDEST DUP5 MLOAD PUSH3 0x461BCD PUSH1 0xE5 SHL DUP2 MSTORE SWAP1 DUP2 ADD DUP5 SWAP1 MSTORE PUSH1 0x14 PUSH1 0x24 DUP3 ADD MSTORE PUSH20 0x496E76616C696420757365722061646472657373 PUSH1 0x60 SHL PUSH1 0x44 DUP3 ADD MSTORE PUSH1 0x64 SWAP1 REVERT JUMPDEST DUP5 MLOAD PUSH4 0xE2517D3F PUSH1 0xE0 SHL DUP2 MSTORE CALLER DUP2 DUP6 ADD MSTORE PUSH1 0x24 DUP2 ADD SWAP2 SWAP1 SWAP2 MSTORE PUSH1 0x44 SWAP1 REVERT JUMPDEST DUP4 DUP3 CALLVALUE PUSH2 0x523 JUMPI DUP2 PUSH1 0x3 NOT CALLDATASIZE ADD SLT PUSH2 0x523 JUMPI PUSH1 0x20 SWAP1 MLOAD PUSH32 0x5520D115CEFFB88F02315D646CD7618D18024F657AFE794865243ED5B75FB04F DUP2 MSTORE RETURN JUMPDEST POP SWAP2 SWAP1 CALLVALUE PUSH2 0x523 JUMPI PUSH1 0x20 SWAP1 DUP2 PUSH1 0x3 NOT CALLDATASIZE ADD SLT PUSH2 0x4E4 JUMPI PUSH1 0x1 PUSH1 0x1 PUSH1 0xA0 SHL SUB PUSH2 0x79E PUSH2 0x18DC JUMP JUMPDEST AND DUP4 MSTORE PUSH1 0x7 DUP3 MSTORE DUP4 DUP4 KECCAK256 SWAP2 DUP3 SLOAD SWAP2 PUSH8 0xFFFFFFFFFFFFFFFF DUP4 GT PUSH2 0x86C JUMPI POP SWAP3 SWAP1 DUP5 MLOAD SWAP1 PUSH2 0x7D0 DUP6 DUP3 PUSH1 0x5 SHL ADD DUP4 PUSH2 0x1848 JUMP JUMPDEST DUP1 DUP3 MSTORE DUP5 DUP3 ADD DUP1 SWAP5 DUP5 MSTORE DUP6 DUP5 KECCAK256 DUP5 SWAP2 JUMPDEST DUP4 DUP4 LT PUSH2 0x841 JUMPI POP POP POP POP DUP5 MLOAD SWAP4 DUP1 DUP6 ADD SWAP2 DUP2 DUP7 MSTORE MLOAD DUP1 SWAP3 MSTORE DUP6 DUP6 ADD SWAP6 DUP3 PUSH1 0x5 SHL DUP7 ADD ADD SWAP4 SWAP3 SWAP6 JUMPDEST DUP3 DUP8 LT PUSH2 0x815 JUMPI DUP6 DUP6 SUB DUP7 RETURN JUMPDEST SWAP1 SWAP2 SWAP3 SWAP4 DUP3 DUP1 PUSH2 0x831 PUSH1 0x1 SWAP4 PUSH1 0x3F NOT DUP11 DUP3 SUB ADD DUP7 MSTORE DUP9 MLOAD PUSH2 0x1A13 JUMP JUMPDEST SWAP7 ADD SWAP3 ADD SWAP7 ADD SWAP6 SWAP3 SWAP2 SWAP1 SWAP3 PUSH2 0x808 JUMP JUMPDEST PUSH1 0x1 DUP9 DUP2 SWAP3 DUP12 SWAP11 SWAP8 SWAP9 SWAP11 MLOAD PUSH2 0x85A DUP2 PUSH2 0x32C DUP2 DUP10 PUSH2 0x197D JUMP JUMPDEST DUP2 MSTORE ADD SWAP3 ADD SWAP3 ADD SWAP2 SWAP1 SWAP7 SWAP5 SWAP4 SWAP7 PUSH2 0x7E0 JUMP JUMPDEST PUSH4 0x4E487B71 PUSH1 0xE0 SHL DUP6 MSTORE PUSH1 0x41 SWAP1 MSTORE PUSH1 0x24 DUP5 REVERT JUMPDEST POP DUP3 CALLVALUE PUSH2 0x61F JUMPI DUP2 PUSH1 0x3 NOT CALLDATASIZE ADD SLT PUSH2 0x61F JUMPI PUSH1 0x24 CALLDATALOAD SWAP3 CALLDATALOAD DUP2 MSTORE PUSH1 0x5 PUSH1 0x20 MSTORE DUP2 DUP2 KECCAK256 SWAP1 DUP2 SLOAD DUP5 LT ISZERO PUSH2 0x61F JUMPI POP PUSH1 0x20 SWAP3 PUSH2 0x8B7 SWAP2 PUSH2 0x1915 JUMP JUMPDEST SWAP1 SLOAD SWAP2 MLOAD SWAP2 PUSH1 0x1 DUP1 PUSH1 0xA0 SHL SUB SWAP2 PUSH1 0x3 SHL SHR AND DUP2 MSTORE RETURN JUMPDEST DUP4 DUP3 CALLVALUE PUSH2 0x523 JUMPI DUP2 PUSH1 0x3 NOT CALLDATASIZE ADD SLT PUSH2 0x523 JUMPI MLOAD SWAP1 DUP2 MSTORE PUSH1 0x20 SWAP1 RETURN JUMPDEST POP DUP3 CALLVALUE PUSH2 0x61F JUMPI DUP2 PUSH1 0x3 NOT CALLDATASIZE ADD SLT PUSH2 0x61F JUMPI POP PUSH2 0x910 PUSH1 0x20 SWAP3 PUSH2 0x909 PUSH2 0x18C6 JUMP JUMPDEST SWAP1 CALLDATALOAD PUSH2 0x1D8C JUMP JUMPDEST SWAP1 MLOAD SWAP1 ISZERO ISZERO DUP2 MSTORE RETURN JUMPDEST POP SWAP1 CALLVALUE PUSH2 0x4E4 JUMPI DUP2 PUSH1 0x3 NOT CALLDATASIZE ADD SLT PUSH2 0x4E4 JUMPI DUP2 PUSH1 0x20 SWAP4 PUSH1 0xFF SWAP3 PUSH2 0x93A PUSH2 0x18C6 JUMP JUMPDEST SWAP1 CALLDATALOAD DUP3 MSTORE DUP2 DUP7 MSTORE DUP3 DUP3 KECCAK256 PUSH1 0x1 PUSH1 0x1 PUSH1 0xA0 SHL SUB SWAP1 SWAP2 AND DUP3 MSTORE DUP6 MSTORE KECCAK256 SLOAD SWAP2 MLOAD SWAP2 AND ISZERO ISZERO DUP2 MSTORE RETURN JUMPDEST POP SWAP1 CALLVALUE PUSH2 0x4E4 JUMPI DUP2 PUSH1 0x3 NOT CALLDATASIZE ADD SLT PUSH2 0x4E4 JUMPI DUP1 CALLDATALOAD PUSH8 0xFFFFFFFFFFFFFFFF DUP2 GT PUSH2 0x4E0 JUMPI DUP3 SWAP2 PUSH2 0x990 SWAP2 CALLDATASIZE SWAP2 ADD PUSH2 0x186A JUMP JUMPDEST SWAP3 PUSH2 0x9B1 PUSH1 0x20 PUSH2 0x99E PUSH2 0x18C6 JUMP JUMPDEST SWAP6 DUP2 DUP6 MLOAD SWAP4 DUP3 DUP6 DUP1 SWAP5 MLOAD SWAP4 DUP5 SWAP3 ADD PUSH2 0x18F2 JUMP JUMPDEST PUSH1 0x8 SWAP1 DUP3 ADD SWAP1 DUP2 MSTORE SUB ADD SWAP1 KECCAK256 PUSH1 0x1 PUSH1 0x1 PUSH1 0xA0 SHL SUB SWAP5 DUP6 AND DUP3 MSTORE PUSH1 0x20 MSTORE KECCAK256 DUP1 SLOAD DUP3 MLOAD SWAP4 AND SWAP2 SWAP1 PUSH2 0x9EE DUP5 PUSH2 0x9E7 DUP2 PUSH1 0x1 DUP6 ADD PUSH2 0x197D JUMP JUMPDEST SUB DUP6 PUSH2 0x1848 JUMP JUMPDEST PUSH1 0xFF PUSH1 0x3 PUSH1 0x2 DUP4 ADD SLOAD SWAP3 ADD SLOAD AND SWAP1 PUSH2 0xA17 DUP4 MLOAD SWAP6 DUP7 SWAP6 DUP7 MSTORE PUSH1 0x80 PUSH1 0x20 DUP8 ADD MSTORE PUSH1 0x80 DUP7 ADD SWAP1 PUSH2 0x1A13 JUMP JUMPDEST SWAP3 DUP5 ADD MSTORE ISZERO ISZERO PUSH1 0x60 DUP4 ADD MSTORE SUB SWAP1 RETURN JUMPDEST DUP4 DUP3 CALLVALUE PUSH2 0x523 JUMPI DUP2 PUSH1 0x3 NOT CALLDATASIZE ADD SLT PUSH2 0x523 JUMPI PUSH1 0x20 SWAP1 MLOAD PUSH32 0x71F3D55856E4058ED06EE057D79ADA615F65CDF5F9EE88181B914225088F834F DUP2 MSTORE RETURN JUMPDEST DUP4 DUP3 CALLVALUE PUSH2 0x523 JUMPI DUP2 PUSH1 0x3 NOT CALLDATASIZE ADD SLT PUSH2 0x523 JUMPI PUSH1 0x20 SWAP1 MLOAD PUSH32 0xA49807205CE4D355092EF5A8A18F56E8913CF4A201FBE287825B095693C21775 DUP2 MSTORE RETURN JUMPDEST DUP4 DUP3 CALLVALUE PUSH2 0x523 JUMPI PUSH1 0x20 CALLDATASIZE PUSH1 0x3 NOT ADD SLT PUSH2 0x523 JUMPI PUSH1 0x20 SWAP2 DUP2 SWAP1 PUSH1 0x1 PUSH1 0x1 PUSH1 0xA0 SHL SUB PUSH2 0xAC4 PUSH2 0x18DC JUMP JUMPDEST AND DUP2 MSTORE PUSH1 0x3 DUP5 MSTORE KECCAK256 SLOAD SWAP1 MLOAD SWAP1 DUP2 MSTORE RETURN JUMPDEST DUP4 DUP3 CALLVALUE PUSH2 0x523 JUMPI DUP2 PUSH1 0x3 NOT CALLDATASIZE ADD SLT PUSH2 0x523 JUMPI PUSH1 0x20 SWAP1 MLOAD PUSH32 0x59A1C48E5837AD7A7F3DCEDCBE129BF3249EC4FBF651FD4F5E2600EAD39FE2F5 DUP2 MSTORE RETURN JUMPDEST POP CALLVALUE PUSH2 0x4E4 JUMPI DUP1 PUSH1 0x3 NOT CALLDATASIZE ADD SLT PUSH2 0x4E4 JUMPI DUP2 CALLDATALOAD SWAP1 PUSH2 0xB2B PUSH2 0x18C6 JUMP JUMPDEST PUSH2 0xB33 PUSH2 0x1B94 JUMP JUMPDEST PUSH32 0x5520D115CEFFB88F02315D646CD7618D18024F657AFE794865243ED5B75FB04F DUP6 MSTORE PUSH1 0x20 SWAP2 DUP6 DUP4 MSTORE DUP1 DUP7 KECCAK256 CALLER DUP8 MSTORE DUP4 MSTORE PUSH1 0xFF DUP2 DUP8 KECCAK256 SLOAD AND DUP1 ISZERO PUSH2 0xD0D JUMPI JUMPDEST DUP1 ISZERO PUSH2 0xCE4 JUMPI JUMPDEST ISZERO PUSH2 0xCA2 JUMPI DUP4 DUP7 MSTORE DUP5 DUP4 MSTORE DUP1 DUP7 KECCAK256 PUSH1 0x1 PUSH1 0x1 PUSH1 0xA0 SHL SUB SWAP3 DUP4 AND DUP1 DUP9 MSTORE SWAP1 DUP5 MSTORE DUP2 DUP8 KECCAK256 PUSH1 0x6 ADD DUP1 SLOAD SWAP2 SWAP5 SWAP2 PUSH1 0xFF DUP2 AND ISZERO PUSH2 0xC6A JUMPI PUSH1 0xFF NOT AND SWAP1 SSTORE DUP5 DUP8 MSTORE PUSH1 0x5 SWAP1 MSTORE DUP6 KECCAK256 SWAP1 DUP6 JUMPDEST DUP3 SLOAD DUP1 DUP3 LT ISZERO PUSH2 0xC5E JUMPI DUP3 SWAP1 DUP6 PUSH2 0xBD5 DUP5 DUP8 PUSH2 0x1915 JUMP JUMPDEST SWAP4 SWAP1 SLOAD PUSH1 0x3 SWAP5 DUP6 SHL SHR AND EQ PUSH2 0xBF4 JUMPI POP POP PUSH2 0xBEF SWAP1 PUSH2 0x2046 JUMP JUMPDEST PUSH2 0xBBE JUMP JUMPDEST SWAP1 SWAP2 SWAP4 SWAP5 SWAP6 SWAP7 PUSH1 0x0 NOT DUP3 ADD SWAP2 DUP3 GT PUSH2 0xC4B JUMPI POP PUSH2 0x2F4 SWAP3 DUP6 SWAP5 SWAP3 PUSH2 0x2C8 PUSH2 0x2D5 SWAP4 PUSH2 0xC1E SWAP9 PUSH2 0x1915 JUMP JUMPDEST CALLER SWAP2 PUSH32 0x260547D4038414EF72F081DCDE91825693DFF9BC433178F3E92AD36E0CD22750 DUP5 DUP1 LOG4 PUSH1 0x1 DUP1 SSTORE DUP1 RETURN JUMPDEST PUSH4 0x4E487B71 PUSH1 0xE0 SHL DUP10 MSTORE PUSH1 0x11 SWAP1 MSTORE PUSH1 0x24 DUP9 REVERT JUMPDEST POP POP POP POP SWAP1 SWAP2 POP PUSH2 0xC1E JUMP JUMPDEST DUP4 MLOAD PUSH3 0x461BCD PUSH1 0xE5 SHL DUP2 MSTORE DUP1 DUP10 ADD DUP5 SWAP1 MSTORE PUSH1 0x12 PUSH1 0x24 DUP3 ADD MSTORE PUSH18 0x1058D8D95CDCC81B9BDD0819DC985B9D1959 PUSH1 0x72 SHL PUSH1 0x44 DUP3 ADD MSTORE PUSH1 0x64 SWAP1 REVERT JUMPDEST MLOAD PUSH3 0x461BCD PUSH1 0xE5 SHL DUP2 MSTORE DUP1 DUP6 ADD DUP4 SWAP1 MSTORE PUSH1 0x1F PUSH1 0x24 DUP3 ADD MSTORE PUSH32 0x4E6F7420617574686F72697A656420746F207265766F6B652061636365737300 PUSH1 0x44 DUP3 ADD MSTORE PUSH1 0x64 SWAP1 REVERT JUMPDEST POP DUP4 DUP7 MSTORE DUP5 DUP4 MSTORE DUP1 DUP7 KECCAK256 PUSH1 0x1 PUSH1 0x1 PUSH1 0xA0 SHL SUB DUP4 DUP2 AND DUP9 MSTORE SWAP1 DUP5 MSTORE DUP2 DUP8 KECCAK256 PUSH1 0x2 ADD SLOAD AND CALLER EQ PUSH2 0xB79 JUMP JUMPDEST POP DUP6 PUSH2 0xB72 JUMP JUMPDEST POP DUP3 CALLVALUE PUSH2 0x61F JUMPI DUP2 PUSH1 0x3 NOT CALLDATASIZE ADD SLT PUSH2 0x61F JUMPI POP PUSH2 0x910 PUSH1 0x20 SWAP3 PUSH2 0xD35 PUSH2 0x18C6 JUMP JUMPDEST SWAP1 CALLDATALOAD PUSH2 0x1BB7 JUMP JUMPDEST POP CALLVALUE PUSH2 0x4E4 JUMPI DUP1 PUSH1 0x3 NOT CALLDATASIZE ADD SLT PUSH2 0x4E4 JUMPI SWAP2 DUP3 PUSH1 0xFF PUSH2 0x120 SWAP5 PUSH2 0xD5D PUSH2 0x18C6 JUMP JUMPDEST SWAP4 DUP6 CALLDATALOAD DUP2 MSTORE DUP6 PUSH1 0x20 MSTORE DUP2 DUP2 KECCAK256 PUSH1 0x1 DUP1 PUSH1 0xA0 SHL SUB DUP1 SWAP7 AND DUP3 MSTORE PUSH1 0x20 MSTORE KECCAK256 SWAP2 DUP3 SLOAD SWAP5 DUP5 PUSH1 0x1 DUP6 ADD SLOAD AND SWAP5 PUSH1 0x2 DUP6 ADD SLOAD AND PUSH1 0x3 DUP6 ADD SLOAD SWAP2 DUP6 ADD SLOAD SWAP3 DUP5 PUSH1 0x6 PUSH1 0x5 DUP9 ADD SLOAD SWAP8 ADD SLOAD AND SWAP7 DUP2 MLOAD SWAP9 DUP10 MSTORE PUSH1 0x20 DUP10 ADD MSTORE DUP8 ADD MSTORE PUSH1 0x60 DUP7 ADD MSTORE DUP2 DUP2 AND ISZERO ISZERO PUSH1 0x80 DUP7 ADD MSTORE DUP2 DUP2 PUSH1 0x8 SHR AND ISZERO ISZERO PUSH1 0xA0 DUP7 ADD MSTORE PUSH1 0x10 SHR AND ISZERO ISZERO PUSH1 0xC0 DUP5 ADD MSTORE PUSH1 0xE0 DUP4 ADD MSTORE ISZERO ISZERO PUSH2 0x100 DUP3 ADD MSTORE RETURN JUMPDEST POP SWAP2 SWAP1 CALLVALUE PUSH2 0x523 JUMPI DUP3 PUSH1 0x3 NOT CALLDATASIZE ADD SLT PUSH2 0x523 JUMPI PUSH2 0xE00 PUSH2 0x18C6 JUMP JUMPDEST DUP4 DUP1 MLOAD SWAP4 PUSH2 0xE0D DUP6 PUSH2 0x1815 JUMP JUMPDEST DUP1 DUP6 MSTORE DUP1 PUSH1 0x20 DUP7 ADD MSTORE DUP1 DUP3 DUP7 ADD MSTORE DUP1 PUSH1 0x60 DUP7 ADD MSTORE DUP1 PUSH1 0x80 DUP7 ADD MSTORE DUP1 PUSH1 0xA0 DUP7 ADD MSTORE DUP1 PUSH1 0xC0 DUP7 ADD MSTORE DUP1 PUSH1 0xE0 DUP7 ADD MSTORE DUP1 PUSH2 0x100 DUP1 SWAP7 ADD MSTORE DUP4 CALLDATALOAD DUP2 MSTORE DUP4 PUSH1 0x20 MSTORE DUP2 DUP2 KECCAK256 PUSH1 0x1 PUSH1 0xA0 SHL PUSH1 0x1 SWAP1 SUB DUP1 SWAP5 AND DUP3 MSTORE PUSH1 0x20 MSTORE KECCAK256 SWAP1 DUP5 MLOAD SWAP3 PUSH2 0xE6B DUP5 PUSH2 0x1815 JUMP JUMPDEST DUP3 SLOAD SWAP6 DUP7 DUP6 MSTORE DUP3 PUSH1 0x1 DUP6 ADD SLOAD AND SWAP2 PUSH1 0x20 DUP7 ADD SWAP3 DUP4 MSTORE DUP4 PUSH1 0x2 DUP7 ADD SLOAD AND SWAP2 DUP1 DUP8 ADD SWAP3 DUP4 MSTORE PUSH1 0x3 DUP7 ADD SLOAD SWAP2 PUSH1 0x60 DUP9 ADD SWAP3 DUP4 MSTORE DUP7 ADD SLOAD SWAP5 PUSH1 0x80 DUP9 ADD SWAP4 PUSH1 0xFF DUP8 AND ISZERO ISZERO DUP6 MSTORE DUP2 PUSH1 0xA0 DUP11 ADD SWAP7 DUP9 PUSH1 0x8 SHR PUSH1 0xFF AND ISZERO ISZERO DUP9 MSTORE PUSH1 0xC0 DUP12 ADD SWAP9 PUSH1 0x10 SHR PUSH1 0xFF AND ISZERO ISZERO DUP10 MSTORE DUP12 PUSH1 0x5 DUP12 ADD SLOAD SWAP11 PUSH1 0xE0 DUP14 ADD SWAP12 DUP13 MSTORE PUSH1 0x6 ADD SLOAD PUSH1 0xFF AND SWAP12 ADD SWAP11 ISZERO ISZERO DUP12 MSTORE DUP5 MLOAD SWAP13 DUP14 MSTORE MLOAD AND PUSH1 0x20 DUP13 ADD MSTORE MLOAD AND SWAP1 DUP10 ADD MSTORE MLOAD PUSH1 0x60 DUP9 ADD MSTORE MLOAD ISZERO ISZERO PUSH1 0x80 DUP8 ADD MSTORE MLOAD ISZERO ISZERO PUSH1 0xA0 DUP7 ADD MSTORE MLOAD ISZERO ISZERO PUSH1 0xC0 DUP6 ADD MSTORE MLOAD PUSH1 0xE0 DUP5 ADD MSTORE MLOAD ISZERO ISZERO SWAP1 DUP3 ADD MSTORE PUSH2 0x120 SWAP1 RETURN JUMPDEST POP SWAP1 CALLVALUE PUSH2 0x4E4 JUMPI PUSH1 0xC0 CALLDATASIZE PUSH1 0x3 NOT ADD SLT PUSH2 0x4E4 JUMPI DUP1 CALLDATALOAD PUSH2 0xF48 PUSH2 0x18C6 JUMP JUMPDEST SWAP2 PUSH1 0x44 CALLDATALOAD SWAP4 PUSH1 0x64 CALLDATALOAD SWAP1 DUP2 ISZERO ISZERO DUP3 SUB PUSH2 0x1205 JUMPI PUSH1 0x84 CALLDATALOAD SWAP5 DUP6 ISZERO ISZERO DUP1 SWAP7 SUB PUSH2 0x1201 JUMPI PUSH1 0xA4 CALLDATALOAD SWAP3 DUP4 ISZERO ISZERO DUP1 SWAP5 SUB PUSH2 0x11FD JUMPI PUSH2 0xF7E PUSH2 0x1B94 JUMP JUMPDEST PUSH1 0x1 PUSH1 0x1 PUSH1 0xA0 SHL SUB DUP3 AND SWAP7 DUP8 ISZERO PUSH2 0x11BA JUMPI CALLER DUP9 EQ PUSH2 0x1177 JUMPI PUSH32 0x5520D115CEFFB88F02315D646CD7618D18024F657AFE794865243ED5B75FB04F DUP11 MSTORE PUSH1 0x20 SWAP5 DUP11 DUP7 MSTORE DUP5 DUP12 KECCAK256 CALLER DUP13 MSTORE DUP7 MSTORE PUSH1 0xFF DUP6 DUP13 KECCAK256 SLOAD AND DUP1 ISZERO PUSH2 0x1170 JUMPI JUMPDEST ISZERO PUSH2 0x112D JUMPI SWAP1 DUP11 SWAP4 SWAP3 SWAP2 DUP11 PUSH2 0x10CF JUMPI JUMPDEST PUSH2 0x1078 PUSH32 0x9FFCF664651D52310AEB78C0F8382CA5078D2DE7D3CF618CB5CE6E5CABF00992 SWAP9 DUP11 DUP8 MSTORE DUP1 DUP10 MSTORE DUP8 DUP8 KECCAK256 DUP13 DUP9 MSTORE DUP10 MSTORE DUP11 DUP9 DUP9 KECCAK256 SWAP7 DUP10 PUSH1 0x6 DUP10 ADD SWAP10 PUSH1 0xFF DUP12 SLOAD AND ISZERO PUSH2 0x10B5 JUMPI JUMPDEST POP POP POP DUP7 SSTORE PUSH1 0x1 DUP7 ADD PUSH12 0xFFFFFFFFFFFFFFFFFFFFFFFF PUSH1 0xA0 SHL SWAP1 DUP14 DUP3 DUP3 SLOAD AND OR SWAP1 SSTORE PUSH1 0x2 DUP8 ADD SWAP1 CALLER SWAP1 DUP3 SLOAD AND OR SWAP1 SSTORE DUP13 PUSH1 0x3 DUP8 ADD SSTORE DUP6 ADD SWAP4 DUP5 SWAP1 PUSH1 0xFF DUP1 NOT DUP4 SLOAD AND SWAP2 ISZERO ISZERO AND OR SWAP1 SSTORE JUMP JUMPDEST PUSH2 0xFF00 PUSH3 0xFF0000 DUP5 SLOAD SWAP3 PUSH1 0x10 SHL AND SWAP3 PUSH1 0x8 SHL AND SWAP1 PUSH3 0xFFFF00 NOT AND OR OR SWAP1 SSTORE PUSH1 0x5 TIMESTAMP SWAP2 ADD SSTORE PUSH1 0x1 PUSH1 0xFF NOT DUP3 SLOAD AND OR SWAP1 SSTORE MLOAD SWAP5 DUP6 MSTORE CALLER SWAP5 LOG4 PUSH1 0x1 DUP1 SSTORE DUP1 RETURN JUMPDEST PUSH2 0x10C5 SWAP4 DUP2 MSTORE PUSH1 0x5 DUP14 MSTORE KECCAK256 PUSH2 0x1B6F JUMP JUMPDEST DUP11 CODESIZE DUP16 DUP11 SWAP1 PUSH2 0x102E JUMP JUMPDEST SWAP2 SWAP4 POP SWAP2 SWAP4 SWAP5 SWAP6 TIMESTAMP DUP11 GT ISZERO PUSH2 0x10EA JUMPI SWAP6 SWAP5 SWAP4 SWAP2 DUP11 SWAP4 SWAP2 PUSH2 0xFE5 JUMP JUMPDEST DUP6 MLOAD PUSH3 0x461BCD PUSH1 0xE5 SHL DUP2 MSTORE SWAP1 DUP2 ADD DUP8 SWAP1 MSTORE PUSH1 0x1D PUSH1 0x24 DUP3 ADD MSTORE PUSH32 0x4578706972792074696D65206D75737420626520696E20667574757265000000 PUSH1 0x44 DUP3 ADD MSTORE PUSH1 0x64 SWAP1 REVERT JUMPDEST DUP5 MLOAD PUSH3 0x461BCD PUSH1 0xE5 SHL DUP2 MSTORE DUP1 DUP9 ADD DUP8 SWAP1 MSTORE PUSH1 0x1E PUSH1 0x24 DUP3 ADD MSTORE PUSH32 0x4E6F7420617574686F72697A656420746F206772616E74206163636573730000 PUSH1 0x44 DUP3 ADD MSTORE PUSH1 0x64 SWAP1 REVERT JUMPDEST POP DUP11 PUSH2 0xFD5 JUMP JUMPDEST DUP4 MLOAD PUSH3 0x461BCD PUSH1 0xE5 SHL DUP2 MSTORE PUSH1 0x20 DUP2 DUP9 ADD MSTORE PUSH1 0x1B PUSH1 0x24 DUP3 ADD MSTORE PUSH32 0x43616E6E6F74206772616E742061636365737320746F2073656C660000000000 PUSH1 0x44 DUP3 ADD MSTORE PUSH1 0x64 SWAP1 REVERT JUMPDEST DUP4 MLOAD PUSH3 0x461BCD PUSH1 0xE5 SHL DUP2 MSTORE PUSH1 0x20 DUP2 DUP9 ADD MSTORE PUSH1 0x17 PUSH1 0x24 DUP3 ADD MSTORE PUSH32 0x496E76616C6964206772616E7465652061646472657373000000000000000000 PUSH1 0x44 DUP3 ADD MSTORE PUSH1 0x64 SWAP1 REVERT JUMPDEST DUP9 DUP1 REVERT JUMPDEST DUP8 DUP1 REVERT JUMPDEST DUP7 DUP1 REVERT JUMPDEST DUP4 DUP3 CALLVALUE PUSH2 0x523 JUMPI DUP1 PUSH1 0x3 NOT CALLDATASIZE ADD SLT PUSH2 0x523 JUMPI PUSH2 0x1223 PUSH2 0x18DC JUMP JUMPDEST PUSH1 0x24 CALLDATALOAD SWAP3 PUSH1 0xFF DUP5 AND DUP5 SUB PUSH2 0x61F JUMPI POP PUSH1 0x20 SWAP3 PUSH2 0x910 SWAP2 PUSH2 0x1EC4 JUMP JUMPDEST DUP4 DUP3 CALLVALUE PUSH2 0x523 JUMPI DUP1 PUSH1 0x3 NOT CALLDATASIZE ADD SLT PUSH2 0x523 JUMPI PUSH1 0x20 SWAP1 PUSH2 0x910 PUSH2 0x125E PUSH2 0x18DC JUMP JUMPDEST PUSH1 0x24 CALLDATALOAD SWAP1 PUSH2 0x1E82 JUMP JUMPDEST POP DUP3 SWAP1 CALLVALUE PUSH2 0x523 JUMPI DUP1 PUSH1 0x3 NOT CALLDATASIZE ADD SLT PUSH2 0x523 JUMPI PUSH2 0x1282 PUSH2 0x18C6 JUMP JUMPDEST SWAP1 CALLER PUSH1 0x1 PUSH1 0x1 PUSH1 0xA0 SHL SUB DUP4 AND SUB PUSH2 0x129F JUMPI POP PUSH2 0x560 SWAP2 SWAP3 CALLDATALOAD PUSH2 0x1AFA JUMP JUMPDEST MLOAD PUSH4 0x334BD919 PUSH1 0xE1 SHL DUP2 MSTORE DUP4 SWAP1 REVERT JUMPDEST POP CALLVALUE PUSH2 0x4E4 JUMPI DUP1 PUSH1 0x3 NOT CALLDATASIZE ADD SLT PUSH2 0x4E4 JUMPI PUSH2 0x560 SWAP2 CALLDATALOAD PUSH2 0x12D1 PUSH1 0x1 PUSH2 0x54A PUSH2 0x18C6 JUMP JUMPDEST PUSH2 0x1A7C JUMP JUMPDEST POP SWAP1 CALLVALUE PUSH2 0x4E4 JUMPI DUP2 PUSH1 0x3 NOT CALLDATASIZE ADD SLT PUSH2 0x4E4 JUMPI DUP1 CALLDATALOAD SWAP1 PUSH8 0xFFFFFFFFFFFFFFFF DUP3 GT PUSH2 0x4E0 JUMPI PUSH2 0x1306 SWAP2 CALLDATASIZE SWAP2 ADD PUSH2 0x186A JUMP JUMPDEST SWAP2 PUSH2 0x1322 PUSH1 0x20 PUSH1 0x24 CALLDATALOAD SWAP5 DUP2 DUP6 MLOAD SWAP4 DUP3 DUP6 DUP1 SWAP5 MLOAD SWAP4 DUP5 SWAP3 ADD PUSH2 0x18F2 JUMP JUMPDEST DUP2 ADD PUSH1 0x6 DUP2 MSTORE SUB ADD SWAP1 KECCAK256 SWAP1 DUP2 SLOAD DUP5 LT ISZERO PUSH2 0x61F JUMPI POP PUSH1 0x20 SWAP3 PUSH2 0x8B7 SWAP2 PUSH2 0x1915 JUMP JUMPDEST POP DUP3 CALLVALUE PUSH2 0x61F JUMPI DUP2 PUSH1 0x3 NOT CALLDATASIZE ADD SLT PUSH2 0x61F JUMPI POP PUSH2 0x910 PUSH1 0x20 SWAP3 PUSH2 0x1364 PUSH2 0x18C6 JUMP JUMPDEST SWAP1 CALLDATALOAD PUSH2 0x1C8E JUMP JUMPDEST POP SWAP1 CALLVALUE PUSH2 0x4E4 JUMPI PUSH1 0x20 CALLDATASIZE PUSH1 0x3 NOT ADD SLT PUSH2 0x4E4 JUMPI DUP2 PUSH1 0x20 SWAP4 PUSH1 0x1 SWAP3 CALLDATALOAD DUP2 MSTORE DUP1 DUP6 MSTORE KECCAK256 ADD SLOAD SWAP1 MLOAD SWAP1 DUP2 MSTORE RETURN JUMPDEST POP CALLVALUE PUSH2 0x4E4 JUMPI DUP1 PUSH1 0x3 NOT CALLDATASIZE ADD SLT PUSH2 0x4E4 JUMPI PUSH8 0xFFFFFFFFFFFFFFFF SWAP2 DUP1 CALLDATALOAD DUP4 DUP2 GT PUSH2 0x4DC JUMPI PUSH2 0x13C6 SWAP1 CALLDATASIZE SWAP1 DUP4 ADD PUSH2 0x186A JUMP JUMPDEST PUSH1 0x24 SWAP2 DUP3 CALLDATALOAD DUP6 DUP2 GT PUSH2 0x1205 JUMPI PUSH2 0x13DF SWAP1 CALLDATASIZE SWAP1 DUP4 ADD PUSH2 0x186A JUMP JUMPDEST SWAP3 PUSH2 0x13E8 PUSH2 0x1B94 JUMP JUMPDEST DUP3 MLOAD ISZERO PUSH2 0x15E9 JUMPI PUSH2 0x13FB DUP5 MLOAD ISZERO ISZERO PUSH2 0x1E47 JUMP JUMPDEST DUP5 MLOAD SWAP6 DUP4 MLOAD SWAP2 PUSH1 0x20 SWAP8 DUP9 DUP2 DUP2 DUP9 ADD SWAP6 PUSH2 0x1415 DUP2 DUP4 DUP10 PUSH2 0x18F2 JUMP JUMPDEST DUP2 ADD PUSH1 0x8 DUP2 MSTORE SUB ADD SWAP1 KECCAK256 CALLER DUP11 MSTORE DUP9 MSTORE PUSH1 0xFF PUSH1 0x3 DUP9 DUP12 KECCAK256 ADD SLOAD AND PUSH2 0x15B5 JUMPI PUSH2 0x1458 DUP8 MLOAD DUP7 MLOAD PUSH2 0x1444 DUP2 DUP4 DUP9 PUSH2 0x18F2 JUMP JUMPDEST DUP2 ADD SWAP1 PUSH1 0x6 DUP3 MSTORE DUP11 DUP2 CALLER SWAP4 SUB ADD SWAP1 KECCAK256 PUSH2 0x1B6F JUMP JUMPDEST CALLER DUP10 MSTORE PUSH1 0x7 DUP9 MSTORE DUP7 DUP10 KECCAK256 DUP1 SLOAD SWAP1 PUSH1 0x1 PUSH1 0x40 SHL DUP3 LT ISZERO PUSH2 0x15A3 JUMPI SWAP1 PUSH2 0x1481 SWAP2 PUSH1 0x1 DUP3 ADD DUP2 SSTORE PUSH2 0x1915 JUMP JUMPDEST PUSH2 0x1592 JUMPI DUP6 PUSH2 0x148F SWAP2 PUSH2 0x1F5E JUMP JUMPDEST DUP7 MLOAD SWAP4 PUSH1 0x80 DUP6 ADD SWAP3 DUP4 GT DUP6 DUP5 LT OR PUSH2 0x1581 JUMPI POP POP SWAP3 PUSH2 0x1560 PUSH32 0x39E664301C7D6A710381EFAC98D5565F2F5D7CBB1CD7366F352467896A809B43 SWAP6 SWAP4 PUSH1 0x3 PUSH2 0x1565 SWAP5 PUSH2 0x1577 SWAP8 DUP11 MSTORE CALLER DUP4 MSTORE DUP11 PUSH2 0x1544 DUP14 DUP13 DUP4 DUP8 ADD SWAP2 DUP12 DUP4 MSTORE DUP2 DUP9 ADD SWAP5 TIMESTAMP DUP7 MSTORE PUSH2 0x150B DUP2 PUSH1 0x60 DUP12 ADD SWAP9 PUSH1 0x1 DUP11 MSTORE DUP14 DUP7 MLOAD SWAP4 DUP5 SWAP3 DUP4 SWAP3 MLOAD SWAP3 DUP4 SWAP2 PUSH2 0x18F2 JUMP JUMPDEST PUSH1 0x8 SWAP1 DUP3 ADD SWAP1 DUP2 MSTORE SUB ADD SWAP1 KECCAK256 CALLER DUP4 MSTORE SWAP1 MSTORE KECCAK256 SWAP6 MLOAD DUP7 SLOAD PUSH1 0x1 PUSH1 0x1 PUSH1 0xA0 SHL SUB NOT AND PUSH1 0x1 PUSH1 0x1 PUSH1 0xA0 SHL SUB SWAP2 SWAP1 SWAP2 AND OR DUP7 SSTORE MLOAD PUSH1 0x1 DUP7 ADD PUSH2 0x1F5E JUMP JUMPDEST MLOAD PUSH1 0x2 DUP5 ADD SSTORE MLOAD ISZERO ISZERO SWAP2 ADD SWAP1 PUSH1 0xFF DUP1 NOT DUP4 SLOAD AND SWAP2 ISZERO ISZERO AND OR SWAP1 SSTORE JUMP JUMPDEST PUSH2 0x2026 JUMP JUMPDEST SWAP4 MLOAD SWAP2 DUP3 SWAP2 DUP7 DUP4 MSTORE CALLER SWAP7 DUP4 ADD SWAP1 PUSH2 0x1A13 JUMP JUMPDEST SUB SWAP1 LOG3 PUSH1 0x1 DUP1 SSTORE DUP1 RETURN JUMPDEST PUSH4 0x4E487B71 PUSH1 0xE0 SHL DUP11 MSTORE PUSH1 0x41 SWAP1 MSTORE DUP9 REVERT JUMPDEST POP PUSH4 0x4E487B71 PUSH1 0xE0 SHL DUP10 MSTORE DUP9 DUP5 MSTORE DUP9 REVERT JUMPDEST PUSH4 0x4E487B71 PUSH1 0xE0 SHL DUP12 MSTORE PUSH1 0x41 DUP7 MSTORE DUP3 DUP12 REVERT JUMPDEST DUP4 PUSH1 0x10 PUSH1 0x64 SWAP3 DUP11 DUP11 MLOAD SWAP4 PUSH3 0x461BCD PUSH1 0xE5 SHL DUP6 MSTORE DUP5 ADD MSTORE DUP3 ADD MSTORE PUSH16 0x20B63932B0B23C90309036B2B6B132B9 PUSH1 0x81 SHL PUSH1 0x44 DUP3 ADD MSTORE REVERT JUMPDEST SWAP1 PUSH1 0x17 PUSH1 0x64 SWAP3 PUSH1 0x20 DUP8 MLOAD SWAP4 PUSH3 0x461BCD PUSH1 0xE5 SHL DUP6 MSTORE DUP5 ADD MSTORE DUP3 ADD MSTORE PUSH32 0x496E76616C6964206F7267616E697A6174696F6E204944000000000000000000 PUSH1 0x44 DUP3 ADD MSTORE REVERT JUMPDEST POP CALLVALUE PUSH2 0x4E4 JUMPI PUSH1 0x20 SWAP2 DUP3 PUSH1 0x3 NOT CALLDATASIZE ADD SLT PUSH2 0x4E0 JUMPI DUP1 CALLDATALOAD SWAP1 PUSH8 0xFFFFFFFFFFFFFFFF DUP3 GT PUSH2 0x4DC JUMPI PUSH2 0x1662 DUP5 SWAP2 PUSH2 0x1674 SWAP4 CALLDATASIZE SWAP2 ADD PUSH2 0x186A JUMP JUMPDEST DUP2 DUP5 MLOAD SWAP4 DUP3 DUP6 DUP1 SWAP5 MLOAD SWAP4 DUP5 SWAP3 ADD PUSH2 0x18F2 JUMP JUMPDEST DUP2 ADD PUSH1 0x6 DUP2 MSTORE SUB ADD SWAP1 KECCAK256 SWAP3 DUP2 MLOAD DUP1 SWAP4 DUP1 DUP7 SLOAD SWAP3 DUP4 DUP2 MSTORE ADD SWAP6 DUP4 MSTORE DUP1 DUP4 KECCAK256 SWAP3 SWAP1 JUMPDEST DUP3 DUP3 LT PUSH2 0x16B6 JUMPI PUSH2 0x609 DUP7 DUP7 PUSH2 0x16AC DUP3 DUP12 SUB DUP4 PUSH2 0x1848 JUMP JUMPDEST MLOAD SWAP2 DUP3 SWAP2 DUP3 PUSH2 0x17D1 JUMP JUMPDEST DUP4 SLOAD PUSH1 0x1 PUSH1 0x1 PUSH1 0xA0 SHL SUB AND DUP8 MSTORE SWAP6 DUP7 ADD SWAP6 PUSH1 0x1 SWAP4 DUP5 ADD SWAP4 SWAP1 SWAP2 ADD SWAP1 PUSH2 0x1694 JUMP JUMPDEST DUP4 DUP3 CALLVALUE PUSH2 0x523 JUMPI DUP2 PUSH1 0x3 NOT CALLDATASIZE ADD SLT PUSH2 0x523 JUMPI PUSH1 0x20 SWAP1 MLOAD PUSH32 0x14823911F2DA1B49F045A0929A60B8C1F2A7FC8C06C7284CA3E8AB4E193A08C8 DUP2 MSTORE RETURN JUMPDEST POP CALLVALUE PUSH2 0x4E4 JUMPI PUSH1 0x20 SWAP2 DUP3 PUSH1 0x3 NOT CALLDATASIZE ADD SLT PUSH2 0x4E0 JUMPI CALLDATALOAD DUP4 MSTORE PUSH1 0x5 DUP3 MSTORE DUP1 DUP4 KECCAK256 SWAP3 DUP2 MLOAD DUP1 SWAP4 DUP1 DUP7 SLOAD SWAP3 DUP4 DUP2 MSTORE ADD SWAP6 DUP4 MSTORE DUP1 DUP4 KECCAK256 SWAP3 SWAP1 JUMPDEST DUP3 DUP3 LT PUSH2 0x175D JUMPI PUSH2 0x609 DUP7 DUP7 PUSH2 0x16AC DUP3 DUP12 SUB DUP4 PUSH2 0x1848 JUMP JUMPDEST DUP4 SLOAD PUSH1 0x1 PUSH1 0x1 PUSH1 0xA0 SHL SUB AND DUP8 MSTORE SWAP6 DUP7 ADD SWAP6 PUSH1 0x1 SWAP4 DUP5 ADD SWAP4 SWAP1 SWAP2 ADD SWAP1 PUSH2 0x1745 JUMP JUMPDEST DUP5 SWAP1 DUP5 CALLVALUE PUSH2 0x4E4 JUMPI PUSH1 0x20 CALLDATASIZE PUSH1 0x3 NOT ADD SLT PUSH2 0x4E4 JUMPI CALLDATALOAD PUSH4 0xFFFFFFFF PUSH1 0xE0 SHL DUP2 AND DUP1 SWAP2 SUB PUSH2 0x4E4 JUMPI PUSH1 0x20 SWAP3 POP PUSH4 0x7965DB0B PUSH1 0xE0 SHL DUP2 EQ SWAP1 DUP2 ISZERO PUSH2 0x17C0 JUMPI JUMPDEST POP ISZERO ISZERO DUP2 MSTORE RETURN JUMPDEST PUSH4 0x1FFC9A7 PUSH1 0xE0 SHL EQ SWAP1 POP DUP4 PUSH2 0x17B9 JUMP JUMPDEST PUSH1 0x20 SWAP1 DUP2 PUSH1 0x40 DUP2 DUP4 ADD SWAP3 DUP3 DUP2 MSTORE DUP6 MLOAD DUP1 SWAP5 MSTORE ADD SWAP4 ADD SWAP2 PUSH1 0x0 JUMPDEST DUP3 DUP2 LT PUSH2 0x17F8 JUMPI POP POP POP POP SWAP1 JUMP JUMPDEST DUP4 MLOAD PUSH1 0x1 PUSH1 0x1 PUSH1 0xA0 SHL SUB AND DUP6 MSTORE SWAP4 DUP2 ADD SWAP4 SWAP3 DUP2 ADD SWAP3 PUSH1 0x1 ADD PUSH2 0x17EA JUMP JUMPDEST PUSH2 0x120 DUP2 ADD SWAP1 DUP2 LT PUSH8 0xFFFFFFFFFFFFFFFF DUP3 GT OR PUSH2 0x1832 JUMPI PUSH1 0x40 MSTORE JUMP JUMPDEST PUSH4 0x4E487B71 PUSH1 0xE0 SHL PUSH1 0x0 MSTORE PUSH1 0x41 PUSH1 0x4 MSTORE PUSH1 0x24 PUSH1 0x0 REVERT JUMPDEST SWAP1 PUSH1 0x1F DUP1 NOT SWAP2 ADD AND DUP2 ADD SWAP1 DUP2 LT PUSH8 0xFFFFFFFFFFFFFFFF DUP3 GT OR PUSH2 0x1832 JUMPI PUSH1 0x40 MSTORE JUMP JUMPDEST DUP2 PUSH1 0x1F DUP3 ADD SLT ISZERO PUSH2 0x18C1 JUMPI DUP1 CALLDATALOAD SWAP1 PUSH8 0xFFFFFFFFFFFFFFFF DUP3 GT PUSH2 0x1832 JUMPI PUSH1 0x40 MLOAD SWAP3 PUSH2 0x189F PUSH1 0x1F DUP5 ADD PUSH1 0x1F NOT AND PUSH1 0x20 ADD DUP6 PUSH2 0x1848 JUMP JUMPDEST DUP3 DUP5 MSTORE PUSH1 0x20 DUP4 DUP4 ADD ADD GT PUSH2 0x18C1 JUMPI DUP2 PUSH1 0x0 SWAP3 PUSH1 0x20 DUP1 SWAP4 ADD DUP4 DUP7 ADD CALLDATACOPY DUP4 ADD ADD MSTORE SWAP1 JUMP JUMPDEST PUSH1 0x0 DUP1 REVERT JUMPDEST PUSH1 0x24 CALLDATALOAD SWAP1 PUSH1 0x1 PUSH1 0x1 PUSH1 0xA0 SHL SUB DUP3 AND DUP3 SUB PUSH2 0x18C1 JUMPI JUMP JUMPDEST PUSH1 0x4 CALLDATALOAD SWAP1 PUSH1 0x1 PUSH1 0x1 PUSH1 0xA0 SHL SUB DUP3 AND DUP3 SUB PUSH2 0x18C1 JUMPI JUMP JUMPDEST PUSH1 0x0 JUMPDEST DUP4 DUP2 LT PUSH2 0x1905 JUMPI POP POP PUSH1 0x0 SWAP2 ADD MSTORE JUMP JUMPDEST DUP2 DUP2 ADD MLOAD DUP4 DUP3 ADD MSTORE PUSH1 0x20 ADD PUSH2 0x18F5 JUMP JUMPDEST DUP1 SLOAD DUP3 LT ISZERO PUSH2 0x192D JUMPI PUSH1 0x0 MSTORE PUSH1 0x20 PUSH1 0x0 KECCAK256 ADD SWAP1 PUSH1 0x0 SWAP1 JUMP JUMPDEST PUSH4 0x4E487B71 PUSH1 0xE0 SHL PUSH1 0x0 MSTORE PUSH1 0x32 PUSH1 0x4 MSTORE PUSH1 0x24 PUSH1 0x0 REVERT JUMPDEST SWAP1 PUSH1 0x1 DUP3 DUP2 SHR SWAP3 AND DUP1 ISZERO PUSH2 0x1973 JUMPI JUMPDEST PUSH1 0x20 DUP4 LT EQ PUSH2 0x195D JUMPI JUMP JUMPDEST PUSH4 0x4E487B71 PUSH1 0xE0 SHL PUSH1 0x0 MSTORE PUSH1 0x22 PUSH1 0x4 MSTORE PUSH1 0x24 PUSH1 0x0 REVERT JUMPDEST SWAP2 PUSH1 0x7F AND SWAP2 PUSH2 0x1952 JUMP JUMPDEST SWAP1 PUSH1 0x0 SWAP3 SWAP2 DUP1 SLOAD SWAP2 PUSH2 0x198E DUP4 PUSH2 0x1943 JUMP JUMPDEST SWAP2 DUP3 DUP3 MSTORE PUSH1 0x1 SWAP4 DUP5 DUP2 AND SWAP1 DUP2 PUSH1 0x0 EQ PUSH2 0x19F0 JUMPI POP PUSH1 0x1 EQ PUSH2 0x19B0 JUMPI JUMPDEST POP POP POP POP JUMP JUMPDEST SWAP1 SWAP2 SWAP4 SWAP5 POP PUSH1 0x0 MSTORE PUSH1 0x20 SWAP3 DUP4 PUSH1 0x0 KECCAK256 SWAP3 DUP5 PUSH1 0x0 SWAP5 JUMPDEST DUP4 DUP7 LT PUSH2 0x19DC JUMPI POP POP POP POP ADD ADD SWAP1 CODESIZE DUP1 DUP1 DUP1 PUSH2 0x19AA JUMP JUMPDEST DUP1 SLOAD DUP6 DUP8 ADD DUP4 ADD MSTORE SWAP5 ADD SWAP4 DUP6 SWAP1 DUP3 ADD PUSH2 0x19C5 JUMP JUMPDEST SWAP3 SWAP5 POP POP POP PUSH1 0x20 SWAP4 SWAP5 POP PUSH1 0xFF NOT AND DUP4 DUP4 ADD MSTORE ISZERO ISZERO PUSH1 0x5 SHL ADD ADD SWAP1 CODESIZE DUP1 DUP1 DUP1 PUSH2 0x19AA JUMP JUMPDEST SWAP1 PUSH1 0x20 SWAP2 PUSH2 0x1A2C DUP2 MLOAD DUP1 SWAP3 DUP2 DUP6 MSTORE DUP6 DUP1 DUP7 ADD SWAP2 ADD PUSH2 0x18F2 JUMP JUMPDEST PUSH1 0x1F ADD PUSH1 0x1F NOT AND ADD ADD SWAP1 JUMP JUMPDEST DUP1 PUSH1 0x0 MSTORE PUSH1 0x0 PUSH1 0x20 MSTORE PUSH1 0x40 PUSH1 0x0 KECCAK256 CALLER PUSH1 0x0 MSTORE PUSH1 0x20 MSTORE PUSH1 0xFF PUSH1 0x40 PUSH1 0x0 KECCAK256 SLOAD AND ISZERO PUSH2 0x1A5E JUMPI POP JUMP JUMPDEST PUSH1 0x44 SWAP1 PUSH1 0x40 MLOAD SWAP1 PUSH4 0xE2517D3F PUSH1 0xE0 SHL DUP3 MSTORE CALLER PUSH1 0x4 DUP4 ADD MSTORE PUSH1 0x24 DUP3 ADD MSTORE REVERT JUMPDEST SWAP1 PUSH1 0x0 SWAP2 DUP1 DUP4 MSTORE DUP3 PUSH1 0x20 MSTORE PUSH1 0x40 DUP4 KECCAK256 SWAP2 PUSH1 0x1 DUP1 PUSH1 0xA0 SHL SUB AND SWAP2 DUP3 DUP5 MSTORE PUSH1 0x20 MSTORE PUSH1 0xFF PUSH1 0x40 DUP5 KECCAK256 SLOAD AND ISZERO PUSH1 0x0 EQ PUSH2 0x1AF5 JUMPI DUP1 DUP4 MSTORE DUP3 PUSH1 0x20 MSTORE PUSH1 0x40 DUP4 KECCAK256 DUP3 DUP5 MSTORE PUSH1 0x20 MSTORE PUSH1 0x40 DUP4 KECCAK256 PUSH1 0x1 PUSH1 0xFF NOT DUP3 SLOAD AND OR SWAP1 SSTORE PUSH32 0x2F8788117E7EFF1D82E926EC794901D17C78024A50270940304540A733656F0D CALLER SWAP4 DUP1 LOG4 PUSH1 0x1 SWAP1 JUMP JUMPDEST POP POP SWAP1 JUMP JUMPDEST SWAP1 PUSH1 0x0 SWAP2 DUP1 DUP4 MSTORE DUP3 PUSH1 0x20 MSTORE PUSH1 0x40 DUP4 KECCAK256 SWAP2 PUSH1 0x1 DUP1 PUSH1 0xA0 SHL SUB AND SWAP2 DUP3 DUP5 MSTORE PUSH1 0x20 MSTORE PUSH1 0xFF PUSH1 0x40 DUP5 KECCAK256 SLOAD AND PUSH1 0x0 EQ PUSH2 0x1AF5 JUMPI DUP1 DUP4 MSTORE DUP3 PUSH1 0x20 MSTORE PUSH1 0x40 DUP4 KECCAK256 DUP3 DUP5 MSTORE PUSH1 0x20 MSTORE PUSH1 0x40 DUP4 KECCAK256 PUSH1 0xFF NOT DUP2 SLOAD AND SWAP1 SSTORE PUSH32 0xF6391F5C32D9C69D2A47EA670B442974B53935D1EDC7FD64EB21E047A839171B CALLER SWAP4 DUP1 LOG4 PUSH1 0x1 SWAP1 JUMP JUMPDEST SWAP1 DUP2 SLOAD SWAP2 PUSH1 0x1 PUSH1 0x40 SHL DUP4 LT ISZERO PUSH2 0x1832 JUMPI DUP3 PUSH2 0x2D5 SWAP2 PUSH1 0x1 PUSH2 0x1B92 SWAP6 ADD DUP2 SSTORE PUSH2 0x1915 JUMP JUMPDEST JUMP JUMPDEST PUSH1 0x2 PUSH1 0x1 SLOAD EQ PUSH2 0x1BA5 JUMPI PUSH1 0x2 PUSH1 0x1 SSTORE JUMP JUMPDEST PUSH1 0x40 MLOAD PUSH4 0x3EE5AEB5 PUSH1 0xE0 SHL DUP2 MSTORE PUSH1 0x4 SWAP1 REVERT JUMPDEST SWAP1 PUSH1 0x0 SWAP2 DUP3 MSTORE PUSH1 0x4 PUSH1 0x20 MSTORE PUSH1 0x40 DUP3 KECCAK256 PUSH1 0x1 DUP1 PUSH1 0xA0 SHL SUB DUP1 SWAP3 AND DUP4 MSTORE PUSH1 0x20 MSTORE PUSH2 0x100 PUSH1 0x40 DUP4 KECCAK256 PUSH1 0x40 MLOAD SWAP3 PUSH2 0x1BE9 DUP5 PUSH2 0x1815 JUMP JUMPDEST DUP2 SLOAD DUP5 MSTORE DUP1 PUSH1 0x1 DUP4 ADD SLOAD AND PUSH1 0x20 DUP6 ADD MSTORE PUSH1 0x2 DUP3 ADD SLOAD AND PUSH1 0x40 DUP5 ADD MSTORE PUSH1 0x3 DUP2 ADD SLOAD SWAP3 DUP4 PUSH1 0x60 DUP3 ADD MSTORE PUSH1 0xFF PUSH1 0x6 PUSH1 0x4 DUP5 ADD SLOAD SWAP4 DUP3 DUP1 DUP7 AND ISZERO SWAP6 DUP7 ISZERO PUSH1 0x80 DUP8 ADD MSTORE DUP2 DUP2 PUSH1 0x8 SHR AND ISZERO ISZERO PUSH1 0xA0 DUP8 ADD MSTORE PUSH1 0x10 SHR AND ISZERO ISZERO PUSH1 0xC0 DUP6 ADD MSTORE PUSH1 0x5 DUP2 ADD SLOAD PUSH1 0xE0 DUP6 ADD MSTORE ADD SLOAD AND ISZERO SWAP1 DUP2 ISZERO SWAP4 DUP5 SWAP2 ADD MSTORE SWAP2 PUSH2 0x1C86 JUMPI JUMPDEST POP PUSH2 0x1C82 JUMPI DUP1 ISZERO ISZERO SWAP1 DUP2 PUSH2 0x1C78 JUMPI JUMPDEST POP PUSH2 0x1C75 JUMPI POP PUSH1 0x1 SWAP1 JUMP JUMPDEST SWAP1 JUMP JUMPDEST SWAP1 POP TIMESTAMP GT CODESIZE PUSH2 0x1C6A JUMP JUMPDEST POP SWAP1 JUMP JUMPDEST SWAP1 POP CODESIZE PUSH2 0x1C5B JUMP JUMPDEST PUSH1 0x1 PUSH1 0x1 PUSH1 0xA0 SHL SUB SWAP2 DUP3 AND PUSH1 0x0 DUP2 DUP2 MSTORE PUSH32 0x1DA0B5176DFE03406AF5A6EED66CA01DDA9B45AC4DA671C3FA379CB93717EF81 PUSH1 0x20 MSTORE PUSH1 0x40 DUP1 DUP3 KECCAK256 SLOAD SWAP2 SWAP5 SWAP4 SWAP3 SWAP1 SWAP2 PUSH1 0xFF AND PUSH2 0x1D82 JUMPI PUSH2 0x100 SWAP3 DUP6 MSTORE PUSH1 0x4 PUSH1 0x20 MSTORE DUP2 DUP6 KECCAK256 SWAP1 DUP6 MSTORE PUSH1 0x20 MSTORE DUP1 DUP5 KECCAK256 SWAP1 DUP1 MLOAD SWAP4 PUSH2 0x1CF9 DUP6 PUSH2 0x1815 JUMP JUMPDEST DUP3 SLOAD DUP6 MSTORE DUP1 PUSH1 0x1 DUP5 ADD SLOAD AND PUSH1 0x20 DUP7 ADD MSTORE PUSH1 0x2 DUP4 ADD SLOAD AND SWAP1 DUP5 ADD MSTORE PUSH1 0x3 DUP2 ADD SLOAD SWAP3 DUP4 PUSH1 0x60 DUP3 ADD MSTORE PUSH1 0xFF PUSH1 0x6 PUSH1 0x4 DUP5 ADD SLOAD SWAP4 DUP3 DUP6 AND ISZERO ISZERO PUSH1 0x80 DUP6 ADD MSTORE DUP3 DUP1 DUP7 PUSH1 0x8 SHR AND ISZERO SWAP6 DUP7 ISZERO PUSH1 0xA0 DUP8 ADD MSTORE PUSH1 0x10 SHR AND ISZERO ISZERO PUSH1 0xC0 DUP6 ADD MSTORE PUSH1 0x5 DUP2 ADD SLOAD PUSH1 0xE0 DUP6 ADD MSTORE ADD SLOAD AND ISZERO SWAP1 DUP2 ISZERO SWAP4 DUP5 SWAP2 ADD MSTORE SWAP2 PUSH2 0x1C86 JUMPI POP PUSH2 0x1C82 JUMPI DUP1 ISZERO ISZERO SWAP1 DUP2 PUSH2 0x1C78 JUMPI POP PUSH2 0x1C75 JUMPI POP PUSH1 0x1 SWAP1 JUMP JUMPDEST POP POP POP POP POP PUSH1 0x1 SWAP1 JUMP JUMPDEST SWAP1 PUSH1 0x0 SWAP2 DUP3 MSTORE PUSH1 0x4 PUSH1 0x20 MSTORE PUSH1 0x40 DUP3 KECCAK256 PUSH1 0x1 DUP1 PUSH1 0xA0 SHL SUB DUP1 SWAP3 AND DUP4 MSTORE PUSH1 0x20 MSTORE PUSH2 0x100 PUSH1 0x40 DUP4 KECCAK256 PUSH1 0x40 MLOAD SWAP3 PUSH2 0x1DBE DUP5 PUSH2 0x1815 JUMP JUMPDEST DUP2 SLOAD DUP5 MSTORE DUP1 PUSH1 0x1 DUP4 ADD SLOAD AND PUSH1 0x20 DUP6 ADD MSTORE PUSH1 0x2 DUP3 ADD SLOAD AND PUSH1 0x40 DUP5 ADD MSTORE PUSH1 0x3 DUP2 ADD SLOAD SWAP3 DUP4 PUSH1 0x60 DUP3 ADD MSTORE PUSH1 0xFF PUSH1 0x6 DUP2 PUSH1 0x4 DUP6 ADD SLOAD DUP2 DUP2 AND ISZERO ISZERO PUSH1 0x80 DUP7 ADD MSTORE DUP2 DUP2 PUSH1 0x8 SHR AND ISZERO ISZERO PUSH1 0xA0 DUP7 ADD MSTORE PUSH1 0x10 SHR AND ISZERO SWAP4 DUP5 ISZERO PUSH1 0xC0 DUP6 ADD MSTORE PUSH1 0x5 DUP2 ADD SLOAD PUSH1 0xE0 DUP6 ADD MSTORE ADD SLOAD AND ISZERO SWAP1 DUP2 ISZERO SWAP4 DUP5 SWAP2 ADD MSTORE SWAP2 PUSH2 0x1C86 JUMPI POP PUSH2 0x1C82 JUMPI DUP1 ISZERO ISZERO SWAP1 DUP2 PUSH2 0x1C78 JUMPI POP PUSH2 0x1C75 JUMPI POP PUSH1 0x1 SWAP1 JUMP JUMPDEST ISZERO PUSH2 0x1E4E JUMPI JUMP JUMPDEST PUSH1 0x40 MLOAD PUSH3 0x461BCD PUSH1 0xE5 SHL DUP2 MSTORE PUSH1 0x20 PUSH1 0x4 DUP3 ADD MSTORE PUSH1 0xC PUSH1 0x24 DUP3 ADD MSTORE PUSH12 0x496E76616C696420726F6C65 PUSH1 0xA0 SHL PUSH1 0x44 DUP3 ADD MSTORE PUSH1 0x64 SWAP1 REVERT JUMPDEST PUSH1 0x1 PUSH1 0x1 PUSH1 0xA0 SHL SUB AND PUSH1 0x0 SWAP1 DUP2 MSTORE PUSH1 0x3 PUSH1 0x20 MSTORE PUSH1 0x40 DUP2 KECCAK256 SLOAD DUP1 ISZERO PUSH2 0x1EBE JUMPI DUP2 PUSH1 0x40 SWAP2 PUSH1 0xFF SWAP4 MSTORE PUSH1 0x2 PUSH1 0x20 MSTORE DUP3 DUP3 DUP3 KECCAK256 SLOAD AND SWAP4 DUP2 MSTORE KECCAK256 SLOAD AND GT ISZERO SWAP1 JUMP JUMPDEST POP SWAP1 POP SWAP1 JUMP JUMPDEST PUSH1 0x1 PUSH1 0x1 PUSH1 0xA0 SHL SUB AND PUSH1 0x0 SWAP1 DUP2 MSTORE PUSH1 0x3 PUSH1 0x20 MSTORE PUSH1 0x40 SWAP1 KECCAK256 SLOAD DUP1 ISZERO PUSH2 0x1EFB JUMPI PUSH1 0x0 MSTORE PUSH1 0x2 PUSH1 0x20 MSTORE PUSH1 0xFF DUP1 PUSH1 0x40 PUSH1 0x0 KECCAK256 SLOAD AND SWAP2 AND GT ISZERO SWAP1 JUMP JUMPDEST POP POP PUSH1 0x0 SWAP1 JUMP JUMPDEST DUP2 DUP2 LT PUSH2 0x1F0D JUMPI POP POP JUMP JUMPDEST PUSH1 0x0 DUP2 SSTORE PUSH1 0x1 ADD PUSH2 0x1F02 JUMP JUMPDEST SWAP2 SWAP1 PUSH1 0x1F DUP2 GT PUSH2 0x1F28 JUMPI POP POP POP JUMP JUMPDEST PUSH2 0x1B92 SWAP3 PUSH1 0x0 MSTORE PUSH1 0x20 PUSH1 0x0 KECCAK256 SWAP1 PUSH1 0x20 PUSH1 0x1F DUP5 ADD PUSH1 0x5 SHR DUP4 ADD SWAP4 LT PUSH2 0x1F54 JUMPI JUMPDEST PUSH1 0x1F ADD PUSH1 0x5 SHR ADD SWAP1 PUSH2 0x1F02 JUMP JUMPDEST SWAP1 SWAP2 POP DUP2 SWAP1 PUSH2 0x1F47 JUMP JUMPDEST SWAP2 SWAP1 SWAP2 DUP3 MLOAD PUSH8 0xFFFFFFFFFFFFFFFF DUP2 GT PUSH2 0x1832 JUMPI PUSH2 0x1F86 DUP2 PUSH2 0x1F80 DUP5 SLOAD PUSH2 0x1943 JUMP JUMPDEST DUP5 PUSH2 0x1F19 JUMP JUMPDEST PUSH1 0x20 DUP1 PUSH1 0x1F DUP4 GT PUSH1 0x1 EQ PUSH2 0x1FC2 JUMPI POP DUP2 SWAP3 SWAP4 SWAP5 PUSH1 0x0 SWAP3 PUSH2 0x1FB7 JUMPI JUMPDEST POP POP DUP2 PUSH1 0x1 SHL SWAP2 PUSH1 0x0 NOT SWAP1 PUSH1 0x3 SHL SHR NOT AND OR SWAP1 SSTORE JUMP JUMPDEST ADD MLOAD SWAP1 POP CODESIZE DUP1 PUSH2 0x1FA1 JUMP JUMPDEST SWAP1 PUSH1 0x1F NOT DUP4 AND SWAP6 DUP5 PUSH1 0x0 MSTORE DUP3 PUSH1 0x0 KECCAK256 SWAP3 PUSH1 0x0 SWAP1 JUMPDEST DUP9 DUP3 LT PUSH2 0x200E JUMPI POP POP DUP4 PUSH1 0x1 SWAP6 SWAP7 SWAP8 LT PUSH2 0x1FF5 JUMPI JUMPDEST POP POP POP DUP2 SHL ADD SWAP1 SSTORE JUMP JUMPDEST ADD MLOAD PUSH1 0x0 NOT PUSH1 0xF8 DUP5 PUSH1 0x3 SHL AND SHR NOT AND SWAP1 SSTORE CODESIZE DUP1 DUP1 PUSH2 0x1FEB JUMP JUMPDEST DUP1 PUSH1 0x1 DUP6 SWAP7 DUP3 SWAP5 SWAP7 DUP7 ADD MLOAD DUP2 SSTORE ADD SWAP6 ADD SWAP4 ADD SWAP1 PUSH2 0x1FD6 JUMP JUMPDEST PUSH2 0x203E SWAP1 PUSH1 0x20 PUSH1 0x40 MLOAD SWAP3 DUP3 DUP5 DUP1 SWAP5 MLOAD SWAP4 DUP5 SWAP3 ADD PUSH2 0x18F2 JUMP JUMPDEST DUP2 ADD SUB SWAP1 KECCAK256 SWAP1 JUMP JUMPDEST PUSH1 0x0 NOT DUP2 EQ PUSH2 0x2055 JUMPI PUSH1 0x1 ADD SWAP1 JUMP JUMPDEST PUSH4 0x4E487B71 PUSH1 0xE0 SHL PUSH1 0x0 MSTORE PUSH1 0x11 PUSH1 0x4 MSTORE PUSH1 0x24 PUSH1 0x0 REVERT JUMPDEST DUP1 SLOAD DUP1 ISZERO PUSH2 0x2098 JUMPI PUSH1 0x0 NOT ADD SWAP1 PUSH2 0x2082 DUP3 DUP3 PUSH2 0x1915 JUMP JUMPDEST DUP2 SLOAD SWAP1 PUSH1 0x1 DUP1 PUSH1 0xA0 SHL SUB SWAP1 PUSH1 0x3 SHL SHL NOT AND SWAP1 SSTORE SSTORE JUMP JUMPDEST PUSH4 0x4E487B71 PUSH1 0xE0 SHL PUSH1 0x0 MSTORE PUSH1 0x31 PUSH1 0x4 MSTORE PUSH1 0x24 PUSH1 0x0 REVERT JUMPDEST SWAP1 DUP1 DUP3 EQ PUSH2 0x2187 JUMPI PUSH2 0x20C0 DUP2 SLOAD PUSH2 0x1943 JUMP JUMPDEST SWAP1 PUSH8 0xFFFFFFFFFFFFFFFF DUP3 GT PUSH2 0x1832 JUMPI DUP2 SWAP1 PUSH2 0x20E6 DUP3 PUSH2 0x20E0 DUP7 SLOAD PUSH2 0x1943 JUMP JUMPDEST DUP7 PUSH2 0x1F19 JUMP JUMPDEST PUSH1 0x0 SWAP1 PUSH1 0x1F DUP4 GT PUSH1 0x1 EQ PUSH2 0x211C JUMPI PUSH1 0x0 SWAP3 PUSH2 0x2111 JUMPI POP POP DUP2 PUSH1 0x1 SHL SWAP2 PUSH1 0x0 NOT SWAP1 PUSH1 0x3 SHL SHR NOT AND OR SWAP1 SSTORE JUMP JUMPDEST ADD SLOAD SWAP1 POP CODESIZE DUP1 PUSH2 0x1FA1 JUMP JUMPDEST DUP2 MSTORE PUSH1 0x20 DUP1 DUP3 KECCAK256 DUP6 DUP4 MSTORE DUP2 DUP4 KECCAK256 SWAP4 POP SWAP1 PUSH1 0x1F NOT DUP6 AND SWAP1 DUP4 SWAP1 JUMPDEST DUP3 DUP3 LT PUSH2 0x216E JUMPI POP POP SWAP1 DUP5 PUSH1 0x1 SWAP6 SWAP5 SWAP4 SWAP3 LT PUSH2 0x2155 JUMPI POP POP POP DUP2 SHL ADD SWAP1 SSTORE JUMP JUMPDEST ADD SLOAD PUSH1 0x0 NOT PUSH1 0xF8 DUP5 PUSH1 0x3 SHL AND SHR NOT AND SWAP1 SSTORE CODESIZE DUP1 DUP1 PUSH2 0x1FEB JUMP JUMPDEST DUP5 SWAP6 DUP2 SWAP3 SWAP6 DUP6 ADD SLOAD DUP2 SSTORE PUSH1 0x1 DUP1 SWAP2 ADD SWAP7 ADD SWAP5 ADD SWAP1 PUSH2 0x2135 JUMP JUMPDEST POP POP JUMP INVALID LOG2 PUSH5 0x6970667358 0x22 SLT KECCAK256 0x5C PUSH4 0x13BC149D 0x5D 0xD4 SWAP14 SWAP5 SWAP5 0xFB 0xA6 PUSH19 0xCFD75E764C0D84D32C24C084B2CC0D845DF64 PUSH20 0x6F6C634300081400332F8788117E7EFF1D82E926 0xEC PUSH26 0x4901D17C78024A50270940304540A733656F0D5520D115CEFFB8 DUP16 MUL BALANCE 0x5D PUSH5 0x6CD7618D18 MUL 0x4F PUSH6 0x7AFE79486524 RETURNDATACOPY 0xD5 0xB7 PUSH0 0xB0 0x4F PUSH18 0xF3D55856E4058ED06EE057D79ADA615F65CD CREATE2 0xF9 0xEE DUP9 XOR SHL SWAP2 TIMESTAMP 0x25 ADDMOD DUP16 DUP4 0x4F EQ DUP3 CODECOPY GT CALLCODE 0xDA SHL 0x49 CREATE GASLIMIT LOG0 SWAP3 SWAP11 PUSH1 0xB8 0xC1 CALLCODE 0xA7 0xFC DUP13 MOD 0xC7 0x28 0x4C LOG3 0xE8 0xAB 0x4E NOT GASPRICE ADDMOD 0xC8 LOG4 SWAP9 SMOD KECCAK256 0x5C 0xE4 0xD3 SSTORE MULMOD 0x2E CREATE2 0xA8 LOG1 DUP16 JUMP 0xE8 SWAP2 EXTCODECOPY DELEGATECALL LOG2 ADD 0xFB 0xE2 DUP8 DUP3 JUMPDEST MULMOD JUMP SWAP4 0xC2 OR PUSH22 0xCE23C3E399818CFEE81A7AB0880F714E53D7672B08D CREATE STATICCALL PUSH3 0xF28434 AND 0xE1 0xEA MULMOD "},"methodIdentifiers":{"ADMIN_ROLE()":"75b238fc","AUDITOR_ROLE()":"6e1d616e","DEFAULT_ADMIN_ROLE()":"a217fddf","DOCUMENT_MANAGER_ROLE()":"cffafec2","MODERATOR_ROLE()":"797669c9","USER_ROLE()":"13119161","VERIFIER_ROLE()":"e7705db6","assignUserRole(address,bytes32)":"d0fb9850","canPerformAction(address,uint8)":"39e32d31","documentAccess(uint256,address)":"58cd8ca5","documentAccessList(uint256,uint256)":"a260d07f","getAccessPermission(uint256,address)":"4db65851","getDocumentAccessList(uint256)":"0b6abe8b","getOrganizationMembers(string)":"14ebc2d8","getRoleAdmin(bytes32)":"248a9ca3","getUserOrganizations(address)":"aa097ef0","getUserRole(address)":"27820851","grantDocumentAccess(uint256,address,uint256,bool,bool,bool)":"3fef6a56","grantRole(bytes32,address)":"2f2ff15d","hasReadAccess(uint256,address)":"69366e57","hasRole(bytes32,address)":"91d14854","hasRoleOrHigher(address,bytes32)":"39825cf2","hasTransferAccess(uint256,address)":"969772bc","hasVerifyAccess(uint256,address)":"26efadd7","joinOrganization(string,string)":"1bc5a1dc","leaveOrganization(string)":"f147add0","orgMemberDetails(string,address)":"856e0019","organizationMembers(string,uint256)":"2859171a","renounceRole(bytes32,address)":"36568abe","revokeDocumentAccess(uint256,address)":"6b0cdf1d","revokeRole(bytes32,address)":"d547741f","roleHierarchy(bytes32)":"d4ee1543","supportsInterface(bytes4)":"01ffc9a7","userOrganizations(address,uint256)":"d4b5bf56","userRoles(address)":"74d5e100"}}}}}