{"contracts/SubscriptionPayments.sol":{"SubscriptionPayments":{"abi":[{"inputs":[{"internalType":"address","name":"usdfcToken","type":"address"},{"internalType":"address","name":"initialTreasury","type":"address"}],"stateMutability":"nonpayable","type":"constructor"},{"inputs":[{"internalType":"address","name":"owner","type":"address"}],"name":"OwnableInvalidOwner","type":"error"},{"inputs":[{"internalType":"address","name":"account","type":"address"}],"name":"OwnableUnauthorizedAccount","type":"error"},{"anonymous":false,"inputs":[{"indexed":true,"internalType":"address","name":"previousOwner","type":"address"},{"indexed":true,"internalType":"address","name":"newOwner","type":"address"}],"name":"OwnershipTransferred","type":"event"},{"anonymous":false,"inputs":[{"indexed":true,"internalType":"uint256","name":"planId","type":"uint256"},{"indexed":false,"internalType":"uint256","name":"price","type":"uint256"},{"indexed":false,"internalType":"uint256","name":"durationSeconds","type":"uint256"}],"name":"PlanUpdated","type":"event"},{"anonymous":false,"inputs":[{"indexed":true,"internalType":"address","name":"user","type":"address"},{"indexed":true,"internalType":"uint256","name":"planId","type":"uint256"},{"indexed":false,"internalType":"uint256","name":"price","type":"uint256"},{"indexed":false,"internalType":"uint256","name":"expiresAt","type":"uint256"}],"name":"Subscribed","type":"event"},{"anonymous":false,"inputs":[{"indexed":true,"internalType":"address","name":"payer","type":"address"},{"indexed":false,"internalType":"uint256","name":"amount","type":"uint256"},{"indexed":false,"internalType":"uint256","name":"timestamp","type":"uint256"}],"name":"SubscriptionPaid","type":"event"},{"anonymous":false,"inputs":[{"indexed":true,"internalType":"address","name":"oldTreasury","type":"address"},{"indexed":true,"internalType":"address","name":"newTreasury","type":"address"}],"name":"TreasuryUpdated","type":"event"},{"inputs":[],"name":"owner","outputs":[{"internalType":"address","name":"","type":"address"}],"stateMutability":"view","type":"function"},{"inputs":[{"internalType":"uint256","name":"amount","type":"uint256"}],"name":"paySubscription","outputs":[{"internalType":"bool","name":"","type":"bool"}],"stateMutability":"nonpayable","type":"function"},{"inputs":[{"internalType":"uint256","name":"","type":"uint256"}],"name":"plans","outputs":[{"internalType":"uint256","name":"price","type":"uint256"},{"internalType":"uint256","name":"durationSeconds","type":"uint256"},{"internalType":"bool","name":"exists","type":"bool"}],"stateMutability":"view","type":"function"},{"inputs":[],"name":"renounceOwnership","outputs":[],"stateMutability":"nonpayable","type":"function"},{"inputs":[{"internalType":"uint256","name":"planId","type":"uint256"},{"internalType":"uint256","name":"price","type":"uint256"},{"internalType":"uint256","name":"durationSeconds","type":"uint256"}],"name":"setPlan","outputs":[],"stateMutability":"nonpayable","type":"function"},{"inputs":[{"internalType":"address","name":"newTreasury","type":"address"}],"name":"setTreasury","outputs":[],"stateMutability":"nonpayable","type":"function"},{"inputs":[{"internalType":"uint256","name":"planId","type":"uint256"}],"name":"subscribe","outputs":[{"internalType":"bool","name":"","type":"bool"}],"stateMutability":"nonpayable","type":"function"},{"inputs":[{"internalType":"address","name":"","type":"address"}],"name":"subscriptionExpires","outputs":[{"internalType":"uint256","name":"","type":"uint256"}],"stateMutability":"view","type":"function"},{"inputs":[{"internalType":"address","name":"newOwner","type":"address"}],"name":"transferOwnership","outputs":[],"stateMutability":"nonpayable","type":"function"},{"inputs":[],"name":"treasury","outputs":[{"internalType":"address","name":"","type":"address"}],"stateMutability":"view","type":"function"},{"inputs":[],"name":"usdfc","outputs":[{"internalType":"contract IERC20","name":"","type":"address"}],"stateMutability":"view","type":"function"}],"evm":{"bytecode":{"linkReferences":{},"object":"60a03461018957610a8e90601f38839003908101601f19168201906001600160401b0382118383101761018e578083916040958694855283398101031261018957610055602061004e836101a4565b92016101a4565b33156101715760008054336001600160a01b03198083168217845586519590946001600160a01b03949093859391908416907f8be0079c531659141344cd1fd0a4f28419497f9722a3daafe3b4186f6b6457e09080a31693841561012f5750169182156100eb576080526001541617600155516108d590816101b982396080518181816102ee01528181610586015261064d0152f35b835162461bcd60e51b815260206004820152601960248201527f54726561737572792061646472657373207265717569726564000000000000006044820152606490fd5b62461bcd60e51b815260206004820152601660248201527f55534446432061646472657373207265717569726564000000000000000000006044820152606490fd5b8251631e4fbdf760e01b815260006004820152602490fd5b600080fd5b634e487b7160e01b600052604160045260246000fd5b51906001600160a01b03821682036101895756fe608060408181526004908136101561001657600080fd5b600092833560e01c9081630f574ba7146105b5575080631006e4cb146105715780635ddc8cb51461045357806361d027b31461042a578063715018a6146103d05780637ac9b0981461029157806385959f2f146102575780638da5cb5b1461022b578063b1620616146101e6578063f0f442601461012d5763f2fde38b1461009d57600080fd5b34610129576020366003190112610129576001600160a01b03823581811693919290849003610125576100ce610793565b831561010f57505082546001600160a01b0319811683178455167f8be0079c531659141344cd1fd0a4f28419497f9722a3daafe3b4186f6b6457e08380a380f35b51631e4fbdf760e01b8152908101849052602490fd5b8480fd5b8280fd5b5034610129576020366003190112610129576001600160a01b038235818116939192908490036101255761015f610793565b83156101a3575050816001549182167f4ab5be82436d353e61ca18726e984e561f5c1cc7c6d38b29d2553c790434705a8580a36001600160a01b0319161760015580f35b906020606492519162461bcd60e51b8352820152601760248201527f54726561737572792063616e6e6f74206265207a65726f0000000000000000006044820152fd5b5090346101295760203660031901126101295760609282913581526002602052209081549160ff60026001830154920154169082519384526020840152151590820152f35b838234610253578160031936011261025357905490516001600160a01b039091168152602090f35b5080fd5b50903461012957602036600319011261012957356001600160a01b0381169081900361012957828291602094526003845220549051908152f35b50903461012957602092836003193601126103cd5781359182156103955760015484516323b872dd60e01b8152339281019283526001600160a01b03918216602084015260408301859052918691839182908690829060600103927f0000000000000000000000000000000000000000000000000000000000000000165af191821561038a57906103279261035d575b50610830565b815190815242838201527f6cd9d6bebf8cc2076dd424f83deb0559d8774d1c44178b4f676f9d50709fb1be823392a25160018152f35b61037d9150853d8711610383575b61037581836107f1565b810190610813565b38610321565b503d61036b565b8451903d90823e3d90fd5b835162461bcd60e51b815290810185905260126024820152710616d6f756e74206d757374206265203e20360741b6044820152606490fd5b80fd5b83346103cd57806003193601126103cd576103e9610793565b80546001600160a01b03198116825581906001600160a01b03167f8be0079c531659141344cd1fd0a4f28419497f9722a3daafe3b4186f6b6457e08280a380f35b83823461025357816003193601126102535760015490516001600160a01b039091168152602090f35b5034610129576060366003190112610129578135916024359060443590610478610793565b84156105365781156104fc57509082917f353a42a683526219c00406d501f12ed3b877e06934a00242bc50ecf7a779919d93516104b4816107bf565b828152600260208201918383528581019260018452888a5282602052868a2091518255516001820155019051151560ff8019835416911617905582519182526020820152a280f35b606490602085519162461bcd60e51b8352820152601460248201527306475726174696f6e206d757374206265203e20360641b6044820152fd5b606490602085519162461bcd60e51b83528201526015602482015274706c616e49642063616e6e6f74206265207a65726f60581b6044820152fd5b838234610253578160031936011261025357517f00000000000000000000000000000000000000000000000000000000000000006001600160a01b03168152602090f35b8285853461025357602093846003193601126101295781359283815260028652848120926105e2836107bf565b8354835260ff60026001860154958986019687520154161580158785015261075f5782511561072c57600154835187516323b872dd60e01b8152339381019384526001600160a01b0392831660208501526040840191909152918891839182908690829060600103927f0000000000000000000000000000000000000000000000000000000000000000165af1908115610722578291610689918894916107055750610830565b61069484514261087c565b933382526003885282822054904282116106ee575b505090839133815260038852205551908351918252848201527f5ad333a6d56a7ddb1e78d9ecb8047e9dafcb890a41a227ede8d950259a1f0f75833392a35160018152f35b6106fc92939550519061087c565b929087806106a9565b61071c9150893d8b116103835761037581836107f1565b89610321565b86513d84823e3d90fd5b855162461bcd60e51b8152908101879052600d60248201526c696e76616c696420707269636560981b6044820152606490fd5b855162461bcd60e51b8152908101879052600e60248201526d1c1b185b881b9bdd08199bdd5b9960921b6044820152606490fd5b6000546001600160a01b031633036107a757565b60405163118cdaa760e01b8152336004820152602490fd5b6060810190811067ffffffffffffffff8211176107db57604052565b634e487b7160e01b600052604160045260246000fd5b90601f8019910116810190811067ffffffffffffffff8211176107db57604052565b9081602091031261082b5751801515810361082b5790565b600080fd5b1561083757565b60405162461bcd60e51b815260206004820152601960248201527f5553444643207472616e7366657246726f6d206661696c6564000000000000006044820152606490fd5b9190820180921161088957565b634e487b7160e01b600052601160045260246000fdfea264697066735822122082fb6508517365ab5433d9f8c594ba85ce9e715f1a31d90a1d7b694f983dc7da64736f6c63430008140033","opcodes":"PUSH1 0xA0 CALLVALUE PUSH2 0x189 JUMPI PUSH2 0xA8E SWAP1 PUSH1 0x1F CODESIZE DUP4 SWAP1 SUB SWAP1 DUP2 ADD PUSH1 0x1F NOT AND DUP3 ADD SWAP1 PUSH1 0x1 PUSH1 0x1 PUSH1 0x40 SHL SUB DUP3 GT DUP4 DUP4 LT OR PUSH2 0x18E JUMPI DUP1 DUP4 SWAP2 PUSH1 0x40 SWAP6 DUP7 SWAP5 DUP6 MSTORE DUP4 CODECOPY DUP2 ADD SUB SLT PUSH2 0x189 JUMPI PUSH2 0x55 PUSH1 0x20 PUSH2 0x4E DUP4 PUSH2 0x1A4 JUMP JUMPDEST SWAP3 ADD PUSH2 0x1A4 JUMP JUMPDEST CALLER ISZERO PUSH2 0x171 JUMPI PUSH1 0x0 DUP1 SLOAD CALLER PUSH1 0x1 PUSH1 0x1 PUSH1 0xA0 SHL SUB NOT DUP1 DUP4 AND DUP3 OR DUP5 SSTORE DUP7 MLOAD SWAP6 SWAP1 SWAP5 PUSH1 0x1 PUSH1 0x1 PUSH1 0xA0 SHL SUB SWAP5 SWAP1 SWAP4 DUP6 SWAP4 SWAP2 SWAP1 DUP5 AND SWAP1 PUSH32 0x8BE0079C531659141344CD1FD0A4F28419497F9722A3DAAFE3B4186F6B6457E0 SWAP1 DUP1 LOG3 AND SWAP4 DUP5 ISZERO PUSH2 0x12F JUMPI POP AND SWAP2 DUP3 ISZERO PUSH2 0xEB JUMPI PUSH1 0x80 MSTORE PUSH1 0x1 SLOAD AND OR PUSH1 0x1 SSTORE MLOAD PUSH2 0x8D5 SWAP1 DUP2 PUSH2 0x1B9 DUP3 CODECOPY PUSH1 0x80 MLOAD DUP2 DUP2 DUP2 PUSH2 0x2EE ADD MSTORE DUP2 DUP2 PUSH2 0x586 ADD MSTORE PUSH2 0x64D ADD MSTORE RETURN JUMPDEST DUP4 MLOAD PUSH3 0x461BCD PUSH1 0xE5 SHL DUP2 MSTORE PUSH1 0x20 PUSH1 0x4 DUP3 ADD MSTORE PUSH1 0x19 PUSH1 0x24 DUP3 ADD MSTORE PUSH32 0x5472656173757279206164647265737320726571756972656400000000000000 PUSH1 0x44 DUP3 ADD MSTORE PUSH1 0x64 SWAP1 REVERT JUMPDEST PUSH3 0x461BCD PUSH1 0xE5 SHL DUP2 MSTORE PUSH1 0x20 PUSH1 0x4 DUP3 ADD MSTORE PUSH1 0x16 PUSH1 0x24 DUP3 ADD MSTORE PUSH32 0x5553444643206164647265737320726571756972656400000000000000000000 PUSH1 0x44 DUP3 ADD MSTORE PUSH1 0x64 SWAP1 REVERT JUMPDEST DUP3 MLOAD PUSH4 0x1E4FBDF7 PUSH1 0xE0 SHL DUP2 MSTORE PUSH1 0x0 PUSH1 0x4 DUP3 ADD MSTORE PUSH1 0x24 SWAP1 REVERT JUMPDEST PUSH1 0x0 DUP1 REVERT JUMPDEST PUSH4 0x4E487B71 PUSH1 0xE0 SHL PUSH1 0x0 MSTORE PUSH1 0x41 PUSH1 0x4 MSTORE PUSH1 0x24 PUSH1 0x0 REVERT JUMPDEST MLOAD SWAP1 PUSH1 0x1 PUSH1 0x1 PUSH1 0xA0 SHL SUB DUP3 AND DUP3 SUB PUSH2 0x189 JUMPI JUMP INVALID PUSH1 0x80 PUSH1 0x40 DUP2 DUP2 MSTORE PUSH1 0x4 SWAP1 DUP2 CALLDATASIZE LT ISZERO PUSH2 0x16 JUMPI PUSH1 0x0 DUP1 REVERT JUMPDEST PUSH1 0x0 SWAP3 DUP4 CALLDATALOAD PUSH1 0xE0 SHR SWAP1 DUP2 PUSH4 0xF574BA7 EQ PUSH2 0x5B5 JUMPI POP DUP1 PUSH4 0x1006E4CB EQ PUSH2 0x571 JUMPI DUP1 PUSH4 0x5DDC8CB5 EQ PUSH2 0x453 JUMPI DUP1 PUSH4 0x61D027B3 EQ PUSH2 0x42A JUMPI DUP1 PUSH4 0x715018A6 EQ PUSH2 0x3D0 JUMPI DUP1 PUSH4 0x7AC9B098 EQ PUSH2 0x291 JUMPI DUP1 PUSH4 0x85959F2F EQ PUSH2 0x257 JUMPI DUP1 PUSH4 0x8DA5CB5B EQ PUSH2 0x22B JUMPI DUP1 PUSH4 0xB1620616 EQ PUSH2 0x1E6 JUMPI DUP1 PUSH4 0xF0F44260 EQ PUSH2 0x12D JUMPI PUSH4 0xF2FDE38B EQ PUSH2 0x9D JUMPI PUSH1 0x0 DUP1 REVERT JUMPDEST CALLVALUE PUSH2 0x129 JUMPI PUSH1 0x20 CALLDATASIZE PUSH1 0x3 NOT ADD SLT PUSH2 0x129 JUMPI PUSH1 0x1 PUSH1 0x1 PUSH1 0xA0 SHL SUB DUP3 CALLDATALOAD DUP2 DUP2 AND SWAP4 SWAP2 SWAP3 SWAP1 DUP5 SWAP1 SUB PUSH2 0x125 JUMPI PUSH2 0xCE PUSH2 0x793 JUMP JUMPDEST DUP4 ISZERO PUSH2 0x10F JUMPI POP POP DUP3 SLOAD PUSH1 0x1 PUSH1 0x1 PUSH1 0xA0 SHL SUB NOT DUP2 AND DUP4 OR DUP5 SSTORE AND PUSH32 0x8BE0079C531659141344CD1FD0A4F28419497F9722A3DAAFE3B4186F6B6457E0 DUP4 DUP1 LOG3 DUP1 RETURN JUMPDEST MLOAD PUSH4 0x1E4FBDF7 PUSH1 0xE0 SHL DUP2 MSTORE SWAP1 DUP2 ADD DUP5 SWAP1 MSTORE PUSH1 0x24 SWAP1 REVERT JUMPDEST DUP5 DUP1 REVERT JUMPDEST DUP3 DUP1 REVERT JUMPDEST POP CALLVALUE PUSH2 0x129 JUMPI PUSH1 0x20 CALLDATASIZE PUSH1 0x3 NOT ADD SLT PUSH2 0x129 JUMPI PUSH1 0x1 PUSH1 0x1 PUSH1 0xA0 SHL SUB DUP3 CALLDATALOAD DUP2 DUP2 AND SWAP4 SWAP2 SWAP3 SWAP1 DUP5 SWAP1 SUB PUSH2 0x125 JUMPI PUSH2 0x15F PUSH2 0x793 JUMP JUMPDEST DUP4 ISZERO PUSH2 0x1A3 JUMPI POP POP DUP2 PUSH1 0x1 SLOAD SWAP2 DUP3 AND PUSH32 0x4AB5BE82436D353E61CA18726E984E561F5C1CC7C6D38B29D2553C790434705A DUP6 DUP1 LOG3 PUSH1 0x1 PUSH1 0x1 PUSH1 0xA0 SHL SUB NOT AND OR PUSH1 0x1 SSTORE DUP1 RETURN JUMPDEST SWAP1 PUSH1 0x20 PUSH1 0x64 SWAP3 MLOAD SWAP2 PUSH3 0x461BCD PUSH1 0xE5 SHL DUP4 MSTORE DUP3 ADD MSTORE PUSH1 0x17 PUSH1 0x24 DUP3 ADD MSTORE PUSH32 0x54726561737572792063616E6E6F74206265207A65726F000000000000000000 PUSH1 0x44 DUP3 ADD MSTORE REVERT JUMPDEST POP SWAP1 CALLVALUE PUSH2 0x129 JUMPI PUSH1 0x20 CALLDATASIZE PUSH1 0x3 NOT ADD SLT PUSH2 0x129 JUMPI PUSH1 0x60 SWAP3 DUP3 SWAP2 CALLDATALOAD DUP2 MSTORE PUSH1 0x2 PUSH1 0x20 MSTORE KECCAK256 SWAP1 DUP2 SLOAD SWAP2 PUSH1 0xFF PUSH1 0x2 PUSH1 0x1 DUP4 ADD SLOAD SWAP3 ADD SLOAD AND SWAP1 DUP3 MLOAD SWAP4 DUP5 MSTORE PUSH1 0x20 DUP5 ADD MSTORE ISZERO ISZERO SWAP1 DUP3 ADD MSTORE RETURN JUMPDEST DUP4 DUP3 CALLVALUE PUSH2 0x253 JUMPI DUP2 PUSH1 0x3 NOT CALLDATASIZE ADD SLT PUSH2 0x253 JUMPI SWAP1 SLOAD SWAP1 MLOAD PUSH1 0x1 PUSH1 0x1 PUSH1 0xA0 SHL SUB SWAP1 SWAP2 AND DUP2 MSTORE PUSH1 0x20 SWAP1 RETURN JUMPDEST POP DUP1 REVERT JUMPDEST POP SWAP1 CALLVALUE PUSH2 0x129 JUMPI PUSH1 0x20 CALLDATASIZE PUSH1 0x3 NOT ADD SLT PUSH2 0x129 JUMPI CALLDATALOAD PUSH1 0x1 PUSH1 0x1 PUSH1 0xA0 SHL SUB DUP2 AND SWAP1 DUP2 SWAP1 SUB PUSH2 0x129 JUMPI DUP3 DUP3 SWAP2 PUSH1 0x20 SWAP5 MSTORE PUSH1 0x3 DUP5 MSTORE KECCAK256 SLOAD SWAP1 MLOAD SWAP1 DUP2 MSTORE RETURN JUMPDEST POP SWAP1 CALLVALUE PUSH2 0x129 JUMPI PUSH1 0x20 SWAP3 DUP4 PUSH1 0x3 NOT CALLDATASIZE ADD SLT PUSH2 0x3CD JUMPI DUP2 CALLDATALOAD SWAP2 DUP3 ISZERO PUSH2 0x395 JUMPI PUSH1 0x1 SLOAD DUP5 MLOAD PUSH4 0x23B872DD PUSH1 0xE0 SHL DUP2 MSTORE CALLER SWAP3 DUP2 ADD SWAP3 DUP4 MSTORE PUSH1 0x1 PUSH1 0x1 PUSH1 0xA0 SHL SUB SWAP2 DUP3 AND PUSH1 0x20 DUP5 ADD MSTORE PUSH1 0x40 DUP4 ADD DUP6 SWAP1 MSTORE SWAP2 DUP7 SWAP2 DUP4 SWAP2 DUP3 SWAP1 DUP7 SWAP1 DUP3 SWAP1 PUSH1 0x60 ADD SUB SWAP3 PUSH32 0x0 AND GAS CALL SWAP2 DUP3 ISZERO PUSH2 0x38A JUMPI SWAP1 PUSH2 0x327 SWAP3 PUSH2 0x35D JUMPI JUMPDEST POP PUSH2 0x830 JUMP JUMPDEST DUP2 MLOAD SWAP1 DUP2 MSTORE TIMESTAMP DUP4 DUP3 ADD MSTORE PUSH32 0x6CD9D6BEBF8CC2076DD424F83DEB0559D8774D1C44178B4F676F9D50709FB1BE DUP3 CALLER SWAP3 LOG2 MLOAD PUSH1 0x1 DUP2 MSTORE RETURN JUMPDEST PUSH2 0x37D SWAP2 POP DUP6 RETURNDATASIZE DUP8 GT PUSH2 0x383 JUMPI JUMPDEST PUSH2 0x375 DUP2 DUP4 PUSH2 0x7F1 JUMP JUMPDEST DUP2 ADD SWAP1 PUSH2 0x813 JUMP JUMPDEST CODESIZE PUSH2 0x321 JUMP JUMPDEST POP RETURNDATASIZE PUSH2 0x36B JUMP JUMPDEST DUP5 MLOAD SWAP1 RETURNDATASIZE SWAP1 DUP3 RETURNDATACOPY RETURNDATASIZE SWAP1 REVERT JUMPDEST DUP4 MLOAD PUSH3 0x461BCD PUSH1 0xE5 SHL DUP2 MSTORE SWAP1 DUP2 ADD DUP6 SWAP1 MSTORE PUSH1 0x12 PUSH1 0x24 DUP3 ADD MSTORE PUSH18 0x616D6F756E74206D757374206265203E203 PUSH1 0x74 SHL PUSH1 0x44 DUP3 ADD MSTORE PUSH1 0x64 SWAP1 REVERT JUMPDEST DUP1 REVERT JUMPDEST DUP4 CALLVALUE PUSH2 0x3CD JUMPI DUP1 PUSH1 0x3 NOT CALLDATASIZE ADD SLT PUSH2 0x3CD JUMPI PUSH2 0x3E9 PUSH2 0x793 JUMP JUMPDEST DUP1 SLOAD PUSH1 0x1 PUSH1 0x1 PUSH1 0xA0 SHL SUB NOT DUP2 AND DUP3 SSTORE DUP2 SWAP1 PUSH1 0x1 PUSH1 0x1 PUSH1 0xA0 SHL SUB AND PUSH32 0x8BE0079C531659141344CD1FD0A4F28419497F9722A3DAAFE3B4186F6B6457E0 DUP3 DUP1 LOG3 DUP1 RETURN JUMPDEST DUP4 DUP3 CALLVALUE PUSH2 0x253 JUMPI DUP2 PUSH1 0x3 NOT CALLDATASIZE ADD SLT PUSH2 0x253 JUMPI PUSH1 0x1 SLOAD SWAP1 MLOAD PUSH1 0x1 PUSH1 0x1 PUSH1 0xA0 SHL SUB SWAP1 SWAP2 AND DUP2 MSTORE PUSH1 0x20 SWAP1 RETURN JUMPDEST POP CALLVALUE PUSH2 0x129 JUMPI PUSH1 0x60 CALLDATASIZE PUSH1 0x3 NOT ADD SLT PUSH2 0x129 JUMPI DUP2 CALLDATALOAD SWAP2 PUSH1 0x24 CALLDATALOAD SWAP1 PUSH1 0x44 CALLDATALOAD SWAP1 PUSH2 0x478 PUSH2 0x793 JUMP JUMPDEST DUP5 ISZERO PUSH2 0x536 JUMPI DUP2 ISZERO PUSH2 0x4FC JUMPI POP SWAP1 DUP3 SWAP2 PUSH32 0x353A42A683526219C00406D501F12ED3B877E06934A00242BC50ECF7A779919D SWAP4 MLOAD PUSH2 0x4B4 DUP2 PUSH2 0x7BF JUMP JUMPDEST DUP3 DUP2 MSTORE PUSH1 0x2 PUSH1 0x20 DUP3 ADD SWAP2 DUP4 DUP4 MSTORE DUP6 DUP2 ADD SWAP3 PUSH1 0x1 DUP5 MSTORE DUP9 DUP11 MSTORE DUP3 PUSH1 0x20 MSTORE DUP7 DUP11 KECCAK256 SWAP2 MLOAD DUP3 SSTORE MLOAD PUSH1 0x1 DUP3 ADD SSTORE ADD SWAP1 MLOAD ISZERO ISZERO PUSH1 0xFF DUP1 NOT DUP4 SLOAD AND SWAP2 AND OR SWAP1 SSTORE DUP3 MLOAD SWAP2 DUP3 MSTORE PUSH1 0x20 DUP3 ADD MSTORE LOG2 DUP1 RETURN JUMPDEST PUSH1 0x64 SWAP1 PUSH1 0x20 DUP6 MLOAD SWAP2 PUSH3 0x461BCD PUSH1 0xE5 SHL DUP4 MSTORE DUP3 ADD MSTORE PUSH1 0x14 PUSH1 0x24 DUP3 ADD MSTORE PUSH20 0x6475726174696F6E206D757374206265203E203 PUSH1 0x64 SHL PUSH1 0x44 DUP3 ADD MSTORE REVERT JUMPDEST PUSH1 0x64 SWAP1 PUSH1 0x20 DUP6 MLOAD SWAP2 PUSH3 0x461BCD PUSH1 0xE5 SHL DUP4 MSTORE DUP3 ADD MSTORE PUSH1 0x15 PUSH1 0x24 DUP3 ADD MSTORE PUSH21 0x706C616E49642063616E6E6F74206265207A65726F PUSH1 0x58 SHL PUSH1 0x44 DUP3 ADD MSTORE REVERT JUMPDEST DUP4 DUP3 CALLVALUE PUSH2 0x253 JUMPI DUP2 PUSH1 0x3 NOT CALLDATASIZE ADD SLT PUSH2 0x253 JUMPI MLOAD PUSH32 0x0 PUSH1 0x1 PUSH1 0x1 PUSH1 0xA0 SHL SUB AND DUP2 MSTORE PUSH1 0x20 SWAP1 RETURN JUMPDEST DUP3 DUP6 DUP6 CALLVALUE PUSH2 0x253 JUMPI PUSH1 0x20 SWAP4 DUP5 PUSH1 0x3 NOT CALLDATASIZE ADD SLT PUSH2 0x129 JUMPI DUP2 CALLDATALOAD SWAP3 DUP4 DUP2 MSTORE PUSH1 0x2 DUP7 MSTORE DUP5 DUP2 KECCAK256 SWAP3 PUSH2 0x5E2 DUP4 PUSH2 0x7BF JUMP JUMPDEST DUP4 SLOAD DUP4 MSTORE PUSH1 0xFF PUSH1 0x2 PUSH1 0x1 DUP7 ADD SLOAD SWAP6 DUP10 DUP7 ADD SWAP7 DUP8 MSTORE ADD SLOAD AND ISZERO DUP1 ISZERO DUP8 DUP6 ADD MSTORE PUSH2 0x75F JUMPI DUP3 MLOAD ISZERO PUSH2 0x72C JUMPI PUSH1 0x1 SLOAD DUP4 MLOAD DUP8 MLOAD PUSH4 0x23B872DD PUSH1 0xE0 SHL DUP2 MSTORE CALLER SWAP4 DUP2 ADD SWAP4 DUP5 MSTORE PUSH1 0x1 PUSH1 0x1 PUSH1 0xA0 SHL SUB SWAP3 DUP4 AND PUSH1 0x20 DUP6 ADD MSTORE PUSH1 0x40 DUP5 ADD SWAP2 SWAP1 SWAP2 MSTORE SWAP2 DUP9 SWAP2 DUP4 SWAP2 DUP3 SWAP1 DUP7 SWAP1 DUP3 SWAP1 PUSH1 0x60 ADD SUB SWAP3 PUSH32 0x0 AND GAS CALL SWAP1 DUP2 ISZERO PUSH2 0x722 JUMPI DUP3 SWAP2 PUSH2 0x689 SWAP2 DUP9 SWAP5 SWAP2 PUSH2 0x705 JUMPI POP PUSH2 0x830 JUMP JUMPDEST PUSH2 0x694 DUP5 MLOAD TIMESTAMP PUSH2 0x87C JUMP JUMPDEST SWAP4 CALLER DUP3 MSTORE PUSH1 0x3 DUP9 MSTORE DUP3 DUP3 KECCAK256 SLOAD SWAP1 TIMESTAMP DUP3 GT PUSH2 0x6EE JUMPI JUMPDEST POP POP SWAP1 DUP4 SWAP2 CALLER DUP2 MSTORE PUSH1 0x3 DUP9 MSTORE KECCAK256 SSTORE MLOAD SWAP1 DUP4 MLOAD SWAP2 DUP3 MSTORE DUP5 DUP3 ADD MSTORE PUSH32 0x5AD333A6D56A7DDB1E78D9ECB8047E9DAFCB890A41A227EDE8D950259A1F0F75 DUP4 CALLER SWAP3 LOG3 MLOAD PUSH1 0x1 DUP2 MSTORE RETURN JUMPDEST PUSH2 0x6FC SWAP3 SWAP4 SWAP6 POP MLOAD SWAP1 PUSH2 0x87C JUMP JUMPDEST SWAP3 SWAP1 DUP8 DUP1 PUSH2 0x6A9 JUMP JUMPDEST PUSH2 0x71C SWAP2 POP DUP10 RETURNDATASIZE DUP12 GT PUSH2 0x383 JUMPI PUSH2 0x375 DUP2 DUP4 PUSH2 0x7F1 JUMP JUMPDEST DUP10 PUSH2 0x321 JUMP JUMPDEST DUP7 MLOAD RETURNDATASIZE DUP5 DUP3 RETURNDATACOPY RETURNDATASIZE SWAP1 REVERT JUMPDEST DUP6 MLOAD PUSH3 0x461BCD PUSH1 0xE5 SHL DUP2 MSTORE SWAP1 DUP2 ADD DUP8 SWAP1 MSTORE PUSH1 0xD PUSH1 0x24 DUP3 ADD MSTORE PUSH13 0x696E76616C6964207072696365 PUSH1 0x98 SHL PUSH1 0x44 DUP3 ADD MSTORE PUSH1 0x64 SWAP1 REVERT JUMPDEST DUP6 MLOAD PUSH3 0x461BCD PUSH1 0xE5 SHL DUP2 MSTORE SWAP1 DUP2 ADD DUP8 SWAP1 MSTORE PUSH1 0xE PUSH1 0x24 DUP3 ADD MSTORE PUSH14 0x1C1B185B881B9BDD08199BDD5B99 PUSH1 0x92 SHL PUSH1 0x44 DUP3 ADD MSTORE PUSH1 0x64 SWAP1 REVERT JUMPDEST PUSH1 0x0 SLOAD PUSH1 0x1 PUSH1 0x1 PUSH1 0xA0 SHL SUB AND CALLER SUB PUSH2 0x7A7 JUMPI JUMP JUMPDEST PUSH1 0x40 MLOAD PUSH4 0x118CDAA7 PUSH1 0xE0 SHL DUP2 MSTORE CALLER PUSH1 0x4 DUP3 ADD MSTORE PUSH1 0x24 SWAP1 REVERT JUMPDEST PUSH1 0x60 DUP2 ADD SWAP1 DUP2 LT PUSH8 0xFFFFFFFFFFFFFFFF DUP3 GT OR PUSH2 0x7DB JUMPI PUSH1 0x40 MSTORE JUMP JUMPDEST PUSH4 0x4E487B71 PUSH1 0xE0 SHL PUSH1 0x0 MSTORE PUSH1 0x41 PUSH1 0x4 MSTORE PUSH1 0x24 PUSH1 0x0 REVERT JUMPDEST SWAP1 PUSH1 0x1F DUP1 NOT SWAP2 ADD AND DUP2 ADD SWAP1 DUP2 LT PUSH8 0xFFFFFFFFFFFFFFFF DUP3 GT OR PUSH2 0x7DB JUMPI PUSH1 0x40 MSTORE JUMP JUMPDEST SWAP1 DUP2 PUSH1 0x20 SWAP2 SUB SLT PUSH2 0x82B JUMPI MLOAD DUP1 ISZERO ISZERO DUP2 SUB PUSH2 0x82B JUMPI SWAP1 JUMP JUMPDEST PUSH1 0x0 DUP1 REVERT JUMPDEST ISZERO PUSH2 0x837 JUMPI JUMP JUMPDEST PUSH1 0x40 MLOAD PUSH3 0x461BCD PUSH1 0xE5 SHL DUP2 MSTORE PUSH1 0x20 PUSH1 0x4 DUP3 ADD MSTORE PUSH1 0x19 PUSH1 0x24 DUP3 ADD MSTORE PUSH32 0x5553444643207472616E7366657246726F6D206661696C656400000000000000 PUSH1 0x44 DUP3 ADD MSTORE PUSH1 0x64 SWAP1 REVERT JUMPDEST SWAP2 SWAP1 DUP3 ADD DUP1 SWAP3 GT PUSH2 0x889 JUMPI JUMP JUMPDEST PUSH4 0x4E487B71 PUSH1 0xE0 SHL PUSH1 0x0 MSTORE PUSH1 0x11 PUSH1 0x4 MSTORE PUSH1 0x24 PUSH1 0x0 REVERT INVALID LOG2 PUSH5 0x6970667358 0x22 SLT KECCAK256 DUP3 0xFB PUSH6 0x8517365AB54 CALLER 0xD9 0xF8 0xC5 SWAP5 0xBA DUP6 0xCE SWAP15 PUSH18 0x5F1A31D90A1D7B694F983DC7DA64736F6C63 NUMBER STOP ADDMOD EQ STOP CALLER "},"methodIdentifiers":{"owner()":"8da5cb5b","paySubscription(uint256)":"7ac9b098","plans(uint256)":"b1620616","renounceOwnership()":"715018a6","setPlan(uint256,uint256,uint256)":"5ddc8cb5","setTreasury(address)":"f0f44260","subscribe(uint256)":"0f574ba7","subscriptionExpires(address)":"85959f2f","transferOwnership(address)":"f2fde38b","treasury()":"61d027b3","usdfc()":"1006e4cb"}}}}}