{"contracts/SealGuardRegistry.sol":{"SealGuardRegistry":{"abi":[{"inputs":[{"internalType":"address","name":"initialOwner","type":"address"},{"internalType":"address","name":"_accessControl","type":"address"}],"stateMutability":"nonpayable","type":"constructor"},{"inputs":[{"internalType":"address","name":"owner","type":"address"}],"name":"OwnableInvalidOwner","type":"error"},{"inputs":[{"internalType":"address","name":"account","type":"address"}],"name":"OwnableUnauthorizedAccount","type":"error"},{"inputs":[],"name":"ReentrancyGuardReentrantCall","type":"error"},{"anonymous":false,"inputs":[{"indexed":true,"internalType":"string","name":"documentType","type":"string"},{"indexed":false,"internalType":"bool","name":"enabled","type":"bool"},{"indexed":false,"internalType":"uint256","name":"timeThreshold","type":"uint256"},{"indexed":false,"internalType":"uint256","name":"consensusThreshold","type":"uint256"}],"name":"AutoVerificationConfigUpdated","type":"event"},{"anonymous":false,"inputs":[{"indexed":true,"internalType":"uint256","name":"documentId","type":"uint256"},{"indexed":false,"internalType":"enum SealGuardRegistry.TriggerType","name":"triggerType","type":"uint8"},{"indexed":true,"internalType":"address","name":"triggeredBy","type":"address"},{"indexed":false,"internalType":"uint256","name":"timestamp","type":"uint256"}],"name":"AutoVerificationTriggered","type":"event"},{"anonymous":false,"inputs":[{"indexed":true,"internalType":"uint256","name":"documentId","type":"uint256"},{"indexed":true,"internalType":"address","name":"owner","type":"address"},{"indexed":false,"internalType":"string","name":"filecoinCID","type":"string"},{"indexed":false,"internalType":"bytes32","name":"fileHash","type":"bytes32"}],"name":"DocumentRegistered","type":"event"},{"anonymous":false,"inputs":[{"indexed":true,"internalType":"uint256","name":"documentId","type":"uint256"},{"indexed":true,"internalType":"address","name":"verifier","type":"address"},{"indexed":false,"internalType":"bytes32","name":"proofHash","type":"bytes32"},{"indexed":false,"internalType":"bool","name":"isValid","type":"bool"}],"name":"DocumentVerified","type":"event"},{"anonymous":false,"inputs":[{"indexed":true,"internalType":"uint256","name":"documentId","type":"uint256"},{"indexed":false,"internalType":"bool","name":"required","type":"bool"},{"indexed":false,"internalType":"string","name":"documentType","type":"string"}],"name":"MultiSigRequirementSet","type":"event"},{"anonymous":false,"inputs":[{"indexed":true,"internalType":"uint256","name":"documentId","type":"uint256"},{"indexed":true,"internalType":"address","name":"multiSigContract","type":"address"},{"indexed":false,"internalType":"uint256","name":"proposalId","type":"uint256"}],"name":"MultiSigVerificationCompleted","type":"event"},{"anonymous":false,"inputs":[{"indexed":true,"internalType":"address","name":"previousOwner","type":"address"},{"indexed":true,"internalType":"address","name":"newOwner","type":"address"}],"name":"OwnershipTransferred","type":"event"},{"anonymous":false,"inputs":[{"indexed":true,"internalType":"uint256","name":"documentId","type":"uint256"},{"indexed":true,"internalType":"address","name":"previousOwner","type":"address"},{"indexed":true,"internalType":"address","name":"newOwner","type":"address"}],"name":"OwnershipTransferred","type":"event"},{"anonymous":false,"inputs":[{"indexed":true,"internalType":"uint256","name":"documentId","type":"uint256"},{"indexed":false,"internalType":"uint256","name":"verifierCount","type":"uint256"},{"indexed":false,"internalType":"uint256","name":"threshold","type":"uint256"}],"name":"VerificationThresholdReached","type":"event"},{"inputs":[],"name":"accessControl","outputs":[{"internalType":"contract SealGuardAccessControl","name":"","type":"address"}],"stateMutability":"view","type":"function"},{"inputs":[{"internalType":"uint256","name":"documentId","type":"uint256"}],"name":"archiveDocument","outputs":[],"stateMutability":"nonpayable","type":"function"},{"inputs":[{"internalType":"string","name":"","type":"string"}],"name":"autoVerificationConfigs","outputs":[{"internalType":"bool","name":"enabled","type":"bool"},{"internalType":"uint256","name":"timeThreshold","type":"uint256"},{"internalType":"uint256","name":"consensusThreshold","type":"uint256"},{"internalType":"bool","name":"requiresManualApproval","type":"bool"},{"internalType":"uint256","name":"maxAutoVerifications","type":"uint256"}],"stateMutability":"view","type":"function"},{"inputs":[{"internalType":"uint256","name":"","type":"uint256"}],"name":"autoVerificationCount","outputs":[{"internalType":"uint256","name":"","type":"uint256"}],"stateMutability":"view","type":"function"},{"inputs":[{"internalType":"uint256[]","name":"documentIds","type":"uint256[]"}],"name":"batchProcessAutomatedVerifications","outputs":[],"stateMutability":"nonpayable","type":"function"},{"inputs":[{"internalType":"bytes32","name":"fileHash","type":"bytes32"}],"name":"documentExistsByHash","outputs":[{"internalType":"bool","name":"","type":"bool"}],"stateMutability":"view","type":"function"},{"inputs":[{"internalType":"uint256","name":"","type":"uint256"}],"name":"documentExpiry","outputs":[{"internalType":"uint256","name":"","type":"uint256"}],"stateMutability":"view","type":"function"},{"inputs":[{"internalType":"uint256","name":"","type":"uint256"},{"internalType":"uint256","name":"","type":"uint256"}],"name":"documentProofs","outputs":[{"internalType":"uint256","name":"documentId","type":"uint256"},{"internalType":"bytes32","name":"proofHash","type":"bytes32"},{"internalType":"uint256","name":"timestamp","type":"uint256"},{"internalType":"address","name":"verifier","type":"address"},{"internalType":"bool","name":"isValid","type":"bool"},{"internalType":"string","name":"proofData","type":"string"}],"stateMutability":"view","type":"function"},{"inputs":[{"internalType":"string","name":"","type":"string"}],"name":"documentTypeExpiry","outputs":[{"internalType":"uint256","name":"","type":"uint256"}],"stateMutability":"view","type":"function"},{"inputs":[{"internalType":"uint256","name":"","type":"uint256"}],"name":"documents","outputs":[{"internalType":"uint256","name":"id","type":"uint256"},{"internalType":"string","name":"filecoinCID","type":"string"},{"internalType":"bytes32","name":"fileHash","type":"bytes32"},{"internalType":"bytes32","name":"proofHash","type":"bytes32"},{"internalType":"address","name":"owner","type":"address"},{"internalType":"uint256","name":"timestamp","type":"uint256"},{"internalType":"uint256","name":"lastVerified","type":"uint256"},{"internalType":"bool","name":"isVerified","type":"bool"},{"internalType":"string","name":"metadata","type":"string"},{"internalType":"uint256","name":"fileSize","type":"uint256"},{"internalType":"string","name":"documentType","type":"string"},{"internalType":"enum SealGuardRegistry.DocumentLifecycle","name":"lifecycle","type":"uint8"},{"internalType":"uint256","name":"expiresAt","type":"uint256"}],"stateMutability":"view","type":"function"},{"inputs":[{"internalType":"uint256","name":"documentId","type":"uint256"}],"name":"expireDocument","outputs":[],"stateMutability":"nonpayable","type":"function"},{"inputs":[{"internalType":"string","name":"documentType","type":"string"}],"name":"getAutoVerificationConfig","outputs":[{"components":[{"internalType":"bool","name":"enabled","type":"bool"},{"internalType":"uint256","name":"timeThreshold","type":"uint256"},{"internalType":"uint256","name":"consensusThreshold","type":"uint256"},{"internalType":"bool","name":"requiresManualApproval","type":"bool"},{"internalType":"uint256","name":"maxAutoVerifications","type":"uint256"}],"internalType":"struct SealGuardRegistry.AutoVerificationConfig","name":"","type":"tuple"}],"stateMutability":"view","type":"function"},{"inputs":[{"internalType":"uint256","name":"documentId","type":"uint256"}],"name":"getDocument","outputs":[{"components":[{"internalType":"uint256","name":"id","type":"uint256"},{"internalType":"string","name":"filecoinCID","type":"string"},{"internalType":"bytes32","name":"fileHash","type":"bytes32"},{"internalType":"bytes32","name":"proofHash","type":"bytes32"},{"internalType":"address","name":"owner","type":"address"},{"internalType":"uint256","name":"timestamp","type":"uint256"},{"internalType":"uint256","name":"lastVerified","type":"uint256"},{"internalType":"bool","name":"isVerified","type":"bool"},{"internalType":"string","name":"metadata","type":"string"},{"internalType":"uint256","name":"fileSize","type":"uint256"},{"internalType":"string","name":"documentType","type":"string"},{"internalType":"enum SealGuardRegistry.DocumentLifecycle","name":"lifecycle","type":"uint8"},{"internalType":"uint256","name":"expiresAt","type":"uint256"}],"internalType":"struct SealGuardRegistry.Document","name":"","type":"tuple"}],"stateMutability":"view","type":"function"},{"inputs":[{"internalType":"bytes32","name":"fileHash","type":"bytes32"}],"name":"getDocumentIdByHash","outputs":[{"internalType":"uint256","name":"","type":"uint256"}],"stateMutability":"view","type":"function"},{"inputs":[{"internalType":"uint256","name":"documentId","type":"uint256"}],"name":"getDocumentLifecycle","outputs":[{"internalType":"enum SealGuardRegistry.DocumentLifecycle","name":"","type":"uint8"}],"stateMutability":"view","type":"function"},{"inputs":[{"internalType":"uint256","name":"documentId","type":"uint256"}],"name":"getDocumentProofs","outputs":[{"components":[{"internalType":"uint256","name":"documentId","type":"uint256"},{"internalType":"bytes32","name":"proofHash","type":"bytes32"},{"internalType":"uint256","name":"timestamp","type":"uint256"},{"internalType":"address","name":"verifier","type":"address"},{"internalType":"bool","name":"isValid","type":"bool"},{"internalType":"string","name":"proofData","type":"string"}],"internalType":"struct SealGuardRegistry.VerificationProof[]","name":"","type":"tuple[]"}],"stateMutability":"view","type":"function"},{"inputs":[{"internalType":"uint256","name":"documentId","type":"uint256"}],"name":"getLatestProof","outputs":[{"components":[{"internalType":"uint256","name":"documentId","type":"uint256"},{"internalType":"bytes32","name":"proofHash","type":"bytes32"},{"internalType":"uint256","name":"timestamp","type":"uint256"},{"internalType":"address","name":"verifier","type":"address"},{"internalType":"bool","name":"isValid","type":"bool"},{"internalType":"string","name":"proofData","type":"string"}],"internalType":"struct SealGuardRegistry.VerificationProof","name":"","type":"tuple"}],"stateMutability":"view","type":"function"},{"inputs":[],"name":"getTotalDocuments","outputs":[{"internalType":"uint256","name":"","type":"uint256"}],"stateMutability":"view","type":"function"},{"inputs":[{"internalType":"address","name":"user","type":"address"}],"name":"getUserDocuments","outputs":[{"internalType":"uint256[]","name":"","type":"uint256[]"}],"stateMutability":"view","type":"function"},{"inputs":[{"internalType":"uint256","name":"documentId","type":"uint256"}],"name":"getVerificationTrigger","outputs":[{"internalType":"enum SealGuardRegistry.TriggerType","name":"","type":"uint8"}],"stateMutability":"view","type":"function"},{"inputs":[{"internalType":"bytes32","name":"","type":"bytes32"}],"name":"hashToDocumentId","outputs":[{"internalType":"uint256","name":"","type":"uint256"}],"stateMutability":"view","type":"function"},{"inputs":[{"internalType":"uint256","name":"documentId","type":"uint256"}],"name":"isDocumentExpired","outputs":[{"internalType":"bool","name":"","type":"bool"}],"stateMutability":"view","type":"function"},{"inputs":[{"internalType":"uint256","name":"documentId","type":"uint256"}],"name":"isMultiSigVerified","outputs":[{"internalType":"bool","name":"","type":"bool"}],"stateMutability":"view","type":"function"},{"inputs":[{"internalType":"uint256","name":"","type":"uint256"}],"name":"lastAutoVerification","outputs":[{"internalType":"uint256","name":"","type":"uint256"}],"stateMutability":"view","type":"function"},{"inputs":[{"internalType":"uint256","name":"documentId","type":"uint256"},{"internalType":"uint256","name":"proposalId","type":"uint256"}],"name":"markMultiSigVerified","outputs":[],"stateMutability":"nonpayable","type":"function"},{"inputs":[],"name":"multiSig","outputs":[{"internalType":"contract SealGuardMultiSig","name":"","type":"address"}],"stateMutability":"view","type":"function"},{"inputs":[{"internalType":"uint256","name":"","type":"uint256"}],"name":"multiSigVerified","outputs":[{"internalType":"bool","name":"","type":"bool"}],"stateMutability":"view","type":"function"},{"inputs":[],"name":"owner","outputs":[{"internalType":"address","name":"","type":"address"}],"stateMutability":"view","type":"function"},{"inputs":[{"internalType":"string","name":"filecoinCID","type":"string"},{"internalType":"bytes32","name":"fileHash","type":"bytes32"},{"internalType":"string","name":"metadata","type":"string"},{"internalType":"uint256","name":"fileSize","type":"uint256"},{"internalType":"string","name":"documentType","type":"string"}],"name":"registerDocument","outputs":[{"internalType":"uint256","name":"","type":"uint256"}],"stateMutability":"nonpayable","type":"function"},{"inputs":[],"name":"renounceOwnership","outputs":[],"stateMutability":"nonpayable","type":"function"},{"inputs":[{"internalType":"uint256","name":"","type":"uint256"}],"name":"requiresMultiSig","outputs":[{"internalType":"bool","name":"","type":"bool"}],"stateMutability":"view","type":"function"},{"inputs":[{"internalType":"uint256","name":"documentId","type":"uint256"}],"name":"requiresMultiSigApproval","outputs":[{"internalType":"bool","name":"","type":"bool"}],"stateMutability":"view","type":"function"},{"inputs":[{"internalType":"uint256","name":"documentId","type":"uint256"},{"internalType":"bool","name":"required","type":"bool"}],"name":"setDocumentMultiSigRequirement","outputs":[],"stateMutability":"nonpayable","type":"function"},{"inputs":[{"internalType":"address","name":"_multiSig","type":"address"}],"name":"setMultiSigContract","outputs":[],"stateMutability":"nonpayable","type":"function"},{"inputs":[{"internalType":"string","name":"documentType","type":"string"},{"internalType":"bool","name":"required","type":"bool"}],"name":"setTypeMultiSigRequirement","outputs":[],"stateMutability":"nonpayable","type":"function"},{"inputs":[{"internalType":"uint256","name":"documentId","type":"uint256"},{"internalType":"bytes32","name":"proofHash","type":"bytes32"},{"internalType":"string","name":"proofData","type":"string"},{"internalType":"bool","name":"isValid","type":"bool"}],"name":"submitVerificationProof","outputs":[],"stateMutability":"nonpayable","type":"function"},{"inputs":[{"internalType":"uint256","name":"documentId","type":"uint256"},{"internalType":"address","name":"newOwner","type":"address"}],"name":"transferDocumentOwnership","outputs":[],"stateMutability":"nonpayable","type":"function"},{"inputs":[{"internalType":"address","name":"newOwner","type":"address"}],"name":"transferOwnership","outputs":[],"stateMutability":"nonpayable","type":"function"},{"inputs":[{"internalType":"uint256","name":"documentId","type":"uint256"},{"internalType":"enum SealGuardRegistry.TriggerType","name":"triggerType","type":"uint8"}],"name":"triggerAutomatedVerification","outputs":[],"stateMutability":"nonpayable","type":"function"},{"inputs":[{"internalType":"string","name":"","type":"string"}],"name":"typeRequiresMultiSig","outputs":[{"internalType":"bool","name":"","type":"bool"}],"stateMutability":"view","type":"function"},{"inputs":[{"internalType":"string","name":"documentType","type":"string"},{"internalType":"bool","name":"enabled","type":"bool"},{"internalType":"uint256","name":"timeThreshold","type":"uint256"},{"internalType":"uint256","name":"consensusThreshold","type":"uint256"},{"internalType":"bool","name":"requiresManualApproval","type":"bool"},{"internalType":"uint256","name":"maxAutoVerifications","type":"uint256"}],"name":"updateAutoVerificationConfig","outputs":[],"stateMutability":"nonpayable","type":"function"},{"inputs":[{"internalType":"address","name":"","type":"address"},{"internalType":"uint256","name":"","type":"uint256"}],"name":"userDocuments","outputs":[{"internalType":"uint256","name":"","type":"uint256"}],"stateMutability":"view","type":"function"},{"inputs":[{"internalType":"uint256","name":"","type":"uint256"}],"name":"verificationTriggers","outputs":[{"internalType":"enum SealGuardRegistry.TriggerType","name":"","type":"uint8"}],"stateMutability":"view","type":"function"}],"evm":{"bytecode":{"linkReferences":{},"object":"608034620004555762003d2990601f38839003908101601f19168201906001600160401b038211838310176200045a578083916040958694855283398101031262000455576200005d6020620000558362000490565b920162000490565b6001600160a01b03918216919082156200043d57600080546001600160a01b031980821686178355865195929392909185167f8be0079c531659141344cd1fd0a4f28419497f9722a3daafe3b4186f6b6457e08580a36001938480556003921690825416178155641b1959d85b60da1b93848152600c9081600582015260259020630d2868809055855168199a5b985b98da585b60ba1b958682528260098301526312cc0300602981932055875192661b59591a58d85b60ca1b93848152816007820152602790206338640900905588805195676964656e7469747960c01b94858852600897848982015260289020558151976718dbdb9d1c9858dd60c21b9889815284898201526028902063259806009055825166191959985d5b1d60ca1b94858252600782015260279020630966018090556200019b62000470565b8a815260208101906201518082528481019184835260608201928d84528d6080840192600a84528d8951908c825260058201526025902094511515620001ed90869060ff801983541691151516179055565b51908401555192600293848401555115158583019062000218919060ff801983541691151516179055565b5190600401556200022862000470565b8b8152898d8d602084019061a8c082528885019186835260608601938885526080870195601487528b51918252600982015260299020955115156200027990879060ff801983541691151516179055565b5190850155518484015551151585830190620002a0919060ff801983541691151516179055565b519060040155620002b062000470565b8b815289602082016202a30081528d8784019087825260608501928184528c6080870195600587528b519182528082015260289020955115156200030090879060ff801983541691151516179055565b519085015551848401555115158583019062000327919060ff801983541691151516179055565b5190600401556200033762000470565b948b865260208601615460815285870191838352606088019485526080880196600f8852519081528b600782015260279020965115156200038490889060ff801983541691151516179055565b518c870155519085015551151590830190620003ab919060ff801983541691151516179055565b51906004015587519081526005810160069052602590209560ff19968688825416179055875190815260098101600690526029902085878254161790558651908152828101600690526028902084868254161790558551908152600781016006905260279020838582541617905584519182528101600690526028902091825416179055516138839081620004a68239f35b8351631e4fbdf760e01b815260006004820152602490fd5b600080fd5b634e487b7160e01b600052604160045260246000fd5b6040519060a082016001600160401b038111838210176200045a57604052565b51906001600160a01b0382168203620004555756fe6080604052600436101561001257600080fd5b60003560e01c806305d7835514612d5e5780630b63552f14612d32578063115948d814612cf257806313007d5514612cc95780631415169d146125d357806315ec7e44146123c5578063199520e61461239457806323ecb96f146122285780632acb4f6214611fbf5780632d700f0f14611f7157806334c6d8b514611e2957806336adbe8a1461112057806336e0004a14611e005780633d43eb0714611dd25780633e7fe8ec14611d825780633f9b250a14611b575780634374e8e214611b265780634b3619a614611a95578063577a1b9214611a3d578063597e0f64146119bd578063661e582f146119705780636632d86c1461191457806369ea92471461179f578063715018a6146117465780637b128213146115ea5780637fa5bd5514611451578063825f9220146113b2578063849514ba146113865780638da5cb5b1461135d57806390a4b162146112a9578063945017701461114c57806394bf54f014611120578063a2966e2214610bdf578063a31a770714610a51578063c2ed2b051461093f578063c60be737146106e8578063ce9647ca146106b2578063dd4a8d4514610686578063e7641c5c1461063b578063e90e7ad41461061d578063eb94a8711461035c578063ebf34960146102835763f2fde38b146101f557600080fd5b3461027e57602036600319011261027e5761020e612e80565b610216613089565b6001600160a01b0390811690811561026557600054826001600160601b0360a01b821617600055167f8be0079c531659141344cd1fd0a4f28419497f9722a3daafe3b4186f6b6457e0600080a3005b604051631e4fbdf760e01b815260006004820152602490fd5b600080fd5b3461027e5761029136612eeb565b9080600052600e6020526102ab6040600020541515613123565b6004546001600160a01b0390811633036103095760207fcb74e6315251cdacd74613191272655fc65014edbdd3bc1494cbe3d9c544e2de9183600052600782526040600020600160ff198254161790556004541693604051908152a3005b60405162461bcd60e51b815260206004820152602560248201527f4f6e6c79206d756c74692d73696720636f6e74726163742063616e2063616c6c604482015264207468697360d81b6064820152608490fd5b3461027e57604036600319011261027e57602435600435600582101561027e57806000526020600e81526103966040600020541515613123565b600354604051631d6c8e3f60e21b81526001600160a01b03909116908281600481855afa80156105e05783916000916105ec575b50604051631cc12e7960e11b815233600482015260248101919091529182908180604481015b03915afa9081156105e0576000916105b3575b50156105505781600052600e8152610421600a60406000200161319b565b60405161042d81612dc4565b60ff82541615158152600460018301549283858401526002810154604084015260ff600382015416151560608401520154608082015290156104ef575b600184036104d05761047c90836133bc565b81600052600b8152604060002060ff1981541660ff85161790556104a3604051809461302b565b42908301527f99c8dbdfda1086f488085852794a3f4469c444ee425ca19e06ed87326265772b60403393a3005b600284146104df575b5061047c565b6104e99083613454565b836104d9565b50602760405166191959985d5b1d60ca1b8152600860078201522060046040519161051983612dc4565b60ff815416151583526001810154848401526002810154604084015260ff600382015416151560608401520154608082015261046a565b6084906040519062461bcd60e51b82526004820152603660248201527f4f6e6c792061646d696e2063616e206d616e75616c6c7920747269676765722060448201527530baba37b6b0ba32b2103b32b934b334b1b0ba34b7b760511b6064820152fd5b6105d39150823d84116105d9575b6105cb8183612dfa565b81019061316f565b84610403565b503d6105c1565b6040513d6000823e3d90fd5b82819392503d8311610616575b6106038183612dfa565b8101031261027e575182906103f06103ca565b503d6105f9565b3461027e57600036600319011261027e576020600254604051908152f35b3461027e57602036600319011261027e5760043580600052600e6020526106686040600020541515613123565b600052600e6020526020600c60406000200154421015604051908152f35b3461027e57602036600319011261027e57600435600052600d6020526020604060002054604051908152f35b3461027e57602036600319011261027e57600435600052600b602052602060ff604060002054166106e6604051809261302b565bf35b3461027e5760c036600319011261027e576004356001600160401b03811161027e57610718903690600401612e1b565b610720612e71565b6044356064359060843580151580910361027e57600354604051631d6c8e3f60e21b8152602096916001600160a01b0316908781600481855afa80156105e057889160009161090e575b50604051631cc12e7960e11b815233600482015260248101919091529182908180604481015b03915afa9081156105e0576000916108f1575b501561089557604051946107b686612dc4565b15159485815286810192848452604082019086825260608301908152608083019160a4358352604051958551968b81818901996107f481838d612e96565b810160088152030190209451151561081890869060ff801983541691151516179055565b5160018501555160028401555115156003830190610841919060ff801983541691151516179055565b5190600401556040518092819251809261085a92612e96565b810103902093604051938452830152604082015260607f4d9af8150aa8d6c11cf89bbcc72ca90ae2f67acab18775cdbdeb85087bb5075c91a2005b60405162461bcd60e51b815260048101879052602e60248201527f4f6e6c792061646d696e2063616e20757064617465206175746f2d766572696660448201526d69636174696f6e20636f6e66696760901b6064820152608490fd5b6109089150873d89116105d9576105cb8183612dfa565b876107a3565b82819392503d8311610938575b6109258183612dfa565b8101031261027e5751879061079061076a565b503d61091b565b3461027e57602036600319011261027e57600435600052600e602052604060002080546001820161096f90612f6d565b916002810154600382015490600160a01b6001900360048401541690600584015490600685015490600786015460ff16600887016109ac90612f6d565b92600988015494600a89016109c090612f6d565b96600b8a015460ff1699600c0154986040519c8d9c8d528c6101a06020819201528d016109ec91612ec6565b9560408d015260608c015260808b015260a08a015260c0890152151560e0880152868103610100880152610a1f91612ec6565b90610120860152848103610140860152610a3891612ec6565b916101608401610a4791612eb9565b6101808301520390f35b3461027e5760208060031936011261027e576004359081600052600e8152610a7f6040600020541515613123565b81600052600e8152600c604060002001544210801590610b1d575b15610abc576000918252600e905260409020600b01805460ff19166004179055005b6084906040519062461bcd60e51b82526004820152603460248201527f446f63756d656e74206e6f74207965742065787069726564206f7220696e73756044820152736666696369656e74207065726d697373696f6e7360601b6064820152fd5b50600354604051631d6c8e3f60e21b81526001600160a01b03909116908281600481855afa80156105e0578391600091610bae575b50604051631cc12e7960e11b815233600482015260248101919091529182908180604481015b03915afa9081156105e057600091610b91575b50610a9a565b610ba89150823d84116105d9576105cb8183612dfa565b83610b8b565b82819392503d8311610bd8575b610bc58183612dfa565b8101031261027e57518290610b78610b52565b503d610bbb565b3461027e57608036600319011261027e576044356001600160401b03811161027e57610c0f903690600401612e1b565b60643515156064350361027e57600435600052600e602052610c376040600020541515613123565b610c3f613100565b6024908135156110e7576003546040516373b82edb60e11b81526001600160a01b0390911690602081600481855afa9081156105e0576000916110b3575b50604051631cc12e7960e11b815233600482015260248101919091529060209082908180604481015b03915afa9081156105e057600091611094575b501561104557600435600052600e60205260ff600b60406000200154166006811015611030576004141580611006575b15610fc257600435600052600e602052600b604060002001600160ff1982541617905560405190610d1982612ddf565b6004358252823560208301524260408301523360608301526064351515608083015260a0820152600435600052601060205260406000208054600160401b811015610f9857610d6d91600182018155612f01565b919091610fad578060a091518355602081015160018401556040810151600284015560038301600180841b0360608301511681549060ff851b60808501511515861b16916affffffffffffffffffffff60a81b161717905501518051906001600160401b038211610f9857610de56004840154612f33565b601f8111610f4d575b50602090601f8311600114610edd576004929160009183610ed2575b50508160011b916000199060031b1c1916179101555b60643515610eaf57600435600052600e602052600b60406000208235600382015542600682015560078101600160ff1982541617905501600260ff198254161790555b610e6e60043561322e565b604051903581526064351515602082015233907ffdff159079e40a8417212ba242d6b8b689dee5b49969b511126b6deae0ad495c604060043592a360018055005b600435600052600e602052600b604060002001600360ff19825416179055610e63565b015190508580610e0a565b906004840160005260206000209160005b601f1985168110610f355750918391600193600495601f19811610610f1c575b505050811b01910155610e20565b015160001960f88460031b161c19169055858080610f0e565b91926020600181928685015181550194019201610eee565b600484016000526020600020601f840160051c81019160208510610f8e575b601f0160051c01905b818110610f825750610dee565b60008155600101610f75565b9091508190610f6c565b83634e487b7160e01b60005260416004526000fd5b82634e487b7160e01b60005260006004526000fd5b60405162461bcd60e51b815260206004820152601f818401527f446f63756d656e742069732065787069726564206f72206172636869766564006044820152606490fd5b50600435600052600e60205260ff600b604060002001541660068110156110305760051415610ce9565b82634e487b7160e01b60005260216004526000fd5b60405162461bcd60e51b8152602060048201526022818401527f496e73756666696369656e74207065726d697373696f6e7320746f2076657269604482015261667960f01b6064820152608490fd5b6110ad915060203d6020116105d9576105cb8183612dfa565b83610cb9565b90506020813d6020116110df575b816110ce60209383612dfa565b8101031261027e5751610ca6610c7d565b3d91506110c1565b60405162461bcd60e51b81526020600482015260128184015271092dcecc2d8d2c840e0e4dedecc40d0c2e6d60731b6044820152606490fd5b3461027e57602036600319011261027e5760043560005260116020526020604060002054604051908152f35b3461027e5760208060031936011261027e5760043580600052600e82526111796040600020541515613123565b600052601081526040600020908154916001600160401b03831161129357604051916005936111ac8282871b0185612dfa565b808452818401809360005282600020866000925b848410611225575050505050604051928184019082855251809152604081818601961b85010192916000955b8287106111f95785850386f35b909192938280611215600193603f198a82030186528851613038565b96019201960195929190926111ec565b908560019260409997995161123981612ddf565b855481528486015483820152600286015460408201526003860154858060a01b038116606083015260ff60a091821c161515608083015261127c60048801612f6d565b9082015281520192019201919087909694966111c0565b634e487b7160e01b600052604160045260246000fd5b3461027e5760208060031936011261027e576001600160a01b036112cb612e80565b16600052600f8152604060002060405190818382549182815201908192600052846000209060005b8682821061134957868661130982880383612dfa565b604051928392818401908285525180915260408401929160005b82811061133257505050500390f35b835185528695509381019392810192600101611323565b8354855290930192600192830192016112f3565b3461027e57600036600319011261027e576000546040516001600160a01b039091168152602090f35b3461027e57602036600319011261027e5760043560005260096020526020604060002054604051908152f35b3461027e5760208060031936011261027e576004356001600160401b0380821161027e573660238301121561027e57816004013590811161027e576024820191602436918360051b01011161027e5760005b81811061140d57005b8061141c6114339284866136bf565b35600052600e8552604060002054611438576130b5565b611404565b61144c6114468285876136bf565b3561322e565b6130b5565b3461027e5760208060031936011261027e5760405160043561147282612ddf565b60008252600083830152600060408301526060916000838201526080916000838301528360a08093015280600052600e85526114b46040600020541515613123565b600052601084526040600020918254926001600160401b0384116112935790604051946005936114e88887871b0188612dfa565b858752600093845287842092888089015b888710611587575088805115611550578051600019810190811161153a5761152091613187565b5190611536604051928284938452830190613038565b0390f35b634e487b7160e01b600052601160045260246000fd5b60405162461bcd60e51b815260048101839052600f60248201526e139bc81c1c9bdbd99cc8199bdd5b99608a1b6044820152606490fd5b600191889160405161159881612ddf565b8854815284890154838201526002890154604082015260ff60038a0154868060a01b0381168a840152881c161515868201526115d660048a01612f6d565b8782015281520195019501949389906114f9565b3461027e5760208060031936011261027e57600435906001600160401b03821161027e5761165b8161162260a0943690600401612e1b565b6000608060405161163281612dc4565b828152828582015282604082015282606082015201528160405193828580945193849201612e96565b8101600881520301902060405161167181612dc4565b60ff82541615158152600460018301549283858401526002810154604084015260ff600382015416151560608401520154608082015290156116e2575b6080906040519281511515845280820151908401526040810151604084015260608101511515606084015201516080820152f35b506080602760405166191959985d5b1d60ca1b8152600860078201522060046040519161170e83612dc4565b60ff815416151583526001810154858401526002810154604084015260ff6003820154161515606084015201548282015290506116ae565b3461027e57600036600319011261027e5761175f613089565b600080546001600160a01b0319811682556001600160a01b03167f8be0079c531659141344cd1fd0a4f28419497f9722a3daafe3b4186f6b6457e08280a3005b3461027e5760208060031936011261027e576004359081600052600e81526117cd6040600020541515613123565b6000828152600e82526040902060040154336001600160a01b039182161490811561185a575b5015611816576000918252600e905260409020600b01805460ff19166005179055005b6064906040519062461bcd60e51b82526004820152601f60248201527f4f6e6c79206f776e6572206f722061646d696e2063616e2061726368697665006044820152fd5b600354604051631d6c8e3f60e21b8152911691508281600481855afa80156105e05783916000916118e3575b50604051631cc12e7960e11b815233600482015260248101919091529182908180604481015b03915afa9081156105e0576000916118c6575b50836117f3565b6118dd9150823d84116105d9576105cb8183612dfa565b836118bf565b82819392503d831161190d575b6118fa8183612dfa565b8101031261027e575182906118ac611886565b503d6118f0565b3461027e57602036600319011261027e576004356001600160401b03811161027e5761195d602061194a81933690600401612e1b565b8160405193828580945193849201612e96565b8101600c81520301902054604051908152f35b3461027e57602036600319011261027e5760043580600052600e60205261199d6040600020541515613123565b600052600b602052602060ff604060002054166106e6604051809261302b565b3461027e57602036600319011261027e576004356001600160401b03811161027e576119f4602061194a60a0933690600401612e1b565b8101600881520301902060ff815416906001810154906002810154600460ff60038401541692015492604051941515855260208501526040840152151560608301526080820152f35b3461027e57604036600319011261027e57611a56612e80565b6001600160a01b03166000908152600f602052604090208054602435919082101561027e57602091611a8791613013565b90546040519160031b1c8152f35b3461027e57611aa336612eeb565b906000526010602052604060002090815481101561027e57611ac491612f01565b50805461153660018301549260ff600282015491611ae9600460038301549201612f6d565b9260405196879687526020870152604086015260018060a01b038116606086015260a01c161515608084015260c060a084015260c0830190612ec6565b3461027e57602036600319011261027e576004356000526005602052602060ff604060002054166040519015158152f35b3461027e57602036600319011261027e576000610180604051611b7981612da8565b828152606060208201528260408201528260608201528260808201528260a08201528260c08201528260e0820152606061010082015282610120820152606061014082015282610160820152015260043580600052600e602052611be36040600020541515613123565b600052600e6020526040600020600c60405191611bff83612da8565b80548352611c0f60018201612f6d565b6020840152600281015460408401526003810154606084015260048101546001600160a01b03166080840152600581015460a0840152600681015460c0840152600781015460ff16151560e0840152611c6a60088201612f6d565b6101008401526009810154610120840152611c87600a8201612f6d565b610140840152611ca260ff600b8301541661016085016130d1565b015461018082015260405180916020825280516020830152610180611d63611cdb60208401516101a060408701526101c0860190612ec6565b604084015160608601526060840151608086015260018060a01b0360808501511660a086015260a084015160c086015260c084015160e086015260e08401511515610100860152611d4061010085015191601f19928388830301610120890152612ec6565b906101208501516101408701526101408501519086830301610160870152612ec6565b91611d7661016082015183860190612eb9565b01516101a08301520390f35b3461027e57602036600319011261027e5760043580600052600e602052611daf6040600020541515613123565b600052600e602052602060ff600b60406000200154166106e66040518092612eb9565b3461027e57602036600319011261027e57600435600052601160205260206040600020541515604051908152f35b3461027e57600036600319011261027e576004546040516001600160a01b039091168152602090f35b3461027e5760208060031936011261027e57611e43612e80565b600354604051631d6c8e3f60e21b81526001600160a01b0393918416908281600481855afa80156105e0578391600091611f40575b50604051631cc12e7960e11b815233600482015260248101919091529182908180604481015b03915afa9081156105e057600091611f23575b5015611ed15750166001600160601b0360a01b6004541617600455600080f35b6084906040519062461bcd60e51b82526004820152602560248201527f4f6e6c792061646d696e2063616e20736574206d756c74692d73696720636f6e6044820152641d1c9858dd60da1b6064820152fd5b611f3a9150823d84116105d9576105cb8183612dfa565b84611eb1565b82819392503d8311611f6a575b611f578183612dfa565b8101031261027e57518290611e9e611e78565b503d611f4d565b3461027e57602036600319011261027e576004356001600160401b03811161027e5760ff611fa9602061194a81943690600401612e1b565b8101600681520301902054166040519015158152f35b3461027e57604036600319011261027e57602460043581356001600160a01b038181169182900361027e5782600052602092600e8452816004604060002001541633036121ef5782156121ab573383146121675780600052600e84526004604060002001838154938416936001600160601b0360a01b1617905581600052600f845260406000209360005b8554808210156121575783906120608389613013565b929054600393841b1c1461207e575050612079906130b5565b61204a565b600097929193949596971991828201918211612142576120b16120a46120ca9386613013565b905490871b1c9185613013565b90919082549060031b91821b91600019901b1916179055565b815497881561212e575080600f9596979801926120e78484613013565b81939154921b1b19169055555b84600052526121078160406000206130dd565b7f16b85f49bf01212961345d3016c9a531894accf62eb7680f2045d79185cc0ec0600080a4005b634e487b7160e01b60009081526031600452fd5b89634e487b7160e01b60005260116004526000fd5b505090929450600f9193506120f4565b60405162461bcd60e51b8152600481018590526017818701527f43616e6e6f74207472616e7366657220746f2073656c660000000000000000006044820152606490fd5b60405162461bcd60e51b8152600481018590526019818701527f496e76616c6964206e6577206f776e65722061646472657373000000000000006044820152606490fd5b60405162461bcd60e51b815260048101859052601281870152712737ba103237b1bab6b2b73a1037bbb732b960711b6044820152606490fd5b3461027e57604036600319011261027e576004356001600160401b03811161027e57612258903690600401612e1b565b612260612e71565b600354604051631d6c8e3f60e21b81526001600160a01b039091169260209290918381600481885afa9081156105e057600091612365575b50604051631cc12e7960e11b8152336004820152602481019190915293839085908180604481015b03915afa9384156105e057817f64da4b04b5aea38114faf1e34fe8d4f7437054a7cfaad6ae05365f6d34312a6294612305600097612334948991612348575b506137d6565b604051908186516123198183858b01612e96565b810160068152030190209060ff801983541691151516179055565b61234360405192839283613834565b0390a2005b61235f9150833d85116105d9576105cb8183612dfa565b896122ff565b90508381813d831161238d575b61237c8183612dfa565b8101031261027e57516122c0612298565b503d612372565b3461027e57602036600319011261027e576004356000526007602052602060ff604060002054166040519015158152f35b3461027e57604036600319011261027e576004356123e1612e71565b81600052602090600e82526123fc6040600020541515613123565b600354604051631d6c8e3f60e21b81526001600160a01b0391821693908181600481885afa9081156105e0576000916125a4575b50604051631cc12e7960e11b8152336004820152602481019190915293819085908180604481015b03915afa9384156105e0577f64da4b04b5aea38114faf1e34fe8d4f7437054a7cfaad6ae05365f6d34312a62946124969160009161258757506137d6565b84600052600581526124b88360406000209060ff801983541691151516179055565b600e8152604060002091604051916124cf83612da8565b835483526124df60018501612f6d565b9083015260028301546040830152600383015460608301526004830154166080820152600582015460a0820152600682015460c082015260ff600783015416151560e082015261253160088301612f6d565b6101008201526009820154610120820152610180600c612553600a8501612f6d565b93610140840194855261257160ff600b8301541661016086016130d1565b0154910152519061234360405192839283613834565b61259e9150833d85116105d9576105cb8183612dfa565b876122ff565b90508181813d83116125cc575b6125bb8183612dfa565b8101031261027e5751612458612430565b503d6125b1565b3461027e5760a036600319011261027e576004356001600160401b03811161027e57612603903690600401612e1b565b6044356001600160401b03811161027e57612622903690600401612e1b565b906084356001600160401b03811161027e57612642903690600401612e1b565b9061264b613100565b805115612c8d5760243515612c54576024356000526011602052604060002054612c0f5761267a6002546130b5565b918260025560405160208183516126948183858801612e96565b8101600c815203019020548015612bed575b6126b090426130c4565b90604051946126be86612da8565b8486528360208701526024356040870152600060608701523360808701524260a0870152600060c0870152600060e087015261010086015260643561012086015261014085015260006101608501528061018085015282600052600e60205260406000208451815560208501518051906001600160401b03821161129357819061274b6001850154612f33565b601f8111612b9a575b50602090601f8311600114612b2857600092612b1d575b50508160011b916000199060031b1c19161760018201555b60408501516002820155606085015160038201556004810160018060a01b036080870151166001600160601b0360a01b82541617905560a0850151600582015560c085015160068201556127ec60e08601511515600783019060ff801983541691151516179055565b6101008501518051906001600160401b0382116112935781906128126008850154612f33565b601f8111612aca575b50602090601f8311600114612a5857600092612a4d575b50508160011b916000199060031b1c19161760088201555b61012085015160098201556101408501518051906001600160401b03821161129357819061287b600a850154612f33565b601f81116129fa575b50602090601f83116001146129885760009261297d575b50508160011b916000199060031b1c191617600a8201555b600b8101610160860151600681101561296757602096600c926101809260ff80198354169116179055015191015582600052600d845260406000205533600052600f83526129058260406000206130dd565b6024356000526011835281604060002055817ff17d1b2b79b8ade02c6389d93bacd93e57fc7c62f86281153c916630c919e66c61294d60405193604085526040850190612ec6565b92602435868201528033940390a360018055604051908152f35b634e487b7160e01b600052602160045260246000fd5b01519050878061289b565b9250600a84016000526020600020906000935b601f19841685106129df576001945083601f198116106129c6575b505050811b01600a8201556128b3565b015160001960f88460031b161c191690558780806129b6565b8181015183556020948501946001909301929091019061299b565b909150600a84016000526020600020601f840160051c810160208510612a46575b90849392915b601f830160051c82018110612a37575050612884565b60008155859450600101612a21565b5080612a1b565b015190508780612832565b9250600884016000526020600020906000935b601f1984168510612aaf576001945083601f19811610612a96575b505050811b01600882015561284a565b015160001960f88460031b161c19169055878080612a86565b81810151835560209485019460019093019290910190612a6b565b909150600884016000526020600020601f840160051c810160208510612b16575b90849392915b601f830160051c82018110612b0757505061281b565b60008155859450600101612af1565b5080612aeb565b01519050878061276b565b9250600184016000526020600020906000935b601f1984168510612b7f576001945083601f19811610612b66575b505050811b016001820155612783565b015160001960f88460031b161c19169055878080612b56565b81810151835560209485019460019093019290910190612b3b565b909150600184016000526020600020601f840160051c810160208510612be6575b90849392915b601f830160051c82018110612bd7575050612754565b60008155859450600101612bc1565b5080612bbb565b5060405166191959985d5b1d60ca1b8152600c600782015260279020546126a6565b60405162461bcd60e51b815260206004820152601760248201527f446f63756d656e7420616c7265616479206578697374730000000000000000006044820152606490fd5b60405162461bcd60e51b8152602060048201526011602482015270092dcecc2d8d2c840ccd2d8ca40d0c2e6d607b1b6044820152606490fd5b60405162461bcd60e51b8152602060048201526014602482015273125b9d985b1a5908119a5b1958dbda5b8810d25160621b6044820152606490fd5b3461027e57600036600319011261027e576003546040516001600160a01b039091168152602090f35b3461027e57602036600319011261027e576020612d2860043580600052600e8352612d236040600020541515613123565b6136cf565b6040519015158152f35b3461027e57602036600319011261027e57600435600052600a6020526020604060002054604051908152f35b3461027e57602036600319011261027e5760043580600052600e602052612d8b6040600020541515613123565b6000526007602052602060ff604060002054166040519015158152f35b6101a081019081106001600160401b0382111761129357604052565b60a081019081106001600160401b0382111761129357604052565b60c081019081106001600160401b0382111761129357604052565b90601f801991011681019081106001600160401b0382111761129357604052565b81601f8201121561027e578035906001600160401b0382116112935760405192612e4f601f8401601f191660200185612dfa565b8284526020838301011161027e57816000926020809301838601378301015290565b60243590811515820361027e57565b600435906001600160a01b038216820361027e57565b60005b838110612ea95750506000910152565b8181015183820152602001612e99565b9060068210156129675752565b90602091612edf81518092818552858086019101612e96565b601f01601f1916010190565b604090600319011261027e576004359060243590565b8054821015612f1d576000526005602060002091020190600090565b634e487b7160e01b600052603260045260246000fd5b90600182811c92168015612f63575b6020831014612f4d57565b634e487b7160e01b600052602260045260246000fd5b91607f1691612f42565b9060405191826000825492612f8184612f33565b908184526001948581169081600014612ff05750600114612fad575b5050612fab92500383612dfa565b565b9093915060005260209081600020936000915b818310612fd8575050612fab93508201013880612f9d565b85548884018501529485019487945091830191612fc0565b915050612fab94506020925060ff191682840152151560051b8201013880612f9d565b8054821015612f1d5760005260206000200190600090565b9060058210156129675752565b9060c060a061308693805184526020810151602085015260408101516040850152600180831b0360608201511660608501526080810151151560808501520151918160a08201520190612ec6565b90565b6000546001600160a01b0316330361309d57565b60405163118cdaa760e01b8152336004820152602490fd5b600019811461153a5760010190565b9190820180921161153a57565b60068210156129675752565b90815491600160401b83101561129357826120b1916001612fab95018155613013565b600260015414613111576002600155565b604051633ee5aeb560e01b8152600490fd5b1561312a57565b60405162461bcd60e51b815260206004820152601760248201527f446f63756d656e7420646f6573206e6f742065786973740000000000000000006044820152606490fd5b9081602091031261027e5751801515810361027e5790565b8051821015612f1d5760209160051b010190565b6040519081600082546131ad81612f33565b9360019180831690811561321257506001146131d5575b505060209250600881520301902090565b90915060005260209081600020906000915b8583106131fe5750505050602091810138806131c4565b8054878401528694509183019181016131e7565b92505050602093915060ff1916825280151502810138806131c4565b6000818152600e6020526040908181209061324b600a830161319b565b9280519061325882612dc4565b60ff9182865416151581526004600187015496876020840152600281015484840152846003820154161515606084015201546080820152941561335d575b845115613355576132b060058501546020870151906130c4565b4210158061332a575b61331b575b85835260106020528083205490850151111592836132eb575b5050506132e2575050565b612fab91613454565b600b0154169150600682101561330757506001143880806132d7565b634e487b7160e01b81526021600452602490fd5b61332585876133bc565b6132be565b5081600b85015416600681101561334157156132b9565b634e487b7160e01b84526021600452602484fd5b505050505050565b93506027845166191959985d5b1d60ca1b81526008600782015220600485519161338683612dc4565b83815416151583526001810154602084015260028101548784015283600382015416151560608401520154608082015293613296565b906133c7908261363e565b6133ce5750565b600090808252600e602052604091600b8382200160ff1990600182825416179055600b602052600184832091825416179055600960205282812061341281546130b5565b9055818152600a60205282429120557f99c8dbdfda1086f488085852794a3f4469c444ee425ca19e06ed87326265772b825192600184524260208501523093a3565b9061345f818361363e565b613467575050565b9091600090838252602093601085526040948584209586546001600160401b03811161362a578151976005906134a18584841b018b612dfa565b828a528752838720879085808c015b8584106135c457505050505050845b87518110156134ff5760806134d4828a613187565b5101516134ea575b6134e5906130b5565b6134bf565b946134f76134e5916130b5565b9590506134dc565b50929550929093820192835182101561351a575b5050505050565b7f1322e81f2c7c277c8133babb57e97c6dd5c1aac6f0f4a6fe8ea13db4f995d7919385600052600e825283600020600b81019060ff199160028382541617905560078101600183825416179055600642910155600b8352600285600020918254161790558351600281524283820152867f99c8dbdfda1086f488085852794a3f4469c444ee425ca19e06ed87326265772b863093a351908351928352820152a23880808080613513565b600191859188516135d481612ddf565b85548152848601548382015260028601548a8201526003860154858060a01b038116606083015260ff60a091821c161515608083015261361660048801612f6d565b9082015281520192019201919086906134b0565b634e487b7160e01b86526041600452602486fd5b90600091808352600a6020526040832054908115159182613692575b5081613678575b5061367457606001516130865750600190565b5090565b835250600960205260408220546080820151111538613661565b9091506201518081018091116136ab574210903861365a565b634e487b7160e01b84526011600452602484fd5b9190811015612f1d5760051b0190565b600052600560205260ff604060002054166137d157600e60205260ff6137c26020604060002060405161370181612da8565b8154815261371160018301612f6d565b81840152600282015460408201526003820154606082015260048201546001600160a01b03166080820152600582015460a0820152600682015460c082015260078201548516151560e082015261376a60088301612f6d565b6101008201526009820154610120820152610180600c61378c600a8501612f6d565b9361014084019485526137a988600b8301541661016086016130d1565b0154910152518160405193828580945193849201612e96565b81016006815203019020541690565b600190565b156137dd57565b60405162461bcd60e51b815260206004820152602960248201527f4f6e6c792061646d696e2063616e20736574206d756c74692d73696720726571604482015268756972656d656e747360b81b6064820152608490fd5b6040906130869392151581528160208201520190612ec656fea2646970667358221220cb24a07b1b56e906fa84b3513c0df01285abcbb5782eda75ba2f094c0e5af06064736f6c63430008140033","opcodes":"PUSH1 0x80 CALLVALUE PUSH3 0x455 JUMPI PUSH3 0x3D29 SWAP1 PUSH1 0x1F CODESIZE DUP4 SWAP1 SUB SWAP1 DUP2 ADD PUSH1 0x1F NOT AND DUP3 ADD SWAP1 PUSH1 0x1 PUSH1 0x1 PUSH1 0x40 SHL SUB DUP3 GT DUP4 DUP4 LT OR PUSH3 0x45A JUMPI DUP1 DUP4 SWAP2 PUSH1 0x40 SWAP6 DUP7 SWAP5 DUP6 MSTORE DUP4 CODECOPY DUP2 ADD SUB SLT PUSH3 0x455 JUMPI PUSH3 0x5D PUSH1 0x20 PUSH3 0x55 DUP4 PUSH3 0x490 JUMP JUMPDEST SWAP3 ADD PUSH3 0x490 JUMP JUMPDEST PUSH1 0x1 PUSH1 0x1 PUSH1 0xA0 SHL SUB SWAP2 DUP3 AND SWAP2 SWAP1 DUP3 ISZERO PUSH3 0x43D JUMPI PUSH1 0x0 DUP1 SLOAD PUSH1 0x1 PUSH1 0x1 PUSH1 0xA0 SHL SUB NOT DUP1 DUP3 AND DUP7 OR DUP4 SSTORE DUP7 MLOAD SWAP6 SWAP3 SWAP4 SWAP3 SWAP1 SWAP2 DUP6 AND PUSH32 0x8BE0079C531659141344CD1FD0A4F28419497F9722A3DAAFE3B4186F6B6457E0 DUP6 DUP1 LOG3 PUSH1 0x1 SWAP4 DUP5 DUP1 SSTORE PUSH1 0x3 SWAP3 AND SWAP1 DUP3 SLOAD AND OR DUP2 SSTORE PUSH5 0x1B1959D85B PUSH1 0xDA SHL SWAP4 DUP5 DUP2 MSTORE PUSH1 0xC SWAP1 DUP2 PUSH1 0x5 DUP3 ADD MSTORE PUSH1 0x25 SWAP1 KECCAK256 PUSH4 0xD286880 SWAP1 SSTORE DUP6 MLOAD PUSH9 0x199A5B985B98DA585B PUSH1 0xBA SHL SWAP6 DUP7 DUP3 MSTORE DUP3 PUSH1 0x9 DUP4 ADD MSTORE PUSH4 0x12CC0300 PUSH1 0x29 DUP2 SWAP4 KECCAK256 SSTORE DUP8 MLOAD SWAP3 PUSH7 0x1B59591A58D85B PUSH1 0xCA SHL SWAP4 DUP5 DUP2 MSTORE DUP2 PUSH1 0x7 DUP3 ADD MSTORE PUSH1 0x27 SWAP1 KECCAK256 PUSH4 0x38640900 SWAP1 SSTORE DUP9 DUP1 MLOAD SWAP6 PUSH8 0x6964656E74697479 PUSH1 0xC0 SHL SWAP5 DUP6 DUP9 MSTORE PUSH1 0x8 SWAP8 DUP5 DUP10 DUP3 ADD MSTORE PUSH1 0x28 SWAP1 KECCAK256 SSTORE DUP2 MLOAD SWAP8 PUSH8 0x18DBDB9D1C9858DD PUSH1 0xC2 SHL SWAP9 DUP10 DUP2 MSTORE DUP5 DUP10 DUP3 ADD MSTORE PUSH1 0x28 SWAP1 KECCAK256 PUSH4 0x25980600 SWAP1 SSTORE DUP3 MLOAD PUSH7 0x191959985D5B1D PUSH1 0xCA SHL SWAP5 DUP6 DUP3 MSTORE PUSH1 0x7 DUP3 ADD MSTORE PUSH1 0x27 SWAP1 KECCAK256 PUSH4 0x9660180 SWAP1 SSTORE PUSH3 0x19B PUSH3 0x470 JUMP JUMPDEST DUP11 DUP2 MSTORE PUSH1 0x20 DUP2 ADD SWAP1 PUSH3 0x15180 DUP3 MSTORE DUP5 DUP2 ADD SWAP2 DUP5 DUP4 MSTORE PUSH1 0x60 DUP3 ADD SWAP3 DUP14 DUP5 MSTORE DUP14 PUSH1 0x80 DUP5 ADD SWAP3 PUSH1 0xA DUP5 MSTORE DUP14 DUP10 MLOAD SWAP1 DUP13 DUP3 MSTORE PUSH1 0x5 DUP3 ADD MSTORE PUSH1 0x25 SWAP1 KECCAK256 SWAP5 MLOAD ISZERO ISZERO PUSH3 0x1ED SWAP1 DUP7 SWAP1 PUSH1 0xFF DUP1 NOT DUP4 SLOAD AND SWAP2 ISZERO ISZERO AND OR SWAP1 SSTORE JUMP JUMPDEST MLOAD SWAP1 DUP5 ADD SSTORE MLOAD SWAP3 PUSH1 0x2 SWAP4 DUP5 DUP5 ADD SSTORE MLOAD ISZERO ISZERO DUP6 DUP4 ADD SWAP1 PUSH3 0x218 SWAP2 SWAP1 PUSH1 0xFF DUP1 NOT DUP4 SLOAD AND SWAP2 ISZERO ISZERO AND OR SWAP1 SSTORE JUMP JUMPDEST MLOAD SWAP1 PUSH1 0x4 ADD SSTORE PUSH3 0x228 PUSH3 0x470 JUMP JUMPDEST DUP12 DUP2 MSTORE DUP10 DUP14 DUP14 PUSH1 0x20 DUP5 ADD SWAP1 PUSH2 0xA8C0 DUP3 MSTORE DUP9 DUP6 ADD SWAP2 DUP7 DUP4 MSTORE PUSH1 0x60 DUP7 ADD SWAP4 DUP9 DUP6 MSTORE PUSH1 0x80 DUP8 ADD SWAP6 PUSH1 0x14 DUP8 MSTORE DUP12 MLOAD SWAP2 DUP3 MSTORE PUSH1 0x9 DUP3 ADD MSTORE PUSH1 0x29 SWAP1 KECCAK256 SWAP6 MLOAD ISZERO ISZERO PUSH3 0x279 SWAP1 DUP8 SWAP1 PUSH1 0xFF DUP1 NOT DUP4 SLOAD AND SWAP2 ISZERO ISZERO AND OR SWAP1 SSTORE JUMP JUMPDEST MLOAD SWAP1 DUP6 ADD SSTORE MLOAD DUP5 DUP5 ADD SSTORE MLOAD ISZERO ISZERO DUP6 DUP4 ADD SWAP1 PUSH3 0x2A0 SWAP2 SWAP1 PUSH1 0xFF DUP1 NOT DUP4 SLOAD AND SWAP2 ISZERO ISZERO AND OR SWAP1 SSTORE JUMP JUMPDEST MLOAD SWAP1 PUSH1 0x4 ADD SSTORE PUSH3 0x2B0 PUSH3 0x470 JUMP JUMPDEST DUP12 DUP2 MSTORE DUP10 PUSH1 0x20 DUP3 ADD PUSH3 0x2A300 DUP2 MSTORE DUP14 DUP8 DUP5 ADD SWAP1 DUP8 DUP3 MSTORE PUSH1 0x60 DUP6 ADD SWAP3 DUP2 DUP5 MSTORE DUP13 PUSH1 0x80 DUP8 ADD SWAP6 PUSH1 0x5 DUP8 MSTORE DUP12 MLOAD SWAP2 DUP3 MSTORE DUP1 DUP3 ADD MSTORE PUSH1 0x28 SWAP1 KECCAK256 SWAP6 MLOAD ISZERO ISZERO PUSH3 0x300 SWAP1 DUP8 SWAP1 PUSH1 0xFF DUP1 NOT DUP4 SLOAD AND SWAP2 ISZERO ISZERO AND OR SWAP1 SSTORE JUMP JUMPDEST MLOAD SWAP1 DUP6 ADD SSTORE MLOAD DUP5 DUP5 ADD SSTORE MLOAD ISZERO ISZERO DUP6 DUP4 ADD SWAP1 PUSH3 0x327 SWAP2 SWAP1 PUSH1 0xFF DUP1 NOT DUP4 SLOAD AND SWAP2 ISZERO ISZERO AND OR SWAP1 SSTORE JUMP JUMPDEST MLOAD SWAP1 PUSH1 0x4 ADD SSTORE PUSH3 0x337 PUSH3 0x470 JUMP JUMPDEST SWAP5 DUP12 DUP7 MSTORE PUSH1 0x20 DUP7 ADD PUSH2 0x5460 DUP2 MSTORE DUP6 DUP8 ADD SWAP2 DUP4 DUP4 MSTORE PUSH1 0x60 DUP9 ADD SWAP5 DUP6 MSTORE PUSH1 0x80 DUP9 ADD SWAP7 PUSH1 0xF DUP9 MSTORE MLOAD SWAP1 DUP2 MSTORE DUP12 PUSH1 0x7 DUP3 ADD MSTORE PUSH1 0x27 SWAP1 KECCAK256 SWAP7 MLOAD ISZERO ISZERO PUSH3 0x384 SWAP1 DUP9 SWAP1 PUSH1 0xFF DUP1 NOT DUP4 SLOAD AND SWAP2 ISZERO ISZERO AND OR SWAP1 SSTORE JUMP JUMPDEST MLOAD DUP13 DUP8 ADD SSTORE MLOAD SWAP1 DUP6 ADD SSTORE MLOAD ISZERO ISZERO SWAP1 DUP4 ADD SWAP1 PUSH3 0x3AB SWAP2 SWAP1 PUSH1 0xFF DUP1 NOT DUP4 SLOAD AND SWAP2 ISZERO ISZERO AND OR SWAP1 SSTORE JUMP JUMPDEST MLOAD SWAP1 PUSH1 0x4 ADD SSTORE DUP8 MLOAD SWAP1 DUP2 MSTORE PUSH1 0x5 DUP2 ADD PUSH1 0x6 SWAP1 MSTORE PUSH1 0x25 SWAP1 KECCAK256 SWAP6 PUSH1 0xFF NOT SWAP7 DUP7 DUP9 DUP3 SLOAD AND OR SWAP1 SSTORE DUP8 MLOAD SWAP1 DUP2 MSTORE PUSH1 0x9 DUP2 ADD PUSH1 0x6 SWAP1 MSTORE PUSH1 0x29 SWAP1 KECCAK256 DUP6 DUP8 DUP3 SLOAD AND OR SWAP1 SSTORE DUP7 MLOAD SWAP1 DUP2 MSTORE DUP3 DUP2 ADD PUSH1 0x6 SWAP1 MSTORE PUSH1 0x28 SWAP1 KECCAK256 DUP5 DUP7 DUP3 SLOAD AND OR SWAP1 SSTORE DUP6 MLOAD SWAP1 DUP2 MSTORE PUSH1 0x7 DUP2 ADD PUSH1 0x6 SWAP1 MSTORE PUSH1 0x27 SWAP1 KECCAK256 DUP4 DUP6 DUP3 SLOAD AND OR SWAP1 SSTORE DUP5 MLOAD SWAP2 DUP3 MSTORE DUP2 ADD PUSH1 0x6 SWAP1 MSTORE PUSH1 0x28 SWAP1 KECCAK256 SWAP2 DUP3 SLOAD AND OR SWAP1 SSTORE MLOAD PUSH2 0x3883 SWAP1 DUP2 PUSH3 0x4A6 DUP3 CODECOPY RETURN JUMPDEST DUP4 MLOAD PUSH4 0x1E4FBDF7 PUSH1 0xE0 SHL DUP2 MSTORE PUSH1 0x0 PUSH1 0x4 DUP3 ADD MSTORE PUSH1 0x24 SWAP1 REVERT JUMPDEST PUSH1 0x0 DUP1 REVERT JUMPDEST PUSH4 0x4E487B71 PUSH1 0xE0 SHL PUSH1 0x0 MSTORE PUSH1 0x41 PUSH1 0x4 MSTORE PUSH1 0x24 PUSH1 0x0 REVERT JUMPDEST PUSH1 0x40 MLOAD SWAP1 PUSH1 0xA0 DUP3 ADD PUSH1 0x1 PUSH1 0x1 PUSH1 0x40 SHL SUB DUP2 GT DUP4 DUP3 LT OR PUSH3 0x45A JUMPI PUSH1 0x40 MSTORE JUMP JUMPDEST MLOAD SWAP1 PUSH1 0x1 PUSH1 0x1 PUSH1 0xA0 SHL SUB DUP3 AND DUP3 SUB PUSH3 0x455 JUMPI JUMP INVALID PUSH1 0x80 PUSH1 0x40 MSTORE PUSH1 0x4 CALLDATASIZE LT ISZERO PUSH2 0x12 JUMPI PUSH1 0x0 DUP1 REVERT JUMPDEST PUSH1 0x0 CALLDATALOAD PUSH1 0xE0 SHR DUP1 PUSH4 0x5D78355 EQ PUSH2 0x2D5E JUMPI DUP1 PUSH4 0xB63552F EQ PUSH2 0x2D32 JUMPI DUP1 PUSH4 0x115948D8 EQ PUSH2 0x2CF2 JUMPI DUP1 PUSH4 0x13007D55 EQ PUSH2 0x2CC9 JUMPI DUP1 PUSH4 0x1415169D EQ PUSH2 0x25D3 JUMPI DUP1 PUSH4 0x15EC7E44 EQ PUSH2 0x23C5 JUMPI DUP1 PUSH4 0x199520E6 EQ PUSH2 0x2394 JUMPI DUP1 PUSH4 0x23ECB96F EQ PUSH2 0x2228 JUMPI DUP1 PUSH4 0x2ACB4F62 EQ PUSH2 0x1FBF JUMPI DUP1 PUSH4 0x2D700F0F EQ PUSH2 0x1F71 JUMPI DUP1 PUSH4 0x34C6D8B5 EQ PUSH2 0x1E29 JUMPI DUP1 PUSH4 0x36ADBE8A EQ PUSH2 0x1120 JUMPI DUP1 PUSH4 0x36E0004A EQ PUSH2 0x1E00 JUMPI DUP1 PUSH4 0x3D43EB07 EQ PUSH2 0x1DD2 JUMPI DUP1 PUSH4 0x3E7FE8EC EQ PUSH2 0x1D82 JUMPI DUP1 PUSH4 0x3F9B250A EQ PUSH2 0x1B57 JUMPI DUP1 PUSH4 0x4374E8E2 EQ PUSH2 0x1B26 JUMPI DUP1 PUSH4 0x4B3619A6 EQ PUSH2 0x1A95 JUMPI DUP1 PUSH4 0x577A1B92 EQ PUSH2 0x1A3D JUMPI DUP1 PUSH4 0x597E0F64 EQ PUSH2 0x19BD JUMPI DUP1 PUSH4 0x661E582F EQ PUSH2 0x1970 JUMPI DUP1 PUSH4 0x6632D86C EQ PUSH2 0x1914 JUMPI DUP1 PUSH4 0x69EA9247 EQ PUSH2 0x179F JUMPI DUP1 PUSH4 0x715018A6 EQ PUSH2 0x1746 JUMPI DUP1 PUSH4 0x7B128213 EQ PUSH2 0x15EA JUMPI DUP1 PUSH4 0x7FA5BD55 EQ PUSH2 0x1451 JUMPI DUP1 PUSH4 0x825F9220 EQ PUSH2 0x13B2 JUMPI DUP1 PUSH4 0x849514BA EQ PUSH2 0x1386 JUMPI DUP1 PUSH4 0x8DA5CB5B EQ PUSH2 0x135D JUMPI DUP1 PUSH4 0x90A4B162 EQ PUSH2 0x12A9 JUMPI DUP1 PUSH4 0x94501770 EQ PUSH2 0x114C JUMPI DUP1 PUSH4 0x94BF54F0 EQ PUSH2 0x1120 JUMPI DUP1 PUSH4 0xA2966E22 EQ PUSH2 0xBDF JUMPI DUP1 PUSH4 0xA31A7707 EQ PUSH2 0xA51 JUMPI DUP1 PUSH4 0xC2ED2B05 EQ PUSH2 0x93F JUMPI DUP1 PUSH4 0xC60BE737 EQ PUSH2 0x6E8 JUMPI DUP1 PUSH4 0xCE9647CA EQ PUSH2 0x6B2 JUMPI DUP1 PUSH4 0xDD4A8D45 EQ PUSH2 0x686 JUMPI DUP1 PUSH4 0xE7641C5C EQ PUSH2 0x63B JUMPI DUP1 PUSH4 0xE90E7AD4 EQ PUSH2 0x61D JUMPI DUP1 PUSH4 0xEB94A871 EQ PUSH2 0x35C JUMPI DUP1 PUSH4 0xEBF34960 EQ PUSH2 0x283 JUMPI PUSH4 0xF2FDE38B EQ PUSH2 0x1F5 JUMPI PUSH1 0x0 DUP1 REVERT JUMPDEST CALLVALUE PUSH2 0x27E JUMPI PUSH1 0x20 CALLDATASIZE PUSH1 0x3 NOT ADD SLT PUSH2 0x27E JUMPI PUSH2 0x20E PUSH2 0x2E80 JUMP JUMPDEST PUSH2 0x216 PUSH2 0x3089 JUMP JUMPDEST PUSH1 0x1 PUSH1 0x1 PUSH1 0xA0 SHL SUB SWAP1 DUP2 AND SWAP1 DUP2 ISZERO PUSH2 0x265 JUMPI PUSH1 0x0 SLOAD DUP3 PUSH1 0x1 PUSH1 0x1 PUSH1 0x60 SHL SUB PUSH1 0xA0 SHL DUP3 AND OR PUSH1 0x0 SSTORE AND PUSH32 0x8BE0079C531659141344CD1FD0A4F28419497F9722A3DAAFE3B4186F6B6457E0 PUSH1 0x0 DUP1 LOG3 STOP JUMPDEST PUSH1 0x40 MLOAD PUSH4 0x1E4FBDF7 PUSH1 0xE0 SHL DUP2 MSTORE PUSH1 0x0 PUSH1 0x4 DUP3 ADD MSTORE PUSH1 0x24 SWAP1 REVERT JUMPDEST PUSH1 0x0 DUP1 REVERT JUMPDEST CALLVALUE PUSH2 0x27E JUMPI PUSH2 0x291 CALLDATASIZE PUSH2 0x2EEB JUMP JUMPDEST SWAP1 DUP1 PUSH1 0x0 MSTORE PUSH1 0xE PUSH1 0x20 MSTORE PUSH2 0x2AB PUSH1 0x40 PUSH1 0x0 KECCAK256 SLOAD ISZERO ISZERO PUSH2 0x3123 JUMP JUMPDEST PUSH1 0x4 SLOAD PUSH1 0x1 PUSH1 0x1 PUSH1 0xA0 SHL SUB SWAP1 DUP2 AND CALLER SUB PUSH2 0x309 JUMPI PUSH1 0x20 PUSH32 0xCB74E6315251CDACD74613191272655FC65014EDBDD3BC1494CBE3D9C544E2DE SWAP2 DUP4 PUSH1 0x0 MSTORE PUSH1 0x7 DUP3 MSTORE PUSH1 0x40 PUSH1 0x0 KECCAK256 PUSH1 0x1 PUSH1 0xFF NOT DUP3 SLOAD AND OR SWAP1 SSTORE PUSH1 0x4 SLOAD AND SWAP4 PUSH1 0x40 MLOAD SWAP1 DUP2 MSTORE LOG3 STOP JUMPDEST PUSH1 0x40 MLOAD PUSH3 0x461BCD PUSH1 0xE5 SHL DUP2 MSTORE PUSH1 0x20 PUSH1 0x4 DUP3 ADD MSTORE PUSH1 0x25 PUSH1 0x24 DUP3 ADD MSTORE PUSH32 0x4F6E6C79206D756C74692D73696720636F6E74726163742063616E2063616C6C PUSH1 0x44 DUP3 ADD MSTORE PUSH5 0x2074686973 PUSH1 0xD8 SHL PUSH1 0x64 DUP3 ADD MSTORE PUSH1 0x84 SWAP1 REVERT JUMPDEST CALLVALUE PUSH2 0x27E JUMPI PUSH1 0x40 CALLDATASIZE PUSH1 0x3 NOT ADD SLT PUSH2 0x27E JUMPI PUSH1 0x24 CALLDATALOAD PUSH1 0x4 CALLDATALOAD PUSH1 0x5 DUP3 LT ISZERO PUSH2 0x27E JUMPI DUP1 PUSH1 0x0 MSTORE PUSH1 0x20 PUSH1 0xE DUP2 MSTORE PUSH2 0x396 PUSH1 0x40 PUSH1 0x0 KECCAK256 SLOAD ISZERO ISZERO PUSH2 0x3123 JUMP JUMPDEST PUSH1 0x3 SLOAD PUSH1 0x40 MLOAD PUSH4 0x1D6C8E3F PUSH1 0xE2 SHL DUP2 MSTORE PUSH1 0x1 PUSH1 0x1 PUSH1 0xA0 SHL SUB SWAP1 SWAP2 AND SWAP1 DUP3 DUP2 PUSH1 0x4 DUP2 DUP6 GAS STATICCALL DUP1 ISZERO PUSH2 0x5E0 JUMPI DUP4 SWAP2 PUSH1 0x0 SWAP2 PUSH2 0x5EC JUMPI JUMPDEST POP PUSH1 0x40 MLOAD PUSH4 0x1CC12E79 PUSH1 0xE1 SHL DUP2 MSTORE CALLER PUSH1 0x4 DUP3 ADD MSTORE PUSH1 0x24 DUP2 ADD SWAP2 SWAP1 SWAP2 MSTORE SWAP2 DUP3 SWAP1 DUP2 DUP1 PUSH1 0x44 DUP2 ADD JUMPDEST SUB SWAP2 GAS STATICCALL SWAP1 DUP2 ISZERO PUSH2 0x5E0 JUMPI PUSH1 0x0 SWAP2 PUSH2 0x5B3 JUMPI JUMPDEST POP ISZERO PUSH2 0x550 JUMPI DUP2 PUSH1 0x0 MSTORE PUSH1 0xE DUP2 MSTORE PUSH2 0x421 PUSH1 0xA PUSH1 0x40 PUSH1 0x0 KECCAK256 ADD PUSH2 0x319B JUMP JUMPDEST PUSH1 0x40 MLOAD PUSH2 0x42D DUP2 PUSH2 0x2DC4 JUMP JUMPDEST PUSH1 0xFF DUP3 SLOAD AND ISZERO ISZERO DUP2 MSTORE PUSH1 0x4 PUSH1 0x1 DUP4 ADD SLOAD SWAP3 DUP4 DUP6 DUP5 ADD MSTORE PUSH1 0x2 DUP2 ADD SLOAD PUSH1 0x40 DUP5 ADD MSTORE PUSH1 0xFF PUSH1 0x3 DUP3 ADD SLOAD AND ISZERO ISZERO PUSH1 0x60 DUP5 ADD MSTORE ADD SLOAD PUSH1 0x80 DUP3 ADD MSTORE SWAP1 ISZERO PUSH2 0x4EF JUMPI JUMPDEST PUSH1 0x1 DUP5 SUB PUSH2 0x4D0 JUMPI PUSH2 0x47C SWAP1 DUP4 PUSH2 0x33BC JUMP JUMPDEST DUP2 PUSH1 0x0 MSTORE PUSH1 0xB DUP2 MSTORE PUSH1 0x40 PUSH1 0x0 KECCAK256 PUSH1 0xFF NOT DUP2 SLOAD AND PUSH1 0xFF DUP6 AND OR SWAP1 SSTORE PUSH2 0x4A3 PUSH1 0x40 MLOAD DUP1 SWAP5 PUSH2 0x302B JUMP JUMPDEST TIMESTAMP SWAP1 DUP4 ADD MSTORE PUSH32 0x99C8DBDFDA1086F488085852794A3F4469C444EE425CA19E06ED87326265772B PUSH1 0x40 CALLER SWAP4 LOG3 STOP JUMPDEST PUSH1 0x2 DUP5 EQ PUSH2 0x4DF JUMPI JUMPDEST POP PUSH2 0x47C JUMP JUMPDEST PUSH2 0x4E9 SWAP1 DUP4 PUSH2 0x3454 JUMP JUMPDEST DUP4 PUSH2 0x4D9 JUMP JUMPDEST POP PUSH1 0x27 PUSH1 0x40 MLOAD PUSH7 0x191959985D5B1D PUSH1 0xCA SHL DUP2 MSTORE PUSH1 0x8 PUSH1 0x7 DUP3 ADD MSTORE KECCAK256 PUSH1 0x4 PUSH1 0x40 MLOAD SWAP2 PUSH2 0x519 DUP4 PUSH2 0x2DC4 JUMP JUMPDEST PUSH1 0xFF DUP2 SLOAD AND ISZERO ISZERO DUP4 MSTORE PUSH1 0x1 DUP2 ADD SLOAD DUP5 DUP5 ADD MSTORE PUSH1 0x2 DUP2 ADD SLOAD PUSH1 0x40 DUP5 ADD MSTORE PUSH1 0xFF PUSH1 0x3 DUP3 ADD SLOAD AND ISZERO ISZERO PUSH1 0x60 DUP5 ADD MSTORE ADD SLOAD PUSH1 0x80 DUP3 ADD MSTORE PUSH2 0x46A JUMP JUMPDEST PUSH1 0x84 SWAP1 PUSH1 0x40 MLOAD SWAP1 PUSH3 0x461BCD PUSH1 0xE5 SHL DUP3 MSTORE PUSH1 0x4 DUP3 ADD MSTORE PUSH1 0x36 PUSH1 0x24 DUP3 ADD MSTORE PUSH32 0x4F6E6C792061646D696E2063616E206D616E75616C6C79207472696767657220 PUSH1 0x44 DUP3 ADD MSTORE PUSH22 0x30BABA37B6B0BA32B2103B32B934B334B1B0BA34B7B7 PUSH1 0x51 SHL PUSH1 0x64 DUP3 ADD MSTORE REVERT JUMPDEST PUSH2 0x5D3 SWAP2 POP DUP3 RETURNDATASIZE DUP5 GT PUSH2 0x5D9 JUMPI JUMPDEST PUSH2 0x5CB DUP2 DUP4 PUSH2 0x2DFA JUMP JUMPDEST DUP2 ADD SWAP1 PUSH2 0x316F JUMP JUMPDEST DUP5 PUSH2 0x403 JUMP JUMPDEST POP RETURNDATASIZE PUSH2 0x5C1 JUMP JUMPDEST PUSH1 0x40 MLOAD RETURNDATASIZE PUSH1 0x0 DUP3 RETURNDATACOPY RETURNDATASIZE SWAP1 REVERT JUMPDEST DUP3 DUP2 SWAP4 SWAP3 POP RETURNDATASIZE DUP4 GT PUSH2 0x616 JUMPI JUMPDEST PUSH2 0x603 DUP2 DUP4 PUSH2 0x2DFA JUMP JUMPDEST DUP2 ADD SUB SLT PUSH2 0x27E JUMPI MLOAD DUP3 SWAP1 PUSH2 0x3F0 PUSH2 0x3CA JUMP JUMPDEST POP RETURNDATASIZE PUSH2 0x5F9 JUMP JUMPDEST CALLVALUE PUSH2 0x27E JUMPI PUSH1 0x0 CALLDATASIZE PUSH1 0x3 NOT ADD SLT PUSH2 0x27E JUMPI PUSH1 0x20 PUSH1 0x2 SLOAD PUSH1 0x40 MLOAD SWAP1 DUP2 MSTORE RETURN JUMPDEST CALLVALUE PUSH2 0x27E JUMPI PUSH1 0x20 CALLDATASIZE PUSH1 0x3 NOT ADD SLT PUSH2 0x27E JUMPI PUSH1 0x4 CALLDATALOAD DUP1 PUSH1 0x0 MSTORE PUSH1 0xE PUSH1 0x20 MSTORE PUSH2 0x668 PUSH1 0x40 PUSH1 0x0 KECCAK256 SLOAD ISZERO ISZERO PUSH2 0x3123 JUMP JUMPDEST PUSH1 0x0 MSTORE PUSH1 0xE PUSH1 0x20 MSTORE PUSH1 0x20 PUSH1 0xC PUSH1 0x40 PUSH1 0x0 KECCAK256 ADD SLOAD TIMESTAMP LT ISZERO PUSH1 0x40 MLOAD SWAP1 DUP2 MSTORE RETURN JUMPDEST CALLVALUE PUSH2 0x27E JUMPI PUSH1 0x20 CALLDATASIZE PUSH1 0x3 NOT ADD SLT PUSH2 0x27E JUMPI PUSH1 0x4 CALLDATALOAD PUSH1 0x0 MSTORE PUSH1 0xD PUSH1 0x20 MSTORE PUSH1 0x20 PUSH1 0x40 PUSH1 0x0 KECCAK256 SLOAD PUSH1 0x40 MLOAD SWAP1 DUP2 MSTORE RETURN JUMPDEST CALLVALUE PUSH2 0x27E JUMPI PUSH1 0x20 CALLDATASIZE PUSH1 0x3 NOT ADD SLT PUSH2 0x27E JUMPI PUSH1 0x4 CALLDATALOAD PUSH1 0x0 MSTORE PUSH1 0xB PUSH1 0x20 MSTORE PUSH1 0x20 PUSH1 0xFF PUSH1 0x40 PUSH1 0x0 KECCAK256 SLOAD AND PUSH2 0x6E6 PUSH1 0x40 MLOAD DUP1 SWAP3 PUSH2 0x302B JUMP JUMPDEST RETURN JUMPDEST CALLVALUE PUSH2 0x27E JUMPI PUSH1 0xC0 CALLDATASIZE PUSH1 0x3 NOT ADD SLT PUSH2 0x27E JUMPI PUSH1 0x4 CALLDATALOAD PUSH1 0x1 PUSH1 0x1 PUSH1 0x40 SHL SUB DUP2 GT PUSH2 0x27E JUMPI PUSH2 0x718 SWAP1 CALLDATASIZE SWAP1 PUSH1 0x4 ADD PUSH2 0x2E1B JUMP JUMPDEST PUSH2 0x720 PUSH2 0x2E71 JUMP JUMPDEST PUSH1 0x44 CALLDATALOAD PUSH1 0x64 CALLDATALOAD SWAP1 PUSH1 0x84 CALLDATALOAD DUP1 ISZERO ISZERO DUP1 SWAP2 SUB PUSH2 0x27E JUMPI PUSH1 0x3 SLOAD PUSH1 0x40 MLOAD PUSH4 0x1D6C8E3F PUSH1 0xE2 SHL DUP2 MSTORE PUSH1 0x20 SWAP7 SWAP2 PUSH1 0x1 PUSH1 0x1 PUSH1 0xA0 SHL SUB AND SWAP1 DUP8 DUP2 PUSH1 0x4 DUP2 DUP6 GAS STATICCALL DUP1 ISZERO PUSH2 0x5E0 JUMPI DUP9 SWAP2 PUSH1 0x0 SWAP2 PUSH2 0x90E JUMPI JUMPDEST POP PUSH1 0x40 MLOAD PUSH4 0x1CC12E79 PUSH1 0xE1 SHL DUP2 MSTORE CALLER PUSH1 0x4 DUP3 ADD MSTORE PUSH1 0x24 DUP2 ADD SWAP2 SWAP1 SWAP2 MSTORE SWAP2 DUP3 SWAP1 DUP2 DUP1 PUSH1 0x44 DUP2 ADD JUMPDEST SUB SWAP2 GAS STATICCALL SWAP1 DUP2 ISZERO PUSH2 0x5E0 JUMPI PUSH1 0x0 SWAP2 PUSH2 0x8F1 JUMPI JUMPDEST POP ISZERO PUSH2 0x895 JUMPI PUSH1 0x40 MLOAD SWAP5 PUSH2 0x7B6 DUP7 PUSH2 0x2DC4 JUMP JUMPDEST ISZERO ISZERO SWAP5 DUP6 DUP2 MSTORE DUP7 DUP2 ADD SWAP3 DUP5 DUP5 MSTORE PUSH1 0x40 DUP3 ADD SWAP1 DUP7 DUP3 MSTORE PUSH1 0x60 DUP4 ADD SWAP1 DUP2 MSTORE PUSH1 0x80 DUP4 ADD SWAP2 PUSH1 0xA4 CALLDATALOAD DUP4 MSTORE PUSH1 0x40 MLOAD SWAP6 DUP6 MLOAD SWAP7 DUP12 DUP2 DUP2 DUP10 ADD SWAP10 PUSH2 0x7F4 DUP2 DUP4 DUP14 PUSH2 0x2E96 JUMP JUMPDEST DUP2 ADD PUSH1 0x8 DUP2 MSTORE SUB ADD SWAP1 KECCAK256 SWAP5 MLOAD ISZERO ISZERO PUSH2 0x818 SWAP1 DUP7 SWAP1 PUSH1 0xFF DUP1 NOT DUP4 SLOAD AND SWAP2 ISZERO ISZERO AND OR SWAP1 SSTORE JUMP JUMPDEST MLOAD PUSH1 0x1 DUP6 ADD SSTORE MLOAD PUSH1 0x2 DUP5 ADD SSTORE MLOAD ISZERO ISZERO PUSH1 0x3 DUP4 ADD SWAP1 PUSH2 0x841 SWAP2 SWAP1 PUSH1 0xFF DUP1 NOT DUP4 SLOAD AND SWAP2 ISZERO ISZERO AND OR SWAP1 SSTORE JUMP JUMPDEST MLOAD SWAP1 PUSH1 0x4 ADD SSTORE PUSH1 0x40 MLOAD DUP1 SWAP3 DUP2 SWAP3 MLOAD DUP1 SWAP3 PUSH2 0x85A SWAP3 PUSH2 0x2E96 JUMP JUMPDEST DUP2 ADD SUB SWAP1 KECCAK256 SWAP4 PUSH1 0x40 MLOAD SWAP4 DUP5 MSTORE DUP4 ADD MSTORE PUSH1 0x40 DUP3 ADD MSTORE PUSH1 0x60 PUSH32 0x4D9AF8150AA8D6C11CF89BBCC72CA90AE2F67ACAB18775CDBDEB85087BB5075C SWAP2 LOG2 STOP JUMPDEST PUSH1 0x40 MLOAD PUSH3 0x461BCD PUSH1 0xE5 SHL DUP2 MSTORE PUSH1 0x4 DUP2 ADD DUP8 SWAP1 MSTORE PUSH1 0x2E PUSH1 0x24 DUP3 ADD MSTORE PUSH32 0x4F6E6C792061646D696E2063616E20757064617465206175746F2D7665726966 PUSH1 0x44 DUP3 ADD MSTORE PUSH14 0x69636174696F6E20636F6E666967 PUSH1 0x90 SHL PUSH1 0x64 DUP3 ADD MSTORE PUSH1 0x84 SWAP1 REVERT JUMPDEST PUSH2 0x908 SWAP2 POP DUP8 RETURNDATASIZE DUP10 GT PUSH2 0x5D9 JUMPI PUSH2 0x5CB DUP2 DUP4 PUSH2 0x2DFA JUMP JUMPDEST DUP8 PUSH2 0x7A3 JUMP JUMPDEST DUP3 DUP2 SWAP4 SWAP3 POP RETURNDATASIZE DUP4 GT PUSH2 0x938 JUMPI JUMPDEST PUSH2 0x925 DUP2 DUP4 PUSH2 0x2DFA JUMP JUMPDEST DUP2 ADD SUB SLT PUSH2 0x27E JUMPI MLOAD DUP8 SWAP1 PUSH2 0x790 PUSH2 0x76A JUMP JUMPDEST POP RETURNDATASIZE PUSH2 0x91B JUMP JUMPDEST CALLVALUE PUSH2 0x27E JUMPI PUSH1 0x20 CALLDATASIZE PUSH1 0x3 NOT ADD SLT PUSH2 0x27E JUMPI PUSH1 0x4 CALLDATALOAD PUSH1 0x0 MSTORE PUSH1 0xE PUSH1 0x20 MSTORE PUSH1 0x40 PUSH1 0x0 KECCAK256 DUP1 SLOAD PUSH1 0x1 DUP3 ADD PUSH2 0x96F SWAP1 PUSH2 0x2F6D JUMP JUMPDEST SWAP2 PUSH1 0x2 DUP2 ADD SLOAD PUSH1 0x3 DUP3 ADD SLOAD SWAP1 PUSH1 0x1 PUSH1 0xA0 SHL PUSH1 0x1 SWAP1 SUB PUSH1 0x4 DUP5 ADD SLOAD AND SWAP1 PUSH1 0x5 DUP5 ADD SLOAD SWAP1 PUSH1 0x6 DUP6 ADD SLOAD SWAP1 PUSH1 0x7 DUP7 ADD SLOAD PUSH1 0xFF AND PUSH1 0x8 DUP8 ADD PUSH2 0x9AC SWAP1 PUSH2 0x2F6D JUMP JUMPDEST SWAP3 PUSH1 0x9 DUP9 ADD SLOAD SWAP5 PUSH1 0xA DUP10 ADD PUSH2 0x9C0 SWAP1 PUSH2 0x2F6D JUMP JUMPDEST SWAP7 PUSH1 0xB DUP11 ADD SLOAD PUSH1 0xFF AND SWAP10 PUSH1 0xC ADD SLOAD SWAP9 PUSH1 0x40 MLOAD SWAP13 DUP14 SWAP13 DUP14 MSTORE DUP13 PUSH2 0x1A0 PUSH1 0x20 DUP2 SWAP3 ADD MSTORE DUP14 ADD PUSH2 0x9EC SWAP2 PUSH2 0x2EC6 JUMP JUMPDEST SWAP6 PUSH1 0x40 DUP14 ADD MSTORE PUSH1 0x60 DUP13 ADD MSTORE PUSH1 0x80 DUP12 ADD MSTORE PUSH1 0xA0 DUP11 ADD MSTORE PUSH1 0xC0 DUP10 ADD MSTORE ISZERO ISZERO PUSH1 0xE0 DUP9 ADD MSTORE DUP7 DUP2 SUB PUSH2 0x100 DUP9 ADD MSTORE PUSH2 0xA1F SWAP2 PUSH2 0x2EC6 JUMP JUMPDEST SWAP1 PUSH2 0x120 DUP7 ADD MSTORE DUP5 DUP2 SUB PUSH2 0x140 DUP7 ADD MSTORE PUSH2 0xA38 SWAP2 PUSH2 0x2EC6 JUMP JUMPDEST SWAP2 PUSH2 0x160 DUP5 ADD PUSH2 0xA47 SWAP2 PUSH2 0x2EB9 JUMP JUMPDEST PUSH2 0x180 DUP4 ADD MSTORE SUB SWAP1 RETURN JUMPDEST CALLVALUE PUSH2 0x27E JUMPI PUSH1 0x20 DUP1 PUSH1 0x3 NOT CALLDATASIZE ADD SLT PUSH2 0x27E JUMPI PUSH1 0x4 CALLDATALOAD SWAP1 DUP2 PUSH1 0x0 MSTORE PUSH1 0xE DUP2 MSTORE PUSH2 0xA7F PUSH1 0x40 PUSH1 0x0 KECCAK256 SLOAD ISZERO ISZERO PUSH2 0x3123 JUMP JUMPDEST DUP2 PUSH1 0x0 MSTORE PUSH1 0xE DUP2 MSTORE PUSH1 0xC PUSH1 0x40 PUSH1 0x0 KECCAK256 ADD SLOAD TIMESTAMP LT DUP1 ISZERO SWAP1 PUSH2 0xB1D JUMPI JUMPDEST ISZERO PUSH2 0xABC JUMPI PUSH1 0x0 SWAP2 DUP3 MSTORE PUSH1 0xE SWAP1 MSTORE PUSH1 0x40 SWAP1 KECCAK256 PUSH1 0xB ADD DUP1 SLOAD PUSH1 0xFF NOT AND PUSH1 0x4 OR SWAP1 SSTORE STOP JUMPDEST PUSH1 0x84 SWAP1 PUSH1 0x40 MLOAD SWAP1 PUSH3 0x461BCD PUSH1 0xE5 SHL DUP3 MSTORE PUSH1 0x4 DUP3 ADD MSTORE PUSH1 0x34 PUSH1 0x24 DUP3 ADD MSTORE PUSH32 0x446F63756D656E74206E6F74207965742065787069726564206F7220696E7375 PUSH1 0x44 DUP3 ADD MSTORE PUSH20 0x6666696369656E74207065726D697373696F6E73 PUSH1 0x60 SHL PUSH1 0x64 DUP3 ADD MSTORE REVERT JUMPDEST POP PUSH1 0x3 SLOAD PUSH1 0x40 MLOAD PUSH4 0x1D6C8E3F PUSH1 0xE2 SHL DUP2 MSTORE PUSH1 0x1 PUSH1 0x1 PUSH1 0xA0 SHL SUB SWAP1 SWAP2 AND SWAP1 DUP3 DUP2 PUSH1 0x4 DUP2 DUP6 GAS STATICCALL DUP1 ISZERO PUSH2 0x5E0 JUMPI DUP4 SWAP2 PUSH1 0x0 SWAP2 PUSH2 0xBAE JUMPI JUMPDEST POP PUSH1 0x40 MLOAD PUSH4 0x1CC12E79 PUSH1 0xE1 SHL DUP2 MSTORE CALLER PUSH1 0x4 DUP3 ADD MSTORE PUSH1 0x24 DUP2 ADD SWAP2 SWAP1 SWAP2 MSTORE SWAP2 DUP3 SWAP1 DUP2 DUP1 PUSH1 0x44 DUP2 ADD JUMPDEST SUB SWAP2 GAS STATICCALL SWAP1 DUP2 ISZERO PUSH2 0x5E0 JUMPI PUSH1 0x0 SWAP2 PUSH2 0xB91 JUMPI JUMPDEST POP PUSH2 0xA9A JUMP JUMPDEST PUSH2 0xBA8 SWAP2 POP DUP3 RETURNDATASIZE DUP5 GT PUSH2 0x5D9 JUMPI PUSH2 0x5CB DUP2 DUP4 PUSH2 0x2DFA JUMP JUMPDEST DUP4 PUSH2 0xB8B JUMP JUMPDEST DUP3 DUP2 SWAP4 SWAP3 POP RETURNDATASIZE DUP4 GT PUSH2 0xBD8 JUMPI JUMPDEST PUSH2 0xBC5 DUP2 DUP4 PUSH2 0x2DFA JUMP JUMPDEST DUP2 ADD SUB SLT PUSH2 0x27E JUMPI MLOAD DUP3 SWAP1 PUSH2 0xB78 PUSH2 0xB52 JUMP JUMPDEST POP RETURNDATASIZE PUSH2 0xBBB JUMP JUMPDEST CALLVALUE PUSH2 0x27E JUMPI PUSH1 0x80 CALLDATASIZE PUSH1 0x3 NOT ADD SLT PUSH2 0x27E JUMPI PUSH1 0x44 CALLDATALOAD PUSH1 0x1 PUSH1 0x1 PUSH1 0x40 SHL SUB DUP2 GT PUSH2 0x27E JUMPI PUSH2 0xC0F SWAP1 CALLDATASIZE SWAP1 PUSH1 0x4 ADD PUSH2 0x2E1B JUMP JUMPDEST PUSH1 0x64 CALLDATALOAD ISZERO ISZERO PUSH1 0x64 CALLDATALOAD SUB PUSH2 0x27E JUMPI PUSH1 0x4 CALLDATALOAD PUSH1 0x0 MSTORE PUSH1 0xE PUSH1 0x20 MSTORE PUSH2 0xC37 PUSH1 0x40 PUSH1 0x0 KECCAK256 SLOAD ISZERO ISZERO PUSH2 0x3123 JUMP JUMPDEST PUSH2 0xC3F PUSH2 0x3100 JUMP JUMPDEST PUSH1 0x24 SWAP1 DUP2 CALLDATALOAD ISZERO PUSH2 0x10E7 JUMPI PUSH1 0x3 SLOAD PUSH1 0x40 MLOAD PUSH4 0x73B82EDB PUSH1 0xE1 SHL DUP2 MSTORE PUSH1 0x1 PUSH1 0x1 PUSH1 0xA0 SHL SUB SWAP1 SWAP2 AND SWAP1 PUSH1 0x20 DUP2 PUSH1 0x4 DUP2 DUP6 GAS STATICCALL SWAP1 DUP2 ISZERO PUSH2 0x5E0 JUMPI PUSH1 0x0 SWAP2 PUSH2 0x10B3 JUMPI JUMPDEST POP PUSH1 0x40 MLOAD PUSH4 0x1CC12E79 PUSH1 0xE1 SHL DUP2 MSTORE CALLER PUSH1 0x4 DUP3 ADD MSTORE PUSH1 0x24 DUP2 ADD SWAP2 SWAP1 SWAP2 MSTORE SWAP1 PUSH1 0x20 SWAP1 DUP3 SWAP1 DUP2 DUP1 PUSH1 0x44 DUP2 ADD JUMPDEST SUB SWAP2 GAS STATICCALL SWAP1 DUP2 ISZERO PUSH2 0x5E0 JUMPI PUSH1 0x0 SWAP2 PUSH2 0x1094 JUMPI JUMPDEST POP ISZERO PUSH2 0x1045 JUMPI PUSH1 0x4 CALLDATALOAD PUSH1 0x0 MSTORE PUSH1 0xE PUSH1 0x20 MSTORE PUSH1 0xFF PUSH1 0xB PUSH1 0x40 PUSH1 0x0 KECCAK256 ADD SLOAD AND PUSH1 0x6 DUP2 LT ISZERO PUSH2 0x1030 JUMPI PUSH1 0x4 EQ ISZERO DUP1 PUSH2 0x1006 JUMPI JUMPDEST ISZERO PUSH2 0xFC2 JUMPI PUSH1 0x4 CALLDATALOAD PUSH1 0x0 MSTORE PUSH1 0xE PUSH1 0x20 MSTORE PUSH1 0xB PUSH1 0x40 PUSH1 0x0 KECCAK256 ADD PUSH1 0x1 PUSH1 0xFF NOT DUP3 SLOAD AND OR SWAP1 SSTORE PUSH1 0x40 MLOAD SWAP1 PUSH2 0xD19 DUP3 PUSH2 0x2DDF JUMP JUMPDEST PUSH1 0x4 CALLDATALOAD DUP3 MSTORE DUP3 CALLDATALOAD PUSH1 0x20 DUP4 ADD MSTORE TIMESTAMP PUSH1 0x40 DUP4 ADD MSTORE CALLER PUSH1 0x60 DUP4 ADD MSTORE PUSH1 0x64 CALLDATALOAD ISZERO ISZERO PUSH1 0x80 DUP4 ADD MSTORE PUSH1 0xA0 DUP3 ADD MSTORE PUSH1 0x4 CALLDATALOAD PUSH1 0x0 MSTORE PUSH1 0x10 PUSH1 0x20 MSTORE PUSH1 0x40 PUSH1 0x0 KECCAK256 DUP1 SLOAD PUSH1 0x1 PUSH1 0x40 SHL DUP2 LT ISZERO PUSH2 0xF98 JUMPI PUSH2 0xD6D SWAP2 PUSH1 0x1 DUP3 ADD DUP2 SSTORE PUSH2 0x2F01 JUMP JUMPDEST SWAP2 SWAP1 SWAP2 PUSH2 0xFAD JUMPI DUP1 PUSH1 0xA0 SWAP2 MLOAD DUP4 SSTORE PUSH1 0x20 DUP2 ADD MLOAD PUSH1 0x1 DUP5 ADD SSTORE PUSH1 0x40 DUP2 ADD MLOAD PUSH1 0x2 DUP5 ADD SSTORE PUSH1 0x3 DUP4 ADD PUSH1 0x1 DUP1 DUP5 SHL SUB PUSH1 0x60 DUP4 ADD MLOAD AND DUP2 SLOAD SWAP1 PUSH1 0xFF DUP6 SHL PUSH1 0x80 DUP6 ADD MLOAD ISZERO ISZERO DUP7 SHL AND SWAP2 PUSH11 0xFFFFFFFFFFFFFFFFFFFFFF PUSH1 0xA8 SHL AND OR OR SWAP1 SSTORE ADD MLOAD DUP1 MLOAD SWAP1 PUSH1 0x1 PUSH1 0x1 PUSH1 0x40 SHL SUB DUP3 GT PUSH2 0xF98 JUMPI PUSH2 0xDE5 PUSH1 0x4 DUP5 ADD SLOAD PUSH2 0x2F33 JUMP JUMPDEST PUSH1 0x1F DUP2 GT PUSH2 0xF4D JUMPI JUMPDEST POP PUSH1 0x20 SWAP1 PUSH1 0x1F DUP4 GT PUSH1 0x1 EQ PUSH2 0xEDD JUMPI PUSH1 0x4 SWAP3 SWAP2 PUSH1 0x0 SWAP2 DUP4 PUSH2 0xED2 JUMPI JUMPDEST POP POP DUP2 PUSH1 0x1 SHL SWAP2 PUSH1 0x0 NOT SWAP1 PUSH1 0x3 SHL SHR NOT AND OR SWAP2 ADD SSTORE JUMPDEST PUSH1 0x64 CALLDATALOAD ISZERO PUSH2 0xEAF JUMPI PUSH1 0x4 CALLDATALOAD PUSH1 0x0 MSTORE PUSH1 0xE PUSH1 0x20 MSTORE PUSH1 0xB PUSH1 0x40 PUSH1 0x0 KECCAK256 DUP3 CALLDATALOAD PUSH1 0x3 DUP3 ADD SSTORE TIMESTAMP PUSH1 0x6 DUP3 ADD SSTORE PUSH1 0x7 DUP2 ADD PUSH1 0x1 PUSH1 0xFF NOT DUP3 SLOAD AND OR SWAP1 SSTORE ADD PUSH1 0x2 PUSH1 0xFF NOT DUP3 SLOAD AND OR SWAP1 SSTORE JUMPDEST PUSH2 0xE6E PUSH1 0x4 CALLDATALOAD PUSH2 0x322E JUMP JUMPDEST PUSH1 0x40 MLOAD SWAP1 CALLDATALOAD DUP2 MSTORE PUSH1 0x64 CALLDATALOAD ISZERO ISZERO PUSH1 0x20 DUP3 ADD MSTORE CALLER SWAP1 PUSH32 0xFDFF159079E40A8417212BA242D6B8B689DEE5B49969B511126B6DEAE0AD495C PUSH1 0x40 PUSH1 0x4 CALLDATALOAD SWAP3 LOG3 PUSH1 0x1 DUP1 SSTORE STOP JUMPDEST PUSH1 0x4 CALLDATALOAD PUSH1 0x0 MSTORE PUSH1 0xE PUSH1 0x20 MSTORE PUSH1 0xB PUSH1 0x40 PUSH1 0x0 KECCAK256 ADD PUSH1 0x3 PUSH1 0xFF NOT DUP3 SLOAD AND OR SWAP1 SSTORE PUSH2 0xE63 JUMP JUMPDEST ADD MLOAD SWAP1 POP DUP6 DUP1 PUSH2 0xE0A JUMP JUMPDEST SWAP1 PUSH1 0x4 DUP5 ADD PUSH1 0x0 MSTORE PUSH1 0x20 PUSH1 0x0 KECCAK256 SWAP2 PUSH1 0x0 JUMPDEST PUSH1 0x1F NOT DUP6 AND DUP2 LT PUSH2 0xF35 JUMPI POP SWAP2 DUP4 SWAP2 PUSH1 0x1 SWAP4 PUSH1 0x4 SWAP6 PUSH1 0x1F NOT DUP2 AND LT PUSH2 0xF1C JUMPI JUMPDEST POP POP POP DUP2 SHL ADD SWAP2 ADD SSTORE PUSH2 0xE20 JUMP JUMPDEST ADD MLOAD PUSH1 0x0 NOT PUSH1 0xF8 DUP5 PUSH1 0x3 SHL AND SHR NOT AND SWAP1 SSTORE DUP6 DUP1 DUP1 PUSH2 0xF0E JUMP JUMPDEST SWAP2 SWAP3 PUSH1 0x20 PUSH1 0x1 DUP2 SWAP3 DUP7 DUP6 ADD MLOAD DUP2 SSTORE ADD SWAP5 ADD SWAP3 ADD PUSH2 0xEEE JUMP JUMPDEST PUSH1 0x4 DUP5 ADD PUSH1 0x0 MSTORE PUSH1 0x20 PUSH1 0x0 KECCAK256 PUSH1 0x1F DUP5 ADD PUSH1 0x5 SHR DUP2 ADD SWAP2 PUSH1 0x20 DUP6 LT PUSH2 0xF8E JUMPI JUMPDEST PUSH1 0x1F ADD PUSH1 0x5 SHR ADD SWAP1 JUMPDEST DUP2 DUP2 LT PUSH2 0xF82 JUMPI POP PUSH2 0xDEE JUMP JUMPDEST PUSH1 0x0 DUP2 SSTORE PUSH1 0x1 ADD PUSH2 0xF75 JUMP JUMPDEST SWAP1 SWAP2 POP DUP2 SWAP1 PUSH2 0xF6C JUMP JUMPDEST DUP4 PUSH4 0x4E487B71 PUSH1 0xE0 SHL PUSH1 0x0 MSTORE PUSH1 0x41 PUSH1 0x4 MSTORE PUSH1 0x0 REVERT JUMPDEST DUP3 PUSH4 0x4E487B71 PUSH1 0xE0 SHL PUSH1 0x0 MSTORE PUSH1 0x0 PUSH1 0x4 MSTORE PUSH1 0x0 REVERT JUMPDEST PUSH1 0x40 MLOAD PUSH3 0x461BCD PUSH1 0xE5 SHL DUP2 MSTORE PUSH1 0x20 PUSH1 0x4 DUP3 ADD MSTORE PUSH1 0x1F DUP2 DUP5 ADD MSTORE PUSH32 0x446F63756D656E742069732065787069726564206F7220617263686976656400 PUSH1 0x44 DUP3 ADD MSTORE PUSH1 0x64 SWAP1 REVERT JUMPDEST POP PUSH1 0x4 CALLDATALOAD PUSH1 0x0 MSTORE PUSH1 0xE PUSH1 0x20 MSTORE PUSH1 0xFF PUSH1 0xB PUSH1 0x40 PUSH1 0x0 KECCAK256 ADD SLOAD AND PUSH1 0x6 DUP2 LT ISZERO PUSH2 0x1030 JUMPI PUSH1 0x5 EQ ISZERO PUSH2 0xCE9 JUMP JUMPDEST DUP3 PUSH4 0x4E487B71 PUSH1 0xE0 SHL PUSH1 0x0 MSTORE PUSH1 0x21 PUSH1 0x4 MSTORE PUSH1 0x0 REVERT JUMPDEST PUSH1 0x40 MLOAD PUSH3 0x461BCD PUSH1 0xE5 SHL DUP2 MSTORE PUSH1 0x20 PUSH1 0x4 DUP3 ADD MSTORE PUSH1 0x22 DUP2 DUP5 ADD MSTORE PUSH32 0x496E73756666696369656E74207065726D697373696F6E7320746F2076657269 PUSH1 0x44 DUP3 ADD MSTORE PUSH2 0x6679 PUSH1 0xF0 SHL PUSH1 0x64 DUP3 ADD MSTORE PUSH1 0x84 SWAP1 REVERT JUMPDEST PUSH2 0x10AD SWAP2 POP PUSH1 0x20 RETURNDATASIZE PUSH1 0x20 GT PUSH2 0x5D9 JUMPI PUSH2 0x5CB DUP2 DUP4 PUSH2 0x2DFA JUMP JUMPDEST DUP4 PUSH2 0xCB9 JUMP JUMPDEST SWAP1 POP PUSH1 0x20 DUP2 RETURNDATASIZE PUSH1 0x20 GT PUSH2 0x10DF JUMPI JUMPDEST DUP2 PUSH2 0x10CE PUSH1 0x20 SWAP4 DUP4 PUSH2 0x2DFA JUMP JUMPDEST DUP2 ADD SUB SLT PUSH2 0x27E JUMPI MLOAD PUSH2 0xCA6 PUSH2 0xC7D JUMP JUMPDEST RETURNDATASIZE SWAP2 POP PUSH2 0x10C1 JUMP JUMPDEST PUSH1 0x40 MLOAD PUSH3 0x461BCD PUSH1 0xE5 SHL DUP2 MSTORE PUSH1 0x20 PUSH1 0x4 DUP3 ADD MSTORE PUSH1 0x12 DUP2 DUP5 ADD MSTORE PUSH18 0x92DCECC2D8D2C840E0E4DEDECC40D0C2E6D PUSH1 0x73 SHL PUSH1 0x44 DUP3 ADD MSTORE PUSH1 0x64 SWAP1 REVERT JUMPDEST CALLVALUE PUSH2 0x27E JUMPI PUSH1 0x20 CALLDATASIZE PUSH1 0x3 NOT ADD SLT PUSH2 0x27E JUMPI PUSH1 0x4 CALLDATALOAD PUSH1 0x0 MSTORE PUSH1 0x11 PUSH1 0x20 MSTORE PUSH1 0x20 PUSH1 0x40 PUSH1 0x0 KECCAK256 SLOAD PUSH1 0x40 MLOAD SWAP1 DUP2 MSTORE RETURN JUMPDEST CALLVALUE PUSH2 0x27E JUMPI PUSH1 0x20 DUP1 PUSH1 0x3 NOT CALLDATASIZE ADD SLT PUSH2 0x27E JUMPI PUSH1 0x4 CALLDATALOAD DUP1 PUSH1 0x0 MSTORE PUSH1 0xE DUP3 MSTORE PUSH2 0x1179 PUSH1 0x40 PUSH1 0x0 KECCAK256 SLOAD ISZERO ISZERO PUSH2 0x3123 JUMP JUMPDEST PUSH1 0x0 MSTORE PUSH1 0x10 DUP2 MSTORE PUSH1 0x40 PUSH1 0x0 KECCAK256 SWAP1 DUP2 SLOAD SWAP2 PUSH1 0x1 PUSH1 0x1 PUSH1 0x40 SHL SUB DUP4 GT PUSH2 0x1293 JUMPI PUSH1 0x40 MLOAD SWAP2 PUSH1 0x5 SWAP4 PUSH2 0x11AC DUP3 DUP3 DUP8 SHL ADD DUP6 PUSH2 0x2DFA JUMP JUMPDEST DUP1 DUP5 MSTORE DUP2 DUP5 ADD DUP1 SWAP4 PUSH1 0x0 MSTORE DUP3 PUSH1 0x0 KECCAK256 DUP7 PUSH1 0x0 SWAP3 JUMPDEST DUP5 DUP5 LT PUSH2 0x1225 JUMPI POP POP POP POP POP PUSH1 0x40 MLOAD SWAP3 DUP2 DUP5 ADD SWAP1 DUP3 DUP6 MSTORE MLOAD DUP1 SWAP2 MSTORE PUSH1 0x40 DUP2 DUP2 DUP7 ADD SWAP7 SHL DUP6 ADD ADD SWAP3 SWAP2 PUSH1 0x0 SWAP6 JUMPDEST DUP3 DUP8 LT PUSH2 0x11F9 JUMPI DUP6 DUP6 SUB DUP7 RETURN JUMPDEST SWAP1 SWAP2 SWAP3 SWAP4 DUP3 DUP1 PUSH2 0x1215 PUSH1 0x1 SWAP4 PUSH1 0x3F NOT DUP11 DUP3 SUB ADD DUP7 MSTORE DUP9 MLOAD PUSH2 0x3038 JUMP JUMPDEST SWAP7 ADD SWAP3 ADD SWAP7 ADD SWAP6 SWAP3 SWAP2 SWAP1 SWAP3 PUSH2 0x11EC JUMP JUMPDEST SWAP1 DUP6 PUSH1 0x1 SWAP3 PUSH1 0x40 SWAP10 SWAP8 SWAP10 MLOAD PUSH2 0x1239 DUP2 PUSH2 0x2DDF JUMP JUMPDEST DUP6 SLOAD DUP2 MSTORE DUP5 DUP7 ADD SLOAD DUP4 DUP3 ADD MSTORE PUSH1 0x2 DUP7 ADD SLOAD PUSH1 0x40 DUP3 ADD MSTORE PUSH1 0x3 DUP7 ADD SLOAD DUP6 DUP1 PUSH1 0xA0 SHL SUB DUP2 AND PUSH1 0x60 DUP4 ADD MSTORE PUSH1 0xFF PUSH1 0xA0 SWAP2 DUP3 SHR AND ISZERO ISZERO PUSH1 0x80 DUP4 ADD MSTORE PUSH2 0x127C PUSH1 0x4 DUP9 ADD PUSH2 0x2F6D JUMP JUMPDEST SWAP1 DUP3 ADD MSTORE DUP2 MSTORE ADD SWAP3 ADD SWAP3 ADD SWAP2 SWAP1 DUP8 SWAP1 SWAP7 SWAP5 SWAP7 PUSH2 0x11C0 JUMP JUMPDEST PUSH4 0x4E487B71 PUSH1 0xE0 SHL PUSH1 0x0 MSTORE PUSH1 0x41 PUSH1 0x4 MSTORE PUSH1 0x24 PUSH1 0x0 REVERT JUMPDEST CALLVALUE PUSH2 0x27E JUMPI PUSH1 0x20 DUP1 PUSH1 0x3 NOT CALLDATASIZE ADD SLT PUSH2 0x27E JUMPI PUSH1 0x1 PUSH1 0x1 PUSH1 0xA0 SHL SUB PUSH2 0x12CB PUSH2 0x2E80 JUMP JUMPDEST AND PUSH1 0x0 MSTORE PUSH1 0xF DUP2 MSTORE PUSH1 0x40 PUSH1 0x0 KECCAK256 PUSH1 0x40 MLOAD SWAP1 DUP2 DUP4 DUP3 SLOAD SWAP2 DUP3 DUP2 MSTORE ADD SWAP1 DUP2 SWAP3 PUSH1 0x0 MSTORE DUP5 PUSH1 0x0 KECCAK256 SWAP1 PUSH1 0x0 JUMPDEST DUP7 DUP3 DUP3 LT PUSH2 0x1349 JUMPI DUP7 DUP7 PUSH2 0x1309 DUP3 DUP9 SUB DUP4 PUSH2 0x2DFA JUMP JUMPDEST PUSH1 0x40 MLOAD SWAP3 DUP4 SWAP3 DUP2 DUP5 ADD SWAP1 DUP3 DUP6 MSTORE MLOAD DUP1 SWAP2 MSTORE PUSH1 0x40 DUP5 ADD SWAP3 SWAP2 PUSH1 0x0 JUMPDEST DUP3 DUP2 LT PUSH2 0x1332 JUMPI POP POP POP POP SUB SWAP1 RETURN JUMPDEST DUP4 MLOAD DUP6 MSTORE DUP7 SWAP6 POP SWAP4 DUP2 ADD SWAP4 SWAP3 DUP2 ADD SWAP3 PUSH1 0x1 ADD PUSH2 0x1323 JUMP JUMPDEST DUP4 SLOAD DUP6 MSTORE SWAP1 SWAP4 ADD SWAP3 PUSH1 0x1 SWAP3 DUP4 ADD SWAP3 ADD PUSH2 0x12F3 JUMP JUMPDEST CALLVALUE PUSH2 0x27E JUMPI PUSH1 0x0 CALLDATASIZE PUSH1 0x3 NOT ADD SLT PUSH2 0x27E JUMPI PUSH1 0x0 SLOAD PUSH1 0x40 MLOAD PUSH1 0x1 PUSH1 0x1 PUSH1 0xA0 SHL SUB SWAP1 SWAP2 AND DUP2 MSTORE PUSH1 0x20 SWAP1 RETURN JUMPDEST CALLVALUE PUSH2 0x27E JUMPI PUSH1 0x20 CALLDATASIZE PUSH1 0x3 NOT ADD SLT PUSH2 0x27E JUMPI PUSH1 0x4 CALLDATALOAD PUSH1 0x0 MSTORE PUSH1 0x9 PUSH1 0x20 MSTORE PUSH1 0x20 PUSH1 0x40 PUSH1 0x0 KECCAK256 SLOAD PUSH1 0x40 MLOAD SWAP1 DUP2 MSTORE RETURN JUMPDEST CALLVALUE PUSH2 0x27E JUMPI PUSH1 0x20 DUP1 PUSH1 0x3 NOT CALLDATASIZE ADD SLT PUSH2 0x27E JUMPI PUSH1 0x4 CALLDATALOAD PUSH1 0x1 PUSH1 0x1 PUSH1 0x40 SHL SUB DUP1 DUP3 GT PUSH2 0x27E JUMPI CALLDATASIZE PUSH1 0x23 DUP4 ADD SLT ISZERO PUSH2 0x27E JUMPI DUP2 PUSH1 0x4 ADD CALLDATALOAD SWAP1 DUP2 GT PUSH2 0x27E JUMPI PUSH1 0x24 DUP3 ADD SWAP2 PUSH1 0x24 CALLDATASIZE SWAP2 DUP4 PUSH1 0x5 SHL ADD ADD GT PUSH2 0x27E JUMPI PUSH1 0x0 JUMPDEST DUP2 DUP2 LT PUSH2 0x140D JUMPI STOP JUMPDEST DUP1 PUSH2 0x141C PUSH2 0x1433 SWAP3 DUP5 DUP7 PUSH2 0x36BF JUMP JUMPDEST CALLDATALOAD PUSH1 0x0 MSTORE PUSH1 0xE DUP6 MSTORE PUSH1 0x40 PUSH1 0x0 KECCAK256 SLOAD PUSH2 0x1438 JUMPI PUSH2 0x30B5 JUMP JUMPDEST PUSH2 0x1404 JUMP JUMPDEST PUSH2 0x144C PUSH2 0x1446 DUP3 DUP6 DUP8 PUSH2 0x36BF JUMP JUMPDEST CALLDATALOAD PUSH2 0x322E JUMP JUMPDEST PUSH2 0x30B5 JUMP JUMPDEST CALLVALUE PUSH2 0x27E JUMPI PUSH1 0x20 DUP1 PUSH1 0x3 NOT CALLDATASIZE ADD SLT PUSH2 0x27E JUMPI PUSH1 0x40 MLOAD PUSH1 0x4 CALLDATALOAD PUSH2 0x1472 DUP3 PUSH2 0x2DDF JUMP JUMPDEST PUSH1 0x0 DUP3 MSTORE PUSH1 0x0 DUP4 DUP4 ADD MSTORE PUSH1 0x0 PUSH1 0x40 DUP4 ADD MSTORE PUSH1 0x60 SWAP2 PUSH1 0x0 DUP4 DUP3 ADD MSTORE PUSH1 0x80 SWAP2 PUSH1 0x0 DUP4 DUP4 ADD MSTORE DUP4 PUSH1 0xA0 DUP1 SWAP4 ADD MSTORE DUP1 PUSH1 0x0 MSTORE PUSH1 0xE DUP6 MSTORE PUSH2 0x14B4 PUSH1 0x40 PUSH1 0x0 KECCAK256 SLOAD ISZERO ISZERO PUSH2 0x3123 JUMP JUMPDEST PUSH1 0x0 MSTORE PUSH1 0x10 DUP5 MSTORE PUSH1 0x40 PUSH1 0x0 KECCAK256 SWAP2 DUP3 SLOAD SWAP3 PUSH1 0x1 PUSH1 0x1 PUSH1 0x40 SHL SUB DUP5 GT PUSH2 0x1293 JUMPI SWAP1 PUSH1 0x40 MLOAD SWAP5 PUSH1 0x5 SWAP4 PUSH2 0x14E8 DUP9 DUP8 DUP8 SHL ADD DUP9 PUSH2 0x2DFA JUMP JUMPDEST DUP6 DUP8 MSTORE PUSH1 0x0 SWAP4 DUP5 MSTORE DUP8 DUP5 KECCAK256 SWAP3 DUP9 DUP1 DUP10 ADD JUMPDEST DUP9 DUP8 LT PUSH2 0x1587 JUMPI POP DUP9 DUP1 MLOAD ISZERO PUSH2 0x1550 JUMPI DUP1 MLOAD PUSH1 0x0 NOT DUP2 ADD SWAP1 DUP2 GT PUSH2 0x153A JUMPI PUSH2 0x1520 SWAP2 PUSH2 0x3187 JUMP JUMPDEST MLOAD SWAP1 PUSH2 0x1536 PUSH1 0x40 MLOAD SWAP3 DUP3 DUP5 SWAP4 DUP5 MSTORE DUP4 ADD SWAP1 PUSH2 0x3038 JUMP JUMPDEST SUB SWAP1 RETURN JUMPDEST PUSH4 0x4E487B71 PUSH1 0xE0 SHL PUSH1 0x0 MSTORE PUSH1 0x11 PUSH1 0x4 MSTORE PUSH1 0x24 PUSH1 0x0 REVERT JUMPDEST PUSH1 0x40 MLOAD PUSH3 0x461BCD PUSH1 0xE5 SHL DUP2 MSTORE PUSH1 0x4 DUP2 ADD DUP4 SWAP1 MSTORE PUSH1 0xF PUSH1 0x24 DUP3 ADD MSTORE PUSH15 0x139BC81C1C9BDBD99CC8199BDD5B99 PUSH1 0x8A SHL PUSH1 0x44 DUP3 ADD MSTORE PUSH1 0x64 SWAP1 REVERT JUMPDEST PUSH1 0x1 SWAP2 DUP9 SWAP2 PUSH1 0x40 MLOAD PUSH2 0x1598 DUP2 PUSH2 0x2DDF JUMP JUMPDEST DUP9 SLOAD DUP2 MSTORE DUP5 DUP10 ADD SLOAD DUP4 DUP3 ADD MSTORE PUSH1 0x2 DUP10 ADD SLOAD PUSH1 0x40 DUP3 ADD MSTORE PUSH1 0xFF PUSH1 0x3 DUP11 ADD SLOAD DUP7 DUP1 PUSH1 0xA0 SHL SUB DUP2 AND DUP11 DUP5 ADD MSTORE DUP9 SHR AND ISZERO ISZERO DUP7 DUP3 ADD MSTORE PUSH2 0x15D6 PUSH1 0x4 DUP11 ADD PUSH2 0x2F6D JUMP JUMPDEST DUP8 DUP3 ADD MSTORE DUP2 MSTORE ADD SWAP6 ADD SWAP6 ADD SWAP5 SWAP4 DUP10 SWAP1 PUSH2 0x14F9 JUMP JUMPDEST CALLVALUE PUSH2 0x27E JUMPI PUSH1 0x20 DUP1 PUSH1 0x3 NOT CALLDATASIZE ADD SLT PUSH2 0x27E JUMPI PUSH1 0x4 CALLDATALOAD SWAP1 PUSH1 0x1 PUSH1 0x1 PUSH1 0x40 SHL SUB DUP3 GT PUSH2 0x27E JUMPI PUSH2 0x165B DUP2 PUSH2 0x1622 PUSH1 0xA0 SWAP5 CALLDATASIZE SWAP1 PUSH1 0x4 ADD PUSH2 0x2E1B JUMP JUMPDEST PUSH1 0x0 PUSH1 0x80 PUSH1 0x40 MLOAD PUSH2 0x1632 DUP2 PUSH2 0x2DC4 JUMP JUMPDEST DUP3 DUP2 MSTORE DUP3 DUP6 DUP3 ADD MSTORE DUP3 PUSH1 0x40 DUP3 ADD MSTORE DUP3 PUSH1 0x60 DUP3 ADD MSTORE ADD MSTORE DUP2 PUSH1 0x40 MLOAD SWAP4 DUP3 DUP6 DUP1 SWAP5 MLOAD SWAP4 DUP5 SWAP3 ADD PUSH2 0x2E96 JUMP JUMPDEST DUP2 ADD PUSH1 0x8 DUP2 MSTORE SUB ADD SWAP1 KECCAK256 PUSH1 0x40 MLOAD PUSH2 0x1671 DUP2 PUSH2 0x2DC4 JUMP JUMPDEST PUSH1 0xFF DUP3 SLOAD AND ISZERO ISZERO DUP2 MSTORE PUSH1 0x4 PUSH1 0x1 DUP4 ADD SLOAD SWAP3 DUP4 DUP6 DUP5 ADD MSTORE PUSH1 0x2 DUP2 ADD SLOAD PUSH1 0x40 DUP5 ADD MSTORE PUSH1 0xFF PUSH1 0x3 DUP3 ADD SLOAD AND ISZERO ISZERO PUSH1 0x60 DUP5 ADD MSTORE ADD SLOAD PUSH1 0x80 DUP3 ADD MSTORE SWAP1 ISZERO PUSH2 0x16E2 JUMPI JUMPDEST PUSH1 0x80 SWAP1 PUSH1 0x40 MLOAD SWAP3 DUP2 MLOAD ISZERO ISZERO DUP5 MSTORE DUP1 DUP3 ADD MLOAD SWAP1 DUP5 ADD MSTORE PUSH1 0x40 DUP2 ADD MLOAD PUSH1 0x40 DUP5 ADD MSTORE PUSH1 0x60 DUP2 ADD MLOAD ISZERO ISZERO PUSH1 0x60 DUP5 ADD MSTORE ADD MLOAD PUSH1 0x80 DUP3 ADD MSTORE RETURN JUMPDEST POP PUSH1 0x80 PUSH1 0x27 PUSH1 0x40 MLOAD PUSH7 0x191959985D5B1D PUSH1 0xCA SHL DUP2 MSTORE PUSH1 0x8 PUSH1 0x7 DUP3 ADD MSTORE KECCAK256 PUSH1 0x4 PUSH1 0x40 MLOAD SWAP2 PUSH2 0x170E DUP4 PUSH2 0x2DC4 JUMP JUMPDEST PUSH1 0xFF DUP2 SLOAD AND ISZERO ISZERO DUP4 MSTORE PUSH1 0x1 DUP2 ADD SLOAD DUP6 DUP5 ADD MSTORE PUSH1 0x2 DUP2 ADD SLOAD PUSH1 0x40 DUP5 ADD MSTORE PUSH1 0xFF PUSH1 0x3 DUP3 ADD SLOAD AND ISZERO ISZERO PUSH1 0x60 DUP5 ADD MSTORE ADD SLOAD DUP3 DUP3 ADD MSTORE SWAP1 POP PUSH2 0x16AE JUMP JUMPDEST CALLVALUE PUSH2 0x27E JUMPI PUSH1 0x0 CALLDATASIZE PUSH1 0x3 NOT ADD SLT PUSH2 0x27E JUMPI PUSH2 0x175F PUSH2 0x3089 JUMP JUMPDEST PUSH1 0x0 DUP1 SLOAD PUSH1 0x1 PUSH1 0x1 PUSH1 0xA0 SHL SUB NOT DUP2 AND DUP3 SSTORE PUSH1 0x1 PUSH1 0x1 PUSH1 0xA0 SHL SUB AND PUSH32 0x8BE0079C531659141344CD1FD0A4F28419497F9722A3DAAFE3B4186F6B6457E0 DUP3 DUP1 LOG3 STOP JUMPDEST CALLVALUE PUSH2 0x27E JUMPI PUSH1 0x20 DUP1 PUSH1 0x3 NOT CALLDATASIZE ADD SLT PUSH2 0x27E JUMPI PUSH1 0x4 CALLDATALOAD SWAP1 DUP2 PUSH1 0x0 MSTORE PUSH1 0xE DUP2 MSTORE PUSH2 0x17CD PUSH1 0x40 PUSH1 0x0 KECCAK256 SLOAD ISZERO ISZERO PUSH2 0x3123 JUMP JUMPDEST PUSH1 0x0 DUP3 DUP2 MSTORE PUSH1 0xE DUP3 MSTORE PUSH1 0x40 SWAP1 KECCAK256 PUSH1 0x4 ADD SLOAD CALLER PUSH1 0x1 PUSH1 0x1 PUSH1 0xA0 SHL SUB SWAP2 DUP3 AND EQ SWAP1 DUP2 ISZERO PUSH2 0x185A JUMPI JUMPDEST POP ISZERO PUSH2 0x1816 JUMPI PUSH1 0x0 SWAP2 DUP3 MSTORE PUSH1 0xE SWAP1 MSTORE PUSH1 0x40 SWAP1 KECCAK256 PUSH1 0xB ADD DUP1 SLOAD PUSH1 0xFF NOT AND PUSH1 0x5 OR SWAP1 SSTORE STOP JUMPDEST PUSH1 0x64 SWAP1 PUSH1 0x40 MLOAD SWAP1 PUSH3 0x461BCD PUSH1 0xE5 SHL DUP3 MSTORE PUSH1 0x4 DUP3 ADD MSTORE PUSH1 0x1F PUSH1 0x24 DUP3 ADD MSTORE PUSH32 0x4F6E6C79206F776E6572206F722061646D696E2063616E206172636869766500 PUSH1 0x44 DUP3 ADD MSTORE REVERT JUMPDEST PUSH1 0x3 SLOAD PUSH1 0x40 MLOAD PUSH4 0x1D6C8E3F PUSH1 0xE2 SHL DUP2 MSTORE SWAP2 AND SWAP2 POP DUP3 DUP2 PUSH1 0x4 DUP2 DUP6 GAS STATICCALL DUP1 ISZERO PUSH2 0x5E0 JUMPI DUP4 SWAP2 PUSH1 0x0 SWAP2 PUSH2 0x18E3 JUMPI JUMPDEST POP PUSH1 0x40 MLOAD PUSH4 0x1CC12E79 PUSH1 0xE1 SHL DUP2 MSTORE CALLER PUSH1 0x4 DUP3 ADD MSTORE PUSH1 0x24 DUP2 ADD SWAP2 SWAP1 SWAP2 MSTORE SWAP2 DUP3 SWAP1 DUP2 DUP1 PUSH1 0x44 DUP2 ADD JUMPDEST SUB SWAP2 GAS STATICCALL SWAP1 DUP2 ISZERO PUSH2 0x5E0 JUMPI PUSH1 0x0 SWAP2 PUSH2 0x18C6 JUMPI JUMPDEST POP DUP4 PUSH2 0x17F3 JUMP JUMPDEST PUSH2 0x18DD SWAP2 POP DUP3 RETURNDATASIZE DUP5 GT PUSH2 0x5D9 JUMPI PUSH2 0x5CB DUP2 DUP4 PUSH2 0x2DFA JUMP JUMPDEST DUP4 PUSH2 0x18BF JUMP JUMPDEST DUP3 DUP2 SWAP4 SWAP3 POP RETURNDATASIZE DUP4 GT PUSH2 0x190D JUMPI JUMPDEST PUSH2 0x18FA DUP2 DUP4 PUSH2 0x2DFA JUMP JUMPDEST DUP2 ADD SUB SLT PUSH2 0x27E JUMPI MLOAD DUP3 SWAP1 PUSH2 0x18AC PUSH2 0x1886 JUMP JUMPDEST POP RETURNDATASIZE PUSH2 0x18F0 JUMP JUMPDEST CALLVALUE PUSH2 0x27E JUMPI PUSH1 0x20 CALLDATASIZE PUSH1 0x3 NOT ADD SLT PUSH2 0x27E JUMPI PUSH1 0x4 CALLDATALOAD PUSH1 0x1 PUSH1 0x1 PUSH1 0x40 SHL SUB DUP2 GT PUSH2 0x27E JUMPI PUSH2 0x195D PUSH1 0x20 PUSH2 0x194A DUP2 SWAP4 CALLDATASIZE SWAP1 PUSH1 0x4 ADD PUSH2 0x2E1B JUMP JUMPDEST DUP2 PUSH1 0x40 MLOAD SWAP4 DUP3 DUP6 DUP1 SWAP5 MLOAD SWAP4 DUP5 SWAP3 ADD PUSH2 0x2E96 JUMP JUMPDEST DUP2 ADD PUSH1 0xC DUP2 MSTORE SUB ADD SWAP1 KECCAK256 SLOAD PUSH1 0x40 MLOAD SWAP1 DUP2 MSTORE RETURN JUMPDEST CALLVALUE PUSH2 0x27E JUMPI PUSH1 0x20 CALLDATASIZE PUSH1 0x3 NOT ADD SLT PUSH2 0x27E JUMPI PUSH1 0x4 CALLDATALOAD DUP1 PUSH1 0x0 MSTORE PUSH1 0xE PUSH1 0x20 MSTORE PUSH2 0x199D PUSH1 0x40 PUSH1 0x0 KECCAK256 SLOAD ISZERO ISZERO PUSH2 0x3123 JUMP JUMPDEST PUSH1 0x0 MSTORE PUSH1 0xB PUSH1 0x20 MSTORE PUSH1 0x20 PUSH1 0xFF PUSH1 0x40 PUSH1 0x0 KECCAK256 SLOAD AND PUSH2 0x6E6 PUSH1 0x40 MLOAD DUP1 SWAP3 PUSH2 0x302B JUMP JUMPDEST CALLVALUE PUSH2 0x27E JUMPI PUSH1 0x20 CALLDATASIZE PUSH1 0x3 NOT ADD SLT PUSH2 0x27E JUMPI PUSH1 0x4 CALLDATALOAD PUSH1 0x1 PUSH1 0x1 PUSH1 0x40 SHL SUB DUP2 GT PUSH2 0x27E JUMPI PUSH2 0x19F4 PUSH1 0x20 PUSH2 0x194A PUSH1 0xA0 SWAP4 CALLDATASIZE SWAP1 PUSH1 0x4 ADD PUSH2 0x2E1B JUMP JUMPDEST DUP2 ADD PUSH1 0x8 DUP2 MSTORE SUB ADD SWAP1 KECCAK256 PUSH1 0xFF DUP2 SLOAD AND SWAP1 PUSH1 0x1 DUP2 ADD SLOAD SWAP1 PUSH1 0x2 DUP2 ADD SLOAD PUSH1 0x4 PUSH1 0xFF PUSH1 0x3 DUP5 ADD SLOAD AND SWAP3 ADD SLOAD SWAP3 PUSH1 0x40 MLOAD SWAP5 ISZERO ISZERO DUP6 MSTORE PUSH1 0x20 DUP6 ADD MSTORE PUSH1 0x40 DUP5 ADD MSTORE ISZERO ISZERO PUSH1 0x60 DUP4 ADD MSTORE PUSH1 0x80 DUP3 ADD MSTORE RETURN JUMPDEST CALLVALUE PUSH2 0x27E JUMPI PUSH1 0x40 CALLDATASIZE PUSH1 0x3 NOT ADD SLT PUSH2 0x27E JUMPI PUSH2 0x1A56 PUSH2 0x2E80 JUMP JUMPDEST PUSH1 0x1 PUSH1 0x1 PUSH1 0xA0 SHL SUB AND PUSH1 0x0 SWAP1 DUP2 MSTORE PUSH1 0xF PUSH1 0x20 MSTORE PUSH1 0x40 SWAP1 KECCAK256 DUP1 SLOAD PUSH1 0x24 CALLDATALOAD SWAP2 SWAP1 DUP3 LT ISZERO PUSH2 0x27E JUMPI PUSH1 0x20 SWAP2 PUSH2 0x1A87 SWAP2 PUSH2 0x3013 JUMP JUMPDEST SWAP1 SLOAD PUSH1 0x40 MLOAD SWAP2 PUSH1 0x3 SHL SHR DUP2 MSTORE RETURN JUMPDEST CALLVALUE PUSH2 0x27E JUMPI PUSH2 0x1AA3 CALLDATASIZE PUSH2 0x2EEB JUMP JUMPDEST SWAP1 PUSH1 0x0 MSTORE PUSH1 0x10 PUSH1 0x20 MSTORE PUSH1 0x40 PUSH1 0x0 KECCAK256 SWAP1 DUP2 SLOAD DUP2 LT ISZERO PUSH2 0x27E JUMPI PUSH2 0x1AC4 SWAP2 PUSH2 0x2F01 JUMP JUMPDEST POP DUP1 SLOAD PUSH2 0x1536 PUSH1 0x1 DUP4 ADD SLOAD SWAP3 PUSH1 0xFF PUSH1 0x2 DUP3 ADD SLOAD SWAP2 PUSH2 0x1AE9 PUSH1 0x4 PUSH1 0x3 DUP4 ADD SLOAD SWAP3 ADD PUSH2 0x2F6D JUMP JUMPDEST SWAP3 PUSH1 0x40 MLOAD SWAP7 DUP8 SWAP7 DUP8 MSTORE PUSH1 0x20 DUP8 ADD MSTORE PUSH1 0x40 DUP7 ADD MSTORE PUSH1 0x1 DUP1 PUSH1 0xA0 SHL SUB DUP2 AND PUSH1 0x60 DUP7 ADD MSTORE PUSH1 0xA0 SHR AND ISZERO ISZERO PUSH1 0x80 DUP5 ADD MSTORE PUSH1 0xC0 PUSH1 0xA0 DUP5 ADD MSTORE PUSH1 0xC0 DUP4 ADD SWAP1 PUSH2 0x2EC6 JUMP JUMPDEST CALLVALUE PUSH2 0x27E JUMPI PUSH1 0x20 CALLDATASIZE PUSH1 0x3 NOT ADD SLT PUSH2 0x27E JUMPI PUSH1 0x4 CALLDATALOAD PUSH1 0x0 MSTORE PUSH1 0x5 PUSH1 0x20 MSTORE PUSH1 0x20 PUSH1 0xFF PUSH1 0x40 PUSH1 0x0 KECCAK256 SLOAD AND PUSH1 0x40 MLOAD SWAP1 ISZERO ISZERO DUP2 MSTORE RETURN JUMPDEST CALLVALUE PUSH2 0x27E JUMPI PUSH1 0x20 CALLDATASIZE PUSH1 0x3 NOT ADD SLT PUSH2 0x27E JUMPI PUSH1 0x0 PUSH2 0x180 PUSH1 0x40 MLOAD PUSH2 0x1B79 DUP2 PUSH2 0x2DA8 JUMP JUMPDEST DUP3 DUP2 MSTORE PUSH1 0x60 PUSH1 0x20 DUP3 ADD MSTORE DUP3 PUSH1 0x40 DUP3 ADD MSTORE DUP3 PUSH1 0x60 DUP3 ADD MSTORE DUP3 PUSH1 0x80 DUP3 ADD MSTORE DUP3 PUSH1 0xA0 DUP3 ADD MSTORE DUP3 PUSH1 0xC0 DUP3 ADD MSTORE DUP3 PUSH1 0xE0 DUP3 ADD MSTORE PUSH1 0x60 PUSH2 0x100 DUP3 ADD MSTORE DUP3 PUSH2 0x120 DUP3 ADD MSTORE PUSH1 0x60 PUSH2 0x140 DUP3 ADD MSTORE DUP3 PUSH2 0x160 DUP3 ADD MSTORE ADD MSTORE PUSH1 0x4 CALLDATALOAD DUP1 PUSH1 0x0 MSTORE PUSH1 0xE PUSH1 0x20 MSTORE PUSH2 0x1BE3 PUSH1 0x40 PUSH1 0x0 KECCAK256 SLOAD ISZERO ISZERO PUSH2 0x3123 JUMP JUMPDEST PUSH1 0x0 MSTORE PUSH1 0xE PUSH1 0x20 MSTORE PUSH1 0x40 PUSH1 0x0 KECCAK256 PUSH1 0xC PUSH1 0x40 MLOAD SWAP2 PUSH2 0x1BFF DUP4 PUSH2 0x2DA8 JUMP JUMPDEST DUP1 SLOAD DUP4 MSTORE PUSH2 0x1C0F PUSH1 0x1 DUP3 ADD PUSH2 0x2F6D JUMP JUMPDEST PUSH1 0x20 DUP5 ADD MSTORE PUSH1 0x2 DUP2 ADD SLOAD PUSH1 0x40 DUP5 ADD MSTORE PUSH1 0x3 DUP2 ADD SLOAD PUSH1 0x60 DUP5 ADD MSTORE PUSH1 0x4 DUP2 ADD SLOAD PUSH1 0x1 PUSH1 0x1 PUSH1 0xA0 SHL SUB AND PUSH1 0x80 DUP5 ADD MSTORE PUSH1 0x5 DUP2 ADD SLOAD PUSH1 0xA0 DUP5 ADD MSTORE PUSH1 0x6 DUP2 ADD SLOAD PUSH1 0xC0 DUP5 ADD MSTORE PUSH1 0x7 DUP2 ADD SLOAD PUSH1 0xFF AND ISZERO ISZERO PUSH1 0xE0 DUP5 ADD MSTORE PUSH2 0x1C6A PUSH1 0x8 DUP3 ADD PUSH2 0x2F6D JUMP JUMPDEST PUSH2 0x100 DUP5 ADD MSTORE PUSH1 0x9 DUP2 ADD SLOAD PUSH2 0x120 DUP5 ADD MSTORE PUSH2 0x1C87 PUSH1 0xA DUP3 ADD PUSH2 0x2F6D JUMP JUMPDEST PUSH2 0x140 DUP5 ADD MSTORE PUSH2 0x1CA2 PUSH1 0xFF PUSH1 0xB DUP4 ADD SLOAD AND PUSH2 0x160 DUP6 ADD PUSH2 0x30D1 JUMP JUMPDEST ADD SLOAD PUSH2 0x180 DUP3 ADD MSTORE PUSH1 0x40 MLOAD DUP1 SWAP2 PUSH1 0x20 DUP3 MSTORE DUP1 MLOAD PUSH1 0x20 DUP4 ADD MSTORE PUSH2 0x180 PUSH2 0x1D63 PUSH2 0x1CDB PUSH1 0x20 DUP5 ADD MLOAD PUSH2 0x1A0 PUSH1 0x40 DUP8 ADD MSTORE PUSH2 0x1C0 DUP7 ADD SWAP1 PUSH2 0x2EC6 JUMP JUMPDEST PUSH1 0x40 DUP5 ADD MLOAD PUSH1 0x60 DUP7 ADD MSTORE PUSH1 0x60 DUP5 ADD MLOAD PUSH1 0x80 DUP7 ADD MSTORE PUSH1 0x1 DUP1 PUSH1 0xA0 SHL SUB PUSH1 0x80 DUP6 ADD MLOAD AND PUSH1 0xA0 DUP7 ADD MSTORE PUSH1 0xA0 DUP5 ADD MLOAD PUSH1 0xC0 DUP7 ADD MSTORE PUSH1 0xC0 DUP5 ADD MLOAD PUSH1 0xE0 DUP7 ADD MSTORE PUSH1 0xE0 DUP5 ADD MLOAD ISZERO ISZERO PUSH2 0x100 DUP7 ADD MSTORE PUSH2 0x1D40 PUSH2 0x100 DUP6 ADD MLOAD SWAP2 PUSH1 0x1F NOT SWAP3 DUP4 DUP9 DUP4 SUB ADD PUSH2 0x120 DUP10 ADD MSTORE PUSH2 0x2EC6 JUMP JUMPDEST SWAP1 PUSH2 0x120 DUP6 ADD MLOAD PUSH2 0x140 DUP8 ADD MSTORE PUSH2 0x140 DUP6 ADD MLOAD SWAP1 DUP7 DUP4 SUB ADD PUSH2 0x160 DUP8 ADD MSTORE PUSH2 0x2EC6 JUMP JUMPDEST SWAP2 PUSH2 0x1D76 PUSH2 0x160 DUP3 ADD MLOAD DUP4 DUP7 ADD SWAP1 PUSH2 0x2EB9 JUMP JUMPDEST ADD MLOAD PUSH2 0x1A0 DUP4 ADD MSTORE SUB SWAP1 RETURN JUMPDEST CALLVALUE PUSH2 0x27E JUMPI PUSH1 0x20 CALLDATASIZE PUSH1 0x3 NOT ADD SLT PUSH2 0x27E JUMPI PUSH1 0x4 CALLDATALOAD DUP1 PUSH1 0x0 MSTORE PUSH1 0xE PUSH1 0x20 MSTORE PUSH2 0x1DAF PUSH1 0x40 PUSH1 0x0 KECCAK256 SLOAD ISZERO ISZERO PUSH2 0x3123 JUMP JUMPDEST PUSH1 0x0 MSTORE PUSH1 0xE PUSH1 0x20 MSTORE PUSH1 0x20 PUSH1 0xFF PUSH1 0xB PUSH1 0x40 PUSH1 0x0 KECCAK256 ADD SLOAD AND PUSH2 0x6E6 PUSH1 0x40 MLOAD DUP1 SWAP3 PUSH2 0x2EB9 JUMP JUMPDEST CALLVALUE PUSH2 0x27E JUMPI PUSH1 0x20 CALLDATASIZE PUSH1 0x3 NOT ADD SLT PUSH2 0x27E JUMPI PUSH1 0x4 CALLDATALOAD PUSH1 0x0 MSTORE PUSH1 0x11 PUSH1 0x20 MSTORE PUSH1 0x20 PUSH1 0x40 PUSH1 0x0 KECCAK256 SLOAD ISZERO ISZERO PUSH1 0x40 MLOAD SWAP1 DUP2 MSTORE RETURN JUMPDEST CALLVALUE PUSH2 0x27E JUMPI PUSH1 0x0 CALLDATASIZE PUSH1 0x3 NOT ADD SLT PUSH2 0x27E JUMPI PUSH1 0x4 SLOAD PUSH1 0x40 MLOAD PUSH1 0x1 PUSH1 0x1 PUSH1 0xA0 SHL SUB SWAP1 SWAP2 AND DUP2 MSTORE PUSH1 0x20 SWAP1 RETURN JUMPDEST CALLVALUE PUSH2 0x27E JUMPI PUSH1 0x20 DUP1 PUSH1 0x3 NOT CALLDATASIZE ADD SLT PUSH2 0x27E JUMPI PUSH2 0x1E43 PUSH2 0x2E80 JUMP JUMPDEST PUSH1 0x3 SLOAD PUSH1 0x40 MLOAD PUSH4 0x1D6C8E3F PUSH1 0xE2 SHL DUP2 MSTORE PUSH1 0x1 PUSH1 0x1 PUSH1 0xA0 SHL SUB SWAP4 SWAP2 DUP5 AND SWAP1 DUP3 DUP2 PUSH1 0x4 DUP2 DUP6 GAS STATICCALL DUP1 ISZERO PUSH2 0x5E0 JUMPI DUP4 SWAP2 PUSH1 0x0 SWAP2 PUSH2 0x1F40 JUMPI JUMPDEST POP PUSH1 0x40 MLOAD PUSH4 0x1CC12E79 PUSH1 0xE1 SHL DUP2 MSTORE CALLER PUSH1 0x4 DUP3 ADD MSTORE PUSH1 0x24 DUP2 ADD SWAP2 SWAP1 SWAP2 MSTORE SWAP2 DUP3 SWAP1 DUP2 DUP1 PUSH1 0x44 DUP2 ADD JUMPDEST SUB SWAP2 GAS STATICCALL SWAP1 DUP2 ISZERO PUSH2 0x5E0 JUMPI PUSH1 0x0 SWAP2 PUSH2 0x1F23 JUMPI JUMPDEST POP ISZERO PUSH2 0x1ED1 JUMPI POP AND PUSH1 0x1 PUSH1 0x1 PUSH1 0x60 SHL SUB PUSH1 0xA0 SHL PUSH1 0x4 SLOAD AND OR PUSH1 0x4 SSTORE PUSH1 0x0 DUP1 RETURN JUMPDEST PUSH1 0x84 SWAP1 PUSH1 0x40 MLOAD SWAP1 PUSH3 0x461BCD PUSH1 0xE5 SHL DUP3 MSTORE PUSH1 0x4 DUP3 ADD MSTORE PUSH1 0x25 PUSH1 0x24 DUP3 ADD MSTORE PUSH32 0x4F6E6C792061646D696E2063616E20736574206D756C74692D73696720636F6E PUSH1 0x44 DUP3 ADD MSTORE PUSH5 0x1D1C9858DD PUSH1 0xDA SHL PUSH1 0x64 DUP3 ADD MSTORE REVERT JUMPDEST PUSH2 0x1F3A SWAP2 POP DUP3 RETURNDATASIZE DUP5 GT PUSH2 0x5D9 JUMPI PUSH2 0x5CB DUP2 DUP4 PUSH2 0x2DFA JUMP JUMPDEST DUP5 PUSH2 0x1EB1 JUMP JUMPDEST DUP3 DUP2 SWAP4 SWAP3 POP RETURNDATASIZE DUP4 GT PUSH2 0x1F6A JUMPI JUMPDEST PUSH2 0x1F57 DUP2 DUP4 PUSH2 0x2DFA JUMP JUMPDEST DUP2 ADD SUB SLT PUSH2 0x27E JUMPI MLOAD DUP3 SWAP1 PUSH2 0x1E9E PUSH2 0x1E78 JUMP JUMPDEST POP RETURNDATASIZE PUSH2 0x1F4D JUMP JUMPDEST CALLVALUE PUSH2 0x27E JUMPI PUSH1 0x20 CALLDATASIZE PUSH1 0x3 NOT ADD SLT PUSH2 0x27E JUMPI PUSH1 0x4 CALLDATALOAD PUSH1 0x1 PUSH1 0x1 PUSH1 0x40 SHL SUB DUP2 GT PUSH2 0x27E JUMPI PUSH1 0xFF PUSH2 0x1FA9 PUSH1 0x20 PUSH2 0x194A DUP2 SWAP5 CALLDATASIZE SWAP1 PUSH1 0x4 ADD PUSH2 0x2E1B JUMP JUMPDEST DUP2 ADD PUSH1 0x6 DUP2 MSTORE SUB ADD SWAP1 KECCAK256 SLOAD AND PUSH1 0x40 MLOAD SWAP1 ISZERO ISZERO DUP2 MSTORE RETURN JUMPDEST CALLVALUE PUSH2 0x27E JUMPI PUSH1 0x40 CALLDATASIZE PUSH1 0x3 NOT ADD SLT PUSH2 0x27E JUMPI PUSH1 0x24 PUSH1 0x4 CALLDATALOAD DUP2 CALLDATALOAD PUSH1 0x1 PUSH1 0x1 PUSH1 0xA0 SHL SUB DUP2 DUP2 AND SWAP2 DUP3 SWAP1 SUB PUSH2 0x27E JUMPI DUP3 PUSH1 0x0 MSTORE PUSH1 0x20 SWAP3 PUSH1 0xE DUP5 MSTORE DUP2 PUSH1 0x4 PUSH1 0x40 PUSH1 0x0 KECCAK256 ADD SLOAD AND CALLER SUB PUSH2 0x21EF JUMPI DUP3 ISZERO PUSH2 0x21AB JUMPI CALLER DUP4 EQ PUSH2 0x2167 JUMPI DUP1 PUSH1 0x0 MSTORE PUSH1 0xE DUP5 MSTORE PUSH1 0x4 PUSH1 0x40 PUSH1 0x0 KECCAK256 ADD DUP4 DUP2 SLOAD SWAP4 DUP5 AND SWAP4 PUSH1 0x1 PUSH1 0x1 PUSH1 0x60 SHL SUB PUSH1 0xA0 SHL AND OR SWAP1 SSTORE DUP2 PUSH1 0x0 MSTORE PUSH1 0xF DUP5 MSTORE PUSH1 0x40 PUSH1 0x0 KECCAK256 SWAP4 PUSH1 0x0 JUMPDEST DUP6 SLOAD DUP1 DUP3 LT ISZERO PUSH2 0x2157 JUMPI DUP4 SWAP1 PUSH2 0x2060 DUP4 DUP10 PUSH2 0x3013 JUMP JUMPDEST SWAP3 SWAP1 SLOAD PUSH1 0x3 SWAP4 DUP5 SHL SHR EQ PUSH2 0x207E JUMPI POP POP PUSH2 0x2079 SWAP1 PUSH2 0x30B5 JUMP JUMPDEST PUSH2 0x204A JUMP JUMPDEST PUSH1 0x0 SWAP8 SWAP3 SWAP2 SWAP4 SWAP5 SWAP6 SWAP7 SWAP8 NOT SWAP2 DUP3 DUP3 ADD SWAP2 DUP3 GT PUSH2 0x2142 JUMPI PUSH2 0x20B1 PUSH2 0x20A4 PUSH2 0x20CA SWAP4 DUP7 PUSH2 0x3013 JUMP JUMPDEST SWAP1 SLOAD SWAP1 DUP8 SHL SHR SWAP2 DUP6 PUSH2 0x3013 JUMP JUMPDEST SWAP1 SWAP2 SWAP1 DUP3 SLOAD SWAP1 PUSH1 0x3 SHL SWAP2 DUP3 SHL SWAP2 PUSH1 0x0 NOT SWAP1 SHL NOT AND OR SWAP1 SSTORE JUMP JUMPDEST DUP2 SLOAD SWAP8 DUP9 ISZERO PUSH2 0x212E JUMPI POP DUP1 PUSH1 0xF SWAP6 SWAP7 SWAP8 SWAP9 ADD SWAP3 PUSH2 0x20E7 DUP5 DUP5 PUSH2 0x3013 JUMP JUMPDEST DUP2 SWAP4 SWAP2 SLOAD SWAP3 SHL SHL NOT AND SWAP1 SSTORE SSTORE JUMPDEST DUP5 PUSH1 0x0 MSTORE MSTORE PUSH2 0x2107 DUP2 PUSH1 0x40 PUSH1 0x0 KECCAK256 PUSH2 0x30DD JUMP JUMPDEST PUSH32 0x16B85F49BF01212961345D3016C9A531894ACCF62EB7680F2045D79185CC0EC0 PUSH1 0x0 DUP1 LOG4 STOP JUMPDEST PUSH4 0x4E487B71 PUSH1 0xE0 SHL PUSH1 0x0 SWAP1 DUP2 MSTORE PUSH1 0x31 PUSH1 0x4 MSTORE REVERT JUMPDEST DUP10 PUSH4 0x4E487B71 PUSH1 0xE0 SHL PUSH1 0x0 MSTORE PUSH1 0x11 PUSH1 0x4 MSTORE PUSH1 0x0 REVERT JUMPDEST POP POP SWAP1 SWAP3 SWAP5 POP PUSH1 0xF SWAP2 SWAP4 POP PUSH2 0x20F4 JUMP JUMPDEST PUSH1 0x40 MLOAD PUSH3 0x461BCD PUSH1 0xE5 SHL DUP2 MSTORE PUSH1 0x4 DUP2 ADD DUP6 SWAP1 MSTORE PUSH1 0x17 DUP2 DUP8 ADD MSTORE PUSH32 0x43616E6E6F74207472616E7366657220746F2073656C66000000000000000000 PUSH1 0x44 DUP3 ADD MSTORE PUSH1 0x64 SWAP1 REVERT JUMPDEST PUSH1 0x40 MLOAD PUSH3 0x461BCD PUSH1 0xE5 SHL DUP2 MSTORE PUSH1 0x4 DUP2 ADD DUP6 SWAP1 MSTORE PUSH1 0x19 DUP2 DUP8 ADD MSTORE PUSH32 0x496E76616C6964206E6577206F776E6572206164647265737300000000000000 PUSH1 0x44 DUP3 ADD MSTORE PUSH1 0x64 SWAP1 REVERT JUMPDEST PUSH1 0x40 MLOAD PUSH3 0x461BCD PUSH1 0xE5 SHL DUP2 MSTORE PUSH1 0x4 DUP2 ADD DUP6 SWAP1 MSTORE PUSH1 0x12 DUP2 DUP8 ADD MSTORE PUSH18 0x2737BA103237B1BAB6B2B73A1037BBB732B9 PUSH1 0x71 SHL PUSH1 0x44 DUP3 ADD MSTORE PUSH1 0x64 SWAP1 REVERT JUMPDEST CALLVALUE PUSH2 0x27E JUMPI PUSH1 0x40 CALLDATASIZE PUSH1 0x3 NOT ADD SLT PUSH2 0x27E JUMPI PUSH1 0x4 CALLDATALOAD PUSH1 0x1 PUSH1 0x1 PUSH1 0x40 SHL SUB DUP2 GT PUSH2 0x27E JUMPI PUSH2 0x2258 SWAP1 CALLDATASIZE SWAP1 PUSH1 0x4 ADD PUSH2 0x2E1B JUMP JUMPDEST PUSH2 0x2260 PUSH2 0x2E71 JUMP JUMPDEST PUSH1 0x3 SLOAD PUSH1 0x40 MLOAD PUSH4 0x1D6C8E3F PUSH1 0xE2 SHL DUP2 MSTORE PUSH1 0x1 PUSH1 0x1 PUSH1 0xA0 SHL SUB SWAP1 SWAP2 AND SWAP3 PUSH1 0x20 SWAP3 SWAP1 SWAP2 DUP4 DUP2 PUSH1 0x4 DUP2 DUP9 GAS STATICCALL SWAP1 DUP2 ISZERO PUSH2 0x5E0 JUMPI PUSH1 0x0 SWAP2 PUSH2 0x2365 JUMPI JUMPDEST POP PUSH1 0x40 MLOAD PUSH4 0x1CC12E79 PUSH1 0xE1 SHL DUP2 MSTORE CALLER PUSH1 0x4 DUP3 ADD MSTORE PUSH1 0x24 DUP2 ADD SWAP2 SWAP1 SWAP2 MSTORE SWAP4 DUP4 SWAP1 DUP6 SWAP1 DUP2 DUP1 PUSH1 0x44 DUP2 ADD JUMPDEST SUB SWAP2 GAS STATICCALL SWAP4 DUP5 ISZERO PUSH2 0x5E0 JUMPI DUP2 PUSH32 0x64DA4B04B5AEA38114FAF1E34FE8D4F7437054A7CFAAD6AE05365F6D34312A62 SWAP5 PUSH2 0x2305 PUSH1 0x0 SWAP8 PUSH2 0x2334 SWAP5 DUP10 SWAP2 PUSH2 0x2348 JUMPI JUMPDEST POP PUSH2 0x37D6 JUMP JUMPDEST PUSH1 0x40 MLOAD SWAP1 DUP2 DUP7 MLOAD PUSH2 0x2319 DUP2 DUP4 DUP6 DUP12 ADD PUSH2 0x2E96 JUMP JUMPDEST DUP2 ADD PUSH1 0x6 DUP2 MSTORE SUB ADD SWAP1 KECCAK256 SWAP1 PUSH1 0xFF DUP1 NOT DUP4 SLOAD AND SWAP2 ISZERO ISZERO AND OR SWAP1 SSTORE JUMP JUMPDEST PUSH2 0x2343 PUSH1 0x40 MLOAD SWAP3 DUP4 SWAP3 DUP4 PUSH2 0x3834 JUMP JUMPDEST SUB SWAP1 LOG2 STOP JUMPDEST PUSH2 0x235F SWAP2 POP DUP4 RETURNDATASIZE DUP6 GT PUSH2 0x5D9 JUMPI PUSH2 0x5CB DUP2 DUP4 PUSH2 0x2DFA JUMP JUMPDEST DUP10 PUSH2 0x22FF JUMP JUMPDEST SWAP1 POP DUP4 DUP2 DUP2 RETURNDATASIZE DUP4 GT PUSH2 0x238D JUMPI JUMPDEST PUSH2 0x237C DUP2 DUP4 PUSH2 0x2DFA JUMP JUMPDEST DUP2 ADD SUB SLT PUSH2 0x27E JUMPI MLOAD PUSH2 0x22C0 PUSH2 0x2298 JUMP JUMPDEST POP RETURNDATASIZE PUSH2 0x2372 JUMP JUMPDEST CALLVALUE PUSH2 0x27E JUMPI PUSH1 0x20 CALLDATASIZE PUSH1 0x3 NOT ADD SLT PUSH2 0x27E JUMPI PUSH1 0x4 CALLDATALOAD PUSH1 0x0 MSTORE PUSH1 0x7 PUSH1 0x20 MSTORE PUSH1 0x20 PUSH1 0xFF PUSH1 0x40 PUSH1 0x0 KECCAK256 SLOAD AND PUSH1 0x40 MLOAD SWAP1 ISZERO ISZERO DUP2 MSTORE RETURN JUMPDEST CALLVALUE PUSH2 0x27E JUMPI PUSH1 0x40 CALLDATASIZE PUSH1 0x3 NOT ADD SLT PUSH2 0x27E JUMPI PUSH1 0x4 CALLDATALOAD PUSH2 0x23E1 PUSH2 0x2E71 JUMP JUMPDEST DUP2 PUSH1 0x0 MSTORE PUSH1 0x20 SWAP1 PUSH1 0xE DUP3 MSTORE PUSH2 0x23FC PUSH1 0x40 PUSH1 0x0 KECCAK256 SLOAD ISZERO ISZERO PUSH2 0x3123 JUMP JUMPDEST PUSH1 0x3 SLOAD PUSH1 0x40 MLOAD PUSH4 0x1D6C8E3F PUSH1 0xE2 SHL DUP2 MSTORE PUSH1 0x1 PUSH1 0x1 PUSH1 0xA0 SHL SUB SWAP2 DUP3 AND SWAP4 SWAP1 DUP2 DUP2 PUSH1 0x4 DUP2 DUP9 GAS STATICCALL SWAP1 DUP2 ISZERO PUSH2 0x5E0 JUMPI PUSH1 0x0 SWAP2 PUSH2 0x25A4 JUMPI JUMPDEST POP PUSH1 0x40 MLOAD PUSH4 0x1CC12E79 PUSH1 0xE1 SHL DUP2 MSTORE CALLER PUSH1 0x4 DUP3 ADD MSTORE PUSH1 0x24 DUP2 ADD SWAP2 SWAP1 SWAP2 MSTORE SWAP4 DUP2 SWAP1 DUP6 SWAP1 DUP2 DUP1 PUSH1 0x44 DUP2 ADD JUMPDEST SUB SWAP2 GAS STATICCALL SWAP4 DUP5 ISZERO PUSH2 0x5E0 JUMPI PUSH32 0x64DA4B04B5AEA38114FAF1E34FE8D4F7437054A7CFAAD6AE05365F6D34312A62 SWAP5 PUSH2 0x2496 SWAP2 PUSH1 0x0 SWAP2 PUSH2 0x2587 JUMPI POP PUSH2 0x37D6 JUMP JUMPDEST DUP5 PUSH1 0x0 MSTORE PUSH1 0x5 DUP2 MSTORE PUSH2 0x24B8 DUP4 PUSH1 0x40 PUSH1 0x0 KECCAK256 SWAP1 PUSH1 0xFF DUP1 NOT DUP4 SLOAD AND SWAP2 ISZERO ISZERO AND OR SWAP1 SSTORE JUMP JUMPDEST PUSH1 0xE DUP2 MSTORE PUSH1 0x40 PUSH1 0x0 KECCAK256 SWAP2 PUSH1 0x40 MLOAD SWAP2 PUSH2 0x24CF DUP4 PUSH2 0x2DA8 JUMP JUMPDEST DUP4 SLOAD DUP4 MSTORE PUSH2 0x24DF PUSH1 0x1 DUP6 ADD PUSH2 0x2F6D JUMP JUMPDEST SWAP1 DUP4 ADD MSTORE PUSH1 0x2 DUP4 ADD SLOAD PUSH1 0x40 DUP4 ADD MSTORE PUSH1 0x3 DUP4 ADD SLOAD PUSH1 0x60 DUP4 ADD MSTORE PUSH1 0x4 DUP4 ADD SLOAD AND PUSH1 0x80 DUP3 ADD MSTORE PUSH1 0x5 DUP3 ADD SLOAD PUSH1 0xA0 DUP3 ADD MSTORE PUSH1 0x6 DUP3 ADD SLOAD PUSH1 0xC0 DUP3 ADD MSTORE PUSH1 0xFF PUSH1 0x7 DUP4 ADD SLOAD AND ISZERO ISZERO PUSH1 0xE0 DUP3 ADD MSTORE PUSH2 0x2531 PUSH1 0x8 DUP4 ADD PUSH2 0x2F6D JUMP JUMPDEST PUSH2 0x100 DUP3 ADD MSTORE PUSH1 0x9 DUP3 ADD SLOAD PUSH2 0x120 DUP3 ADD MSTORE PUSH2 0x180 PUSH1 0xC PUSH2 0x2553 PUSH1 0xA DUP6 ADD PUSH2 0x2F6D JUMP JUMPDEST SWAP4 PUSH2 0x140 DUP5 ADD SWAP5 DUP6 MSTORE PUSH2 0x2571 PUSH1 0xFF PUSH1 0xB DUP4 ADD SLOAD AND PUSH2 0x160 DUP7 ADD PUSH2 0x30D1 JUMP JUMPDEST ADD SLOAD SWAP2 ADD MSTORE MLOAD SWAP1 PUSH2 0x2343 PUSH1 0x40 MLOAD SWAP3 DUP4 SWAP3 DUP4 PUSH2 0x3834 JUMP JUMPDEST PUSH2 0x259E SWAP2 POP DUP4 RETURNDATASIZE DUP6 GT PUSH2 0x5D9 JUMPI PUSH2 0x5CB DUP2 DUP4 PUSH2 0x2DFA JUMP JUMPDEST DUP8 PUSH2 0x22FF JUMP JUMPDEST SWAP1 POP DUP2 DUP2 DUP2 RETURNDATASIZE DUP4 GT PUSH2 0x25CC JUMPI JUMPDEST PUSH2 0x25BB DUP2 DUP4 PUSH2 0x2DFA JUMP JUMPDEST DUP2 ADD SUB SLT PUSH2 0x27E JUMPI MLOAD PUSH2 0x2458 PUSH2 0x2430 JUMP JUMPDEST POP RETURNDATASIZE PUSH2 0x25B1 JUMP JUMPDEST CALLVALUE PUSH2 0x27E JUMPI PUSH1 0xA0 CALLDATASIZE PUSH1 0x3 NOT ADD SLT PUSH2 0x27E JUMPI PUSH1 0x4 CALLDATALOAD PUSH1 0x1 PUSH1 0x1 PUSH1 0x40 SHL SUB DUP2 GT PUSH2 0x27E JUMPI PUSH2 0x2603 SWAP1 CALLDATASIZE SWAP1 PUSH1 0x4 ADD PUSH2 0x2E1B JUMP JUMPDEST PUSH1 0x44 CALLDATALOAD PUSH1 0x1 PUSH1 0x1 PUSH1 0x40 SHL SUB DUP2 GT PUSH2 0x27E JUMPI PUSH2 0x2622 SWAP1 CALLDATASIZE SWAP1 PUSH1 0x4 ADD PUSH2 0x2E1B JUMP JUMPDEST SWAP1 PUSH1 0x84 CALLDATALOAD PUSH1 0x1 PUSH1 0x1 PUSH1 0x40 SHL SUB DUP2 GT PUSH2 0x27E JUMPI PUSH2 0x2642 SWAP1 CALLDATASIZE SWAP1 PUSH1 0x4 ADD PUSH2 0x2E1B JUMP JUMPDEST SWAP1 PUSH2 0x264B PUSH2 0x3100 JUMP JUMPDEST DUP1 MLOAD ISZERO PUSH2 0x2C8D JUMPI PUSH1 0x24 CALLDATALOAD ISZERO PUSH2 0x2C54 JUMPI PUSH1 0x24 CALLDATALOAD PUSH1 0x0 MSTORE PUSH1 0x11 PUSH1 0x20 MSTORE PUSH1 0x40 PUSH1 0x0 KECCAK256 SLOAD PUSH2 0x2C0F JUMPI PUSH2 0x267A PUSH1 0x2 SLOAD PUSH2 0x30B5 JUMP JUMPDEST SWAP2 DUP3 PUSH1 0x2 SSTORE PUSH1 0x40 MLOAD PUSH1 0x20 DUP2 DUP4 MLOAD PUSH2 0x2694 DUP2 DUP4 DUP6 DUP9 ADD PUSH2 0x2E96 JUMP JUMPDEST DUP2 ADD PUSH1 0xC DUP2 MSTORE SUB ADD SWAP1 KECCAK256 SLOAD DUP1 ISZERO PUSH2 0x2BED JUMPI JUMPDEST PUSH2 0x26B0 SWAP1 TIMESTAMP PUSH2 0x30C4 JUMP JUMPDEST SWAP1 PUSH1 0x40 MLOAD SWAP5 PUSH2 0x26BE DUP7 PUSH2 0x2DA8 JUMP JUMPDEST DUP5 DUP7 MSTORE DUP4 PUSH1 0x20 DUP8 ADD MSTORE PUSH1 0x24 CALLDATALOAD PUSH1 0x40 DUP8 ADD MSTORE PUSH1 0x0 PUSH1 0x60 DUP8 ADD MSTORE CALLER PUSH1 0x80 DUP8 ADD MSTORE TIMESTAMP PUSH1 0xA0 DUP8 ADD MSTORE PUSH1 0x0 PUSH1 0xC0 DUP8 ADD MSTORE PUSH1 0x0 PUSH1 0xE0 DUP8 ADD MSTORE PUSH2 0x100 DUP7 ADD MSTORE PUSH1 0x64 CALLDATALOAD PUSH2 0x120 DUP7 ADD MSTORE PUSH2 0x140 DUP6 ADD MSTORE PUSH1 0x0 PUSH2 0x160 DUP6 ADD MSTORE DUP1 PUSH2 0x180 DUP6 ADD MSTORE DUP3 PUSH1 0x0 MSTORE PUSH1 0xE PUSH1 0x20 MSTORE PUSH1 0x40 PUSH1 0x0 KECCAK256 DUP5 MLOAD DUP2 SSTORE PUSH1 0x20 DUP6 ADD MLOAD DUP1 MLOAD SWAP1 PUSH1 0x1 PUSH1 0x1 PUSH1 0x40 SHL SUB DUP3 GT PUSH2 0x1293 JUMPI DUP2 SWAP1 PUSH2 0x274B PUSH1 0x1 DUP6 ADD SLOAD PUSH2 0x2F33 JUMP JUMPDEST PUSH1 0x1F DUP2 GT PUSH2 0x2B9A JUMPI JUMPDEST POP PUSH1 0x20 SWAP1 PUSH1 0x1F DUP4 GT PUSH1 0x1 EQ PUSH2 0x2B28 JUMPI PUSH1 0x0 SWAP3 PUSH2 0x2B1D JUMPI JUMPDEST POP POP DUP2 PUSH1 0x1 SHL SWAP2 PUSH1 0x0 NOT SWAP1 PUSH1 0x3 SHL SHR NOT AND OR PUSH1 0x1 DUP3 ADD SSTORE JUMPDEST PUSH1 0x40 DUP6 ADD MLOAD PUSH1 0x2 DUP3 ADD SSTORE PUSH1 0x60 DUP6 ADD MLOAD PUSH1 0x3 DUP3 ADD SSTORE PUSH1 0x4 DUP2 ADD PUSH1 0x1 DUP1 PUSH1 0xA0 SHL SUB PUSH1 0x80 DUP8 ADD MLOAD AND PUSH1 0x1 PUSH1 0x1 PUSH1 0x60 SHL SUB PUSH1 0xA0 SHL DUP3 SLOAD AND OR SWAP1 SSTORE PUSH1 0xA0 DUP6 ADD MLOAD PUSH1 0x5 DUP3 ADD SSTORE PUSH1 0xC0 DUP6 ADD MLOAD PUSH1 0x6 DUP3 ADD SSTORE PUSH2 0x27EC PUSH1 0xE0 DUP7 ADD MLOAD ISZERO ISZERO PUSH1 0x7 DUP4 ADD SWAP1 PUSH1 0xFF DUP1 NOT DUP4 SLOAD AND SWAP2 ISZERO ISZERO AND OR SWAP1 SSTORE JUMP JUMPDEST PUSH2 0x100 DUP6 ADD MLOAD DUP1 MLOAD SWAP1 PUSH1 0x1 PUSH1 0x1 PUSH1 0x40 SHL SUB DUP3 GT PUSH2 0x1293 JUMPI DUP2 SWAP1 PUSH2 0x2812 PUSH1 0x8 DUP6 ADD SLOAD PUSH2 0x2F33 JUMP JUMPDEST PUSH1 0x1F DUP2 GT PUSH2 0x2ACA JUMPI JUMPDEST POP PUSH1 0x20 SWAP1 PUSH1 0x1F DUP4 GT PUSH1 0x1 EQ PUSH2 0x2A58 JUMPI PUSH1 0x0 SWAP3 PUSH2 0x2A4D JUMPI JUMPDEST POP POP DUP2 PUSH1 0x1 SHL SWAP2 PUSH1 0x0 NOT SWAP1 PUSH1 0x3 SHL SHR NOT AND OR PUSH1 0x8 DUP3 ADD SSTORE JUMPDEST PUSH2 0x120 DUP6 ADD MLOAD PUSH1 0x9 DUP3 ADD SSTORE PUSH2 0x140 DUP6 ADD MLOAD DUP1 MLOAD SWAP1 PUSH1 0x1 PUSH1 0x1 PUSH1 0x40 SHL SUB DUP3 GT PUSH2 0x1293 JUMPI DUP2 SWAP1 PUSH2 0x287B PUSH1 0xA DUP6 ADD SLOAD PUSH2 0x2F33 JUMP JUMPDEST PUSH1 0x1F DUP2 GT PUSH2 0x29FA JUMPI JUMPDEST POP PUSH1 0x20 SWAP1 PUSH1 0x1F DUP4 GT PUSH1 0x1 EQ PUSH2 0x2988 JUMPI PUSH1 0x0 SWAP3 PUSH2 0x297D JUMPI JUMPDEST POP POP DUP2 PUSH1 0x1 SHL SWAP2 PUSH1 0x0 NOT SWAP1 PUSH1 0x3 SHL SHR NOT AND OR PUSH1 0xA DUP3 ADD SSTORE JUMPDEST PUSH1 0xB DUP2 ADD PUSH2 0x160 DUP7 ADD MLOAD PUSH1 0x6 DUP2 LT ISZERO PUSH2 0x2967 JUMPI PUSH1 0x20 SWAP7 PUSH1 0xC SWAP3 PUSH2 0x180 SWAP3 PUSH1 0xFF DUP1 NOT DUP4 SLOAD AND SWAP2 AND OR SWAP1 SSTORE ADD MLOAD SWAP2 ADD SSTORE DUP3 PUSH1 0x0 MSTORE PUSH1 0xD DUP5 MSTORE PUSH1 0x40 PUSH1 0x0 KECCAK256 SSTORE CALLER PUSH1 0x0 MSTORE PUSH1 0xF DUP4 MSTORE PUSH2 0x2905 DUP3 PUSH1 0x40 PUSH1 0x0 KECCAK256 PUSH2 0x30DD JUMP JUMPDEST PUSH1 0x24 CALLDATALOAD PUSH1 0x0 MSTORE PUSH1 0x11 DUP4 MSTORE DUP2 PUSH1 0x40 PUSH1 0x0 KECCAK256 SSTORE DUP2 PUSH32 0xF17D1B2B79B8ADE02C6389D93BACD93E57FC7C62F86281153C916630C919E66C PUSH2 0x294D PUSH1 0x40 MLOAD SWAP4 PUSH1 0x40 DUP6 MSTORE PUSH1 0x40 DUP6 ADD SWAP1 PUSH2 0x2EC6 JUMP JUMPDEST SWAP3 PUSH1 0x24 CALLDATALOAD DUP7 DUP3 ADD MSTORE DUP1 CALLER SWAP5 SUB SWAP1 LOG3 PUSH1 0x1 DUP1 SSTORE PUSH1 0x40 MLOAD SWAP1 DUP2 MSTORE RETURN JUMPDEST PUSH4 0x4E487B71 PUSH1 0xE0 SHL PUSH1 0x0 MSTORE PUSH1 0x21 PUSH1 0x4 MSTORE PUSH1 0x24 PUSH1 0x0 REVERT JUMPDEST ADD MLOAD SWAP1 POP DUP8 DUP1 PUSH2 0x289B JUMP JUMPDEST SWAP3 POP PUSH1 0xA DUP5 ADD PUSH1 0x0 MSTORE PUSH1 0x20 PUSH1 0x0 KECCAK256 SWAP1 PUSH1 0x0 SWAP4 JUMPDEST PUSH1 0x1F NOT DUP5 AND DUP6 LT PUSH2 0x29DF JUMPI PUSH1 0x1 SWAP5 POP DUP4 PUSH1 0x1F NOT DUP2 AND LT PUSH2 0x29C6 JUMPI JUMPDEST POP POP POP DUP2 SHL ADD PUSH1 0xA DUP3 ADD SSTORE PUSH2 0x28B3 JUMP JUMPDEST ADD MLOAD PUSH1 0x0 NOT PUSH1 0xF8 DUP5 PUSH1 0x3 SHL AND SHR NOT AND SWAP1 SSTORE DUP8 DUP1 DUP1 PUSH2 0x29B6 JUMP JUMPDEST DUP2 DUP2 ADD MLOAD DUP4 SSTORE PUSH1 0x20 SWAP5 DUP6 ADD SWAP5 PUSH1 0x1 SWAP1 SWAP4 ADD SWAP3 SWAP1 SWAP2 ADD SWAP1 PUSH2 0x299B JUMP JUMPDEST SWAP1 SWAP2 POP PUSH1 0xA DUP5 ADD PUSH1 0x0 MSTORE PUSH1 0x20 PUSH1 0x0 KECCAK256 PUSH1 0x1F DUP5 ADD PUSH1 0x5 SHR DUP2 ADD PUSH1 0x20 DUP6 LT PUSH2 0x2A46 JUMPI JUMPDEST SWAP1 DUP5 SWAP4 SWAP3 SWAP2 JUMPDEST PUSH1 0x1F DUP4 ADD PUSH1 0x5 SHR DUP3 ADD DUP2 LT PUSH2 0x2A37 JUMPI POP POP PUSH2 0x2884 JUMP JUMPDEST PUSH1 0x0 DUP2 SSTORE DUP6 SWAP5 POP PUSH1 0x1 ADD PUSH2 0x2A21 JUMP JUMPDEST POP DUP1 PUSH2 0x2A1B JUMP JUMPDEST ADD MLOAD SWAP1 POP DUP8 DUP1 PUSH2 0x2832 JUMP JUMPDEST SWAP3 POP PUSH1 0x8 DUP5 ADD PUSH1 0x0 MSTORE PUSH1 0x20 PUSH1 0x0 KECCAK256 SWAP1 PUSH1 0x0 SWAP4 JUMPDEST PUSH1 0x1F NOT DUP5 AND DUP6 LT PUSH2 0x2AAF JUMPI PUSH1 0x1 SWAP5 POP DUP4 PUSH1 0x1F NOT DUP2 AND LT PUSH2 0x2A96 JUMPI JUMPDEST POP POP POP DUP2 SHL ADD PUSH1 0x8 DUP3 ADD SSTORE PUSH2 0x284A JUMP JUMPDEST ADD MLOAD PUSH1 0x0 NOT PUSH1 0xF8 DUP5 PUSH1 0x3 SHL AND SHR NOT AND SWAP1 SSTORE DUP8 DUP1 DUP1 PUSH2 0x2A86 JUMP JUMPDEST DUP2 DUP2 ADD MLOAD DUP4 SSTORE PUSH1 0x20 SWAP5 DUP6 ADD SWAP5 PUSH1 0x1 SWAP1 SWAP4 ADD SWAP3 SWAP1 SWAP2 ADD SWAP1 PUSH2 0x2A6B JUMP JUMPDEST SWAP1 SWAP2 POP PUSH1 0x8 DUP5 ADD PUSH1 0x0 MSTORE PUSH1 0x20 PUSH1 0x0 KECCAK256 PUSH1 0x1F DUP5 ADD PUSH1 0x5 SHR DUP2 ADD PUSH1 0x20 DUP6 LT PUSH2 0x2B16 JUMPI JUMPDEST SWAP1 DUP5 SWAP4 SWAP3 SWAP2 JUMPDEST PUSH1 0x1F DUP4 ADD PUSH1 0x5 SHR DUP3 ADD DUP2 LT PUSH2 0x2B07 JUMPI POP POP PUSH2 0x281B JUMP JUMPDEST PUSH1 0x0 DUP2 SSTORE DUP6 SWAP5 POP PUSH1 0x1 ADD PUSH2 0x2AF1 JUMP JUMPDEST POP DUP1 PUSH2 0x2AEB JUMP JUMPDEST ADD MLOAD SWAP1 POP DUP8 DUP1 PUSH2 0x276B JUMP JUMPDEST SWAP3 POP PUSH1 0x1 DUP5 ADD PUSH1 0x0 MSTORE PUSH1 0x20 PUSH1 0x0 KECCAK256 SWAP1 PUSH1 0x0 SWAP4 JUMPDEST PUSH1 0x1F NOT DUP5 AND DUP6 LT PUSH2 0x2B7F JUMPI PUSH1 0x1 SWAP5 POP DUP4 PUSH1 0x1F NOT DUP2 AND LT PUSH2 0x2B66 JUMPI JUMPDEST POP POP POP DUP2 SHL ADD PUSH1 0x1 DUP3 ADD SSTORE PUSH2 0x2783 JUMP JUMPDEST ADD MLOAD PUSH1 0x0 NOT PUSH1 0xF8 DUP5 PUSH1 0x3 SHL AND SHR NOT AND SWAP1 SSTORE DUP8 DUP1 DUP1 PUSH2 0x2B56 JUMP JUMPDEST DUP2 DUP2 ADD MLOAD DUP4 SSTORE PUSH1 0x20 SWAP5 DUP6 ADD SWAP5 PUSH1 0x1 SWAP1 SWAP4 ADD SWAP3 SWAP1 SWAP2 ADD SWAP1 PUSH2 0x2B3B JUMP JUMPDEST SWAP1 SWAP2 POP PUSH1 0x1 DUP5 ADD PUSH1 0x0 MSTORE PUSH1 0x20 PUSH1 0x0 KECCAK256 PUSH1 0x1F DUP5 ADD PUSH1 0x5 SHR DUP2 ADD PUSH1 0x20 DUP6 LT PUSH2 0x2BE6 JUMPI JUMPDEST SWAP1 DUP5 SWAP4 SWAP3 SWAP2 JUMPDEST PUSH1 0x1F DUP4 ADD PUSH1 0x5 SHR DUP3 ADD DUP2 LT PUSH2 0x2BD7 JUMPI POP POP PUSH2 0x2754 JUMP JUMPDEST PUSH1 0x0 DUP2 SSTORE DUP6 SWAP5 POP PUSH1 0x1 ADD PUSH2 0x2BC1 JUMP JUMPDEST POP DUP1 PUSH2 0x2BBB JUMP JUMPDEST POP PUSH1 0x40 MLOAD PUSH7 0x191959985D5B1D PUSH1 0xCA SHL DUP2 MSTORE PUSH1 0xC PUSH1 0x7 DUP3 ADD MSTORE PUSH1 0x27 SWAP1 KECCAK256 SLOAD PUSH2 0x26A6 JUMP JUMPDEST PUSH1 0x40 MLOAD PUSH3 0x461BCD PUSH1 0xE5 SHL DUP2 MSTORE PUSH1 0x20 PUSH1 0x4 DUP3 ADD MSTORE PUSH1 0x17 PUSH1 0x24 DUP3 ADD MSTORE PUSH32 0x446F63756D656E7420616C726561647920657869737473000000000000000000 PUSH1 0x44 DUP3 ADD MSTORE PUSH1 0x64 SWAP1 REVERT JUMPDEST PUSH1 0x40 MLOAD PUSH3 0x461BCD PUSH1 0xE5 SHL DUP2 MSTORE PUSH1 0x20 PUSH1 0x4 DUP3 ADD MSTORE PUSH1 0x11 PUSH1 0x24 DUP3 ADD MSTORE PUSH17 0x92DCECC2D8D2C840CCD2D8CA40D0C2E6D PUSH1 0x7B SHL PUSH1 0x44 DUP3 ADD MSTORE PUSH1 0x64 SWAP1 REVERT JUMPDEST PUSH1 0x40 MLOAD PUSH3 0x461BCD PUSH1 0xE5 SHL DUP2 MSTORE PUSH1 0x20 PUSH1 0x4 DUP3 ADD MSTORE PUSH1 0x14 PUSH1 0x24 DUP3 ADD MSTORE PUSH20 0x125B9D985B1A5908119A5B1958DBDA5B8810D251 PUSH1 0x62 SHL PUSH1 0x44 DUP3 ADD MSTORE PUSH1 0x64 SWAP1 REVERT JUMPDEST CALLVALUE PUSH2 0x27E JUMPI PUSH1 0x0 CALLDATASIZE PUSH1 0x3 NOT ADD SLT PUSH2 0x27E JUMPI PUSH1 0x3 SLOAD PUSH1 0x40 MLOAD PUSH1 0x1 PUSH1 0x1 PUSH1 0xA0 SHL SUB SWAP1 SWAP2 AND DUP2 MSTORE PUSH1 0x20 SWAP1 RETURN JUMPDEST CALLVALUE PUSH2 0x27E JUMPI PUSH1 0x20 CALLDATASIZE PUSH1 0x3 NOT ADD SLT PUSH2 0x27E JUMPI PUSH1 0x20 PUSH2 0x2D28 PUSH1 0x4 CALLDATALOAD DUP1 PUSH1 0x0 MSTORE PUSH1 0xE DUP4 MSTORE PUSH2 0x2D23 PUSH1 0x40 PUSH1 0x0 KECCAK256 SLOAD ISZERO ISZERO PUSH2 0x3123 JUMP JUMPDEST PUSH2 0x36CF JUMP JUMPDEST PUSH1 0x40 MLOAD SWAP1 ISZERO ISZERO DUP2 MSTORE RETURN JUMPDEST CALLVALUE PUSH2 0x27E JUMPI PUSH1 0x20 CALLDATASIZE PUSH1 0x3 NOT ADD SLT PUSH2 0x27E JUMPI PUSH1 0x4 CALLDATALOAD PUSH1 0x0 MSTORE PUSH1 0xA PUSH1 0x20 MSTORE PUSH1 0x20 PUSH1 0x40 PUSH1 0x0 KECCAK256 SLOAD PUSH1 0x40 MLOAD SWAP1 DUP2 MSTORE RETURN JUMPDEST CALLVALUE PUSH2 0x27E JUMPI PUSH1 0x20 CALLDATASIZE PUSH1 0x3 NOT ADD SLT PUSH2 0x27E JUMPI PUSH1 0x4 CALLDATALOAD DUP1 PUSH1 0x0 MSTORE PUSH1 0xE PUSH1 0x20 MSTORE PUSH2 0x2D8B PUSH1 0x40 PUSH1 0x0 KECCAK256 SLOAD ISZERO ISZERO PUSH2 0x3123 JUMP JUMPDEST PUSH1 0x0 MSTORE PUSH1 0x7 PUSH1 0x20 MSTORE PUSH1 0x20 PUSH1 0xFF PUSH1 0x40 PUSH1 0x0 KECCAK256 SLOAD AND PUSH1 0x40 MLOAD SWAP1 ISZERO ISZERO DUP2 MSTORE RETURN JUMPDEST PUSH2 0x1A0 DUP2 ADD SWAP1 DUP2 LT PUSH1 0x1 PUSH1 0x1 PUSH1 0x40 SHL SUB DUP3 GT OR PUSH2 0x1293 JUMPI PUSH1 0x40 MSTORE JUMP JUMPDEST PUSH1 0xA0 DUP2 ADD SWAP1 DUP2 LT PUSH1 0x1 PUSH1 0x1 PUSH1 0x40 SHL SUB DUP3 GT OR PUSH2 0x1293 JUMPI PUSH1 0x40 MSTORE JUMP JUMPDEST PUSH1 0xC0 DUP2 ADD SWAP1 DUP2 LT PUSH1 0x1 PUSH1 0x1 PUSH1 0x40 SHL SUB DUP3 GT OR PUSH2 0x1293 JUMPI PUSH1 0x40 MSTORE JUMP JUMPDEST SWAP1 PUSH1 0x1F DUP1 NOT SWAP2 ADD AND DUP2 ADD SWAP1 DUP2 LT PUSH1 0x1 PUSH1 0x1 PUSH1 0x40 SHL SUB DUP3 GT OR PUSH2 0x1293 JUMPI PUSH1 0x40 MSTORE JUMP JUMPDEST DUP2 PUSH1 0x1F DUP3 ADD SLT ISZERO PUSH2 0x27E JUMPI DUP1 CALLDATALOAD SWAP1 PUSH1 0x1 PUSH1 0x1 PUSH1 0x40 SHL SUB DUP3 GT PUSH2 0x1293 JUMPI PUSH1 0x40 MLOAD SWAP3 PUSH2 0x2E4F PUSH1 0x1F DUP5 ADD PUSH1 0x1F NOT AND PUSH1 0x20 ADD DUP6 PUSH2 0x2DFA JUMP JUMPDEST DUP3 DUP5 MSTORE PUSH1 0x20 DUP4 DUP4 ADD ADD GT PUSH2 0x27E JUMPI DUP2 PUSH1 0x0 SWAP3 PUSH1 0x20 DUP1 SWAP4 ADD DUP4 DUP7 ADD CALLDATACOPY DUP4 ADD ADD MSTORE SWAP1 JUMP JUMPDEST PUSH1 0x24 CALLDATALOAD SWAP1 DUP2 ISZERO ISZERO DUP3 SUB PUSH2 0x27E JUMPI JUMP JUMPDEST PUSH1 0x4 CALLDATALOAD SWAP1 PUSH1 0x1 PUSH1 0x1 PUSH1 0xA0 SHL SUB DUP3 AND DUP3 SUB PUSH2 0x27E JUMPI JUMP JUMPDEST PUSH1 0x0 JUMPDEST DUP4 DUP2 LT PUSH2 0x2EA9 JUMPI POP POP PUSH1 0x0 SWAP2 ADD MSTORE JUMP JUMPDEST DUP2 DUP2 ADD MLOAD DUP4 DUP3 ADD MSTORE PUSH1 0x20 ADD PUSH2 0x2E99 JUMP JUMPDEST SWAP1 PUSH1 0x6 DUP3 LT ISZERO PUSH2 0x2967 JUMPI MSTORE JUMP JUMPDEST SWAP1 PUSH1 0x20 SWAP2 PUSH2 0x2EDF DUP2 MLOAD DUP1 SWAP3 DUP2 DUP6 MSTORE DUP6 DUP1 DUP7 ADD SWAP2 ADD PUSH2 0x2E96 JUMP JUMPDEST PUSH1 0x1F ADD PUSH1 0x1F NOT AND ADD ADD SWAP1 JUMP JUMPDEST PUSH1 0x40 SWAP1 PUSH1 0x3 NOT ADD SLT PUSH2 0x27E JUMPI PUSH1 0x4 CALLDATALOAD SWAP1 PUSH1 0x24 CALLDATALOAD SWAP1 JUMP JUMPDEST DUP1 SLOAD DUP3 LT ISZERO PUSH2 0x2F1D JUMPI PUSH1 0x0 MSTORE PUSH1 0x5 PUSH1 0x20 PUSH1 0x0 KECCAK256 SWAP2 MUL ADD SWAP1 PUSH1 0x0 SWAP1 JUMP JUMPDEST PUSH4 0x4E487B71 PUSH1 0xE0 SHL PUSH1 0x0 MSTORE PUSH1 0x32 PUSH1 0x4 MSTORE PUSH1 0x24 PUSH1 0x0 REVERT JUMPDEST SWAP1 PUSH1 0x1 DUP3 DUP2 SHR SWAP3 AND DUP1 ISZERO PUSH2 0x2F63 JUMPI JUMPDEST PUSH1 0x20 DUP4 LT EQ PUSH2 0x2F4D JUMPI JUMP JUMPDEST PUSH4 0x4E487B71 PUSH1 0xE0 SHL PUSH1 0x0 MSTORE PUSH1 0x22 PUSH1 0x4 MSTORE PUSH1 0x24 PUSH1 0x0 REVERT JUMPDEST SWAP2 PUSH1 0x7F AND SWAP2 PUSH2 0x2F42 JUMP JUMPDEST SWAP1 PUSH1 0x40 MLOAD SWAP2 DUP3 PUSH1 0x0 DUP3 SLOAD SWAP3 PUSH2 0x2F81 DUP5 PUSH2 0x2F33 JUMP JUMPDEST SWAP1 DUP2 DUP5 MSTORE PUSH1 0x1 SWAP5 DUP6 DUP2 AND SWAP1 DUP2 PUSH1 0x0 EQ PUSH2 0x2FF0 JUMPI POP PUSH1 0x1 EQ PUSH2 0x2FAD JUMPI JUMPDEST POP POP PUSH2 0x2FAB SWAP3 POP SUB DUP4 PUSH2 0x2DFA JUMP JUMPDEST JUMP JUMPDEST SWAP1 SWAP4 SWAP2 POP PUSH1 0x0 MSTORE PUSH1 0x20 SWAP1 DUP2 PUSH1 0x0 KECCAK256 SWAP4 PUSH1 0x0 SWAP2 JUMPDEST DUP2 DUP4 LT PUSH2 0x2FD8 JUMPI POP POP PUSH2 0x2FAB SWAP4 POP DUP3 ADD ADD CODESIZE DUP1 PUSH2 0x2F9D JUMP JUMPDEST DUP6 SLOAD DUP9 DUP5 ADD DUP6 ADD MSTORE SWAP5 DUP6 ADD SWAP5 DUP8 SWAP5 POP SWAP2 DUP4 ADD SWAP2 PUSH2 0x2FC0 JUMP JUMPDEST SWAP2 POP POP PUSH2 0x2FAB SWAP5 POP PUSH1 0x20 SWAP3 POP PUSH1 0xFF NOT AND DUP3 DUP5 ADD MSTORE ISZERO ISZERO PUSH1 0x5 SHL DUP3 ADD ADD CODESIZE DUP1 PUSH2 0x2F9D JUMP JUMPDEST DUP1 SLOAD DUP3 LT ISZERO PUSH2 0x2F1D JUMPI PUSH1 0x0 MSTORE PUSH1 0x20 PUSH1 0x0 KECCAK256 ADD SWAP1 PUSH1 0x0 SWAP1 JUMP JUMPDEST SWAP1 PUSH1 0x5 DUP3 LT ISZERO PUSH2 0x2967 JUMPI MSTORE JUMP JUMPDEST SWAP1 PUSH1 0xC0 PUSH1 0xA0 PUSH2 0x3086 SWAP4 DUP1 MLOAD DUP5 MSTORE PUSH1 0x20 DUP2 ADD MLOAD PUSH1 0x20 DUP6 ADD MSTORE PUSH1 0x40 DUP2 ADD MLOAD PUSH1 0x40 DUP6 ADD MSTORE PUSH1 0x1 DUP1 DUP4 SHL SUB PUSH1 0x60 DUP3 ADD MLOAD AND PUSH1 0x60 DUP6 ADD MSTORE PUSH1 0x80 DUP2 ADD MLOAD ISZERO ISZERO PUSH1 0x80 DUP6 ADD MSTORE ADD MLOAD SWAP2 DUP2 PUSH1 0xA0 DUP3 ADD MSTORE ADD SWAP1 PUSH2 0x2EC6 JUMP JUMPDEST SWAP1 JUMP JUMPDEST PUSH1 0x0 SLOAD PUSH1 0x1 PUSH1 0x1 PUSH1 0xA0 SHL SUB AND CALLER SUB PUSH2 0x309D JUMPI JUMP JUMPDEST PUSH1 0x40 MLOAD PUSH4 0x118CDAA7 PUSH1 0xE0 SHL DUP2 MSTORE CALLER PUSH1 0x4 DUP3 ADD MSTORE PUSH1 0x24 SWAP1 REVERT JUMPDEST PUSH1 0x0 NOT DUP2 EQ PUSH2 0x153A JUMPI PUSH1 0x1 ADD SWAP1 JUMP JUMPDEST SWAP2 SWAP1 DUP3 ADD DUP1 SWAP3 GT PUSH2 0x153A JUMPI JUMP JUMPDEST PUSH1 0x6 DUP3 LT ISZERO PUSH2 0x2967 JUMPI MSTORE JUMP JUMPDEST SWAP1 DUP2 SLOAD SWAP2 PUSH1 0x1 PUSH1 0x40 SHL DUP4 LT ISZERO PUSH2 0x1293 JUMPI DUP3 PUSH2 0x20B1 SWAP2 PUSH1 0x1 PUSH2 0x2FAB SWAP6 ADD DUP2 SSTORE PUSH2 0x3013 JUMP JUMPDEST PUSH1 0x2 PUSH1 0x1 SLOAD EQ PUSH2 0x3111 JUMPI PUSH1 0x2 PUSH1 0x1 SSTORE JUMP JUMPDEST PUSH1 0x40 MLOAD PUSH4 0x3EE5AEB5 PUSH1 0xE0 SHL DUP2 MSTORE PUSH1 0x4 SWAP1 REVERT JUMPDEST ISZERO PUSH2 0x312A JUMPI JUMP JUMPDEST PUSH1 0x40 MLOAD PUSH3 0x461BCD PUSH1 0xE5 SHL DUP2 MSTORE PUSH1 0x20 PUSH1 0x4 DUP3 ADD MSTORE PUSH1 0x17 PUSH1 0x24 DUP3 ADD MSTORE PUSH32 0x446F63756D656E7420646F6573206E6F74206578697374000000000000000000 PUSH1 0x44 DUP3 ADD MSTORE PUSH1 0x64 SWAP1 REVERT JUMPDEST SWAP1 DUP2 PUSH1 0x20 SWAP2 SUB SLT PUSH2 0x27E JUMPI MLOAD DUP1 ISZERO ISZERO DUP2 SUB PUSH2 0x27E JUMPI SWAP1 JUMP JUMPDEST DUP1 MLOAD DUP3 LT ISZERO PUSH2 0x2F1D JUMPI PUSH1 0x20 SWAP2 PUSH1 0x5 SHL ADD ADD SWAP1 JUMP JUMPDEST PUSH1 0x40 MLOAD SWAP1 DUP2 PUSH1 0x0 DUP3 SLOAD PUSH2 0x31AD DUP2 PUSH2 0x2F33 JUMP JUMPDEST SWAP4 PUSH1 0x1 SWAP2 DUP1 DUP4 AND SWAP1 DUP2 ISZERO PUSH2 0x3212 JUMPI POP PUSH1 0x1 EQ PUSH2 0x31D5 JUMPI JUMPDEST POP POP PUSH1 0x20 SWAP3 POP PUSH1 0x8 DUP2 MSTORE SUB ADD SWAP1 KECCAK256 SWAP1 JUMP JUMPDEST SWAP1 SWAP2 POP PUSH1 0x0 MSTORE PUSH1 0x20 SWAP1 DUP2 PUSH1 0x0 KECCAK256 SWAP1 PUSH1 0x0 SWAP2 JUMPDEST DUP6 DUP4 LT PUSH2 0x31FE JUMPI POP POP POP POP PUSH1 0x20 SWAP2 DUP2 ADD CODESIZE DUP1 PUSH2 0x31C4 JUMP JUMPDEST DUP1 SLOAD DUP8 DUP5 ADD MSTORE DUP7 SWAP5 POP SWAP2 DUP4 ADD SWAP2 DUP2 ADD PUSH2 0x31E7 JUMP JUMPDEST SWAP3 POP POP POP PUSH1 0x20 SWAP4 SWAP2 POP PUSH1 0xFF NOT AND DUP3 MSTORE DUP1 ISZERO ISZERO MUL DUP2 ADD CODESIZE DUP1 PUSH2 0x31C4 JUMP JUMPDEST PUSH1 0x0 DUP2 DUP2 MSTORE PUSH1 0xE PUSH1 0x20 MSTORE PUSH1 0x40 SWAP1 DUP2 DUP2 KECCAK256 SWAP1 PUSH2 0x324B PUSH1 0xA DUP4 ADD PUSH2 0x319B JUMP JUMPDEST SWAP3 DUP1 MLOAD SWAP1 PUSH2 0x3258 DUP3 PUSH2 0x2DC4 JUMP JUMPDEST PUSH1 0xFF SWAP2 DUP3 DUP7 SLOAD AND ISZERO ISZERO DUP2 MSTORE PUSH1 0x4 PUSH1 0x1 DUP8 ADD SLOAD SWAP7 DUP8 PUSH1 0x20 DUP5 ADD MSTORE PUSH1 0x2 DUP2 ADD SLOAD DUP5 DUP5 ADD MSTORE DUP5 PUSH1 0x3 DUP3 ADD SLOAD AND ISZERO ISZERO PUSH1 0x60 DUP5 ADD MSTORE ADD SLOAD PUSH1 0x80 DUP3 ADD MSTORE SWAP5 ISZERO PUSH2 0x335D JUMPI JUMPDEST DUP5 MLOAD ISZERO PUSH2 0x3355 JUMPI PUSH2 0x32B0 PUSH1 0x5 DUP6 ADD SLOAD PUSH1 0x20 DUP8 ADD MLOAD SWAP1 PUSH2 0x30C4 JUMP JUMPDEST TIMESTAMP LT ISZERO DUP1 PUSH2 0x332A JUMPI JUMPDEST PUSH2 0x331B JUMPI JUMPDEST DUP6 DUP4 MSTORE PUSH1 0x10 PUSH1 0x20 MSTORE DUP1 DUP4 KECCAK256 SLOAD SWAP1 DUP6 ADD MLOAD GT ISZERO SWAP3 DUP4 PUSH2 0x32EB JUMPI JUMPDEST POP POP POP PUSH2 0x32E2 JUMPI POP POP JUMP JUMPDEST PUSH2 0x2FAB SWAP2 PUSH2 0x3454 JUMP JUMPDEST PUSH1 0xB ADD SLOAD AND SWAP2 POP PUSH1 0x6 DUP3 LT ISZERO PUSH2 0x3307 JUMPI POP PUSH1 0x1 EQ CODESIZE DUP1 DUP1 PUSH2 0x32D7 JUMP JUMPDEST PUSH4 0x4E487B71 PUSH1 0xE0 SHL DUP2 MSTORE PUSH1 0x21 PUSH1 0x4 MSTORE PUSH1 0x24 SWAP1 REVERT JUMPDEST PUSH2 0x3325 DUP6 DUP8 PUSH2 0x33BC JUMP JUMPDEST PUSH2 0x32BE JUMP JUMPDEST POP DUP2 PUSH1 0xB DUP6 ADD SLOAD AND PUSH1 0x6 DUP2 LT ISZERO PUSH2 0x3341 JUMPI ISZERO PUSH2 0x32B9 JUMP JUMPDEST PUSH4 0x4E487B71 PUSH1 0xE0 SHL DUP5 MSTORE PUSH1 0x21 PUSH1 0x4 MSTORE PUSH1 0x24 DUP5 REVERT JUMPDEST POP POP POP POP POP POP JUMP JUMPDEST SWAP4 POP PUSH1 0x27 DUP5 MLOAD PUSH7 0x191959985D5B1D PUSH1 0xCA SHL DUP2 MSTORE PUSH1 0x8 PUSH1 0x7 DUP3 ADD MSTORE KECCAK256 PUSH1 0x4 DUP6 MLOAD SWAP2 PUSH2 0x3386 DUP4 PUSH2 0x2DC4 JUMP JUMPDEST DUP4 DUP2 SLOAD AND ISZERO ISZERO DUP4 MSTORE PUSH1 0x1 DUP2 ADD SLOAD PUSH1 0x20 DUP5 ADD MSTORE PUSH1 0x2 DUP2 ADD SLOAD DUP8 DUP5 ADD MSTORE DUP4 PUSH1 0x3 DUP3 ADD SLOAD AND ISZERO ISZERO PUSH1 0x60 DUP5 ADD MSTORE ADD SLOAD PUSH1 0x80 DUP3 ADD MSTORE SWAP4 PUSH2 0x3296 JUMP JUMPDEST SWAP1 PUSH2 0x33C7 SWAP1 DUP3 PUSH2 0x363E JUMP JUMPDEST PUSH2 0x33CE JUMPI POP JUMP JUMPDEST PUSH1 0x0 SWAP1 DUP1 DUP3 MSTORE PUSH1 0xE PUSH1 0x20 MSTORE PUSH1 0x40 SWAP2 PUSH1 0xB DUP4 DUP3 KECCAK256 ADD PUSH1 0xFF NOT SWAP1 PUSH1 0x1 DUP3 DUP3 SLOAD AND OR SWAP1 SSTORE PUSH1 0xB PUSH1 0x20 MSTORE PUSH1 0x1 DUP5 DUP4 KECCAK256 SWAP2 DUP3 SLOAD AND OR SWAP1 SSTORE PUSH1 0x9 PUSH1 0x20 MSTORE DUP3 DUP2 KECCAK256 PUSH2 0x3412 DUP2 SLOAD PUSH2 0x30B5 JUMP JUMPDEST SWAP1 SSTORE DUP2 DUP2 MSTORE PUSH1 0xA PUSH1 0x20 MSTORE DUP3 TIMESTAMP SWAP2 KECCAK256 SSTORE PUSH32 0x99C8DBDFDA1086F488085852794A3F4469C444EE425CA19E06ED87326265772B DUP3 MLOAD SWAP3 PUSH1 0x1 DUP5 MSTORE TIMESTAMP PUSH1 0x20 DUP6 ADD MSTORE ADDRESS SWAP4 LOG3 JUMP JUMPDEST SWAP1 PUSH2 0x345F DUP2 DUP4 PUSH2 0x363E JUMP JUMPDEST PUSH2 0x3467 JUMPI POP POP JUMP JUMPDEST SWAP1 SWAP2 PUSH1 0x0 SWAP1 DUP4 DUP3 MSTORE PUSH1 0x20 SWAP4 PUSH1 0x10 DUP6 MSTORE PUSH1 0x40 SWAP5 DUP6 DUP5 KECCAK256 SWAP6 DUP7 SLOAD PUSH1 0x1 PUSH1 0x1 PUSH1 0x40 SHL SUB DUP2 GT PUSH2 0x362A JUMPI DUP2 MLOAD SWAP8 PUSH1 0x5 SWAP1 PUSH2 0x34A1 DUP6 DUP5 DUP5 SHL ADD DUP12 PUSH2 0x2DFA JUMP JUMPDEST DUP3 DUP11 MSTORE DUP8 MSTORE DUP4 DUP8 KECCAK256 DUP8 SWAP1 DUP6 DUP1 DUP13 ADD JUMPDEST DUP6 DUP5 LT PUSH2 0x35C4 JUMPI POP POP POP POP POP POP DUP5 JUMPDEST DUP8 MLOAD DUP2 LT ISZERO PUSH2 0x34FF JUMPI PUSH1 0x80 PUSH2 0x34D4 DUP3 DUP11 PUSH2 0x3187 JUMP JUMPDEST MLOAD ADD MLOAD PUSH2 0x34EA JUMPI JUMPDEST PUSH2 0x34E5 SWAP1 PUSH2 0x30B5 JUMP JUMPDEST PUSH2 0x34BF JUMP JUMPDEST SWAP5 PUSH2 0x34F7 PUSH2 0x34E5 SWAP2 PUSH2 0x30B5 JUMP JUMPDEST SWAP6 SWAP1 POP PUSH2 0x34DC JUMP JUMPDEST POP SWAP3 SWAP6 POP SWAP3 SWAP1 SWAP4 DUP3 ADD SWAP3 DUP4 MLOAD DUP3 LT ISZERO PUSH2 0x351A JUMPI JUMPDEST POP POP POP POP POP JUMP JUMPDEST PUSH32 0x1322E81F2C7C277C8133BABB57E97C6DD5C1AAC6F0F4A6FE8EA13DB4F995D791 SWAP4 DUP6 PUSH1 0x0 MSTORE PUSH1 0xE DUP3 MSTORE DUP4 PUSH1 0x0 KECCAK256 PUSH1 0xB DUP2 ADD SWAP1 PUSH1 0xFF NOT SWAP2 PUSH1 0x2 DUP4 DUP3 SLOAD AND OR SWAP1 SSTORE PUSH1 0x7 DUP2 ADD PUSH1 0x1 DUP4 DUP3 SLOAD AND OR SWAP1 SSTORE PUSH1 0x6 TIMESTAMP SWAP2 ADD SSTORE PUSH1 0xB DUP4 MSTORE PUSH1 0x2 DUP6 PUSH1 0x0 KECCAK256 SWAP2 DUP3 SLOAD AND OR SWAP1 SSTORE DUP4 MLOAD PUSH1 0x2 DUP2 MSTORE TIMESTAMP DUP4 DUP3 ADD MSTORE DUP7 PUSH32 0x99C8DBDFDA1086F488085852794A3F4469C444EE425CA19E06ED87326265772B DUP7 ADDRESS SWAP4 LOG3 MLOAD SWAP1 DUP4 MLOAD SWAP3 DUP4 MSTORE DUP3 ADD MSTORE LOG2 CODESIZE DUP1 DUP1 DUP1 DUP1 PUSH2 0x3513 JUMP JUMPDEST PUSH1 0x1 SWAP2 DUP6 SWAP2 DUP9 MLOAD PUSH2 0x35D4 DUP2 PUSH2 0x2DDF JUMP JUMPDEST DUP6 SLOAD DUP2 MSTORE DUP5 DUP7 ADD SLOAD DUP4 DUP3 ADD MSTORE PUSH1 0x2 DUP7 ADD SLOAD DUP11 DUP3 ADD MSTORE PUSH1 0x3 DUP7 ADD SLOAD DUP6 DUP1 PUSH1 0xA0 SHL SUB DUP2 AND PUSH1 0x60 DUP4 ADD MSTORE PUSH1 0xFF PUSH1 0xA0 SWAP2 DUP3 SHR AND ISZERO ISZERO PUSH1 0x80 DUP4 ADD MSTORE PUSH2 0x3616 PUSH1 0x4 DUP9 ADD PUSH2 0x2F6D JUMP JUMPDEST SWAP1 DUP3 ADD MSTORE DUP2 MSTORE ADD SWAP3 ADD SWAP3 ADD SWAP2 SWAP1 DUP7 SWAP1 PUSH2 0x34B0 JUMP JUMPDEST PUSH4 0x4E487B71 PUSH1 0xE0 SHL DUP7 MSTORE PUSH1 0x41 PUSH1 0x4 MSTORE PUSH1 0x24 DUP7 REVERT JUMPDEST SWAP1 PUSH1 0x0 SWAP2 DUP1 DUP4 MSTORE PUSH1 0xA PUSH1 0x20 MSTORE PUSH1 0x40 DUP4 KECCAK256 SLOAD SWAP1 DUP2 ISZERO ISZERO SWAP2 DUP3 PUSH2 0x3692 JUMPI JUMPDEST POP DUP2 PUSH2 0x3678 JUMPI JUMPDEST POP PUSH2 0x3674 JUMPI PUSH1 0x60 ADD MLOAD PUSH2 0x3086 JUMPI POP PUSH1 0x1 SWAP1 JUMP JUMPDEST POP SWAP1 JUMP JUMPDEST DUP4 MSTORE POP PUSH1 0x9 PUSH1 0x20 MSTORE PUSH1 0x40 DUP3 KECCAK256 SLOAD PUSH1 0x80 DUP3 ADD MLOAD GT ISZERO CODESIZE PUSH2 0x3661 JUMP JUMPDEST SWAP1 SWAP2 POP PUSH3 0x15180 DUP2 ADD DUP1 SWAP2 GT PUSH2 0x36AB JUMPI TIMESTAMP LT SWAP1 CODESIZE PUSH2 0x365A JUMP JUMPDEST PUSH4 0x4E487B71 PUSH1 0xE0 SHL DUP5 MSTORE PUSH1 0x11 PUSH1 0x4 MSTORE PUSH1 0x24 DUP5 REVERT JUMPDEST SWAP2 SWAP1 DUP2 LT ISZERO PUSH2 0x2F1D JUMPI PUSH1 0x5 SHL ADD SWAP1 JUMP JUMPDEST PUSH1 0x0 MSTORE PUSH1 0x5 PUSH1 0x20 MSTORE PUSH1 0xFF PUSH1 0x40 PUSH1 0x0 KECCAK256 SLOAD AND PUSH2 0x37D1 JUMPI PUSH1 0xE PUSH1 0x20 MSTORE PUSH1 0xFF PUSH2 0x37C2 PUSH1 0x20 PUSH1 0x40 PUSH1 0x0 KECCAK256 PUSH1 0x40 MLOAD PUSH2 0x3701 DUP2 PUSH2 0x2DA8 JUMP JUMPDEST DUP2 SLOAD DUP2 MSTORE PUSH2 0x3711 PUSH1 0x1 DUP4 ADD PUSH2 0x2F6D JUMP JUMPDEST DUP2 DUP5 ADD MSTORE PUSH1 0x2 DUP3 ADD SLOAD PUSH1 0x40 DUP3 ADD MSTORE PUSH1 0x3 DUP3 ADD SLOAD PUSH1 0x60 DUP3 ADD MSTORE PUSH1 0x4 DUP3 ADD SLOAD PUSH1 0x1 PUSH1 0x1 PUSH1 0xA0 SHL SUB AND PUSH1 0x80 DUP3 ADD MSTORE PUSH1 0x5 DUP3 ADD SLOAD PUSH1 0xA0 DUP3 ADD MSTORE PUSH1 0x6 DUP3 ADD SLOAD PUSH1 0xC0 DUP3 ADD MSTORE PUSH1 0x7 DUP3 ADD SLOAD DUP6 AND ISZERO ISZERO PUSH1 0xE0 DUP3 ADD MSTORE PUSH2 0x376A PUSH1 0x8 DUP4 ADD PUSH2 0x2F6D JUMP JUMPDEST PUSH2 0x100 DUP3 ADD MSTORE PUSH1 0x9 DUP3 ADD SLOAD PUSH2 0x120 DUP3 ADD MSTORE PUSH2 0x180 PUSH1 0xC PUSH2 0x378C PUSH1 0xA DUP6 ADD PUSH2 0x2F6D JUMP JUMPDEST SWAP4 PUSH2 0x140 DUP5 ADD SWAP5 DUP6 MSTORE PUSH2 0x37A9 DUP9 PUSH1 0xB DUP4 ADD SLOAD AND PUSH2 0x160 DUP7 ADD PUSH2 0x30D1 JUMP JUMPDEST ADD SLOAD SWAP2 ADD MSTORE MLOAD DUP2 PUSH1 0x40 MLOAD SWAP4 DUP3 DUP6 DUP1 SWAP5 MLOAD SWAP4 DUP5 SWAP3 ADD PUSH2 0x2E96 JUMP JUMPDEST DUP2 ADD PUSH1 0x6 DUP2 MSTORE SUB ADD SWAP1 KECCAK256 SLOAD AND SWAP1 JUMP JUMPDEST PUSH1 0x1 SWAP1 JUMP JUMPDEST ISZERO PUSH2 0x37DD JUMPI JUMP JUMPDEST PUSH1 0x40 MLOAD PUSH3 0x461BCD PUSH1 0xE5 SHL DUP2 MSTORE PUSH1 0x20 PUSH1 0x4 DUP3 ADD MSTORE PUSH1 0x29 PUSH1 0x24 DUP3 ADD MSTORE PUSH32 0x4F6E6C792061646D696E2063616E20736574206D756C74692D73696720726571 PUSH1 0x44 DUP3 ADD MSTORE PUSH9 0x756972656D656E7473 PUSH1 0xB8 SHL PUSH1 0x64 DUP3 ADD MSTORE PUSH1 0x84 SWAP1 REVERT JUMPDEST PUSH1 0x40 SWAP1 PUSH2 0x3086 SWAP4 SWAP3 ISZERO ISZERO DUP2 MSTORE DUP2 PUSH1 0x20 DUP3 ADD MSTORE ADD SWAP1 PUSH2 0x2EC6 JUMP INVALID LOG2 PUSH5 0x6970667358 0x22 SLT KECCAK256 0xCB 0x24 LOG0 PUSH28 0x1B56E906FA84B3513C0DF01285ABCBB5782EDA75BA2F094C0E5AF060 PUSH5 0x736F6C6343 STOP ADDMOD EQ STOP CALLER "},"methodIdentifiers":{"accessControl()":"13007d55","archiveDocument(uint256)":"69ea9247","autoVerificationConfigs(string)":"597e0f64","autoVerificationCount(uint256)":"849514ba","batchProcessAutomatedVerifications(uint256[])":"825f9220","documentExistsByHash(bytes32)":"3d43eb07","documentExpiry(uint256)":"dd4a8d45","documentProofs(uint256,uint256)":"4b3619a6","documentTypeExpiry(string)":"6632d86c","documents(uint256)":"c2ed2b05","expireDocument(uint256)":"a31a7707","getAutoVerificationConfig(string)":"7b128213","getDocument(uint256)":"3f9b250a","getDocumentIdByHash(bytes32)":"36adbe8a","getDocumentLifecycle(uint256)":"3e7fe8ec","getDocumentProofs(uint256)":"94501770","getLatestProof(uint256)":"7fa5bd55","getTotalDocuments()":"e90e7ad4","getUserDocuments(address)":"90a4b162","getVerificationTrigger(uint256)":"661e582f","hashToDocumentId(bytes32)":"94bf54f0","isDocumentExpired(uint256)":"e7641c5c","isMultiSigVerified(uint256)":"05d78355","lastAutoVerification(uint256)":"0b63552f","markMultiSigVerified(uint256,uint256)":"ebf34960","multiSig()":"36e0004a","multiSigVerified(uint256)":"199520e6","owner()":"8da5cb5b","registerDocument(string,bytes32,string,uint256,string)":"1415169d","renounceOwnership()":"715018a6","requiresMultiSig(uint256)":"4374e8e2","requiresMultiSigApproval(uint256)":"115948d8","setDocumentMultiSigRequirement(uint256,bool)":"15ec7e44","setMultiSigContract(address)":"34c6d8b5","setTypeMultiSigRequirement(string,bool)":"23ecb96f","submitVerificationProof(uint256,bytes32,string,bool)":"a2966e22","transferDocumentOwnership(uint256,address)":"2acb4f62","transferOwnership(address)":"f2fde38b","triggerAutomatedVerification(uint256,uint8)":"eb94a871","typeRequiresMultiSig(string)":"2d700f0f","updateAutoVerificationConfig(string,bool,uint256,uint256,bool,uint256)":"c60be737","userDocuments(address,uint256)":"577a1b92","verificationTriggers(uint256)":"ce9647ca"}}}}}