{"contracts/SealGuardAccessControl.sol":{"SealGuardAccessControl":{"abi":[{"inputs":[],"stateMutability":"nonpayable","type":"constructor"},{"inputs":[],"name":"AccessControlBadConfirmation","type":"error"},{"inputs":[{"internalType":"address","name":"account","type":"address"},{"internalType":"bytes32","name":"neededRole","type":"bytes32"}],"name":"AccessControlUnauthorizedAccount","type":"error"},{"inputs":[],"name":"ReentrancyGuardReentrantCall","type":"error"},{"anonymous":false,"inputs":[{"indexed":true,"internalType":"uint256","name":"documentId","type":"uint256"},{"indexed":true,"internalType":"address","name":"grantee","type":"address"},{"indexed":true,"internalType":"address","name":"grantor","type":"address"},{"indexed":false,"internalType":"uint256","name":"expiresAt","type":"uint256"}],"name":"AccessGranted","type":"event"},{"anonymous":false,"inputs":[{"indexed":true,"internalType":"uint256","name":"documentId","type":"uint256"},{"indexed":true,"internalType":"address","name":"grantee","type":"address"},{"indexed":true,"internalType":"address","name":"revoker","type":"address"}],"name":"AccessRevoked","type":"event"},{"anonymous":false,"inputs":[{"indexed":true,"internalType":"string","name":"organizationId","type":"string"},{"indexed":true,"internalType":"address","name":"member","type":"address"},{"indexed":false,"internalType":"string","name":"role","type":"string"}],"name":"OrganizationJoined","type":"event"},{"anonymous":false,"inputs":[{"indexed":true,"internalType":"string","name":"organizationId","type":"string"},{"indexed":true,"internalType":"address","name":"member","type":"address"}],"name":"OrganizationLeft","type":"event"},{"anonymous":false,"inputs":[{"indexed":true,"internalType":"bytes32","name":"role","type":"bytes32"},{"indexed":true,"internalType":"bytes32","name":"previousAdminRole","type":"bytes32"},{"indexed":true,"internalType":"bytes32","name":"newAdminRole","type":"bytes32"}],"name":"RoleAdminChanged","type":"event"},{"anonymous":false,"inputs":[{"indexed":true,"internalType":"bytes32","name":"role","type":"bytes32"},{"indexed":true,"internalType":"address","name":"account","type":"address"},{"indexed":true,"internalType":"address","name":"sender","type":"address"}],"name":"RoleGranted","type":"event"},{"anonymous":false,"inputs":[{"indexed":true,"internalType":"bytes32","name":"role","type":"bytes32"},{"indexed":true,"internalType":"address","name":"account","type":"address"},{"indexed":true,"internalType":"address","name":"sender","type":"address"}],"name":"RoleRevoked","type":"event"},{"inputs":[],"name":"ADMIN_ROLE","outputs":[{"internalType":"bytes32","name":"","type":"bytes32"}],"stateMutability":"view","type":"function"},{"inputs":[],"name":"AUDITOR_ROLE","outputs":[{"internalType":"bytes32","name":"","type":"bytes32"}],"stateMutability":"view","type":"function"},{"inputs":[],"name":"DEFAULT_ADMIN_ROLE","outputs":[{"internalType":"bytes32","name":"","type":"bytes32"}],"stateMutability":"view","type":"function"},{"inputs":[],"name":"DOCUMENT_MANAGER_ROLE","outputs":[{"internalType":"bytes32","name":"","type":"bytes32"}],"stateMutability":"view","type":"function"},{"inputs":[],"name":"MODERATOR_ROLE","outputs":[{"internalType":"bytes32","name":"","type":"bytes32"}],"stateMutability":"view","type":"function"},{"inputs":[],"name":"USER_ROLE","outputs":[{"internalType":"bytes32","name":"","type":"bytes32"}],"stateMutability":"view","type":"function"},{"inputs":[],"name":"VERIFIER_ROLE","outputs":[{"internalType":"bytes32","name":"","type":"bytes32"}],"stateMutability":"view","type":"function"},{"inputs":[{"internalType":"uint256","name":"","type":"uint256"},{"internalType":"address","name":"","type":"address"}],"name":"documentAccess","outputs":[{"internalType":"uint256","name":"documentId","type":"uint256"},{"internalType":"address","name":"grantee","type":"address"},{"internalType":"address","name":"grantor","type":"address"},{"internalType":"uint256","name":"expiresAt","type":"uint256"},{"internalType":"bool","name":"canRead","type":"bool"},{"internalType":"bool","name":"canVerify","type":"bool"},{"internalType":"bool","name":"canTransfer","type":"bool"},{"internalType":"uint256","name":"grantedAt","type":"uint256"},{"internalType":"bool","name":"isActive","type":"bool"}],"stateMutability":"view","type":"function"},{"inputs":[{"internalType":"uint256","name":"","type":"uint256"},{"internalType":"uint256","name":"","type":"uint256"}],"name":"documentAccessList","outputs":[{"internalType":"address","name":"","type":"address"}],"stateMutability":"view","type":"function"},{"inputs":[{"internalType":"uint256","name":"documentId","type":"uint256"},{"internalType":"address","name":"user","type":"address"}],"name":"getAccessPermission","outputs":[{"components":[{"internalType":"uint256","name":"documentId","type":"uint256"},{"internalType":"address","name":"grantee","type":"address"},{"internalType":"address","name":"grantor","type":"address"},{"internalType":"uint256","name":"expiresAt","type":"uint256"},{"internalType":"bool","name":"canRead","type":"bool"},{"internalType":"bool","name":"canVerify","type":"bool"},{"internalType":"bool","name":"canTransfer","type":"bool"},{"internalType":"uint256","name":"grantedAt","type":"uint256"},{"internalType":"bool","name":"isActive","type":"bool"}],"internalType":"struct SealGuardAccessControl.AccessPermission","name":"","type":"tuple"}],"stateMutability":"view","type":"function"},{"inputs":[{"internalType":"uint256","name":"documentId","type":"uint256"}],"name":"getDocumentAccessList","outputs":[{"internalType":"address[]","name":"","type":"address[]"}],"stateMutability":"view","type":"function"},{"inputs":[{"internalType":"string","name":"organizationId","type":"string"}],"name":"getOrganizationMembers","outputs":[{"internalType":"address[]","name":"","type":"address[]"}],"stateMutability":"view","type":"function"},{"inputs":[{"internalType":"bytes32","name":"role","type":"bytes32"}],"name":"getRoleAdmin","outputs":[{"internalType":"bytes32","name":"","type":"bytes32"}],"stateMutability":"view","type":"function"},{"inputs":[{"internalType":"address","name":"user","type":"address"}],"name":"getUserOrganizations","outputs":[{"internalType":"string[]","name":"","type":"string[]"}],"stateMutability":"view","type":"function"},{"inputs":[{"internalType":"uint256","name":"documentId","type":"uint256"},{"internalType":"address","name":"grantee","type":"address"},{"internalType":"uint256","name":"expiresAt","type":"uint256"},{"internalType":"bool","name":"canRead","type":"bool"},{"internalType":"bool","name":"canVerify","type":"bool"},{"internalType":"bool","name":"canTransfer","type":"bool"}],"name":"grantDocumentAccess","outputs":[],"stateMutability":"nonpayable","type":"function"},{"inputs":[{"internalType":"bytes32","name":"role","type":"bytes32"},{"internalType":"address","name":"account","type":"address"}],"name":"grantRole","outputs":[],"stateMutability":"nonpayable","type":"function"},{"inputs":[{"internalType":"uint256","name":"documentId","type":"uint256"},{"internalType":"address","name":"user","type":"address"}],"name":"hasReadAccess","outputs":[{"internalType":"bool","name":"","type":"bool"}],"stateMutability":"view","type":"function"},{"inputs":[{"internalType":"bytes32","name":"role","type":"bytes32"},{"internalType":"address","name":"account","type":"address"}],"name":"hasRole","outputs":[{"internalType":"bool","name":"","type":"bool"}],"stateMutability":"view","type":"function"},{"inputs":[{"internalType":"address","name":"account","type":"address"},{"internalType":"bytes32","name":"role","type":"bytes32"}],"name":"hasRoleOrHigher","outputs":[{"internalType":"bool","name":"","type":"bool"}],"stateMutability":"view","type":"function"},{"inputs":[{"internalType":"uint256","name":"documentId","type":"uint256"},{"internalType":"address","name":"user","type":"address"}],"name":"hasTransferAccess","outputs":[{"internalType":"bool","name":"","type":"bool"}],"stateMutability":"view","type":"function"},{"inputs":[{"internalType":"uint256","name":"documentId","type":"uint256"},{"internalType":"address","name":"user","type":"address"}],"name":"hasVerifyAccess","outputs":[{"internalType":"bool","name":"","type":"bool"}],"stateMutability":"view","type":"function"},{"inputs":[{"internalType":"string","name":"organizationId","type":"string"},{"internalType":"string","name":"role","type":"string"}],"name":"joinOrganization","outputs":[],"stateMutability":"nonpayable","type":"function"},{"inputs":[{"internalType":"string","name":"organizationId","type":"string"}],"name":"leaveOrganization","outputs":[],"stateMutability":"nonpayable","type":"function"},{"inputs":[{"internalType":"string","name":"","type":"string"},{"internalType":"address","name":"","type":"address"}],"name":"orgMemberDetails","outputs":[{"internalType":"address","name":"member","type":"address"},{"internalType":"string","name":"role","type":"string"},{"internalType":"uint256","name":"joinedAt","type":"uint256"},{"internalType":"bool","name":"isActive","type":"bool"}],"stateMutability":"view","type":"function"},{"inputs":[{"internalType":"string","name":"","type":"string"},{"internalType":"uint256","name":"","type":"uint256"}],"name":"organizationMembers","outputs":[{"internalType":"address","name":"","type":"address"}],"stateMutability":"view","type":"function"},{"inputs":[{"internalType":"bytes32","name":"role","type":"bytes32"},{"internalType":"address","name":"callerConfirmation","type":"address"}],"name":"renounceRole","outputs":[],"stateMutability":"nonpayable","type":"function"},{"inputs":[{"internalType":"uint256","name":"documentId","type":"uint256"},{"internalType":"address","name":"grantee","type":"address"}],"name":"revokeDocumentAccess","outputs":[],"stateMutability":"nonpayable","type":"function"},{"inputs":[{"internalType":"bytes32","name":"role","type":"bytes32"},{"internalType":"address","name":"account","type":"address"}],"name":"revokeRole","outputs":[],"stateMutability":"nonpayable","type":"function"},{"inputs":[{"internalType":"bytes32","name":"","type":"bytes32"}],"name":"roleHierarchy","outputs":[{"internalType":"uint8","name":"","type":"uint8"}],"stateMutability":"view","type":"function"},{"inputs":[{"internalType":"bytes4","name":"interfaceId","type":"bytes4"}],"name":"supportsInterface","outputs":[{"internalType":"bool","name":"","type":"bool"}],"stateMutability":"view","type":"function"},{"inputs":[{"internalType":"address","name":"","type":"address"},{"internalType":"uint256","name":"","type":"uint256"}],"name":"userOrganizations","outputs":[{"internalType":"string","name":"","type":"string"}],"stateMutability":"view","type":"function"},{"inputs":[{"internalType":"address","name":"","type":"address"}],"name":"userRoles","outputs":[{"internalType":"bytes32","name":"","type":"bytes32"}],"stateMutability":"view","type":"function"}],"evm":{"bytecode":{"linkReferences":{},"object":"60406080815234620001d45760018080556200001b33620001d9565b50620000273362000259565b506000805160206200248483398151915260009080825260026020528382209060ff19916006838254161790557f71f3d55856e4058ed06ee057d79ada615f65cdf5f9ee88181b914225088f834f938484528584206005848254161790557f59a1c48e5837ad7a7f3dcedcbe129bf3249ec4fbf651fd4f5e2600ead39fe2f58085528685206004858254161790557f0ce23c3e399818cfee81a7ab0880f714e53d7672b08df0fa62f2843416e1ea09958686528786206003868254161790557f5520d115ceffb88f02315d646cd7618d18024f657afe794865243ed5b75fb04f968787528887206002878254161790557f14823911f2da1b49f045a0929a60b8c1f2a7fc8c06c7284ca3e8ab4e193a08c895868852848a892091825416179055818752866020528389882001948086549655807fbd79b86ffe0ab8e8776151514217cd7cacd52c909f66475c3af44e129f0b00ff9684888b80a4838852848a892001818154915584878a80a48087528389882001908282549255858880a48585528187862001818154915586848780a48284528584200192848454945580a4516121799081620002eb8239f35b600080fd5b6001600160a01b031660008181527fad3228b676f7d3cd4284a5443f17f1962b36e491b30a40b2405849e597ba5fb5602052604081205490919060ff166200025557818052816020526040822081835260205260408220600160ff198254161790553391600080516020620024648339815191528180a4600190565b5090565b6001600160a01b031660008181527f7d7ffb7a348e1c6a02869081a26547b49160dd3df72d1d75a570eb9b698292ec6020526040812054909190600080516020620024848339815191529060ff16620002e557808352826020526040832082845260205260408320600160ff1982541617905560008051602062002464833981519152339380a4600190565b50509056fe608060408181526004908136101561001657600080fd5b600092833560e01c90816301ffc9a714611602575080630b6abe8b14611596578063131191611461155b57806314ebc2d8146114b05780631bc5a1dc146111ee578063248a9ca3146111c457806326efadd71461119c5780632859171a1461112f5780632f2ff15d1461110757806336568abe146110c057806339825cf2146110975780633fef6a5614610dcb5780634db6585114610c8557806358cd8ca514610bdc57806369366e5714610bb45780636b0cdf1d146109c15780636e1d616e1461098657806374d5e1001461094e57806375b238fc14610913578063797669c9146108d8578063856e00191461081157806391d14854146107cb578063969772bc1461079a578063a217fddf1461077f578063a260d07f14610731578063aa097ef01461062a578063cffafec214610601578063d4b5bf561461056e578063d4ee154314610543578063d547741f14610506578063e7705db6146104c75763f147add01461018457600080fd5b346104c357602091826003193601126104bf57803567ffffffffffffffff81116104bb576101b590369083016116ef565b906101be611be7565b8251928251938581818601966101d581838a611777565b81016008815203019020338752855260039460ff868389200154161561048b5781518181865161020681838b611777565b810160088152030190203388528152858288200160ff19815416905581518181865161023381838b611777565b81016006815203019020875b81548082101561047d57610253828461179a565b90546001600160a01b0392918b1b1c8216331461027a57505061027590611fde565b61023f565b60009991929394959697989919810190811161046a576102d3928594926102a76102b4936102d89861179a565b9054911b1c16918461179a565b90919082549060031b9160018060a01b03809116831b921b1916179055565b612003565b3386526007815281862091865b83548082101561045d5761030b6103126102ff848861179a565b50855192838092611802565b03826116cd565b8481519101208751892014610330575061032b90611fde565b6102e5565b92939495965090506000199182810190811161044a5761035361035b918661179a565b50918561179a565b610438579061036991612046565b8254801561042557019261037d848461179a565b919091610413575090816103928793546117c8565b806103d3575b50505050555b6103a83391611fbe565b7f9fdbd38db638563dfdf213622a60ee0d000ebabad5efa2807bde424e404f2db88380a36001805580f35b83601f8083116001146103f0575050509050555b83388080610398565b839294829461040c93528420940160051c840160018501611e9a565b55556103e7565b634e487b7160e01b8752869052602486fd5b634e487b7160e01b875260318552602487fd5b634e487b7160e01b8852878652602488fd5b634e487b7160e01b885260118652602488fd5b505050505050905061039e565b634e487b7160e01b8b526011885260248bfd5b5050509091929394506102d8565b905162461bcd60e51b815291820152600c60248201526b2737ba10309036b2b6b132b960a11b6044820152606490fd5b8480fd5b8380fd5b8280fd5b838234610502578160031936011261050257602090517f0ce23c3e399818cfee81a7ab0880f714e53d7672b08df0fa62f2843416e1ea098152f35b5080fd5b50346104c357806003193601126104c35761053f913561053a600161052961174b565b9383875286602052862001546118bd565b61197f565b5080f35b5090346104c35760203660031901126104c3578160209360ff92358152600285522054169051908152f35b5091346105fe57826003193601126105fe57610588611761565b6001600160a01b031681526007602052828120805460243591908210156104c357906105b39161179a565b9290926105ec5783516105e890856105d6826105cf8189611802565b03836116cd565b51918291602083526020830190611898565b0390f35b634e487b7160e01b8252819052602490fd5b80fd5b838234610502578160031936011261050257602090516000805160206121248339815191528152f35b5091903461050257602090816003193601126104c3576001600160a01b03610650611761565b168352600782528383209182549167ffffffffffffffff831161071e57509290845190610682858260051b01836116cd565b8082528482018094845285842084915b8383106106f357505050508451938085019181865251809252858501958260051b8601019392955b8287106106c75785850386f35b9091929382806106e3600193603f198a82030186528851611898565b96019201960195929190926106ba565b60018881928b9a97989a5161070c8161030b8189611802565b81520192019201919096949396610692565b634e487b7160e01b855260419052602484fd5b5082346105fe57816003193601126105fe576024359235815260056020528181209081548410156105fe57506020926107699161179a565b905491519160018060a01b039160031b1c168152f35b83823461050257816003193601126105025751908152602090f35b5082346105fe57816003193601126105fe57506107c26020926107bb61174b565b9035611ddf565b90519015158152f35b5090346104c357816003193601126104c3578160209360ff926107ec61174b565b903582528186528282206001600160a01b039091168252855220549151911615158152f35b5090346104c357816003193601126104c357803567ffffffffffffffff81116104bf578291610842913691016116ef565b92610863602061085061174b565b9581855193828580945193849201611777565b6008908201908152030190206001600160a01b0394851682526020522080548251931691906108a0846108998160018501611802565b03856116cd565b60ff6003600283015492015416906108c983519586958652608060208701526080860190611898565b92840152151560608301520390f35b838234610502578160031936011261050257602090517f71f3d55856e4058ed06ee057d79ada615f65cdf5f9ee88181b914225088f834f8152f35b838234610502578160031936011261050257602090517fa49807205ce4d355092ef5a8a18f56e8913cf4a201fbe287825b095693c217758152f35b8382346105025760203660031901126105025760209181906001600160a01b03610976611761565b1681526003845220549051908152f35b838234610502578160031936011261050257602090517f59a1c48e5837ad7a7f3dcedcbe129bf3249ec4fbf651fd4f5e2600ead39fe2f58152f35b50346104c357806003193601126104c3578135906109dd61174b565b6109e5611be7565b6000805160206121248339815191528552602091858352808620338752835260ff81872054168015610bad575b8015610b84575b15610b42578386528483528086206001600160a01b03928316808852908452818720600601805491949160ff811615610b0a5760ff1916905584875260059052852090855b825480821015610afe57829085610a75848761179a565b939054600394851b1c1614610a94575050610a8f90611fde565b610a5e565b9091939495966000198201918211610aeb57506102d3928594926102a76102b493610abe9861179a565b33917f260547d4038414ef72f081dcde91825693dff9bc433178f3e92ad36e0cd227508480a46001805580f35b634e487b7160e01b895260119052602488fd5b50505050909150610abe565b835162461bcd60e51b815280890184905260126024820152711058d8d95cdcc81b9bdd0819dc985b9d195960721b6044820152606490fd5b5162461bcd60e51b8152808501839052601f60248201527f4e6f7420617574686f72697a656420746f207265766f6b6520616363657373006044820152606490fd5b508386528483528086206001600160a01b03838116885290845281872060020154163314610a19565b5085610a12565b5082346105fe57816003193601126105fe57506107c2602092610bd561174b565b9035611c0a565b50346104c357806003193601126104c357918260ff61012094610bfd61174b565b93853581528560205281812060018060a01b03809616825260205220918254948460018501541694600285015416600385015491850154928460066005880154970154169681519889526020890152870152606086015281811615156080860152818160081c16151560a086015260101c16151560c084015260e08301521515610100820152f35b50919034610502578260031936011261050257610ca061174b565b83805193610cad8561169a565b80855280602086015280828601528060608601528060808601528060a08601528060c08601528060e086015280610100809601528335815283602052818120600160a01b6001900380941682526020522090845192610d0b8461169a565b82549586855282600185015416916020860192835283600286015416918087019283526003860154916060880192835286015494608088019360ff8716151585528160a08a01968860081c60ff161515885260c08b019860101c60ff16151589528b60058b01549a60e08d019b8c526006015460ff169b019a15158b5284519c8d52511660208c0152511690890152516060880152511515608087015251151560a086015251151560c08501525160e08401525115159082015261012090f35b5090346104c35760c03660031901126104c3578035610de861174b565b9160443593606435908115158203611093576084359485151580960361108f5760a4359283151580940361108b57610e1e611be7565b6001600160a01b03821696871561104857338814611005576000805160206121248339815191528a526020948a8652848b20338c52865260ff858c2054168015610ffe575b15610fbb57908a9392918a610f5d575b610f067f9ffcf664651d52310aeb78c0f8382ca5078d2de7d3cf618cb5ce6e5cabf00992988a87528089528787208c885289528a8888209689600689019960ff8b541615610f43575b5050508655600186016bffffffffffffffffffffffff60a01b908d82825416179055600287019033908254161790558c6003870155850193849060ff801983541691151516179055565b61ff0062ff000084549260101b169260081b169062ffff00191617179055600542910155600160ff19825416179055519485523394a46001805580f35b610f5393815260058d5220611bc2565b8a388f8a90610ebc565b91935091939495428a1115610f7857959493918a9391610e73565b855162461bcd60e51b8152908101879052601d60248201527f4578706972792074696d65206d75737420626520696e206675747572650000006044820152606490fd5b845162461bcd60e51b8152808801879052601e60248201527f4e6f7420617574686f72697a656420746f206772616e742061636365737300006044820152606490fd5b508a610e63565b835162461bcd60e51b8152602081880152601b60248201527f43616e6e6f74206772616e742061636365737320746f2073656c6600000000006044820152606490fd5b835162461bcd60e51b8152602081880152601760248201527f496e76616c6964206772616e74656520616464726573730000000000000000006044820152606490fd5b8880fd5b8780fd5b8680fd5b8382346105025780600319360112610502576020906107c26110b7611761565b602435906119f4565b508290346105025780600319360112610502576110db61174b565b90336001600160a01b038316036110f8575061053f91923561197f565b5163334bd91960e11b81528390fd5b50346104c357806003193601126104c35761053f913561112a600161052961174b565b611901565b5090346104c357816003193601126104c35780359067ffffffffffffffff82116104bf5761115f913691016116ef565b9161117b60206024359481855193828580945193849201611777565b810160068152030190209081548410156105fe57506020926107699161179a565b5082346105fe57816003193601126105fe57506107c26020926111bd61174b565b9035611ce1565b5090346104c35760203660031901126104c357816020936001923581528085522001549051908152f35b50346104c357806003193601126104c35767ffffffffffffffff9180358381116104bb5761121f90369083016116ef565b60249182358581116110935761123890369083016116ef565b92611241611be7565b82511561146e5783511561143d57845195835191602097888181880195611269818389611777565b81016008815203019020338a52885260ff6003888b20015416611409576112ac87518651611298818388611777565b810190600682528a81339303019020611bc2565b33895260078852868920805490600160401b8210156113f757906112d59160018201815561179a565b6113e657856112e391611ef6565b86519360808501928311858410176113d5575050926113b47f39e664301c7d6a710381efac98d5565f2f5d7cbb1cd7366f352467896a809b43959360036113b9946113cb978a523383528a6113988d8c838701918b83528188019442865261135f8160608b019860018a528d8651938492839251928391611777565b600890820190815203019020338352905220955186546001600160a01b0319166001600160a01b03919091161786555160018601611ef6565b51600284015551151591019060ff801983541691151516179055565b611fbe565b93519182918683523396830190611898565b0390a36001805580f35b634e487b7160e01b8a526041905288fd5b50634e487b7160e01b895288845288fd5b634e487b7160e01b8b5260418652828bfd5b8360106064928a8a519362461bcd60e51b85528401528201526f20b63932b0b23c90309036b2b6b132b960811b6044820152fd5b90600c606492602087519362461bcd60e51b85528401528201526b496e76616c696420726f6c6560a01b6044820152fd5b906017606492602087519362461bcd60e51b85528401528201527f496e76616c6964206f7267616e697a6174696f6e2049440000000000000000006044820152fd5b50346104c357602091826003193601126104bf5780359067ffffffffffffffff82116104bb576114e784916114f9933691016116ef565b81845193828580945193849201611777565b810160068152030190209281518093808654928381520195835280832092905b82821061153b576105e88686611531828b03836116cd565b5191829182611656565b83546001600160a01b031687529586019560019384019390910190611519565b838234610502578160031936011261050257602090517f14823911f2da1b49f045a0929a60b8c1f2a7fc8c06c7284ca3e8ab4e193a08c88152f35b50346104c357602091826003193601126104bf57358352600582528083209281518093808654928381520195835280832092905b8282106115e2576105e88686611531828b03836116cd565b83546001600160a01b0316875295860195600193840193909101906115ca565b849084346104c35760203660031901126104c3573563ffffffff60e01b81168091036104c35760209250637965db0b60e01b8114908115611645575b5015158152f35b6301ffc9a760e01b1490508361163e565b6020908160408183019282815285518094520193019160005b82811061167d575050505090565b83516001600160a01b03168552938101939281019260010161166f565b610120810190811067ffffffffffffffff8211176116b757604052565b634e487b7160e01b600052604160045260246000fd5b90601f8019910116810190811067ffffffffffffffff8211176116b757604052565b81601f820112156117465780359067ffffffffffffffff82116116b75760405192611724601f8401601f1916602001856116cd565b8284526020838301011161174657816000926020809301838601378301015290565b600080fd5b602435906001600160a01b038216820361174657565b600435906001600160a01b038216820361174657565b60005b83811061178a5750506000910152565b818101518382015260200161177a565b80548210156117b25760005260206000200190600090565b634e487b7160e01b600052603260045260246000fd5b90600182811c921680156117f8575b60208310146117e257565b634e487b7160e01b600052602260045260246000fd5b91607f16916117d7565b9060009291805491611813836117c8565b9182825260019384811690816000146118755750600114611835575b50505050565b90919394506000526020928360002092846000945b83861061186157505050500101903880808061182f565b80548587018301529401938590820161184a565b9294505050602093945060ff191683830152151560051b0101903880808061182f565b906020916118b181518092818552858086019101611777565b601f01601f1916010190565b80600052600060205260406000203360005260205260ff60406000205416156118e35750565b6044906040519063e2517d3f60e01b82523360048301526024820152fd5b9060009180835282602052604083209160018060a01b03169182845260205260ff6040842054161560001461197a57808352826020526040832082845260205260408320600160ff198254161790557f2f8788117e7eff1d82e926ec794901d17c78024a50270940304540a733656f0d339380a4600190565b505090565b9060009180835282602052604083209160018060a01b03169182845260205260ff60408420541660001461197a5780835282602052604083208284526020526040832060ff1981541690557ff6391f5c32d9c69d2a47ea670b442974b53935d1edc7fd64eb21e047a839171b339380a4600190565b6000918083526020918383526040908185209060018060a01b031690818652845260ff92838387205416611b5b578552600284528282862054167fa49807205ce4d355092ef5a8a18f56e8913cf4a201fbe287825b095693c217758652838387205416811080611bab575b611b5b577f71f3d55856e4058ed06ee057d79ada615f65cdf5f9ee88181b914225088f834f865260028552838387205416811080611b94575b611b5b577f59a1c48e5837ad7a7f3dcedcbe129bf3249ec4fbf651fd4f5e2600ead39fe2f5865260028552838387205416811080611b7d575b611b5b577f0ce23c3e399818cfee81a7ab0880f714e53d7672b08df0fa62f2843416e1ea09865260028552838387205416811080611b66575b611b5b57600080516020612124833981519152865260028552838387205416119384611b42575b50505050611b3c5790565b50600190565b8581528286209186525283205416905038808080611b31565b505050505050600190565b508585528286208287528552838387205416611b0a565b508585528286208287528552838387205416611ad1565b508585528286208287528552838387205416611a98565b508585528286208287528552838387205416611a5f565b90815491600160401b8310156116b757826102b4916001611be59501815561179a565b565b600260015414611bf8576002600155565b604051633ee5aeb560e01b8152600490fd5b90600091825260046020526040822060018060a01b0380921683526020526101006040832060405192611c3c8461169a565b81548452806001830154166020850152600282015416604084015260038101549283606082015260ff600660048401549382808616159586156080870152818160081c16151560a087015260101c16151560c0850152600581015460e085015201541615908115938491015291611cd9575b50611cd5578015159081611ccb575b50611cc85750600190565b90565b9050421138611cbd565b5090565b905038611cae565b6001600160a01b0391821660008181527f1da0b5176dfe03406af5a6eed66ca01dda9b45ac4da671c3fa379cb93717ef8160205260408082205491949392909160ff16611dd557610100928552600460205281852090855260205280842090805193611d4c8561169a565b825485528060018401541660208601526002830154169084015260038101549283606082015260ff60066004840154938285161515608085015282808660081c161595861560a087015260101c16151560c0850152600581015460e085015201541615908115938491015291611cd95750611cd5578015159081611ccb5750611cc85750600190565b5050505050600190565b90600091825260046020526040822060018060a01b0380921683526020526101006040832060405192611e118461169a565b81548452806001830154166020850152600282015416604084015260038101549283606082015260ff600681600485015481811615156080860152818160081c16151560a086015260101c161593841560c0850152600581015460e085015201541615908115938491015291611cd95750611cd5578015159081611ccb5750611cc85750600190565b818110611ea5575050565b60008155600101611e9a565b9190601f8111611ec057505050565b611be5926000526020600020906020601f840160051c83019310611eec575b601f0160051c0190611e9a565b9091508190611edf565b919091825167ffffffffffffffff81116116b757611f1e81611f1884546117c8565b84611eb1565b602080601f8311600114611f5a575081929394600092611f4f575b50508160011b916000199060031b1c1916179055565b015190503880611f39565b90601f198316958460005282600020926000905b888210611fa657505083600195969710611f8d575b505050811b019055565b015160001960f88460031b161c19169055388080611f83565b80600185968294968601518155019501930190611f6e565b611fd690602060405192828480945193849201611777565b810103902090565b6000198114611fed5760010190565b634e487b7160e01b600052601160045260246000fd5b8054801561203057600019019061201a828261179a565b81549060018060a01b039060031b1b1916905555565b634e487b7160e01b600052603160045260246000fd5b9080821461211f5761205881546117c8565b9067ffffffffffffffff82116116b757819061207e8261207886546117c8565b86611eb1565b600090601f83116001146120b4576000926120a95750508160011b916000199060031b1c1916179055565b015490503880611f39565b81526020808220858352818320935090601f1985169083905b8282106121065750509084600195949392106120ed57505050811b019055565b015460001960f88460031b161c19169055388080611f83565b84958192958501548155600180910196019401906120cd565b505056fe5520d115ceffb88f02315d646cd7618d18024f657afe794865243ed5b75fb04fa264697066735822122097ae21f7e673f17ba5fb91c5cfb880901792015b7bcca5b73707ebff5cb0ec3664736f6c634300081400332f8788117e7eff1d82e926ec794901d17c78024a50270940304540a733656f0da49807205ce4d355092ef5a8a18f56e8913cf4a201fbe287825b095693c21775","opcodes":"PUSH1 0x40 PUSH1 0x80 DUP2 MSTORE CALLVALUE PUSH3 0x1D4 JUMPI PUSH1 0x1 DUP1 DUP1 SSTORE PUSH3 0x1B CALLER PUSH3 0x1D9 JUMP JUMPDEST POP PUSH3 0x27 CALLER PUSH3 0x259 JUMP JUMPDEST POP PUSH1 0x0 DUP1 MLOAD PUSH1 0x20 PUSH3 0x2484 DUP4 CODECOPY DUP2 MLOAD SWAP2 MSTORE PUSH1 0x0 SWAP1 DUP1 DUP3 MSTORE PUSH1 0x2 PUSH1 0x20 MSTORE DUP4 DUP3 KECCAK256 SWAP1 PUSH1 0xFF NOT SWAP2 PUSH1 0x6 DUP4 DUP3 SLOAD AND OR SWAP1 SSTORE PUSH32 0x71F3D55856E4058ED06EE057D79ADA615F65CDF5F9EE88181B914225088F834F SWAP4 DUP5 DUP5 MSTORE DUP6 DUP5 KECCAK256 PUSH1 0x5 DUP5 DUP3 SLOAD AND OR SWAP1 SSTORE PUSH32 0x59A1C48E5837AD7A7F3DCEDCBE129BF3249EC4FBF651FD4F5E2600EAD39FE2F5 DUP1 DUP6 MSTORE DUP7 DUP6 KECCAK256 PUSH1 0x4 DUP6 DUP3 SLOAD AND OR SWAP1 SSTORE PUSH32 0xCE23C3E399818CFEE81A7AB0880F714E53D7672B08DF0FA62F2843416E1EA09 SWAP6 DUP7 DUP7 MSTORE DUP8 DUP7 KECCAK256 PUSH1 0x3 DUP7 DUP3 SLOAD AND OR SWAP1 SSTORE PUSH32 0x5520D115CEFFB88F02315D646CD7618D18024F657AFE794865243ED5B75FB04F SWAP7 DUP8 DUP8 MSTORE DUP9 DUP8 KECCAK256 PUSH1 0x2 DUP8 DUP3 SLOAD AND OR SWAP1 SSTORE PUSH32 0x14823911F2DA1B49F045A0929A60B8C1F2A7FC8C06C7284CA3E8AB4E193A08C8 SWAP6 DUP7 DUP9 MSTORE DUP5 DUP11 DUP10 KECCAK256 SWAP2 DUP3 SLOAD AND OR SWAP1 SSTORE DUP2 DUP8 MSTORE DUP7 PUSH1 0x20 MSTORE DUP4 DUP10 DUP9 KECCAK256 ADD SWAP5 DUP1 DUP7 SLOAD SWAP7 SSTORE DUP1 PUSH32 0xBD79B86FFE0AB8E8776151514217CD7CACD52C909F66475C3AF44E129F0B00FF SWAP7 DUP5 DUP9 DUP12 DUP1 LOG4 DUP4 DUP9 MSTORE DUP5 DUP11 DUP10 KECCAK256 ADD DUP2 DUP2 SLOAD SWAP2 SSTORE DUP5 DUP8 DUP11 DUP1 LOG4 DUP1 DUP8 MSTORE DUP4 DUP10 DUP9 KECCAK256 ADD SWAP1 DUP3 DUP3 SLOAD SWAP3 SSTORE DUP6 DUP9 DUP1 LOG4 DUP6 DUP6 MSTORE DUP2 DUP8 DUP7 KECCAK256 ADD DUP2 DUP2 SLOAD SWAP2 SSTORE DUP7 DUP5 DUP8 DUP1 LOG4 DUP3 DUP5 MSTORE DUP6 DUP5 KECCAK256 ADD SWAP3 DUP5 DUP5 SLOAD SWAP5 SSTORE DUP1 LOG4 MLOAD PUSH2 0x2179 SWAP1 DUP2 PUSH3 0x2EB DUP3 CODECOPY RETURN JUMPDEST PUSH1 0x0 DUP1 REVERT JUMPDEST PUSH1 0x1 PUSH1 0x1 PUSH1 0xA0 SHL SUB AND PUSH1 0x0 DUP2 DUP2 MSTORE PUSH32 0xAD3228B676F7D3CD4284A5443F17F1962B36E491B30A40B2405849E597BA5FB5 PUSH1 0x20 MSTORE PUSH1 0x40 DUP2 KECCAK256 SLOAD SWAP1 SWAP2 SWAP1 PUSH1 0xFF AND PUSH3 0x255 JUMPI DUP2 DUP1 MSTORE DUP2 PUSH1 0x20 MSTORE PUSH1 0x40 DUP3 KECCAK256 DUP2 DUP4 MSTORE PUSH1 0x20 MSTORE PUSH1 0x40 DUP3 KECCAK256 PUSH1 0x1 PUSH1 0xFF NOT DUP3 SLOAD AND OR SWAP1 SSTORE CALLER SWAP2 PUSH1 0x0 DUP1 MLOAD PUSH1 0x20 PUSH3 0x2464 DUP4 CODECOPY DUP2 MLOAD SWAP2 MSTORE DUP2 DUP1 LOG4 PUSH1 0x1 SWAP1 JUMP JUMPDEST POP SWAP1 JUMP JUMPDEST PUSH1 0x1 PUSH1 0x1 PUSH1 0xA0 SHL SUB AND PUSH1 0x0 DUP2 DUP2 MSTORE PUSH32 0x7D7FFB7A348E1C6A02869081A26547B49160DD3DF72D1D75A570EB9B698292EC PUSH1 0x20 MSTORE PUSH1 0x40 DUP2 KECCAK256 SLOAD SWAP1 SWAP2 SWAP1 PUSH1 0x0 DUP1 MLOAD PUSH1 0x20 PUSH3 0x2484 DUP4 CODECOPY DUP2 MLOAD SWAP2 MSTORE SWAP1 PUSH1 0xFF AND PUSH3 0x2E5 JUMPI DUP1 DUP4 MSTORE DUP3 PUSH1 0x20 MSTORE PUSH1 0x40 DUP4 KECCAK256 DUP3 DUP5 MSTORE PUSH1 0x20 MSTORE PUSH1 0x40 DUP4 KECCAK256 PUSH1 0x1 PUSH1 0xFF NOT DUP3 SLOAD AND OR SWAP1 SSTORE PUSH1 0x0 DUP1 MLOAD PUSH1 0x20 PUSH3 0x2464 DUP4 CODECOPY DUP2 MLOAD SWAP2 MSTORE CALLER SWAP4 DUP1 LOG4 PUSH1 0x1 SWAP1 JUMP JUMPDEST POP POP SWAP1 JUMP INVALID PUSH1 0x80 PUSH1 0x40 DUP2 DUP2 MSTORE PUSH1 0x4 SWAP1 DUP2 CALLDATASIZE LT ISZERO PUSH2 0x16 JUMPI PUSH1 0x0 DUP1 REVERT JUMPDEST PUSH1 0x0 SWAP3 DUP4 CALLDATALOAD PUSH1 0xE0 SHR SWAP1 DUP2 PUSH4 0x1FFC9A7 EQ PUSH2 0x1602 JUMPI POP DUP1 PUSH4 0xB6ABE8B EQ PUSH2 0x1596 JUMPI DUP1 PUSH4 0x13119161 EQ PUSH2 0x155B JUMPI DUP1 PUSH4 0x14EBC2D8 EQ PUSH2 0x14B0 JUMPI DUP1 PUSH4 0x1BC5A1DC EQ PUSH2 0x11EE JUMPI DUP1 PUSH4 0x248A9CA3 EQ PUSH2 0x11C4 JUMPI DUP1 PUSH4 0x26EFADD7 EQ PUSH2 0x119C JUMPI DUP1 PUSH4 0x2859171A EQ PUSH2 0x112F JUMPI DUP1 PUSH4 0x2F2FF15D EQ PUSH2 0x1107 JUMPI DUP1 PUSH4 0x36568ABE EQ PUSH2 0x10C0 JUMPI DUP1 PUSH4 0x39825CF2 EQ PUSH2 0x1097 JUMPI DUP1 PUSH4 0x3FEF6A56 EQ PUSH2 0xDCB JUMPI DUP1 PUSH4 0x4DB65851 EQ PUSH2 0xC85 JUMPI DUP1 PUSH4 0x58CD8CA5 EQ PUSH2 0xBDC JUMPI DUP1 PUSH4 0x69366E57 EQ PUSH2 0xBB4 JUMPI DUP1 PUSH4 0x6B0CDF1D EQ PUSH2 0x9C1 JUMPI DUP1 PUSH4 0x6E1D616E EQ PUSH2 0x986 JUMPI DUP1 PUSH4 0x74D5E100 EQ PUSH2 0x94E JUMPI DUP1 PUSH4 0x75B238FC EQ PUSH2 0x913 JUMPI DUP1 PUSH4 0x797669C9 EQ PUSH2 0x8D8 JUMPI DUP1 PUSH4 0x856E0019 EQ PUSH2 0x811 JUMPI DUP1 PUSH4 0x91D14854 EQ PUSH2 0x7CB JUMPI DUP1 PUSH4 0x969772BC EQ PUSH2 0x79A JUMPI DUP1 PUSH4 0xA217FDDF EQ PUSH2 0x77F JUMPI DUP1 PUSH4 0xA260D07F EQ PUSH2 0x731 JUMPI DUP1 PUSH4 0xAA097EF0 EQ PUSH2 0x62A JUMPI DUP1 PUSH4 0xCFFAFEC2 EQ PUSH2 0x601 JUMPI DUP1 PUSH4 0xD4B5BF56 EQ PUSH2 0x56E JUMPI DUP1 PUSH4 0xD4EE1543 EQ PUSH2 0x543 JUMPI DUP1 PUSH4 0xD547741F EQ PUSH2 0x506 JUMPI DUP1 PUSH4 0xE7705DB6 EQ PUSH2 0x4C7 JUMPI PUSH4 0xF147ADD0 EQ PUSH2 0x184 JUMPI PUSH1 0x0 DUP1 REVERT JUMPDEST CALLVALUE PUSH2 0x4C3 JUMPI PUSH1 0x20 SWAP2 DUP3 PUSH1 0x3 NOT CALLDATASIZE ADD SLT PUSH2 0x4BF JUMPI DUP1 CALLDATALOAD PUSH8 0xFFFFFFFFFFFFFFFF DUP2 GT PUSH2 0x4BB JUMPI PUSH2 0x1B5 SWAP1 CALLDATASIZE SWAP1 DUP4 ADD PUSH2 0x16EF JUMP JUMPDEST SWAP1 PUSH2 0x1BE PUSH2 0x1BE7 JUMP JUMPDEST DUP3 MLOAD SWAP3 DUP3 MLOAD SWAP4 DUP6 DUP2 DUP2 DUP7 ADD SWAP7 PUSH2 0x1D5 DUP2 DUP4 DUP11 PUSH2 0x1777 JUMP JUMPDEST DUP2 ADD PUSH1 0x8 DUP2 MSTORE SUB ADD SWAP1 KECCAK256 CALLER DUP8 MSTORE DUP6 MSTORE PUSH1 0x3 SWAP5 PUSH1 0xFF DUP7 DUP4 DUP10 KECCAK256 ADD SLOAD AND ISZERO PUSH2 0x48B JUMPI DUP2 MLOAD DUP2 DUP2 DUP7 MLOAD PUSH2 0x206 DUP2 DUP4 DUP12 PUSH2 0x1777 JUMP JUMPDEST DUP2 ADD PUSH1 0x8 DUP2 MSTORE SUB ADD SWAP1 KECCAK256 CALLER DUP9 MSTORE DUP2 MSTORE DUP6 DUP3 DUP9 KECCAK256 ADD PUSH1 0xFF NOT DUP2 SLOAD AND SWAP1 SSTORE DUP2 MLOAD DUP2 DUP2 DUP7 MLOAD PUSH2 0x233 DUP2 DUP4 DUP12 PUSH2 0x1777 JUMP JUMPDEST DUP2 ADD PUSH1 0x6 DUP2 MSTORE SUB ADD SWAP1 KECCAK256 DUP8 JUMPDEST DUP2 SLOAD DUP1 DUP3 LT ISZERO PUSH2 0x47D JUMPI PUSH2 0x253 DUP3 DUP5 PUSH2 0x179A JUMP JUMPDEST SWAP1 SLOAD PUSH1 0x1 PUSH1 0x1 PUSH1 0xA0 SHL SUB SWAP3 SWAP2 DUP12 SHL SHR DUP3 AND CALLER EQ PUSH2 0x27A JUMPI POP POP PUSH2 0x275 SWAP1 PUSH2 0x1FDE JUMP JUMPDEST PUSH2 0x23F JUMP JUMPDEST PUSH1 0x0 SWAP10 SWAP2 SWAP3 SWAP4 SWAP5 SWAP6 SWAP7 SWAP8 SWAP9 SWAP10 NOT DUP2 ADD SWAP1 DUP2 GT PUSH2 0x46A JUMPI PUSH2 0x2D3 SWAP3 DUP6 SWAP5 SWAP3 PUSH2 0x2A7 PUSH2 0x2B4 SWAP4 PUSH2 0x2D8 SWAP9 PUSH2 0x179A JUMP JUMPDEST SWAP1 SLOAD SWAP2 SHL SHR AND SWAP2 DUP5 PUSH2 0x179A JUMP JUMPDEST SWAP1 SWAP2 SWAP1 DUP3 SLOAD SWAP1 PUSH1 0x3 SHL SWAP2 PUSH1 0x1 DUP1 PUSH1 0xA0 SHL SUB DUP1 SWAP2 AND DUP4 SHL SWAP3 SHL NOT AND OR SWAP1 SSTORE JUMP JUMPDEST PUSH2 0x2003 JUMP JUMPDEST CALLER DUP7 MSTORE PUSH1 0x7 DUP2 MSTORE DUP2 DUP7 KECCAK256 SWAP2 DUP7 JUMPDEST DUP4 SLOAD DUP1 DUP3 LT ISZERO PUSH2 0x45D JUMPI PUSH2 0x30B PUSH2 0x312 PUSH2 0x2FF DUP5 DUP9 PUSH2 0x179A JUMP JUMPDEST POP DUP6 MLOAD SWAP3 DUP4 DUP1 SWAP3 PUSH2 0x1802 JUMP JUMPDEST SUB DUP3 PUSH2 0x16CD JUMP JUMPDEST DUP5 DUP2 MLOAD SWAP2 ADD KECCAK256 DUP8 MLOAD DUP10 KECCAK256 EQ PUSH2 0x330 JUMPI POP PUSH2 0x32B SWAP1 PUSH2 0x1FDE JUMP JUMPDEST PUSH2 0x2E5 JUMP JUMPDEST SWAP3 SWAP4 SWAP5 SWAP6 SWAP7 POP SWAP1 POP PUSH1 0x0 NOT SWAP2 DUP3 DUP2 ADD SWAP1 DUP2 GT PUSH2 0x44A JUMPI PUSH2 0x353 PUSH2 0x35B SWAP2 DUP7 PUSH2 0x179A JUMP JUMPDEST POP SWAP2 DUP6 PUSH2 0x179A JUMP JUMPDEST PUSH2 0x438 JUMPI SWAP1 PUSH2 0x369 SWAP2 PUSH2 0x2046 JUMP JUMPDEST DUP3 SLOAD DUP1 ISZERO PUSH2 0x425 JUMPI ADD SWAP3 PUSH2 0x37D DUP5 DUP5 PUSH2 0x179A JUMP JUMPDEST SWAP2 SWAP1 SWAP2 PUSH2 0x413 JUMPI POP SWAP1 DUP2 PUSH2 0x392 DUP8 SWAP4 SLOAD PUSH2 0x17C8 JUMP JUMPDEST DUP1 PUSH2 0x3D3 JUMPI JUMPDEST POP POP POP POP SSTORE JUMPDEST PUSH2 0x3A8 CALLER SWAP2 PUSH2 0x1FBE JUMP JUMPDEST PUSH32 0x9FDBD38DB638563DFDF213622A60EE0D000EBABAD5EFA2807BDE424E404F2DB8 DUP4 DUP1 LOG3 PUSH1 0x1 DUP1 SSTORE DUP1 RETURN JUMPDEST DUP4 PUSH1 0x1F DUP1 DUP4 GT PUSH1 0x1 EQ PUSH2 0x3F0 JUMPI POP POP POP SWAP1 POP SSTORE JUMPDEST DUP4 CODESIZE DUP1 DUP1 PUSH2 0x398 JUMP JUMPDEST DUP4 SWAP3 SWAP5 DUP3 SWAP5 PUSH2 0x40C SWAP4 MSTORE DUP5 KECCAK256 SWAP5 ADD PUSH1 0x5 SHR DUP5 ADD PUSH1 0x1 DUP6 ADD PUSH2 0x1E9A JUMP JUMPDEST SSTORE SSTORE PUSH2 0x3E7 JUMP JUMPDEST PUSH4 0x4E487B71 PUSH1 0xE0 SHL DUP8 MSTORE DUP7 SWAP1 MSTORE PUSH1 0x24 DUP7 REVERT JUMPDEST PUSH4 0x4E487B71 PUSH1 0xE0 SHL DUP8 MSTORE PUSH1 0x31 DUP6 MSTORE PUSH1 0x24 DUP8 REVERT JUMPDEST PUSH4 0x4E487B71 PUSH1 0xE0 SHL DUP9 MSTORE DUP8 DUP7 MSTORE PUSH1 0x24 DUP9 REVERT JUMPDEST PUSH4 0x4E487B71 PUSH1 0xE0 SHL DUP9 MSTORE PUSH1 0x11 DUP7 MSTORE PUSH1 0x24 DUP9 REVERT JUMPDEST POP POP POP POP POP POP SWAP1 POP PUSH2 0x39E JUMP JUMPDEST PUSH4 0x4E487B71 PUSH1 0xE0 SHL DUP12 MSTORE PUSH1 0x11 DUP9 MSTORE PUSH1 0x24 DUP12 REVERT JUMPDEST POP POP POP SWAP1 SWAP2 SWAP3 SWAP4 SWAP5 POP PUSH2 0x2D8 JUMP JUMPDEST SWAP1 MLOAD PUSH3 0x461BCD PUSH1 0xE5 SHL DUP2 MSTORE SWAP2 DUP3 ADD MSTORE PUSH1 0xC PUSH1 0x24 DUP3 ADD MSTORE PUSH12 0x2737BA10309036B2B6B132B9 PUSH1 0xA1 SHL PUSH1 0x44 DUP3 ADD MSTORE PUSH1 0x64 SWAP1 REVERT JUMPDEST DUP5 DUP1 REVERT JUMPDEST DUP4 DUP1 REVERT JUMPDEST DUP3 DUP1 REVERT JUMPDEST DUP4 DUP3 CALLVALUE PUSH2 0x502 JUMPI DUP2 PUSH1 0x3 NOT CALLDATASIZE ADD SLT PUSH2 0x502 JUMPI PUSH1 0x20 SWAP1 MLOAD PUSH32 0xCE23C3E399818CFEE81A7AB0880F714E53D7672B08DF0FA62F2843416E1EA09 DUP2 MSTORE RETURN JUMPDEST POP DUP1 REVERT JUMPDEST POP CALLVALUE PUSH2 0x4C3 JUMPI DUP1 PUSH1 0x3 NOT CALLDATASIZE ADD SLT PUSH2 0x4C3 JUMPI PUSH2 0x53F SWAP2 CALLDATALOAD PUSH2 0x53A PUSH1 0x1 PUSH2 0x529 PUSH2 0x174B JUMP JUMPDEST SWAP4 DUP4 DUP8 MSTORE DUP7 PUSH1 0x20 MSTORE DUP7 KECCAK256 ADD SLOAD PUSH2 0x18BD JUMP JUMPDEST PUSH2 0x197F JUMP JUMPDEST POP DUP1 RETURN JUMPDEST POP SWAP1 CALLVALUE PUSH2 0x4C3 JUMPI PUSH1 0x20 CALLDATASIZE PUSH1 0x3 NOT ADD SLT PUSH2 0x4C3 JUMPI DUP2 PUSH1 0x20 SWAP4 PUSH1 0xFF SWAP3 CALLDATALOAD DUP2 MSTORE PUSH1 0x2 DUP6 MSTORE KECCAK256 SLOAD AND SWAP1 MLOAD SWAP1 DUP2 MSTORE RETURN JUMPDEST POP SWAP2 CALLVALUE PUSH2 0x5FE JUMPI DUP3 PUSH1 0x3 NOT CALLDATASIZE ADD SLT PUSH2 0x5FE JUMPI PUSH2 0x588 PUSH2 0x1761 JUMP JUMPDEST PUSH1 0x1 PUSH1 0x1 PUSH1 0xA0 SHL SUB AND DUP2 MSTORE PUSH1 0x7 PUSH1 0x20 MSTORE DUP3 DUP2 KECCAK256 DUP1 SLOAD PUSH1 0x24 CALLDATALOAD SWAP2 SWAP1 DUP3 LT ISZERO PUSH2 0x4C3 JUMPI SWAP1 PUSH2 0x5B3 SWAP2 PUSH2 0x179A JUMP JUMPDEST SWAP3 SWAP1 SWAP3 PUSH2 0x5EC JUMPI DUP4 MLOAD PUSH2 0x5E8 SWAP1 DUP6 PUSH2 0x5D6 DUP3 PUSH2 0x5CF DUP2 DUP10 PUSH2 0x1802 JUMP JUMPDEST SUB DUP4 PUSH2 0x16CD JUMP JUMPDEST MLOAD SWAP2 DUP3 SWAP2 PUSH1 0x20 DUP4 MSTORE PUSH1 0x20 DUP4 ADD SWAP1 PUSH2 0x1898 JUMP JUMPDEST SUB SWAP1 RETURN JUMPDEST PUSH4 0x4E487B71 PUSH1 0xE0 SHL DUP3 MSTORE DUP2 SWAP1 MSTORE PUSH1 0x24 SWAP1 REVERT JUMPDEST DUP1 REVERT JUMPDEST DUP4 DUP3 CALLVALUE PUSH2 0x502 JUMPI DUP2 PUSH1 0x3 NOT CALLDATASIZE ADD SLT PUSH2 0x502 JUMPI PUSH1 0x20 SWAP1 MLOAD PUSH1 0x0 DUP1 MLOAD PUSH1 0x20 PUSH2 0x2124 DUP4 CODECOPY DUP2 MLOAD SWAP2 MSTORE DUP2 MSTORE RETURN JUMPDEST POP SWAP2 SWAP1 CALLVALUE PUSH2 0x502 JUMPI PUSH1 0x20 SWAP1 DUP2 PUSH1 0x3 NOT CALLDATASIZE ADD SLT PUSH2 0x4C3 JUMPI PUSH1 0x1 PUSH1 0x1 PUSH1 0xA0 SHL SUB PUSH2 0x650 PUSH2 0x1761 JUMP JUMPDEST AND DUP4 MSTORE PUSH1 0x7 DUP3 MSTORE DUP4 DUP4 KECCAK256 SWAP2 DUP3 SLOAD SWAP2 PUSH8 0xFFFFFFFFFFFFFFFF DUP4 GT PUSH2 0x71E JUMPI POP SWAP3 SWAP1 DUP5 MLOAD SWAP1 PUSH2 0x682 DUP6 DUP3 PUSH1 0x5 SHL ADD DUP4 PUSH2 0x16CD JUMP JUMPDEST DUP1 DUP3 MSTORE DUP5 DUP3 ADD DUP1 SWAP5 DUP5 MSTORE DUP6 DUP5 KECCAK256 DUP5 SWAP2 JUMPDEST DUP4 DUP4 LT PUSH2 0x6F3 JUMPI POP POP POP POP DUP5 MLOAD SWAP4 DUP1 DUP6 ADD SWAP2 DUP2 DUP7 MSTORE MLOAD DUP1 SWAP3 MSTORE DUP6 DUP6 ADD SWAP6 DUP3 PUSH1 0x5 SHL DUP7 ADD ADD SWAP4 SWAP3 SWAP6 JUMPDEST DUP3 DUP8 LT PUSH2 0x6C7 JUMPI DUP6 DUP6 SUB DUP7 RETURN JUMPDEST SWAP1 SWAP2 SWAP3 SWAP4 DUP3 DUP1 PUSH2 0x6E3 PUSH1 0x1 SWAP4 PUSH1 0x3F NOT DUP11 DUP3 SUB ADD DUP7 MSTORE DUP9 MLOAD PUSH2 0x1898 JUMP JUMPDEST SWAP7 ADD SWAP3 ADD SWAP7 ADD SWAP6 SWAP3 SWAP2 SWAP1 SWAP3 PUSH2 0x6BA JUMP JUMPDEST PUSH1 0x1 DUP9 DUP2 SWAP3 DUP12 SWAP11 SWAP8 SWAP9 SWAP11 MLOAD PUSH2 0x70C DUP2 PUSH2 0x30B DUP2 DUP10 PUSH2 0x1802 JUMP JUMPDEST DUP2 MSTORE ADD SWAP3 ADD SWAP3 ADD SWAP2 SWAP1 SWAP7 SWAP5 SWAP4 SWAP7 PUSH2 0x692 JUMP JUMPDEST PUSH4 0x4E487B71 PUSH1 0xE0 SHL DUP6 MSTORE PUSH1 0x41 SWAP1 MSTORE PUSH1 0x24 DUP5 REVERT JUMPDEST POP DUP3 CALLVALUE PUSH2 0x5FE JUMPI DUP2 PUSH1 0x3 NOT CALLDATASIZE ADD SLT PUSH2 0x5FE JUMPI PUSH1 0x24 CALLDATALOAD SWAP3 CALLDATALOAD DUP2 MSTORE PUSH1 0x5 PUSH1 0x20 MSTORE DUP2 DUP2 KECCAK256 SWAP1 DUP2 SLOAD DUP5 LT ISZERO PUSH2 0x5FE JUMPI POP PUSH1 0x20 SWAP3 PUSH2 0x769 SWAP2 PUSH2 0x179A JUMP JUMPDEST SWAP1 SLOAD SWAP2 MLOAD SWAP2 PUSH1 0x1 DUP1 PUSH1 0xA0 SHL SUB SWAP2 PUSH1 0x3 SHL SHR AND DUP2 MSTORE RETURN JUMPDEST DUP4 DUP3 CALLVALUE PUSH2 0x502 JUMPI DUP2 PUSH1 0x3 NOT CALLDATASIZE ADD SLT PUSH2 0x502 JUMPI MLOAD SWAP1 DUP2 MSTORE PUSH1 0x20 SWAP1 RETURN JUMPDEST POP DUP3 CALLVALUE PUSH2 0x5FE JUMPI DUP2 PUSH1 0x3 NOT CALLDATASIZE ADD SLT PUSH2 0x5FE JUMPI POP PUSH2 0x7C2 PUSH1 0x20 SWAP3 PUSH2 0x7BB PUSH2 0x174B JUMP JUMPDEST SWAP1 CALLDATALOAD PUSH2 0x1DDF JUMP JUMPDEST SWAP1 MLOAD SWAP1 ISZERO ISZERO DUP2 MSTORE RETURN JUMPDEST POP SWAP1 CALLVALUE PUSH2 0x4C3 JUMPI DUP2 PUSH1 0x3 NOT CALLDATASIZE ADD SLT PUSH2 0x4C3 JUMPI DUP2 PUSH1 0x20 SWAP4 PUSH1 0xFF SWAP3 PUSH2 0x7EC PUSH2 0x174B JUMP JUMPDEST SWAP1 CALLDATALOAD DUP3 MSTORE DUP2 DUP7 MSTORE DUP3 DUP3 KECCAK256 PUSH1 0x1 PUSH1 0x1 PUSH1 0xA0 SHL SUB SWAP1 SWAP2 AND DUP3 MSTORE DUP6 MSTORE KECCAK256 SLOAD SWAP2 MLOAD SWAP2 AND ISZERO ISZERO DUP2 MSTORE RETURN JUMPDEST POP SWAP1 CALLVALUE PUSH2 0x4C3 JUMPI DUP2 PUSH1 0x3 NOT CALLDATASIZE ADD SLT PUSH2 0x4C3 JUMPI DUP1 CALLDATALOAD PUSH8 0xFFFFFFFFFFFFFFFF DUP2 GT PUSH2 0x4BF JUMPI DUP3 SWAP2 PUSH2 0x842 SWAP2 CALLDATASIZE SWAP2 ADD PUSH2 0x16EF JUMP JUMPDEST SWAP3 PUSH2 0x863 PUSH1 0x20 PUSH2 0x850 PUSH2 0x174B JUMP JUMPDEST SWAP6 DUP2 DUP6 MLOAD SWAP4 DUP3 DUP6 DUP1 SWAP5 MLOAD SWAP4 DUP5 SWAP3 ADD PUSH2 0x1777 JUMP JUMPDEST PUSH1 0x8 SWAP1 DUP3 ADD SWAP1 DUP2 MSTORE SUB ADD SWAP1 KECCAK256 PUSH1 0x1 PUSH1 0x1 PUSH1 0xA0 SHL SUB SWAP5 DUP6 AND DUP3 MSTORE PUSH1 0x20 MSTORE KECCAK256 DUP1 SLOAD DUP3 MLOAD SWAP4 AND SWAP2 SWAP1 PUSH2 0x8A0 DUP5 PUSH2 0x899 DUP2 PUSH1 0x1 DUP6 ADD PUSH2 0x1802 JUMP JUMPDEST SUB DUP6 PUSH2 0x16CD JUMP JUMPDEST PUSH1 0xFF PUSH1 0x3 PUSH1 0x2 DUP4 ADD SLOAD SWAP3 ADD SLOAD AND SWAP1 PUSH2 0x8C9 DUP4 MLOAD SWAP6 DUP7 SWAP6 DUP7 MSTORE PUSH1 0x80 PUSH1 0x20 DUP8 ADD MSTORE PUSH1 0x80 DUP7 ADD SWAP1 PUSH2 0x1898 JUMP JUMPDEST SWAP3 DUP5 ADD MSTORE ISZERO ISZERO PUSH1 0x60 DUP4 ADD MSTORE SUB SWAP1 RETURN JUMPDEST DUP4 DUP3 CALLVALUE PUSH2 0x502 JUMPI DUP2 PUSH1 0x3 NOT CALLDATASIZE ADD SLT PUSH2 0x502 JUMPI PUSH1 0x20 SWAP1 MLOAD PUSH32 0x71F3D55856E4058ED06EE057D79ADA615F65CDF5F9EE88181B914225088F834F DUP2 MSTORE RETURN JUMPDEST DUP4 DUP3 CALLVALUE PUSH2 0x502 JUMPI DUP2 PUSH1 0x3 NOT CALLDATASIZE ADD SLT PUSH2 0x502 JUMPI PUSH1 0x20 SWAP1 MLOAD PUSH32 0xA49807205CE4D355092EF5A8A18F56E8913CF4A201FBE287825B095693C21775 DUP2 MSTORE RETURN JUMPDEST DUP4 DUP3 CALLVALUE PUSH2 0x502 JUMPI PUSH1 0x20 CALLDATASIZE PUSH1 0x3 NOT ADD SLT PUSH2 0x502 JUMPI PUSH1 0x20 SWAP2 DUP2 SWAP1 PUSH1 0x1 PUSH1 0x1 PUSH1 0xA0 SHL SUB PUSH2 0x976 PUSH2 0x1761 JUMP JUMPDEST AND DUP2 MSTORE PUSH1 0x3 DUP5 MSTORE KECCAK256 SLOAD SWAP1 MLOAD SWAP1 DUP2 MSTORE RETURN JUMPDEST DUP4 DUP3 CALLVALUE PUSH2 0x502 JUMPI DUP2 PUSH1 0x3 NOT CALLDATASIZE ADD SLT PUSH2 0x502 JUMPI PUSH1 0x20 SWAP1 MLOAD PUSH32 0x59A1C48E5837AD7A7F3DCEDCBE129BF3249EC4FBF651FD4F5E2600EAD39FE2F5 DUP2 MSTORE RETURN JUMPDEST POP CALLVALUE PUSH2 0x4C3 JUMPI DUP1 PUSH1 0x3 NOT CALLDATASIZE ADD SLT PUSH2 0x4C3 JUMPI DUP2 CALLDATALOAD SWAP1 PUSH2 0x9DD PUSH2 0x174B JUMP JUMPDEST PUSH2 0x9E5 PUSH2 0x1BE7 JUMP JUMPDEST PUSH1 0x0 DUP1 MLOAD PUSH1 0x20 PUSH2 0x2124 DUP4 CODECOPY DUP2 MLOAD SWAP2 MSTORE DUP6 MSTORE PUSH1 0x20 SWAP2 DUP6 DUP4 MSTORE DUP1 DUP7 KECCAK256 CALLER DUP8 MSTORE DUP4 MSTORE PUSH1 0xFF DUP2 DUP8 KECCAK256 SLOAD AND DUP1 ISZERO PUSH2 0xBAD JUMPI JUMPDEST DUP1 ISZERO PUSH2 0xB84 JUMPI JUMPDEST ISZERO PUSH2 0xB42 JUMPI DUP4 DUP7 MSTORE DUP5 DUP4 MSTORE DUP1 DUP7 KECCAK256 PUSH1 0x1 PUSH1 0x1 PUSH1 0xA0 SHL SUB SWAP3 DUP4 AND DUP1 DUP9 MSTORE SWAP1 DUP5 MSTORE DUP2 DUP8 KECCAK256 PUSH1 0x6 ADD DUP1 SLOAD SWAP2 SWAP5 SWAP2 PUSH1 0xFF DUP2 AND ISZERO PUSH2 0xB0A JUMPI PUSH1 0xFF NOT AND SWAP1 SSTORE DUP5 DUP8 MSTORE PUSH1 0x5 SWAP1 MSTORE DUP6 KECCAK256 SWAP1 DUP6 JUMPDEST DUP3 SLOAD DUP1 DUP3 LT ISZERO PUSH2 0xAFE JUMPI DUP3 SWAP1 DUP6 PUSH2 0xA75 DUP5 DUP8 PUSH2 0x179A JUMP JUMPDEST SWAP4 SWAP1 SLOAD PUSH1 0x3 SWAP5 DUP6 SHL SHR AND EQ PUSH2 0xA94 JUMPI POP POP PUSH2 0xA8F SWAP1 PUSH2 0x1FDE JUMP JUMPDEST PUSH2 0xA5E JUMP JUMPDEST SWAP1 SWAP2 SWAP4 SWAP5 SWAP6 SWAP7 PUSH1 0x0 NOT DUP3 ADD SWAP2 DUP3 GT PUSH2 0xAEB JUMPI POP PUSH2 0x2D3 SWAP3 DUP6 SWAP5 SWAP3 PUSH2 0x2A7 PUSH2 0x2B4 SWAP4 PUSH2 0xABE SWAP9 PUSH2 0x179A JUMP JUMPDEST CALLER SWAP2 PUSH32 0x260547D4038414EF72F081DCDE91825693DFF9BC433178F3E92AD36E0CD22750 DUP5 DUP1 LOG4 PUSH1 0x1 DUP1 SSTORE DUP1 RETURN JUMPDEST PUSH4 0x4E487B71 PUSH1 0xE0 SHL DUP10 MSTORE PUSH1 0x11 SWAP1 MSTORE PUSH1 0x24 DUP9 REVERT JUMPDEST POP POP POP POP SWAP1 SWAP2 POP PUSH2 0xABE JUMP JUMPDEST DUP4 MLOAD PUSH3 0x461BCD PUSH1 0xE5 SHL DUP2 MSTORE DUP1 DUP10 ADD DUP5 SWAP1 MSTORE PUSH1 0x12 PUSH1 0x24 DUP3 ADD MSTORE PUSH18 0x1058D8D95CDCC81B9BDD0819DC985B9D1959 PUSH1 0x72 SHL PUSH1 0x44 DUP3 ADD MSTORE PUSH1 0x64 SWAP1 REVERT JUMPDEST MLOAD PUSH3 0x461BCD PUSH1 0xE5 SHL DUP2 MSTORE DUP1 DUP6 ADD DUP4 SWAP1 MSTORE PUSH1 0x1F PUSH1 0x24 DUP3 ADD MSTORE PUSH32 0x4E6F7420617574686F72697A656420746F207265766F6B652061636365737300 PUSH1 0x44 DUP3 ADD MSTORE PUSH1 0x64 SWAP1 REVERT JUMPDEST POP DUP4 DUP7 MSTORE DUP5 DUP4 MSTORE DUP1 DUP7 KECCAK256 PUSH1 0x1 PUSH1 0x1 PUSH1 0xA0 SHL SUB DUP4 DUP2 AND DUP9 MSTORE SWAP1 DUP5 MSTORE DUP2 DUP8 KECCAK256 PUSH1 0x2 ADD SLOAD AND CALLER EQ PUSH2 0xA19 JUMP JUMPDEST POP DUP6 PUSH2 0xA12 JUMP JUMPDEST POP DUP3 CALLVALUE PUSH2 0x5FE JUMPI DUP2 PUSH1 0x3 NOT CALLDATASIZE ADD SLT PUSH2 0x5FE JUMPI POP PUSH2 0x7C2 PUSH1 0x20 SWAP3 PUSH2 0xBD5 PUSH2 0x174B JUMP JUMPDEST SWAP1 CALLDATALOAD PUSH2 0x1C0A JUMP JUMPDEST POP CALLVALUE PUSH2 0x4C3 JUMPI DUP1 PUSH1 0x3 NOT CALLDATASIZE ADD SLT PUSH2 0x4C3 JUMPI SWAP2 DUP3 PUSH1 0xFF PUSH2 0x120 SWAP5 PUSH2 0xBFD PUSH2 0x174B JUMP JUMPDEST SWAP4 DUP6 CALLDATALOAD DUP2 MSTORE DUP6 PUSH1 0x20 MSTORE DUP2 DUP2 KECCAK256 PUSH1 0x1 DUP1 PUSH1 0xA0 SHL SUB DUP1 SWAP7 AND DUP3 MSTORE PUSH1 0x20 MSTORE KECCAK256 SWAP2 DUP3 SLOAD SWAP5 DUP5 PUSH1 0x1 DUP6 ADD SLOAD AND SWAP5 PUSH1 0x2 DUP6 ADD SLOAD AND PUSH1 0x3 DUP6 ADD SLOAD SWAP2 DUP6 ADD SLOAD SWAP3 DUP5 PUSH1 0x6 PUSH1 0x5 DUP9 ADD SLOAD SWAP8 ADD SLOAD AND SWAP7 DUP2 MLOAD SWAP9 DUP10 MSTORE PUSH1 0x20 DUP10 ADD MSTORE DUP8 ADD MSTORE PUSH1 0x60 DUP7 ADD MSTORE DUP2 DUP2 AND ISZERO ISZERO PUSH1 0x80 DUP7 ADD MSTORE DUP2 DUP2 PUSH1 0x8 SHR AND ISZERO ISZERO PUSH1 0xA0 DUP7 ADD MSTORE PUSH1 0x10 SHR AND ISZERO ISZERO PUSH1 0xC0 DUP5 ADD MSTORE PUSH1 0xE0 DUP4 ADD MSTORE ISZERO ISZERO PUSH2 0x100 DUP3 ADD MSTORE RETURN JUMPDEST POP SWAP2 SWAP1 CALLVALUE PUSH2 0x502 JUMPI DUP3 PUSH1 0x3 NOT CALLDATASIZE ADD SLT PUSH2 0x502 JUMPI PUSH2 0xCA0 PUSH2 0x174B JUMP JUMPDEST DUP4 DUP1 MLOAD SWAP4 PUSH2 0xCAD DUP6 PUSH2 0x169A JUMP JUMPDEST DUP1 DUP6 MSTORE DUP1 PUSH1 0x20 DUP7 ADD MSTORE DUP1 DUP3 DUP7 ADD MSTORE DUP1 PUSH1 0x60 DUP7 ADD MSTORE DUP1 PUSH1 0x80 DUP7 ADD MSTORE DUP1 PUSH1 0xA0 DUP7 ADD MSTORE DUP1 PUSH1 0xC0 DUP7 ADD MSTORE DUP1 PUSH1 0xE0 DUP7 ADD MSTORE DUP1 PUSH2 0x100 DUP1 SWAP7 ADD MSTORE DUP4 CALLDATALOAD DUP2 MSTORE DUP4 PUSH1 0x20 MSTORE DUP2 DUP2 KECCAK256 PUSH1 0x1 PUSH1 0xA0 SHL PUSH1 0x1 SWAP1 SUB DUP1 SWAP5 AND DUP3 MSTORE PUSH1 0x20 MSTORE KECCAK256 SWAP1 DUP5 MLOAD SWAP3 PUSH2 0xD0B DUP5 PUSH2 0x169A JUMP JUMPDEST DUP3 SLOAD SWAP6 DUP7 DUP6 MSTORE DUP3 PUSH1 0x1 DUP6 ADD SLOAD AND SWAP2 PUSH1 0x20 DUP7 ADD SWAP3 DUP4 MSTORE DUP4 PUSH1 0x2 DUP7 ADD SLOAD AND SWAP2 DUP1 DUP8 ADD SWAP3 DUP4 MSTORE PUSH1 0x3 DUP7 ADD SLOAD SWAP2 PUSH1 0x60 DUP9 ADD SWAP3 DUP4 MSTORE DUP7 ADD SLOAD SWAP5 PUSH1 0x80 DUP9 ADD SWAP4 PUSH1 0xFF DUP8 AND ISZERO ISZERO DUP6 MSTORE DUP2 PUSH1 0xA0 DUP11 ADD SWAP7 DUP9 PUSH1 0x8 SHR PUSH1 0xFF AND ISZERO ISZERO DUP9 MSTORE PUSH1 0xC0 DUP12 ADD SWAP9 PUSH1 0x10 SHR PUSH1 0xFF AND ISZERO ISZERO DUP10 MSTORE DUP12 PUSH1 0x5 DUP12 ADD SLOAD SWAP11 PUSH1 0xE0 DUP14 ADD SWAP12 DUP13 MSTORE PUSH1 0x6 ADD SLOAD PUSH1 0xFF AND SWAP12 ADD SWAP11 ISZERO ISZERO DUP12 MSTORE DUP5 MLOAD SWAP13 DUP14 MSTORE MLOAD AND PUSH1 0x20 DUP13 ADD MSTORE MLOAD AND SWAP1 DUP10 ADD MSTORE MLOAD PUSH1 0x60 DUP9 ADD MSTORE MLOAD ISZERO ISZERO PUSH1 0x80 DUP8 ADD MSTORE MLOAD ISZERO ISZERO PUSH1 0xA0 DUP7 ADD MSTORE MLOAD ISZERO ISZERO PUSH1 0xC0 DUP6 ADD MSTORE MLOAD PUSH1 0xE0 DUP5 ADD MSTORE MLOAD ISZERO ISZERO SWAP1 DUP3 ADD MSTORE PUSH2 0x120 SWAP1 RETURN JUMPDEST POP SWAP1 CALLVALUE PUSH2 0x4C3 JUMPI PUSH1 0xC0 CALLDATASIZE PUSH1 0x3 NOT ADD SLT PUSH2 0x4C3 JUMPI DUP1 CALLDATALOAD PUSH2 0xDE8 PUSH2 0x174B JUMP JUMPDEST SWAP2 PUSH1 0x44 CALLDATALOAD SWAP4 PUSH1 0x64 CALLDATALOAD SWAP1 DUP2 ISZERO ISZERO DUP3 SUB PUSH2 0x1093 JUMPI PUSH1 0x84 CALLDATALOAD SWAP5 DUP6 ISZERO ISZERO DUP1 SWAP7 SUB PUSH2 0x108F JUMPI PUSH1 0xA4 CALLDATALOAD SWAP3 DUP4 ISZERO ISZERO DUP1 SWAP5 SUB PUSH2 0x108B JUMPI PUSH2 0xE1E PUSH2 0x1BE7 JUMP JUMPDEST PUSH1 0x1 PUSH1 0x1 PUSH1 0xA0 SHL SUB DUP3 AND SWAP7 DUP8 ISZERO PUSH2 0x1048 JUMPI CALLER DUP9 EQ PUSH2 0x1005 JUMPI PUSH1 0x0 DUP1 MLOAD PUSH1 0x20 PUSH2 0x2124 DUP4 CODECOPY DUP2 MLOAD SWAP2 MSTORE DUP11 MSTORE PUSH1 0x20 SWAP5 DUP11 DUP7 MSTORE DUP5 DUP12 KECCAK256 CALLER DUP13 MSTORE DUP7 MSTORE PUSH1 0xFF DUP6 DUP13 KECCAK256 SLOAD AND DUP1 ISZERO PUSH2 0xFFE JUMPI JUMPDEST ISZERO PUSH2 0xFBB JUMPI SWAP1 DUP11 SWAP4 SWAP3 SWAP2 DUP11 PUSH2 0xF5D JUMPI JUMPDEST PUSH2 0xF06 PUSH32 0x9FFCF664651D52310AEB78C0F8382CA5078D2DE7D3CF618CB5CE6E5CABF00992 SWAP9 DUP11 DUP8 MSTORE DUP1 DUP10 MSTORE DUP8 DUP8 KECCAK256 DUP13 DUP9 MSTORE DUP10 MSTORE DUP11 DUP9 DUP9 KECCAK256 SWAP7 DUP10 PUSH1 0x6 DUP10 ADD SWAP10 PUSH1 0xFF DUP12 SLOAD AND ISZERO PUSH2 0xF43 JUMPI JUMPDEST POP POP POP DUP7 SSTORE PUSH1 0x1 DUP7 ADD PUSH12 0xFFFFFFFFFFFFFFFFFFFFFFFF PUSH1 0xA0 SHL SWAP1 DUP14 DUP3 DUP3 SLOAD AND OR SWAP1 SSTORE PUSH1 0x2 DUP8 ADD SWAP1 CALLER SWAP1 DUP3 SLOAD AND OR SWAP1 SSTORE DUP13 PUSH1 0x3 DUP8 ADD SSTORE DUP6 ADD SWAP4 DUP5 SWAP1 PUSH1 0xFF DUP1 NOT DUP4 SLOAD AND SWAP2 ISZERO ISZERO AND OR SWAP1 SSTORE JUMP JUMPDEST PUSH2 0xFF00 PUSH3 0xFF0000 DUP5 SLOAD SWAP3 PUSH1 0x10 SHL AND SWAP3 PUSH1 0x8 SHL AND SWAP1 PUSH3 0xFFFF00 NOT AND OR OR SWAP1 SSTORE PUSH1 0x5 TIMESTAMP SWAP2 ADD SSTORE PUSH1 0x1 PUSH1 0xFF NOT DUP3 SLOAD AND OR SWAP1 SSTORE MLOAD SWAP5 DUP6 MSTORE CALLER SWAP5 LOG4 PUSH1 0x1 DUP1 SSTORE DUP1 RETURN JUMPDEST PUSH2 0xF53 SWAP4 DUP2 MSTORE PUSH1 0x5 DUP14 MSTORE KECCAK256 PUSH2 0x1BC2 JUMP JUMPDEST DUP11 CODESIZE DUP16 DUP11 SWAP1 PUSH2 0xEBC JUMP JUMPDEST SWAP2 SWAP4 POP SWAP2 SWAP4 SWAP5 SWAP6 TIMESTAMP DUP11 GT ISZERO PUSH2 0xF78 JUMPI SWAP6 SWAP5 SWAP4 SWAP2 DUP11 SWAP4 SWAP2 PUSH2 0xE73 JUMP JUMPDEST DUP6 MLOAD PUSH3 0x461BCD PUSH1 0xE5 SHL DUP2 MSTORE SWAP1 DUP2 ADD DUP8 SWAP1 MSTORE PUSH1 0x1D PUSH1 0x24 DUP3 ADD MSTORE PUSH32 0x4578706972792074696D65206D75737420626520696E20667574757265000000 PUSH1 0x44 DUP3 ADD MSTORE PUSH1 0x64 SWAP1 REVERT JUMPDEST DUP5 MLOAD PUSH3 0x461BCD PUSH1 0xE5 SHL DUP2 MSTORE DUP1 DUP9 ADD DUP8 SWAP1 MSTORE PUSH1 0x1E PUSH1 0x24 DUP3 ADD MSTORE PUSH32 0x4E6F7420617574686F72697A656420746F206772616E74206163636573730000 PUSH1 0x44 DUP3 ADD MSTORE PUSH1 0x64 SWAP1 REVERT JUMPDEST POP DUP11 PUSH2 0xE63 JUMP JUMPDEST DUP4 MLOAD PUSH3 0x461BCD PUSH1 0xE5 SHL DUP2 MSTORE PUSH1 0x20 DUP2 DUP9 ADD MSTORE PUSH1 0x1B PUSH1 0x24 DUP3 ADD MSTORE PUSH32 0x43616E6E6F74206772616E742061636365737320746F2073656C660000000000 PUSH1 0x44 DUP3 ADD MSTORE PUSH1 0x64 SWAP1 REVERT JUMPDEST DUP4 MLOAD PUSH3 0x461BCD PUSH1 0xE5 SHL DUP2 MSTORE PUSH1 0x20 DUP2 DUP9 ADD MSTORE PUSH1 0x17 PUSH1 0x24 DUP3 ADD MSTORE PUSH32 0x496E76616C6964206772616E7465652061646472657373000000000000000000 PUSH1 0x44 DUP3 ADD MSTORE PUSH1 0x64 SWAP1 REVERT JUMPDEST DUP9 DUP1 REVERT JUMPDEST DUP8 DUP1 REVERT JUMPDEST DUP7 DUP1 REVERT JUMPDEST DUP4 DUP3 CALLVALUE PUSH2 0x502 JUMPI DUP1 PUSH1 0x3 NOT CALLDATASIZE ADD SLT PUSH2 0x502 JUMPI PUSH1 0x20 SWAP1 PUSH2 0x7C2 PUSH2 0x10B7 PUSH2 0x1761 JUMP JUMPDEST PUSH1 0x24 CALLDATALOAD SWAP1 PUSH2 0x19F4 JUMP JUMPDEST POP DUP3 SWAP1 CALLVALUE PUSH2 0x502 JUMPI DUP1 PUSH1 0x3 NOT CALLDATASIZE ADD SLT PUSH2 0x502 JUMPI PUSH2 0x10DB PUSH2 0x174B JUMP JUMPDEST SWAP1 CALLER PUSH1 0x1 PUSH1 0x1 PUSH1 0xA0 SHL SUB DUP4 AND SUB PUSH2 0x10F8 JUMPI POP PUSH2 0x53F SWAP2 SWAP3 CALLDATALOAD PUSH2 0x197F JUMP JUMPDEST MLOAD PUSH4 0x334BD919 PUSH1 0xE1 SHL DUP2 MSTORE DUP4 SWAP1 REVERT JUMPDEST POP CALLVALUE PUSH2 0x4C3 JUMPI DUP1 PUSH1 0x3 NOT CALLDATASIZE ADD SLT PUSH2 0x4C3 JUMPI PUSH2 0x53F SWAP2 CALLDATALOAD PUSH2 0x112A PUSH1 0x1 PUSH2 0x529 PUSH2 0x174B JUMP JUMPDEST PUSH2 0x1901 JUMP JUMPDEST POP SWAP1 CALLVALUE PUSH2 0x4C3 JUMPI DUP2 PUSH1 0x3 NOT CALLDATASIZE ADD SLT PUSH2 0x4C3 JUMPI DUP1 CALLDATALOAD SWAP1 PUSH8 0xFFFFFFFFFFFFFFFF DUP3 GT PUSH2 0x4BF JUMPI PUSH2 0x115F SWAP2 CALLDATASIZE SWAP2 ADD PUSH2 0x16EF JUMP JUMPDEST SWAP2 PUSH2 0x117B PUSH1 0x20 PUSH1 0x24 CALLDATALOAD SWAP5 DUP2 DUP6 MLOAD SWAP4 DUP3 DUP6 DUP1 SWAP5 MLOAD SWAP4 DUP5 SWAP3 ADD PUSH2 0x1777 JUMP JUMPDEST DUP2 ADD PUSH1 0x6 DUP2 MSTORE SUB ADD SWAP1 KECCAK256 SWAP1 DUP2 SLOAD DUP5 LT ISZERO PUSH2 0x5FE JUMPI POP PUSH1 0x20 SWAP3 PUSH2 0x769 SWAP2 PUSH2 0x179A JUMP JUMPDEST POP DUP3 CALLVALUE PUSH2 0x5FE JUMPI DUP2 PUSH1 0x3 NOT CALLDATASIZE ADD SLT PUSH2 0x5FE JUMPI POP PUSH2 0x7C2 PUSH1 0x20 SWAP3 PUSH2 0x11BD PUSH2 0x174B JUMP JUMPDEST SWAP1 CALLDATALOAD PUSH2 0x1CE1 JUMP JUMPDEST POP SWAP1 CALLVALUE PUSH2 0x4C3 JUMPI PUSH1 0x20 CALLDATASIZE PUSH1 0x3 NOT ADD SLT PUSH2 0x4C3 JUMPI DUP2 PUSH1 0x20 SWAP4 PUSH1 0x1 SWAP3 CALLDATALOAD DUP2 MSTORE DUP1 DUP6 MSTORE KECCAK256 ADD SLOAD SWAP1 MLOAD SWAP1 DUP2 MSTORE RETURN JUMPDEST POP CALLVALUE PUSH2 0x4C3 JUMPI DUP1 PUSH1 0x3 NOT CALLDATASIZE ADD SLT PUSH2 0x4C3 JUMPI PUSH8 0xFFFFFFFFFFFFFFFF SWAP2 DUP1 CALLDATALOAD DUP4 DUP2 GT PUSH2 0x4BB JUMPI PUSH2 0x121F SWAP1 CALLDATASIZE SWAP1 DUP4 ADD PUSH2 0x16EF JUMP JUMPDEST PUSH1 0x24 SWAP2 DUP3 CALLDATALOAD DUP6 DUP2 GT PUSH2 0x1093 JUMPI PUSH2 0x1238 SWAP1 CALLDATASIZE SWAP1 DUP4 ADD PUSH2 0x16EF JUMP JUMPDEST SWAP3 PUSH2 0x1241 PUSH2 0x1BE7 JUMP JUMPDEST DUP3 MLOAD ISZERO PUSH2 0x146E JUMPI DUP4 MLOAD ISZERO PUSH2 0x143D JUMPI DUP5 MLOAD SWAP6 DUP4 MLOAD SWAP2 PUSH1 0x20 SWAP8 DUP9 DUP2 DUP2 DUP9 ADD SWAP6 PUSH2 0x1269 DUP2 DUP4 DUP10 PUSH2 0x1777 JUMP JUMPDEST DUP2 ADD PUSH1 0x8 DUP2 MSTORE SUB ADD SWAP1 KECCAK256 CALLER DUP11 MSTORE DUP9 MSTORE PUSH1 0xFF PUSH1 0x3 DUP9 DUP12 KECCAK256 ADD SLOAD AND PUSH2 0x1409 JUMPI PUSH2 0x12AC DUP8 MLOAD DUP7 MLOAD PUSH2 0x1298 DUP2 DUP4 DUP9 PUSH2 0x1777 JUMP JUMPDEST DUP2 ADD SWAP1 PUSH1 0x6 DUP3 MSTORE DUP11 DUP2 CALLER SWAP4 SUB ADD SWAP1 KECCAK256 PUSH2 0x1BC2 JUMP JUMPDEST CALLER DUP10 MSTORE PUSH1 0x7 DUP9 MSTORE DUP7 DUP10 KECCAK256 DUP1 SLOAD SWAP1 PUSH1 0x1 PUSH1 0x40 SHL DUP3 LT ISZERO PUSH2 0x13F7 JUMPI SWAP1 PUSH2 0x12D5 SWAP2 PUSH1 0x1 DUP3 ADD DUP2 SSTORE PUSH2 0x179A JUMP JUMPDEST PUSH2 0x13E6 JUMPI DUP6 PUSH2 0x12E3 SWAP2 PUSH2 0x1EF6 JUMP JUMPDEST DUP7 MLOAD SWAP4 PUSH1 0x80 DUP6 ADD SWAP3 DUP4 GT DUP6 DUP5 LT OR PUSH2 0x13D5 JUMPI POP POP SWAP3 PUSH2 0x13B4 PUSH32 0x39E664301C7D6A710381EFAC98D5565F2F5D7CBB1CD7366F352467896A809B43 SWAP6 SWAP4 PUSH1 0x3 PUSH2 0x13B9 SWAP5 PUSH2 0x13CB SWAP8 DUP11 MSTORE CALLER DUP4 MSTORE DUP11 PUSH2 0x1398 DUP14 DUP13 DUP4 DUP8 ADD SWAP2 DUP12 DUP4 MSTORE DUP2 DUP9 ADD SWAP5 TIMESTAMP DUP7 MSTORE PUSH2 0x135F DUP2 PUSH1 0x60 DUP12 ADD SWAP9 PUSH1 0x1 DUP11 MSTORE DUP14 DUP7 MLOAD SWAP4 DUP5 SWAP3 DUP4 SWAP3 MLOAD SWAP3 DUP4 SWAP2 PUSH2 0x1777 JUMP JUMPDEST PUSH1 0x8 SWAP1 DUP3 ADD SWAP1 DUP2 MSTORE SUB ADD SWAP1 KECCAK256 CALLER DUP4 MSTORE SWAP1 MSTORE KECCAK256 SWAP6 MLOAD DUP7 SLOAD PUSH1 0x1 PUSH1 0x1 PUSH1 0xA0 SHL SUB NOT AND PUSH1 0x1 PUSH1 0x1 PUSH1 0xA0 SHL SUB SWAP2 SWAP1 SWAP2 AND OR DUP7 SSTORE MLOAD PUSH1 0x1 DUP7 ADD PUSH2 0x1EF6 JUMP JUMPDEST MLOAD PUSH1 0x2 DUP5 ADD SSTORE MLOAD ISZERO ISZERO SWAP2 ADD SWAP1 PUSH1 0xFF DUP1 NOT DUP4 SLOAD AND SWAP2 ISZERO ISZERO AND OR SWAP1 SSTORE JUMP JUMPDEST PUSH2 0x1FBE JUMP JUMPDEST SWAP4 MLOAD SWAP2 DUP3 SWAP2 DUP7 DUP4 MSTORE CALLER SWAP7 DUP4 ADD SWAP1 PUSH2 0x1898 JUMP JUMPDEST SUB SWAP1 LOG3 PUSH1 0x1 DUP1 SSTORE DUP1 RETURN JUMPDEST PUSH4 0x4E487B71 PUSH1 0xE0 SHL DUP11 MSTORE PUSH1 0x41 SWAP1 MSTORE DUP9 REVERT JUMPDEST POP PUSH4 0x4E487B71 PUSH1 0xE0 SHL DUP10 MSTORE DUP9 DUP5 MSTORE DUP9 REVERT JUMPDEST PUSH4 0x4E487B71 PUSH1 0xE0 SHL DUP12 MSTORE PUSH1 0x41 DUP7 MSTORE DUP3 DUP12 REVERT JUMPDEST DUP4 PUSH1 0x10 PUSH1 0x64 SWAP3 DUP11 DUP11 MLOAD SWAP4 PUSH3 0x461BCD PUSH1 0xE5 SHL DUP6 MSTORE DUP5 ADD MSTORE DUP3 ADD MSTORE PUSH16 0x20B63932B0B23C90309036B2B6B132B9 PUSH1 0x81 SHL PUSH1 0x44 DUP3 ADD MSTORE REVERT JUMPDEST SWAP1 PUSH1 0xC PUSH1 0x64 SWAP3 PUSH1 0x20 DUP8 MLOAD SWAP4 PUSH3 0x461BCD PUSH1 0xE5 SHL DUP6 MSTORE DUP5 ADD MSTORE DUP3 ADD MSTORE PUSH12 0x496E76616C696420726F6C65 PUSH1 0xA0 SHL PUSH1 0x44 DUP3 ADD MSTORE REVERT JUMPDEST SWAP1 PUSH1 0x17 PUSH1 0x64 SWAP3 PUSH1 0x20 DUP8 MLOAD SWAP4 PUSH3 0x461BCD PUSH1 0xE5 SHL DUP6 MSTORE DUP5 ADD MSTORE DUP3 ADD MSTORE PUSH32 0x496E76616C6964206F7267616E697A6174696F6E204944000000000000000000 PUSH1 0x44 DUP3 ADD MSTORE REVERT JUMPDEST POP CALLVALUE PUSH2 0x4C3 JUMPI PUSH1 0x20 SWAP2 DUP3 PUSH1 0x3 NOT CALLDATASIZE ADD SLT PUSH2 0x4BF JUMPI DUP1 CALLDATALOAD SWAP1 PUSH8 0xFFFFFFFFFFFFFFFF DUP3 GT PUSH2 0x4BB JUMPI PUSH2 0x14E7 DUP5 SWAP2 PUSH2 0x14F9 SWAP4 CALLDATASIZE SWAP2 ADD PUSH2 0x16EF JUMP JUMPDEST DUP2 DUP5 MLOAD SWAP4 DUP3 DUP6 DUP1 SWAP5 MLOAD SWAP4 DUP5 SWAP3 ADD PUSH2 0x1777 JUMP JUMPDEST DUP2 ADD PUSH1 0x6 DUP2 MSTORE SUB ADD SWAP1 KECCAK256 SWAP3 DUP2 MLOAD DUP1 SWAP4 DUP1 DUP7 SLOAD SWAP3 DUP4 DUP2 MSTORE ADD SWAP6 DUP4 MSTORE DUP1 DUP4 KECCAK256 SWAP3 SWAP1 JUMPDEST DUP3 DUP3 LT PUSH2 0x153B JUMPI PUSH2 0x5E8 DUP7 DUP7 PUSH2 0x1531 DUP3 DUP12 SUB DUP4 PUSH2 0x16CD JUMP JUMPDEST MLOAD SWAP2 DUP3 SWAP2 DUP3 PUSH2 0x1656 JUMP JUMPDEST DUP4 SLOAD PUSH1 0x1 PUSH1 0x1 PUSH1 0xA0 SHL SUB AND DUP8 MSTORE SWAP6 DUP7 ADD SWAP6 PUSH1 0x1 SWAP4 DUP5 ADD SWAP4 SWAP1 SWAP2 ADD SWAP1 PUSH2 0x1519 JUMP JUMPDEST DUP4 DUP3 CALLVALUE PUSH2 0x502 JUMPI DUP2 PUSH1 0x3 NOT CALLDATASIZE ADD SLT PUSH2 0x502 JUMPI PUSH1 0x20 SWAP1 MLOAD PUSH32 0x14823911F2DA1B49F045A0929A60B8C1F2A7FC8C06C7284CA3E8AB4E193A08C8 DUP2 MSTORE RETURN JUMPDEST POP CALLVALUE PUSH2 0x4C3 JUMPI PUSH1 0x20 SWAP2 DUP3 PUSH1 0x3 NOT CALLDATASIZE ADD SLT PUSH2 0x4BF JUMPI CALLDATALOAD DUP4 MSTORE PUSH1 0x5 DUP3 MSTORE DUP1 DUP4 KECCAK256 SWAP3 DUP2 MLOAD DUP1 SWAP4 DUP1 DUP7 SLOAD SWAP3 DUP4 DUP2 MSTORE ADD SWAP6 DUP4 MSTORE DUP1 DUP4 KECCAK256 SWAP3 SWAP1 JUMPDEST DUP3 DUP3 LT PUSH2 0x15E2 JUMPI PUSH2 0x5E8 DUP7 DUP7 PUSH2 0x1531 DUP3 DUP12 SUB DUP4 PUSH2 0x16CD JUMP JUMPDEST DUP4 SLOAD PUSH1 0x1 PUSH1 0x1 PUSH1 0xA0 SHL SUB AND DUP8 MSTORE SWAP6 DUP7 ADD SWAP6 PUSH1 0x1 SWAP4 DUP5 ADD SWAP4 SWAP1 SWAP2 ADD SWAP1 PUSH2 0x15CA JUMP JUMPDEST DUP5 SWAP1 DUP5 CALLVALUE PUSH2 0x4C3 JUMPI PUSH1 0x20 CALLDATASIZE PUSH1 0x3 NOT ADD SLT PUSH2 0x4C3 JUMPI CALLDATALOAD PUSH4 0xFFFFFFFF PUSH1 0xE0 SHL DUP2 AND DUP1 SWAP2 SUB PUSH2 0x4C3 JUMPI PUSH1 0x20 SWAP3 POP PUSH4 0x7965DB0B PUSH1 0xE0 SHL DUP2 EQ SWAP1 DUP2 ISZERO PUSH2 0x1645 JUMPI JUMPDEST POP ISZERO ISZERO DUP2 MSTORE RETURN JUMPDEST PUSH4 0x1FFC9A7 PUSH1 0xE0 SHL EQ SWAP1 POP DUP4 PUSH2 0x163E JUMP JUMPDEST PUSH1 0x20 SWAP1 DUP2 PUSH1 0x40 DUP2 DUP4 ADD SWAP3 DUP3 DUP2 MSTORE DUP6 MLOAD DUP1 SWAP5 MSTORE ADD SWAP4 ADD SWAP2 PUSH1 0x0 JUMPDEST DUP3 DUP2 LT PUSH2 0x167D JUMPI POP POP POP POP SWAP1 JUMP JUMPDEST DUP4 MLOAD PUSH1 0x1 PUSH1 0x1 PUSH1 0xA0 SHL SUB AND DUP6 MSTORE SWAP4 DUP2 ADD SWAP4 SWAP3 DUP2 ADD SWAP3 PUSH1 0x1 ADD PUSH2 0x166F JUMP JUMPDEST PUSH2 0x120 DUP2 ADD SWAP1 DUP2 LT PUSH8 0xFFFFFFFFFFFFFFFF DUP3 GT OR PUSH2 0x16B7 JUMPI PUSH1 0x40 MSTORE JUMP JUMPDEST PUSH4 0x4E487B71 PUSH1 0xE0 SHL PUSH1 0x0 MSTORE PUSH1 0x41 PUSH1 0x4 MSTORE PUSH1 0x24 PUSH1 0x0 REVERT JUMPDEST SWAP1 PUSH1 0x1F DUP1 NOT SWAP2 ADD AND DUP2 ADD SWAP1 DUP2 LT PUSH8 0xFFFFFFFFFFFFFFFF DUP3 GT OR PUSH2 0x16B7 JUMPI PUSH1 0x40 MSTORE JUMP JUMPDEST DUP2 PUSH1 0x1F DUP3 ADD SLT ISZERO PUSH2 0x1746 JUMPI DUP1 CALLDATALOAD SWAP1 PUSH8 0xFFFFFFFFFFFFFFFF DUP3 GT PUSH2 0x16B7 JUMPI PUSH1 0x40 MLOAD SWAP3 PUSH2 0x1724 PUSH1 0x1F DUP5 ADD PUSH1 0x1F NOT AND PUSH1 0x20 ADD DUP6 PUSH2 0x16CD JUMP JUMPDEST DUP3 DUP5 MSTORE PUSH1 0x20 DUP4 DUP4 ADD ADD GT PUSH2 0x1746 JUMPI DUP2 PUSH1 0x0 SWAP3 PUSH1 0x20 DUP1 SWAP4 ADD DUP4 DUP7 ADD CALLDATACOPY DUP4 ADD ADD MSTORE SWAP1 JUMP JUMPDEST PUSH1 0x0 DUP1 REVERT JUMPDEST PUSH1 0x24 CALLDATALOAD SWAP1 PUSH1 0x1 PUSH1 0x1 PUSH1 0xA0 SHL SUB DUP3 AND DUP3 SUB PUSH2 0x1746 JUMPI JUMP JUMPDEST PUSH1 0x4 CALLDATALOAD SWAP1 PUSH1 0x1 PUSH1 0x1 PUSH1 0xA0 SHL SUB DUP3 AND DUP3 SUB PUSH2 0x1746 JUMPI JUMP JUMPDEST PUSH1 0x0 JUMPDEST DUP4 DUP2 LT PUSH2 0x178A JUMPI POP POP PUSH1 0x0 SWAP2 ADD MSTORE JUMP JUMPDEST DUP2 DUP2 ADD MLOAD DUP4 DUP3 ADD MSTORE PUSH1 0x20 ADD PUSH2 0x177A JUMP JUMPDEST DUP1 SLOAD DUP3 LT ISZERO PUSH2 0x17B2 JUMPI PUSH1 0x0 MSTORE PUSH1 0x20 PUSH1 0x0 KECCAK256 ADD SWAP1 PUSH1 0x0 SWAP1 JUMP JUMPDEST PUSH4 0x4E487B71 PUSH1 0xE0 SHL PUSH1 0x0 MSTORE PUSH1 0x32 PUSH1 0x4 MSTORE PUSH1 0x24 PUSH1 0x0 REVERT JUMPDEST SWAP1 PUSH1 0x1 DUP3 DUP2 SHR SWAP3 AND DUP1 ISZERO PUSH2 0x17F8 JUMPI JUMPDEST PUSH1 0x20 DUP4 LT EQ PUSH2 0x17E2 JUMPI JUMP JUMPDEST PUSH4 0x4E487B71 PUSH1 0xE0 SHL PUSH1 0x0 MSTORE PUSH1 0x22 PUSH1 0x4 MSTORE PUSH1 0x24 PUSH1 0x0 REVERT JUMPDEST SWAP2 PUSH1 0x7F AND SWAP2 PUSH2 0x17D7 JUMP JUMPDEST SWAP1 PUSH1 0x0 SWAP3 SWAP2 DUP1 SLOAD SWAP2 PUSH2 0x1813 DUP4 PUSH2 0x17C8 JUMP JUMPDEST SWAP2 DUP3 DUP3 MSTORE PUSH1 0x1 SWAP4 DUP5 DUP2 AND SWAP1 DUP2 PUSH1 0x0 EQ PUSH2 0x1875 JUMPI POP PUSH1 0x1 EQ PUSH2 0x1835 JUMPI JUMPDEST POP POP POP POP JUMP JUMPDEST SWAP1 SWAP2 SWAP4 SWAP5 POP PUSH1 0x0 MSTORE PUSH1 0x20 SWAP3 DUP4 PUSH1 0x0 KECCAK256 SWAP3 DUP5 PUSH1 0x0 SWAP5 JUMPDEST DUP4 DUP7 LT PUSH2 0x1861 JUMPI POP POP POP POP ADD ADD SWAP1 CODESIZE DUP1 DUP1 DUP1 PUSH2 0x182F JUMP JUMPDEST DUP1 SLOAD DUP6 DUP8 ADD DUP4 ADD MSTORE SWAP5 ADD SWAP4 DUP6 SWAP1 DUP3 ADD PUSH2 0x184A JUMP JUMPDEST SWAP3 SWAP5 POP POP POP PUSH1 0x20 SWAP4 SWAP5 POP PUSH1 0xFF NOT AND DUP4 DUP4 ADD MSTORE ISZERO ISZERO PUSH1 0x5 SHL ADD ADD SWAP1 CODESIZE DUP1 DUP1 DUP1 PUSH2 0x182F JUMP JUMPDEST SWAP1 PUSH1 0x20 SWAP2 PUSH2 0x18B1 DUP2 MLOAD DUP1 SWAP3 DUP2 DUP6 MSTORE DUP6 DUP1 DUP7 ADD SWAP2 ADD PUSH2 0x1777 JUMP JUMPDEST PUSH1 0x1F ADD PUSH1 0x1F NOT AND ADD ADD SWAP1 JUMP JUMPDEST DUP1 PUSH1 0x0 MSTORE PUSH1 0x0 PUSH1 0x20 MSTORE PUSH1 0x40 PUSH1 0x0 KECCAK256 CALLER PUSH1 0x0 MSTORE PUSH1 0x20 MSTORE PUSH1 0xFF PUSH1 0x40 PUSH1 0x0 KECCAK256 SLOAD AND ISZERO PUSH2 0x18E3 JUMPI POP JUMP JUMPDEST PUSH1 0x44 SWAP1 PUSH1 0x40 MLOAD SWAP1 PUSH4 0xE2517D3F PUSH1 0xE0 SHL DUP3 MSTORE CALLER PUSH1 0x4 DUP4 ADD MSTORE PUSH1 0x24 DUP3 ADD MSTORE REVERT JUMPDEST SWAP1 PUSH1 0x0 SWAP2 DUP1 DUP4 MSTORE DUP3 PUSH1 0x20 MSTORE PUSH1 0x40 DUP4 KECCAK256 SWAP2 PUSH1 0x1 DUP1 PUSH1 0xA0 SHL SUB AND SWAP2 DUP3 DUP5 MSTORE PUSH1 0x20 MSTORE PUSH1 0xFF PUSH1 0x40 DUP5 KECCAK256 SLOAD AND ISZERO PUSH1 0x0 EQ PUSH2 0x197A JUMPI DUP1 DUP4 MSTORE DUP3 PUSH1 0x20 MSTORE PUSH1 0x40 DUP4 KECCAK256 DUP3 DUP5 MSTORE PUSH1 0x20 MSTORE PUSH1 0x40 DUP4 KECCAK256 PUSH1 0x1 PUSH1 0xFF NOT DUP3 SLOAD AND OR SWAP1 SSTORE PUSH32 0x2F8788117E7EFF1D82E926EC794901D17C78024A50270940304540A733656F0D CALLER SWAP4 DUP1 LOG4 PUSH1 0x1 SWAP1 JUMP JUMPDEST POP POP SWAP1 JUMP JUMPDEST SWAP1 PUSH1 0x0 SWAP2 DUP1 DUP4 MSTORE DUP3 PUSH1 0x20 MSTORE PUSH1 0x40 DUP4 KECCAK256 SWAP2 PUSH1 0x1 DUP1 PUSH1 0xA0 SHL SUB AND SWAP2 DUP3 DUP5 MSTORE PUSH1 0x20 MSTORE PUSH1 0xFF PUSH1 0x40 DUP5 KECCAK256 SLOAD AND PUSH1 0x0 EQ PUSH2 0x197A JUMPI DUP1 DUP4 MSTORE DUP3 PUSH1 0x20 MSTORE PUSH1 0x40 DUP4 KECCAK256 DUP3 DUP5 MSTORE PUSH1 0x20 MSTORE PUSH1 0x40 DUP4 KECCAK256 PUSH1 0xFF NOT DUP2 SLOAD AND SWAP1 SSTORE PUSH32 0xF6391F5C32D9C69D2A47EA670B442974B53935D1EDC7FD64EB21E047A839171B CALLER SWAP4 DUP1 LOG4 PUSH1 0x1 SWAP1 JUMP JUMPDEST PUSH1 0x0 SWAP2 DUP1 DUP4 MSTORE PUSH1 0x20 SWAP2 DUP4 DUP4 MSTORE PUSH1 0x40 SWAP1 DUP2 DUP6 KECCAK256 SWAP1 PUSH1 0x1 DUP1 PUSH1 0xA0 SHL SUB AND SWAP1 DUP2 DUP7 MSTORE DUP5 MSTORE PUSH1 0xFF SWAP3 DUP4 DUP4 DUP8 KECCAK256 SLOAD AND PUSH2 0x1B5B JUMPI DUP6 MSTORE PUSH1 0x2 DUP5 MSTORE DUP3 DUP3 DUP7 KECCAK256 SLOAD AND PUSH32 0xA49807205CE4D355092EF5A8A18F56E8913CF4A201FBE287825B095693C21775 DUP7 MSTORE DUP4 DUP4 DUP8 KECCAK256 SLOAD AND DUP2 LT DUP1 PUSH2 0x1BAB JUMPI JUMPDEST PUSH2 0x1B5B JUMPI PUSH32 0x71F3D55856E4058ED06EE057D79ADA615F65CDF5F9EE88181B914225088F834F DUP7 MSTORE PUSH1 0x2 DUP6 MSTORE DUP4 DUP4 DUP8 KECCAK256 SLOAD AND DUP2 LT DUP1 PUSH2 0x1B94 JUMPI JUMPDEST PUSH2 0x1B5B JUMPI PUSH32 0x59A1C48E5837AD7A7F3DCEDCBE129BF3249EC4FBF651FD4F5E2600EAD39FE2F5 DUP7 MSTORE PUSH1 0x2 DUP6 MSTORE DUP4 DUP4 DUP8 KECCAK256 SLOAD AND DUP2 LT DUP1 PUSH2 0x1B7D JUMPI JUMPDEST PUSH2 0x1B5B JUMPI PUSH32 0xCE23C3E399818CFEE81A7AB0880F714E53D7672B08DF0FA62F2843416E1EA09 DUP7 MSTORE PUSH1 0x2 DUP6 MSTORE DUP4 DUP4 DUP8 KECCAK256 SLOAD AND DUP2 LT DUP1 PUSH2 0x1B66 JUMPI JUMPDEST PUSH2 0x1B5B JUMPI PUSH1 0x0 DUP1 MLOAD PUSH1 0x20 PUSH2 0x2124 DUP4 CODECOPY DUP2 MLOAD SWAP2 MSTORE DUP7 MSTORE PUSH1 0x2 DUP6 MSTORE DUP4 DUP4 DUP8 KECCAK256 SLOAD AND GT SWAP4 DUP5 PUSH2 0x1B42 JUMPI JUMPDEST POP POP POP POP PUSH2 0x1B3C JUMPI SWAP1 JUMP JUMPDEST POP PUSH1 0x1 SWAP1 JUMP JUMPDEST DUP6 DUP2 MSTORE DUP3 DUP7 KECCAK256 SWAP2 DUP7 MSTORE MSTORE DUP4 KECCAK256 SLOAD AND SWAP1 POP CODESIZE DUP1 DUP1 DUP1 PUSH2 0x1B31 JUMP JUMPDEST POP POP POP POP POP POP PUSH1 0x1 SWAP1 JUMP JUMPDEST POP DUP6 DUP6 MSTORE DUP3 DUP7 KECCAK256 DUP3 DUP8 MSTORE DUP6 MSTORE DUP4 DUP4 DUP8 KECCAK256 SLOAD AND PUSH2 0x1B0A JUMP JUMPDEST POP DUP6 DUP6 MSTORE DUP3 DUP7 KECCAK256 DUP3 DUP8 MSTORE DUP6 MSTORE DUP4 DUP4 DUP8 KECCAK256 SLOAD AND PUSH2 0x1AD1 JUMP JUMPDEST POP DUP6 DUP6 MSTORE DUP3 DUP7 KECCAK256 DUP3 DUP8 MSTORE DUP6 MSTORE DUP4 DUP4 DUP8 KECCAK256 SLOAD AND PUSH2 0x1A98 JUMP JUMPDEST POP DUP6 DUP6 MSTORE DUP3 DUP7 KECCAK256 DUP3 DUP8 MSTORE DUP6 MSTORE DUP4 DUP4 DUP8 KECCAK256 SLOAD AND PUSH2 0x1A5F JUMP JUMPDEST SWAP1 DUP2 SLOAD SWAP2 PUSH1 0x1 PUSH1 0x40 SHL DUP4 LT ISZERO PUSH2 0x16B7 JUMPI DUP3 PUSH2 0x2B4 SWAP2 PUSH1 0x1 PUSH2 0x1BE5 SWAP6 ADD DUP2 SSTORE PUSH2 0x179A JUMP JUMPDEST JUMP JUMPDEST PUSH1 0x2 PUSH1 0x1 SLOAD EQ PUSH2 0x1BF8 JUMPI PUSH1 0x2 PUSH1 0x1 SSTORE JUMP JUMPDEST PUSH1 0x40 MLOAD PUSH4 0x3EE5AEB5 PUSH1 0xE0 SHL DUP2 MSTORE PUSH1 0x4 SWAP1 REVERT JUMPDEST SWAP1 PUSH1 0x0 SWAP2 DUP3 MSTORE PUSH1 0x4 PUSH1 0x20 MSTORE PUSH1 0x40 DUP3 KECCAK256 PUSH1 0x1 DUP1 PUSH1 0xA0 SHL SUB DUP1 SWAP3 AND DUP4 MSTORE PUSH1 0x20 MSTORE PUSH2 0x100 PUSH1 0x40 DUP4 KECCAK256 PUSH1 0x40 MLOAD SWAP3 PUSH2 0x1C3C DUP5 PUSH2 0x169A JUMP JUMPDEST DUP2 SLOAD DUP5 MSTORE DUP1 PUSH1 0x1 DUP4 ADD SLOAD AND PUSH1 0x20 DUP6 ADD MSTORE PUSH1 0x2 DUP3 ADD SLOAD AND PUSH1 0x40 DUP5 ADD MSTORE PUSH1 0x3 DUP2 ADD SLOAD SWAP3 DUP4 PUSH1 0x60 DUP3 ADD MSTORE PUSH1 0xFF PUSH1 0x6 PUSH1 0x4 DUP5 ADD SLOAD SWAP4 DUP3 DUP1 DUP7 AND ISZERO SWAP6 DUP7 ISZERO PUSH1 0x80 DUP8 ADD MSTORE DUP2 DUP2 PUSH1 0x8 SHR AND ISZERO ISZERO PUSH1 0xA0 DUP8 ADD MSTORE PUSH1 0x10 SHR AND ISZERO ISZERO PUSH1 0xC0 DUP6 ADD MSTORE PUSH1 0x5 DUP2 ADD SLOAD PUSH1 0xE0 DUP6 ADD MSTORE ADD SLOAD AND ISZERO SWAP1 DUP2 ISZERO SWAP4 DUP5 SWAP2 ADD MSTORE SWAP2 PUSH2 0x1CD9 JUMPI JUMPDEST POP PUSH2 0x1CD5 JUMPI DUP1 ISZERO ISZERO SWAP1 DUP2 PUSH2 0x1CCB JUMPI JUMPDEST POP PUSH2 0x1CC8 JUMPI POP PUSH1 0x1 SWAP1 JUMP JUMPDEST SWAP1 JUMP JUMPDEST SWAP1 POP TIMESTAMP GT CODESIZE PUSH2 0x1CBD JUMP JUMPDEST POP SWAP1 JUMP JUMPDEST SWAP1 POP CODESIZE PUSH2 0x1CAE JUMP JUMPDEST PUSH1 0x1 PUSH1 0x1 PUSH1 0xA0 SHL SUB SWAP2 DUP3 AND PUSH1 0x0 DUP2 DUP2 MSTORE PUSH32 0x1DA0B5176DFE03406AF5A6EED66CA01DDA9B45AC4DA671C3FA379CB93717EF81 PUSH1 0x20 MSTORE PUSH1 0x40 DUP1 DUP3 KECCAK256 SLOAD SWAP2 SWAP5 SWAP4 SWAP3 SWAP1 SWAP2 PUSH1 0xFF AND PUSH2 0x1DD5 JUMPI PUSH2 0x100 SWAP3 DUP6 MSTORE PUSH1 0x4 PUSH1 0x20 MSTORE DUP2 DUP6 KECCAK256 SWAP1 DUP6 MSTORE PUSH1 0x20 MSTORE DUP1 DUP5 KECCAK256 SWAP1 DUP1 MLOAD SWAP4 PUSH2 0x1D4C DUP6 PUSH2 0x169A JUMP JUMPDEST DUP3 SLOAD DUP6 MSTORE DUP1 PUSH1 0x1 DUP5 ADD SLOAD AND PUSH1 0x20 DUP7 ADD MSTORE PUSH1 0x2 DUP4 ADD SLOAD AND SWAP1 DUP5 ADD MSTORE PUSH1 0x3 DUP2 ADD SLOAD SWAP3 DUP4 PUSH1 0x60 DUP3 ADD MSTORE PUSH1 0xFF PUSH1 0x6 PUSH1 0x4 DUP5 ADD SLOAD SWAP4 DUP3 DUP6 AND ISZERO ISZERO PUSH1 0x80 DUP6 ADD MSTORE DUP3 DUP1 DUP7 PUSH1 0x8 SHR AND ISZERO SWAP6 DUP7 ISZERO PUSH1 0xA0 DUP8 ADD MSTORE PUSH1 0x10 SHR AND ISZERO ISZERO PUSH1 0xC0 DUP6 ADD MSTORE PUSH1 0x5 DUP2 ADD SLOAD PUSH1 0xE0 DUP6 ADD MSTORE ADD SLOAD AND ISZERO SWAP1 DUP2 ISZERO SWAP4 DUP5 SWAP2 ADD MSTORE SWAP2 PUSH2 0x1CD9 JUMPI POP PUSH2 0x1CD5 JUMPI DUP1 ISZERO ISZERO SWAP1 DUP2 PUSH2 0x1CCB JUMPI POP PUSH2 0x1CC8 JUMPI POP PUSH1 0x1 SWAP1 JUMP JUMPDEST POP POP POP POP POP PUSH1 0x1 SWAP1 JUMP JUMPDEST SWAP1 PUSH1 0x0 SWAP2 DUP3 MSTORE PUSH1 0x4 PUSH1 0x20 MSTORE PUSH1 0x40 DUP3 KECCAK256 PUSH1 0x1 DUP1 PUSH1 0xA0 SHL SUB DUP1 SWAP3 AND DUP4 MSTORE PUSH1 0x20 MSTORE PUSH2 0x100 PUSH1 0x40 DUP4 KECCAK256 PUSH1 0x40 MLOAD SWAP3 PUSH2 0x1E11 DUP5 PUSH2 0x169A JUMP JUMPDEST DUP2 SLOAD DUP5 MSTORE DUP1 PUSH1 0x1 DUP4 ADD SLOAD AND PUSH1 0x20 DUP6 ADD MSTORE PUSH1 0x2 DUP3 ADD SLOAD AND PUSH1 0x40 DUP5 ADD MSTORE PUSH1 0x3 DUP2 ADD SLOAD SWAP3 DUP4 PUSH1 0x60 DUP3 ADD MSTORE PUSH1 0xFF PUSH1 0x6 DUP2 PUSH1 0x4 DUP6 ADD SLOAD DUP2 DUP2 AND ISZERO ISZERO PUSH1 0x80 DUP7 ADD MSTORE DUP2 DUP2 PUSH1 0x8 SHR AND ISZERO ISZERO PUSH1 0xA0 DUP7 ADD MSTORE PUSH1 0x10 SHR AND ISZERO SWAP4 DUP5 ISZERO PUSH1 0xC0 DUP6 ADD MSTORE PUSH1 0x5 DUP2 ADD SLOAD PUSH1 0xE0 DUP6 ADD MSTORE ADD SLOAD AND ISZERO SWAP1 DUP2 ISZERO SWAP4 DUP5 SWAP2 ADD MSTORE SWAP2 PUSH2 0x1CD9 JUMPI POP PUSH2 0x1CD5 JUMPI DUP1 ISZERO ISZERO SWAP1 DUP2 PUSH2 0x1CCB JUMPI POP PUSH2 0x1CC8 JUMPI POP PUSH1 0x1 SWAP1 JUMP JUMPDEST DUP2 DUP2 LT PUSH2 0x1EA5 JUMPI POP POP JUMP JUMPDEST PUSH1 0x0 DUP2 SSTORE PUSH1 0x1 ADD PUSH2 0x1E9A JUMP JUMPDEST SWAP2 SWAP1 PUSH1 0x1F DUP2 GT PUSH2 0x1EC0 JUMPI POP POP POP JUMP JUMPDEST PUSH2 0x1BE5 SWAP3 PUSH1 0x0 MSTORE PUSH1 0x20 PUSH1 0x0 KECCAK256 SWAP1 PUSH1 0x20 PUSH1 0x1F DUP5 ADD PUSH1 0x5 SHR DUP4 ADD SWAP4 LT PUSH2 0x1EEC JUMPI JUMPDEST PUSH1 0x1F ADD PUSH1 0x5 SHR ADD SWAP1 PUSH2 0x1E9A JUMP JUMPDEST SWAP1 SWAP2 POP DUP2 SWAP1 PUSH2 0x1EDF JUMP JUMPDEST SWAP2 SWAP1 SWAP2 DUP3 MLOAD PUSH8 0xFFFFFFFFFFFFFFFF DUP2 GT PUSH2 0x16B7 JUMPI PUSH2 0x1F1E DUP2 PUSH2 0x1F18 DUP5 SLOAD PUSH2 0x17C8 JUMP JUMPDEST DUP5 PUSH2 0x1EB1 JUMP JUMPDEST PUSH1 0x20 DUP1 PUSH1 0x1F DUP4 GT PUSH1 0x1 EQ PUSH2 0x1F5A JUMPI POP DUP2 SWAP3 SWAP4 SWAP5 PUSH1 0x0 SWAP3 PUSH2 0x1F4F JUMPI JUMPDEST POP POP DUP2 PUSH1 0x1 SHL SWAP2 PUSH1 0x0 NOT SWAP1 PUSH1 0x3 SHL SHR NOT AND OR SWAP1 SSTORE JUMP JUMPDEST ADD MLOAD SWAP1 POP CODESIZE DUP1 PUSH2 0x1F39 JUMP JUMPDEST SWAP1 PUSH1 0x1F NOT DUP4 AND SWAP6 DUP5 PUSH1 0x0 MSTORE DUP3 PUSH1 0x0 KECCAK256 SWAP3 PUSH1 0x0 SWAP1 JUMPDEST DUP9 DUP3 LT PUSH2 0x1FA6 JUMPI POP POP DUP4 PUSH1 0x1 SWAP6 SWAP7 SWAP8 LT PUSH2 0x1F8D JUMPI JUMPDEST POP POP POP DUP2 SHL ADD SWAP1 SSTORE JUMP JUMPDEST ADD MLOAD PUSH1 0x0 NOT PUSH1 0xF8 DUP5 PUSH1 0x3 SHL AND SHR NOT AND SWAP1 SSTORE CODESIZE DUP1 DUP1 PUSH2 0x1F83 JUMP JUMPDEST DUP1 PUSH1 0x1 DUP6 SWAP7 DUP3 SWAP5 SWAP7 DUP7 ADD MLOAD DUP2 SSTORE ADD SWAP6 ADD SWAP4 ADD SWAP1 PUSH2 0x1F6E JUMP JUMPDEST PUSH2 0x1FD6 SWAP1 PUSH1 0x20 PUSH1 0x40 MLOAD SWAP3 DUP3 DUP5 DUP1 SWAP5 MLOAD SWAP4 DUP5 SWAP3 ADD PUSH2 0x1777 JUMP JUMPDEST DUP2 ADD SUB SWAP1 KECCAK256 SWAP1 JUMP JUMPDEST PUSH1 0x0 NOT DUP2 EQ PUSH2 0x1FED JUMPI PUSH1 0x1 ADD SWAP1 JUMP JUMPDEST PUSH4 0x4E487B71 PUSH1 0xE0 SHL PUSH1 0x0 MSTORE PUSH1 0x11 PUSH1 0x4 MSTORE PUSH1 0x24 PUSH1 0x0 REVERT JUMPDEST DUP1 SLOAD DUP1 ISZERO PUSH2 0x2030 JUMPI PUSH1 0x0 NOT ADD SWAP1 PUSH2 0x201A DUP3 DUP3 PUSH2 0x179A JUMP JUMPDEST DUP2 SLOAD SWAP1 PUSH1 0x1 DUP1 PUSH1 0xA0 SHL SUB SWAP1 PUSH1 0x3 SHL SHL NOT AND SWAP1 SSTORE SSTORE JUMP JUMPDEST PUSH4 0x4E487B71 PUSH1 0xE0 SHL PUSH1 0x0 MSTORE PUSH1 0x31 PUSH1 0x4 MSTORE PUSH1 0x24 PUSH1 0x0 REVERT JUMPDEST SWAP1 DUP1 DUP3 EQ PUSH2 0x211F JUMPI PUSH2 0x2058 DUP2 SLOAD PUSH2 0x17C8 JUMP JUMPDEST SWAP1 PUSH8 0xFFFFFFFFFFFFFFFF DUP3 GT PUSH2 0x16B7 JUMPI DUP2 SWAP1 PUSH2 0x207E DUP3 PUSH2 0x2078 DUP7 SLOAD PUSH2 0x17C8 JUMP JUMPDEST DUP7 PUSH2 0x1EB1 JUMP JUMPDEST PUSH1 0x0 SWAP1 PUSH1 0x1F DUP4 GT PUSH1 0x1 EQ PUSH2 0x20B4 JUMPI PUSH1 0x0 SWAP3 PUSH2 0x20A9 JUMPI POP POP DUP2 PUSH1 0x1 SHL SWAP2 PUSH1 0x0 NOT SWAP1 PUSH1 0x3 SHL SHR NOT AND OR SWAP1 SSTORE JUMP JUMPDEST ADD SLOAD SWAP1 POP CODESIZE DUP1 PUSH2 0x1F39 JUMP JUMPDEST DUP2 MSTORE PUSH1 0x20 DUP1 DUP3 KECCAK256 DUP6 DUP4 MSTORE DUP2 DUP4 KECCAK256 SWAP4 POP SWAP1 PUSH1 0x1F NOT DUP6 AND SWAP1 DUP4 SWAP1 JUMPDEST DUP3 DUP3 LT PUSH2 0x2106 JUMPI POP POP SWAP1 DUP5 PUSH1 0x1 SWAP6 SWAP5 SWAP4 SWAP3 LT PUSH2 0x20ED JUMPI POP POP POP DUP2 SHL ADD SWAP1 SSTORE JUMP JUMPDEST ADD SLOAD PUSH1 0x0 NOT PUSH1 0xF8 DUP5 PUSH1 0x3 SHL AND SHR NOT AND SWAP1 SSTORE CODESIZE DUP1 DUP1 PUSH2 0x1F83 JUMP JUMPDEST DUP5 SWAP6 DUP2 SWAP3 SWAP6 DUP6 ADD SLOAD DUP2 SSTORE PUSH1 0x1 DUP1 SWAP2 ADD SWAP7 ADD SWAP5 ADD SWAP1 PUSH2 0x20CD JUMP JUMPDEST POP POP JUMP INVALID SSTORE KECCAK256 0xD1 ISZERO 0xCE SELFDESTRUCT 0xB8 DUP16 MUL BALANCE 0x5D PUSH5 0x6CD7618D18 MUL 0x4F PUSH6 0x7AFE79486524 RETURNDATACOPY 0xD5 0xB7 PUSH0 0xB0 0x4F LOG2 PUSH5 0x6970667358 0x22 SLT KECCAK256 SWAP8 0xAE 0x21 0xF7 0xE6 PUSH20 0xF17BA5FB91C5CFB880901792015B7BCCA5B73707 0xEB SELFDESTRUCT 0x5C 0xB0 0xEC CALLDATASIZE PUSH5 0x736F6C6343 STOP ADDMOD EQ STOP CALLER 0x2F DUP8 DUP9 GT PUSH31 0x7EFF1D82E926EC794901D17C78024A50270940304540A733656F0DA4980720 0x5C 0xE4 0xD3 SSTORE MULMOD 0x2E CREATE2 0xA8 LOG1 DUP16 JUMP 0xE8 SWAP2 EXTCODECOPY DELEGATECALL LOG2 ADD 0xFB 0xE2 DUP8 DUP3 JUMPDEST MULMOD JUMP SWAP4 0xC2 OR PUSH22 0x0 "},"methodIdentifiers":{"ADMIN_ROLE()":"75b238fc","AUDITOR_ROLE()":"6e1d616e","DEFAULT_ADMIN_ROLE()":"a217fddf","DOCUMENT_MANAGER_ROLE()":"cffafec2","MODERATOR_ROLE()":"797669c9","USER_ROLE()":"13119161","VERIFIER_ROLE()":"e7705db6","documentAccess(uint256,address)":"58cd8ca5","documentAccessList(uint256,uint256)":"a260d07f","getAccessPermission(uint256,address)":"4db65851","getDocumentAccessList(uint256)":"0b6abe8b","getOrganizationMembers(string)":"14ebc2d8","getRoleAdmin(bytes32)":"248a9ca3","getUserOrganizations(address)":"aa097ef0","grantDocumentAccess(uint256,address,uint256,bool,bool,bool)":"3fef6a56","grantRole(bytes32,address)":"2f2ff15d","hasReadAccess(uint256,address)":"69366e57","hasRole(bytes32,address)":"91d14854","hasRoleOrHigher(address,bytes32)":"39825cf2","hasTransferAccess(uint256,address)":"969772bc","hasVerifyAccess(uint256,address)":"26efadd7","joinOrganization(string,string)":"1bc5a1dc","leaveOrganization(string)":"f147add0","orgMemberDetails(string,address)":"856e0019","organizationMembers(string,uint256)":"2859171a","renounceRole(bytes32,address)":"36568abe","revokeDocumentAccess(uint256,address)":"6b0cdf1d","revokeRole(bytes32,address)":"d547741f","roleHierarchy(bytes32)":"d4ee1543","supportsInterface(bytes4)":"01ffc9a7","userOrganizations(address,uint256)":"d4b5bf56","userRoles(address)":"74d5e100"}}}}}