{
  "_format": "hh-sol-artifact-1",
  "contractName": "SealGuardMultiSig",
  "sourceName": "contracts/SealGuardMultiSig.sol",
  "abi": [
    {
      "inputs": [
        {
          "internalType": "address",
          "name": "_accessControl",
          "type": "address"
        },
        {
          "internalType": "address",
          "name": "_registry",
          "type": "address"
        }
      ],
      "stateMutability": "nonpayable",
      "type": "constructor"
    },
    {
      "inputs": [],
      "name": "ReentrancyGuardReentrantCall",
      "type": "error"
    },
    {
      "anonymous": false,
      "inputs": [
        {
          "indexed": true,
          "internalType": "bytes32",
          "name": "documentId",
          "type": "bytes32"
        },
        {
          "indexed": false,
          "internalType": "uint256",
          "name": "minSigners",
          "type": "uint256"
        },
        {
          "indexed": false,
          "internalType": "uint256",
          "name": "approvalThreshold",
          "type": "uint256"
        }
      ],
      "name": "ConfigUpdated",
      "type": "event"
    },
    {
      "anonymous": false,
      "inputs": [
        {
          "indexed": true,
          "internalType": "uint256",
          "name": "proposalId",
          "type": "uint256"
        },
        {
          "indexed": true,
          "internalType": "address",
          "name": "approver",
          "type": "address"
        },
        {
          "indexed": false,
          "internalType": "uint256",
          "name": "currentApprovals",
          "type": "uint256"
        },
        {
          "indexed": false,
          "internalType": "uint256",
          "name": "requiredApprovals",
          "type": "uint256"
        }
      ],
      "name": "ProposalApproved",
      "type": "event"
    },
    {
      "anonymous": false,
      "inputs": [
        {
          "indexed": true,
          "internalType": "uint256",
          "name": "proposalId",
          "type": "uint256"
        },
        {
          "indexed": true,
          "internalType": "enum SealGuardMultiSig.OperationType",
          "name": "operationType",
          "type": "uint8"
        },
        {
          "indexed": true,
          "internalType": "bytes32",
          "name": "documentId",
          "type": "bytes32"
        },
        {
          "indexed": false,
          "internalType": "address",
          "name": "proposer",
          "type": "address"
        },
        {
          "indexed": false,
          "internalType": "uint256",
          "name": "requiredApprovals",
          "type": "uint256"
        }
      ],
      "name": "ProposalCreated",
      "type": "event"
    },
    {
      "anonymous": false,
      "inputs": [
        {
          "indexed": true,
          "internalType": "uint256",
          "name": "proposalId",
          "type": "uint256"
        },
        {
          "indexed": true,
          "internalType": "enum SealGuardMultiSig.OperationType",
          "name": "operationType",
          "type": "uint8"
        },
        {
          "indexed": true,
          "internalType": "address",
          "name": "executor",
          "type": "address"
        }
      ],
      "name": "ProposalExecuted",
      "type": "event"
    },
    {
      "anonymous": false,
      "inputs": [
        {
          "indexed": true,
          "internalType": "uint256",
          "name": "proposalId",
          "type": "uint256"
        },
        {
          "indexed": true,
          "internalType": "address",
          "name": "rejector",
          "type": "address"
        },
        {
          "indexed": false,
          "internalType": "string",
          "name": "reason",
          "type": "string"
        }
      ],
      "name": "ProposalRejected",
      "type": "event"
    },
    {
      "inputs": [],
      "name": "accessControl",
      "outputs": [
        {
          "internalType": "contract SealGuardAccessControl",
          "name": "",
          "type": "address"
        }
      ],
      "stateMutability": "view",
      "type": "function"
    },
    {
      "inputs": [
        {
          "internalType": "uint256",
          "name": "proposalId",
          "type": "uint256"
        }
      ],
      "name": "approveProposal",
      "outputs": [],
      "stateMutability": "nonpayable",
      "type": "function"
    },
    {
      "inputs": [
        {
          "internalType": "uint256",
          "name": "proposalId",
          "type": "uint256"
        }
      ],
      "name": "cancelProposal",
      "outputs": [],
      "stateMutability": "nonpayable",
      "type": "function"
    },
    {
      "inputs": [
        {
          "internalType": "uint256",
          "name": "documentId",
          "type": "uint256"
        }
      ],
      "name": "createArchiveProposal",
      "outputs": [
        {
          "internalType": "uint256",
          "name": "",
          "type": "uint256"
        }
      ],
      "stateMutability": "nonpayable",
      "type": "function"
    },
    {
      "inputs": [
        {
          "internalType": "uint256",
          "name": "documentId",
          "type": "uint256"
        },
        {
          "internalType": "address",
          "name": "newOwner",
          "type": "address"
        }
      ],
      "name": "createOwnershipTransferProposal",
      "outputs": [
        {
          "internalType": "uint256",
          "name": "",
          "type": "uint256"
        }
      ],
      "stateMutability": "nonpayable",
      "type": "function"
    },
    {
      "inputs": [
        {
          "internalType": "enum SealGuardMultiSig.OperationType",
          "name": "operationType",
          "type": "uint8"
        },
        {
          "internalType": "bytes32",
          "name": "documentId",
          "type": "bytes32"
        },
        {
          "internalType": "address[]",
          "name": "requiredSigners",
          "type": "address[]"
        },
        {
          "internalType": "bytes",
          "name": "proposalData",
          "type": "bytes"
        },
        {
          "internalType": "string",
          "name": "reason",
          "type": "string"
        }
      ],
      "name": "createProposal",
      "outputs": [
        {
          "internalType": "uint256",
          "name": "",
          "type": "uint256"
        }
      ],
      "stateMutability": "nonpayable",
      "type": "function"
    },
    {
      "inputs": [
        {
          "internalType": "uint256",
          "name": "documentId",
          "type": "uint256"
        },
        {
          "internalType": "bytes32",
          "name": "proofHash",
          "type": "bytes32"
        },
        {
          "internalType": "string",
          "name": "proofData",
          "type": "string"
        },
        {
          "internalType": "bool",
          "name": "isValid",
          "type": "bool"
        }
      ],
      "name": "createVerificationProposal",
      "outputs": [
        {
          "internalType": "uint256",
          "name": "",
          "type": "uint256"
        }
      ],
      "stateMutability": "nonpayable",
      "type": "function"
    },
    {
      "inputs": [],
      "name": "defaultConfig",
      "outputs": [
        {
          "internalType": "uint256",
          "name": "minSigners",
          "type": "uint256"
        },
        {
          "internalType": "uint256",
          "name": "maxSigners",
          "type": "uint256"
        },
        {
          "internalType": "uint256",
          "name": "approvalThreshold",
          "type": "uint256"
        },
        {
          "internalType": "uint256",
          "name": "proposalExpiry",
          "type": "uint256"
        },
        {
          "internalType": "bool",
          "name": "requiresUnanimous",
          "type": "bool"
        }
      ],
      "stateMutability": "view",
      "type": "function"
    },
    {
      "inputs": [
        {
          "internalType": "bytes32",
          "name": "",
          "type": "bytes32"
        }
      ],
      "name": "documentConfigs",
      "outputs": [
        {
          "internalType": "uint256",
          "name": "minSigners",
          "type": "uint256"
        },
        {
          "internalType": "uint256",
          "name": "maxSigners",
          "type": "uint256"
        },
        {
          "internalType": "uint256",
          "name": "approvalThreshold",
          "type": "uint256"
        },
        {
          "internalType": "uint256",
          "name": "proposalExpiry",
          "type": "uint256"
        },
        {
          "internalType": "bool",
          "name": "requiresUnanimous",
          "type": "bool"
        }
      ],
      "stateMutability": "view",
      "type": "function"
    },
    {
      "inputs": [
        {
          "internalType": "bytes32",
          "name": "",
          "type": "bytes32"
        },
        {
          "internalType": "uint256",
          "name": "",
          "type": "uint256"
        }
      ],
      "name": "documentProposals",
      "outputs": [
        {
          "internalType": "uint256",
          "name": "",
          "type": "uint256"
        }
      ],
      "stateMutability": "view",
      "type": "function"
    },
    {
      "inputs": [
        {
          "internalType": "uint256[]",
          "name": "proposalIds",
          "type": "uint256[]"
        }
      ],
      "name": "expireProposals",
      "outputs": [],
      "stateMutability": "nonpayable",
      "type": "function"
    },
    {
      "inputs": [
        {
          "internalType": "uint256",
          "name": "documentId",
          "type": "uint256"
        }
      ],
      "name": "getDocumentProposals",
      "outputs": [
        {
          "internalType": "uint256[]",
          "name": "",
          "type": "uint256[]"
        }
      ],
      "stateMutability": "view",
      "type": "function"
    },
    {
      "inputs": [
        {
          "internalType": "bytes32",
          "name": "documentId",
          "type": "bytes32"
        }
      ],
      "name": "getDocumentProposals",
      "outputs": [
        {
          "internalType": "uint256[]",
          "name": "",
          "type": "uint256[]"
        }
      ],
      "stateMutability": "view",
      "type": "function"
    },
    {
      "inputs": [
        {
          "internalType": "uint256",
          "name": "proposalId",
          "type": "uint256"
        }
      ],
      "name": "getProposal",
      "outputs": [
        {
          "internalType": "uint256",
          "name": "",
          "type": "uint256"
        },
        {
          "internalType": "enum SealGuardMultiSig.OperationType",
          "name": "",
          "type": "uint8"
        },
        {
          "internalType": "bytes32",
          "name": "",
          "type": "bytes32"
        },
        {
          "internalType": "address",
          "name": "",
          "type": "address"
        },
        {
          "internalType": "address[]",
          "name": "",
          "type": "address[]"
        },
        {
          "internalType": "address[]",
          "name": "",
          "type": "address[]"
        },
        {
          "internalType": "uint256",
          "name": "",
          "type": "uint256"
        },
        {
          "internalType": "uint256",
          "name": "",
          "type": "uint256"
        },
        {
          "internalType": "uint256",
          "name": "",
          "type": "uint256"
        },
        {
          "internalType": "uint256",
          "name": "",
          "type": "uint256"
        },
        {
          "internalType": "enum SealGuardMultiSig.ProposalState",
          "name": "",
          "type": "uint8"
        },
        {
          "internalType": "string",
          "name": "",
          "type": "string"
        }
      ],
      "stateMutability": "view",
      "type": "function"
    },
    {
      "inputs": [],
      "name": "getTotalProposals",
      "outputs": [
        {
          "internalType": "uint256",
          "name": "",
          "type": "uint256"
        }
      ],
      "stateMutability": "view",
      "type": "function"
    },
    {
      "inputs": [
        {
          "internalType": "address",
          "name": "user",
          "type": "address"
        }
      ],
      "name": "getUserProposals",
      "outputs": [
        {
          "internalType": "uint256[]",
          "name": "",
          "type": "uint256[]"
        }
      ],
      "stateMutability": "view",
      "type": "function"
    },
    {
      "inputs": [
        {
          "internalType": "uint256",
          "name": "proposalId",
          "type": "uint256"
        },
        {
          "internalType": "address",
          "name": "signer",
          "type": "address"
        }
      ],
      "name": "hasApproved",
      "outputs": [
        {
          "internalType": "bool",
          "name": "",
          "type": "bool"
        }
      ],
      "stateMutability": "view",
      "type": "function"
    },
    {
      "inputs": [
        {
          "internalType": "enum SealGuardMultiSig.OperationType",
          "name": "",
          "type": "uint8"
        },
        {
          "internalType": "uint256",
          "name": "",
          "type": "uint256"
        }
      ],
      "name": "operationProposals",
      "outputs": [
        {
          "internalType": "uint256",
          "name": "",
          "type": "uint256"
        }
      ],
      "stateMutability": "view",
      "type": "function"
    },
    {
      "inputs": [
        {
          "internalType": "uint256",
          "name": "",
          "type": "uint256"
        }
      ],
      "name": "proposals",
      "outputs": [
        {
          "internalType": "uint256",
          "name": "id",
          "type": "uint256"
        },
        {
          "internalType": "enum SealGuardMultiSig.OperationType",
          "name": "operationType",
          "type": "uint8"
        },
        {
          "internalType": "bytes32",
          "name": "documentId",
          "type": "bytes32"
        },
        {
          "internalType": "address",
          "name": "proposer",
          "type": "address"
        },
        {
          "internalType": "uint256",
          "name": "requiredApprovals",
          "type": "uint256"
        },
        {
          "internalType": "uint256",
          "name": "currentApprovals",
          "type": "uint256"
        },
        {
          "internalType": "uint256",
          "name": "createdAt",
          "type": "uint256"
        },
        {
          "internalType": "uint256",
          "name": "expiresAt",
          "type": "uint256"
        },
        {
          "internalType": "enum SealGuardMultiSig.ProposalState",
          "name": "state",
          "type": "uint8"
        },
        {
          "internalType": "bytes",
          "name": "proposalData",
          "type": "bytes"
        },
        {
          "internalType": "string",
          "name": "reason",
          "type": "string"
        }
      ],
      "stateMutability": "view",
      "type": "function"
    },
    {
      "inputs": [],
      "name": "registry",
      "outputs": [
        {
          "internalType": "contract SealGuardRegistry",
          "name": "",
          "type": "address"
        }
      ],
      "stateMutability": "view",
      "type": "function"
    },
    {
      "inputs": [
        {
          "internalType": "uint256",
          "name": "proposalId",
          "type": "uint256"
        },
        {
          "internalType": "string",
          "name": "rejectionReason",
          "type": "string"
        }
      ],
      "name": "rejectProposal",
      "outputs": [],
      "stateMutability": "nonpayable",
      "type": "function"
    },
    {
      "inputs": [
        {
          "internalType": "string",
          "name": "",
          "type": "string"
        }
      ],
      "name": "typeConfigs",
      "outputs": [
        {
          "internalType": "uint256",
          "name": "minSigners",
          "type": "uint256"
        },
        {
          "internalType": "uint256",
          "name": "maxSigners",
          "type": "uint256"
        },
        {
          "internalType": "uint256",
          "name": "approvalThreshold",
          "type": "uint256"
        },
        {
          "internalType": "uint256",
          "name": "proposalExpiry",
          "type": "uint256"
        },
        {
          "internalType": "bool",
          "name": "requiresUnanimous",
          "type": "bool"
        }
      ],
      "stateMutability": "view",
      "type": "function"
    },
    {
      "inputs": [
        {
          "internalType": "string",
          "name": "documentType",
          "type": "string"
        },
        {
          "internalType": "uint256",
          "name": "minSigners",
          "type": "uint256"
        },
        {
          "internalType": "uint256",
          "name": "maxSigners",
          "type": "uint256"
        },
        {
          "internalType": "uint256",
          "name": "approvalThreshold",
          "type": "uint256"
        },
        {
          "internalType": "uint256",
          "name": "proposalExpiry",
          "type": "uint256"
        },
        {
          "internalType": "bool",
          "name": "requiresUnanimous",
          "type": "bool"
        }
      ],
      "name": "updateTypeConfig",
      "outputs": [],
      "stateMutability": "nonpayable",
      "type": "function"
    },
    {
      "inputs": [
        {
          "internalType": "address",
          "name": "",
          "type": "address"
        },
        {
          "internalType": "uint256",
          "name": "",
          "type": "uint256"
        }
      ],
      "name": "userProposals",
      "outputs": [
        {
          "internalType": "uint256",
          "name": "",
          "type": "uint256"
        }
      ],
      "stateMutability": "view",
      "type": "function"
    }
  ],
  "bytecode": "0x608034620000b557601f6200331838819003918201601f19168301916001600160401b03831184841017620000ba578084926040948552833981010312620000b5576200005a60206200005283620000d0565b9201620000d0565b600160005560018060a01b03908160018060a01b03199316836001541617600155169060025416176002556002600755600a600855603c60095562093a80600a5560ff19600b5416600b556040516132329081620000e68239f35b600080fd5b634e487b7160e01b600052604160045260246000fd5b51906001600160a01b0382168203620000b55756fe608080604052600436101561001357600080fd5b600090813560e01c908163013cf08b146127bb575080630e92fbd41461277257806313007d551461279257806313a48787146127725780631499d593146122f257806316c278bc14611e205780631a5007dd14611e025780631b31527f14611dba5780632358d5a814611d58578063352fde5214611c4b5780633c34cf4f146116b25780636d9c20d71461167857806378ef1138146115f95780637b103999146115d0578063952a5be71461137e57806397d3f08f1461131c57806398951b5614610cf55780639e09ed5f14610cab578063a46bf81f14610c50578063ae51986014610bb1578063b1747844146109e4578063bb2940b61461042c578063c7f758a8146102fb5763e0a8f6f51461012957600080fd5b346102f8576020806003193601126102f4576004358083526004825261015460408420541515612ccb565b8083526004825261017860ff600b6040862001541661017281612a06565b15612d17565b825260048152604082206003810154909190336001600160a01b0391821614908115610205575b50156101b75750600b01805460ff1916600417905580f35b6084906040519062461bcd60e51b82526004820152602160248201527f4f6e6c792070726f706f736572206f722061646d696e2063616e2063616e63656044820152601b60fa1b6064820152fd5b600154604051631d6c8e3f60e21b8152911691508281600481855afa80156102e957839186916102b3575b50604051631cc12e7960e11b815233600482015260248101919091529182908180604481015b03915afa9081156102a857849161026f575b503861019f565b90508181813d83116102a1575b61028681836129e5565b8101031261029d5761029790612bd6565b38610268565b8380fd5b503d61027c565b6040513d86823e3d90fd5b82819392503d83116102e2575b6102ca81836129e5565b810103126102dd57518290610256610230565b600080fd5b503d6102c0565b6040513d87823e3d90fd5b5080fd5b80fd5b50346102f85760203660031901126102f85760043580825260046020526040822054151561032890612ccb565b81526004602052604090208054600182015460ff16916002810154600160a01b600190036003830154166007830154916008840154600985015490600a86015492600b87015460ff16946004880161037f90613050565b9061038c60058a01613050565b9260405180600d819c01906103a0916128eb565b036103ab908b6129e5565b6040519b8c9b8c526103bc81612a06565b60208c015260408b015260608a01526101808060808b015289016103df91612b99565b88810360a08a01526103f091612b99565b9460c088015260e087015261010086015261012085015261041081612a06565b61014084015282810361016084015261042891612a49565b0390f35b50346102f85760403660031901126102f857610446612b2f565b6040519060018060a01b0316602082015260208152610464816129af565b61046f600435613130565b6040519161047c836129ca565b602483527f446f63756d656e74206f776e657273686970207472616e736665722070726f706020840152631bdcd85b60e21b604084015260018060a01b03600154166040516373b82edb60e11b8152602081600481855afa9081156109a4576000916109b0575b50604051631cc12e7960e11b815233600482015260248101919091529060209082908180604481015b03915afa9081156109a45760009161096a575b50156109255761052d612ca8565b60028251106108e057600a82511161089b5761054a600354612be3565b918260035561055a600435612efa565b9161056683835161301b565b9284600052600460205260406000209285845560018401600160ff19825416179055600435600285015560038401336001600160601b0360a01b8254161790558051906001600160401b0382116107ca57600160401b82116107ca57602090600486015483600488015580841061087b575b500160048501600052602060002060005b83811061085e575050505060606106159185600786015560006008860155426009860155015142612c1f565b600a830155600b8201805460ff191690558051906001600160401b0382116107ca5761065182610648600c8601546128b1565b600c8601612c2c565b602090601f83116001146107eb57600d939291600091836107e0575b50508160011b916000199060031b1c191617600c8201555b0183516001600160401b0381116107ca57806020956106ae826106a886546128b1565b86612c2c565b8690601f83116001146107665760009261075b575b50508160011b916000199060031b1c19161790555b33600052600c83526106ee826040600020612c73565b60043561073e575b6001600052600e835261070d826040600020612c73565b60405190338252838201526001826000805160206131dd833981519152604060043594a46001600055604051908152f35b600435600052600d8352610756826040600020612c73565b6106f6565b0151905086806106c3565b60008581528881209350601f198516905b8181106107b3575090846001959493921061079a575b505050811b0190556106d8565b015160001960f88460031b161c1916905586808061078d565b929389600181928786015181550195019301610777565b634e487b7160e01b600052604160045260246000fd5b01519050878061066d565b90600c840160005260206000209160005b601f19851681106108465750918391600193600d9695601f1981161061082d575b505050811b01600c820155610685565b015160001960f88460031b161c1916905587808061081d565b919260206001819286850151815501940192016107fc565b82516001600160a01b0316818301556020909201916001016105e9565b610895906004880160005284846000209182019101612c08565b896105d8565b60405162461bcd60e51b815260206004820152601a60248201527f4d6178696d756d203130207369676e65727320616c6c6f7765640000000000006044820152606490fd5b60405162461bcd60e51b815260206004820152601a60248201527f4d696e696d756d2032207369676e6572732072657175697265640000000000006044820152606490fd5b60405162461bcd60e51b815260206004820152601860248201527f496e73756666696369656e74207065726d697373696f6e7300000000000000006044820152606490fd5b906020823d60201161099c575b81610984602093836129e5565b810103126102f8575061099690612bd6565b8461051f565b3d9150610977565b6040513d6000823e3d90fd5b906020823d6020116109dc575b816109ca602093836129e5565b810103126102f857505161050c6104e3565b3d91506109bd565b50346102f85760c03660031901126102f8576004356001600160401b0381116102f457610a15903690600401612afb565b60a435908115158092036102dd57600154604051631d6c8e3f60e21b8152602092916001600160a01b0316908381600481855afa8015610ba65784918791610b75575b50604051631cc12e7960e11b815233600482015260248101919091529182908180604481015b03915afa9081156102e9578591610b3c575b5015610ae85781610ab09160049360405193828580945193849201612a26565b810160068152030190206024358155604435600182015560643560028201556084356003820155019060ff8019835416911617905580f35b60405162461bcd60e51b815260048101839052602660248201527f4f6e6c792061646d696e2063616e20757064617465206d756c74692d73696720604482015265636f6e66696760d01b6064820152608490fd5b90508281813d8311610b6e575b610b5381836129e5565b81010312610b6a57610b6490612bd6565b38610a90565b8480fd5b503d610b49565b82819392503d8311610b9f575b610b8c81836129e5565b810103126102dd57518390610a7e610a58565b503d610b82565b6040513d88823e3d90fd5b50346102f85760203660031901126102f857600435906001600160401b0382116102f857610bfa6020610be73660048601612afb565b8160405193828580945193849201612a26565b81016006815203019020805461042860018301549260028101549060ff6004600383015492015416916040519586958693909594919260809360a086019786526020860152604085015260608401521515910152565b50346102f85760403660031901126102f8576004359060068210156102f85760243591610c7c81612a06565b8152600e602052604081209081548310156102f8576020610c9d8484612b45565b90546040519160031b1c8152f35b50346102f857806003193601126102f857600754600854600954600a54600b5460408051958652602086019490945292840191909152606083015260ff161515608082015260a090f35b50346102f8576020806003193601126102f45760043580835260048252610d2160408420541515612ccb565b80835260048252610d3f60ff600b6040862001541661017281612a06565b610d47612ca8565b8083526004825260408320600a81015442116112e0578384600483018054915b8281106112a2575b5050501561124d576006810133855280845260ff604086205416611208573385528352604084209260019360ff1990858282541617905560058301805490600160401b8210156111f45790610dc8918782018155612b45565b939080549460031b60018060a01b03958633831b921b191617905560088101610df18154612be3565b8091556007820154906040518181528286820152877f5064fb9bf50f615c47cc24c49119ba31d2c1a83ad6aed3b226cd42005524b7f460403393a31015610e3a575b8686815580f35b600b018582825416179055838652600482528560408120938685019360ff855416610e6481612a06565b8061100057509060405191610e8783610e8081600c8b016128eb565b03846129e5565b82518301606084820312610b6a5781840151916040850151916001600160401b038311610ffc57610ecb9282606093610ec4930191880101612d5a565b9401612bd6565b908260025416936002890194855492813b15610ff857878094610f17966040519788968795869463514b371160e11b865260048601526024850152608060448501526084840190612a49565b901515606483015203925af19081156102a8578491610fe0575b50506002541690548554823b1561029d576044849283604051958694859363075f9a4b60e51b8552600485015260248401525af18015610fd557610fbd575b50506003600b60ff945b01918254161790555416610f8d81612a06565b33917ffca604f7c65f1962e4db27dbf7b2473457d3d7e34127ff2002bfb14e5c7467f88580a43880808080610e33565b610fc690612981565b610fd1578538610f70565b8580fd5b6040513d84823e3d90fd5b610fe990612981565b610ff4578238610f31565b8280fd5b8780fd5b8680fd5b61100981612a06565b8089036110ff575060405161102c8161102581600c8b016128eb565b03826129e5565b818180518101031261029d57015190808216809203610ff45780600254166002870192835490823b15610fd15760448692836040519586948593631565a7b160e11b8552600485015260248401525af19081156102a85784916110eb575b50506002541690548554823b1561029d576044849283604051958694859363075f9a4b60e51b8552600485015260248401525af18015610fd5576110d7575b50506003600b60ff94610f7a565b6110e090612981565b610fd15785386110c9565b6110f490612981565b610ff457823861108a565b8092935061110d9150612a06565b600281036111235750506003600b60ff94610f7a565b8061112f600392612a06565b1461113b575b806110c9565b806002541690876002860192835490803b15610ff4576024839260405194859384926369ea924760e01b845260048401525af180156111e9576111d4575b509087916002541690548554823b1561029d576044849283604051958694859363075f9a4b60e51b8552600485015260248401525af18015610fd5576111c0575b50611135565b6111c990612981565b610fd15785386111ba565b6111e19098919298612981565b969038611179565b6040513d8b823e3d90fd5b634e487b7160e01b88526041600452602488fd5b60405162461bcd60e51b815260048101859052601e60248201527f416c726561647920617070726f76656420746869732070726f706f73616c00006044820152606490fd5b60405162461bcd60e51b815260048101849052602760248201527f4e6f742061207265717569726564207369676e657220666f72207468697320706044820152661c9bdc1bdcd85b60ca1b6064820152608490fd5b6112ac8183612b45565b905460039190911b1c6001600160a01b031633146112d2576112cd90612be3565b610d67565b505050506001388080610d6f565b60405162461bcd60e51b8152600481018490526014602482015273141c9bdc1bdcd85b081a185cc8195e1c1a5c995960621b6044820152606490fd5b50346102f85760203660031901126102f857600480358252600560209081526040928390208054600182015460028301546003840154939095015486519283529382015293840192909252606083019190915260ff161515608082015260a090f35b50346102f85760403660031901126102f8576004356024356001600160401b038111610ff4576113b2903690600401612afb565b90808352602091600483526113cc60408520541515612ccb565b818452600483526113ea60ff600b6040872001541661017281612a06565b81845260048352604084208485600483018054915b828110611592575b5050501561145d575b600b01805460ff1916600217905560405183815233937f1a83061638e5ea01ef77cc2d38223a3edbdd492acc87be4f17b2150cbdf579739282916114579190830190612a49565b0390a380f35b600154604051631d6c8e3f60e21b81526001600160a01b03909116908581600481855afa80156115875786918891611556575b50604051631cc12e7960e11b815233600482015260248101919091529182908180604481015b03915afa908115610ba6578691611521575b506114105760405162461bcd60e51b815260048101859052602660248201527f4e6f7420617574686f72697a656420746f2072656a65637420746869732070726044820152651bdc1bdcd85b60d21b6064820152608490fd5b90508481813d831161154f575b61153881836129e5565b81010312610fd15761154990612bd6565b386114c8565b503d61152e565b82819392503d8311611580575b61156d81836129e5565b81010312610ffc575185906114b6611490565b503d611563565b6040513d89823e3d90fd5b61159c8183612b45565b905460039190911b1c6001600160a01b031633146115c2576115bd90612be3565b6113ff565b505050506001388080611407565b50346102f857806003193601126102f8576002546040516001600160a01b039091168152602090f35b50346102f8576020806003193601126102f4576001600160a01b0361161c612b19565b168252600c815260408220916040518092808554928381520194835280832092905b8282106116615761042885611655818903826129e5565b60405191829182612a6e565b83548652948501946001938401939091019061163e565b50346102f85760403660031901126102f857602435906004358152600d602052604081209081548310156102f8576020610c9d8484612b45565b50346102f85760a03660031901126102f857600660043510156102f857604435906001600160401b0382116102f857366023830112156102f8578160040135906001600160401b038211611c37578160051b926040519261171660208601856129e5565b83526020830190602482958201019036821161029d57602401915b818310611c17575050506064356001600160401b0381116102f457366023820112156102f45761176b903690602481600401359101612ac4565b906084356001600160401b0381116102f45761178b903690600401612afb565b9260018060a01b03600154166040516373b82edb60e11b8152602081600481855afa9081156102a8578491611be3575b50604051631cc12e7960e11b815233600482015260248101919091529060209082908180604481015b03915afa908115611bd8578391611b9e575b501561092557611804612ca8565b60028151106108e057600a81511161089b57611821600354612be3565b9283600355611831602435612efa565b61183c81845161301b565b96858552600460205260408520938685556001850161185c600435612a06565b60ff1981541660ff60043516179055602435600286015560038501336001600160601b0360a01b82541617905551906001600160401b038211611b8a57600160401b8211611b8a576004850154826004870155808310611b6c575b5060048501865260208620865b838110611b4f575050505060606118ef91886007860155856008860155426009860155015142612c1f565b600a830155600b8201805460ff191690558051906001600160401b038211611b3b5761192282610648600c8601546128b1565b602090601f8311600114611acb57600d939291859183611ac0575b50508160011b916000199060031b1c191617600c8201555b01938351946001600160401b038611611aac578561197f60209761197984546128b1565b84612c2c565b86601f8211600114611a49578190600196978692611a3e575b5050600019600383901b1c191690851b1790555b338252600c85526119c08460408420612c73565b602435611a23575b6119d3600435612a06565b6004358252600e85526119e98460408420612c73565b6119f4600435612a06565b604051903382528582015260243590846000805160206131dd833981519152604060043593a455604051908152f35b6024358252600d8552611a398460408420612c73565b6119c8565b015190503880611998565b82855287852096601f198316865b818110611a9557509160019798918489959410611a7c575b505050811b0190556119ac565b015160001960f88460031b161c19169055388080611a6f565b92988a600181928c8601518155019a019301611a57565b634e487b7160e01b83526041600452602483fd5b01519050388061193d565b90600c840185526020852091855b601f1985168110611b235750918391600193600d9695601f19811610611b0a575b505050811b01600c820155611955565b015160001960f88460031b161c19169055388080611afa565b91926020600181928685015181550194019201611ad9565b634e487b7160e01b84526041600452602484fd5b82516001600160a01b0316818301556020909201916001016118c4565b60048601875260208720611b84918101908401612c08565b386118b7565b634e487b7160e01b86526041600452602486fd5b90506020813d602011611bd0575b81611bb9602093836129e5565b81010312610ff457611bca90612bd6565b386117f6565b3d9150611bac565b6040513d85823e3d90fd5b90506020813d602011611c0f575b81611bfe602093836129e5565b8101031261029d57516117e46117bb565b3d9150611bf1565b82356001600160a01b0381168103610b6a57815260209283019201611731565b634e487b7160e01b81526041600452602490fd5b50346102f8576020806003193601126102f4576004356001600160401b0380821161029d573660238301121561029d57816004013590811161029d5760248201906005926024369183861b010111610b6a57845b818110611caa578580f35b80611cb9611cdc928486613103565b358752600486526040872054151580611d2b575b80611d09575b611ce157612be3565b611c9f565b611cec818486613103565b3587526004865260408720600b01805460ff191686179055612be3565b50611d15818486613103565b35875260048652600a6040882001544211611cd3565b50611d37818486613103565b3587526004865260ff600b60408920015416611d5281612a06565b15611ccd565b50346102f85760403660031901126102f85760ff6040602092600435611d7c612b2f565b9080835260048652611d92848420541515612ccb565b8252600485528282206001600160a01b03909116825260060184522054604051911615158152f35b50346102f85760403660031901126102f857611dd4612b19565b6001600160a01b03168152600c60205260408120805460243592908310156102f8576020610c9d8484612b45565b50346102f857806003193601126102f8576020600354604051908152f35b50346102f85760803660031901126102f8576044356001600160401b0381116102f457611e51903690600401612afb565b606435801515809103610ff457611e869291611e9a916040519485926024356020850152606060408501526080840190612a49565b90606083015203601f1981018452836129e5565b611ea5600435613130565b60405191611eb2836129af565b601e83527f446f63756d656e7420766572696669636174696f6e2070726f706f73616c0000602084015260018060a01b03600154166040516373b82edb60e11b8152602081600481855afa908115611bd85783916122be575b50604051631cc12e7960e11b815233600482015260248101919091529060209082908180604481015b03915afa908115610fd5578291612284575b501561092557611f54612ca8565b60028251106108e057600a82511161089b57611f71600354612be3565b9182600355611f81600435612efa565b94611f8d86835161301b565b95848452600460205260408420928584556001840160ff198154169055600435600285015560038401336001600160601b0360a01b8254161790558051906001600160401b038211611b8a57600160401b8211611b8a576020906004860154836004880155808410612267575b500160048501865260208620865b83811061224a5750505050606061203391886007860155856008860155426009860155015142612c1f565b600a830155600b8201805460ff191690558051906001600160401b038211611b3b5761206682610648600c8601546128b1565b602090601f83116001146121da57600d9392918591836121cf575b50508160011b916000199060031b1c191617600c8201555b01938351946001600160401b038611611aac57856120bd60209761197984546128b1565b86601f821160011461216c578190600196978692612161575b5050600019600383901b1c191690851b1790555b338252600c85526120fe8460408420612c73565b600435612146575b818052600e855261211a8460408420612c73565b604051903382528582015281846000805160206131dd833981519152604060043594a455604051908152f35b6004358252600d855261215c8460408420612c73565b612106565b0151905038806120d6565b82855287852096601f198316865b8181106121b85750916001979891848995941061219f575b505050811b0190556120ea565b015160001960f88460031b161c19169055388080612192565b92988a600181928c8601518155019a01930161217a565b015190503880612081565b90600c840185526020852091855b601f19851681106122325750918391600193600d9695601f19811610612219575b505050811b01600c820155612099565b015160001960f88460031b161c19169055388080612209565b919260206001819286850151815501940192016121e8565b82516001600160a01b031681830155602090920191600101612008565b60048701885282882061227e918101908501612c08565b38611ffa565b90506020813d6020116122b6575b8161229f602093836129e5565b810103126102f4576122b090612bd6565b38611f46565b3d9150612292565b90506020813d6020116122ea575b816122d9602093836129e5565b81010312610ff45751611f34611f0b565b3d91506122cc565b50346102f85760203660031901126102f8576040519060043560208301526020825261231d826129af565b612328600435613130565b60405191612335836129af565b601983527f446f63756d656e7420617263686976652070726f706f73616c00000000000000602084015260018060a01b03600154166040516373b82edb60e11b8152602081600481855afa908115611bd857839161273e575b50604051631cc12e7960e11b815233600482015260248101919091529060209082908180604481015b03915afa908115610fd5578291612704575b5015610925576123d7612ca8565b60028251106108e057600a82511161089b576123f4600354612be3565b9182600355612404600435612efa565b9461241086835161301b565b958484526004602052604084209285845560018401600360ff19825416179055600435600285015560038401336001600160601b0360a01b8254161790558051906001600160401b038211611b8a57600160401b8211611b8a576020600486019182548484558085106126ea575b500190865260208620865b8381106126cd575050505060606124b491886007860155856008860155426009860155015142612c1f565b600a830155600b8201805460ff191690558051906001600160401b038211611b3b576124e782610648600c8601546128b1565b602090601f831160011461265d57600d939291859183612652575b50508160011b916000199060031b1c191617600c8201555b01938351946001600160401b038611611aac578561253e60209761197984546128b1565b86601f82116001146125ef5781906001969786926125e4575b5050600019600383901b1c191690851b1790555b338252600c855261257f8460408420612c73565b6004356125c9575b60038252600e855261259c8460408420612c73565b60405190338252858201526003846000805160206131dd833981519152604060043594a455604051908152f35b6004358252600d85526125df8460408420612c73565b612587565b015190503880612557565b82855287852096601f198316865b81811061263b57509160019798918489959410612622575b505050811b01905561256b565b015160001960f88460031b161c19169055388080612615565b92988a600181928c8601518155019a0193016125fd565b015190503880612502565b90600c840185526020852091855b601f19851681106126b55750918391600193600d9695601f1981161061269c575b505050811b01600c82015561251a565b015160001960f88460031b161c1916905538808061268c565b9192602060018192868501518155019401920161266b565b82516001600160a01b031681830155602090920191600101612489565b8389528289206126fe918101908601612c08565b3861247e565b90506020813d602011612736575b8161271f602093836129e5565b810103126102f45761273090612bd6565b386123c9565b3d9150612712565b90506020813d60201161276a575b81612759602093836129e5565b81010312610ff457516123b761238e565b3d915061274c565b50346102f85760203660031901126102f8576104286116556004356130a8565b50346102f857806003193601126102f8576001546040516001600160a01b039091168152602090f35b82346102f85760203660031901126102f857604090600435815260046020522090610428600d6128a284549360ff60018701541695600281015460018060a01b036003830154166007830154600884015490600985015492600a8601549461284d60ff600b890154169761283d8a61283681600c85016128eb565b038b6129e5565b612836604051809d8193016128eb565b6040519c8d9c8d5261285e81612a06565b60208d015260408c015260608b015260808a015260a089015260c088015260e087015261288a81612a06565b61010086015261016080610120870152850190612a49565b90838203610140850152612a49565b90600182811c921680156128e1575b60208310146128cb57565b634e487b7160e01b600052602260045260246000fd5b91607f16916128c0565b90600092918054916128fc836128b1565b91828252600193848116908160001461295e575060011461291e575b50505050565b90919394506000526020928360002092846000945b83861061294a575050505001019038808080612918565b805485870183015294019385908201612933565b9294505050602093945060ff191683830152151560051b01019038808080612918565b6001600160401b0381116107ca57604052565b60a081019081106001600160401b038211176107ca57604052565b604081019081106001600160401b038211176107ca57604052565b606081019081106001600160401b038211176107ca57604052565b90601f801991011681019081106001600160401b038211176107ca57604052565b60061115612a1057565b634e487b7160e01b600052602160045260246000fd5b60005b838110612a395750506000910152565b8181015183820152602001612a29565b90602091612a6281518092818552858086019101612a26565b601f01601f1916010190565b6020908160408183019282815285518094520193019160005b828110612a95575050505090565b835185529381019392810192600101612a87565b6001600160401b0381116107ca57601f01601f191660200190565b929192612ad082612aa9565b91612ade60405193846129e5565b8294818452818301116102dd578281602093846000960137010152565b9080601f830112156102dd57816020612b1693359101612ac4565b90565b600435906001600160a01b03821682036102dd57565b602435906001600160a01b03821682036102dd57565b8054821015612b5d5760005260206000200190600090565b634e487b7160e01b600052603260045260246000fd5b6020612b8c918160405193828580945193849201612a26565b8101600681520301902090565b90815180825260208080930193019160005b828110612bb9575050505090565b83516001600160a01b031685529381019392810192600101612bab565b519081151582036102dd57565b6000198114612bf25760010190565b634e487b7160e01b600052601160045260246000fd5b818110612c13575050565b60008155600101612c08565b91908201809211612bf257565b9190601f8111612c3b57505050565b612c67926000526020600020906020601f840160051c83019310612c69575b601f0160051c0190612c08565b565b9091508190612c5a565b8054600160401b8110156107ca57612c9091600182018155612b45565b819291549060031b91821b91600019901b1916179055565b600260005414612cb9576002600055565b604051633ee5aeb560e01b8152600490fd5b15612cd257565b60405162461bcd60e51b815260206004820152601760248201527f50726f706f73616c20646f6573206e6f742065786973740000000000000000006044820152606490fd5b15612d1e57565b60405162461bcd60e51b815260206004820152601460248201527350726f706f73616c206e6f742070656e64696e6760601b6044820152606490fd5b81601f820112156102dd578051612d7081612aa9565b92612d7e60405194856129e5565b818452602082840101116102dd57612b169160208085019101612a26565b90604051612da981612994565b608060ff60048395805485526001810154602086015260028101546040860152600381015460608601520154161515910152565b906020828203126102dd5781516001600160401b03928382116102dd5701906101a09283838303126102dd57604051938401848110828211176107ca576040528251845260208301518181116102dd5782612e39918501612d5a565b6020850152604083810151908501526060808401519085015260808301516001600160a01b03811681036102dd57608085015260a083015160a085015260c083015160c0850152612e8c60e08401612bd6565b60e0850152610100808401518281116102dd5783612eab918601612d5a565b90850152610120808401519085015261014091828401519182116102dd57612ed4918401612d5a565b90830152610160808201519060068210156102dd57830152610180809101519082015290565b60806040918251612f0a81612994565b6000928184809352826020820152828682015282606082015201528082526005602052828220805461300e575080612f77575b5050805190612f4b82612994565b6007548252600854602083015260095490820152600a54606082015260ff600b54161515608082015290565b6002548351631fcd928560e11b815260048101929092528290829060249082906001600160a01b03165afa91821561300357908161014093612fe0575b505001612fc18151612b73565b54612fcc5780612f3d565b612b169150612fdb9051612b73565b612d9c565b612ffc92503d8091833e612ff481836129e5565b810190612ddd565b3880612fb4565b8351903d90823e3d90fd5b915050612b169150612d9c565b90608081015161304c576040015190818102918183041490151715612bf25760638101809111612bf2576064900490565b5090565b9060405191828154918282526020928383019160005283600020936000905b82821061308557505050612c67925003836129e5565b85546001600160a01b03168452600195860195889550938101939091019061306f565b6000526020600d81526040600020906040518092839183825491828152019160005283600020936000905b8282106130e957505050612b16925003826129e5565b8554845260019586019587955093810193909101906130d3565b9190811015612b5d5760051b0190565b805115612b5d5760200190565b805160011015612b5d5760400190565b6040519061313d826129ca565b60028252604036602084013780156131c557600254604051631fcd928560e11b815260048101929092526001600160a01b0391906000908290602490829086165afa80156109a4576080916000916131ac575b5001511661319d82613113565b52336131a882613120565b5290565b6131bf913d8091833e612ff481836129e5565b38613190565b50336131d082613113565b5260016131a88261312056feac4968d741b5b22faa117f2cd6e4b138b0af9117ebe9575d69f6a79723628bc1a26469706673582212202bfacbd3aa2c036bc36bb247ab233ec08d484349104293ba568aab84805d795264736f6c63430008140033",
  "linkReferences": {},
  "deployedLinkReferences": {}
}