{
  "_format": "hh-sol-artifact-1",
  "contractName": "SealGuardAccessControl",
  "sourceName": "contracts/SealGuardAccessControl.sol",
  "abi": [
    {
      "inputs": [],
      "stateMutability": "nonpayable",
      "type": "constructor"
    },
    {
      "inputs": [],
      "name": "AccessControlBadConfirmation",
      "type": "error"
    },
    {
      "inputs": [
        {
          "internalType": "address",
          "name": "account",
          "type": "address"
        },
        {
          "internalType": "bytes32",
          "name": "neededRole",
          "type": "bytes32"
        }
      ],
      "name": "AccessControlUnauthorizedAccount",
      "type": "error"
    },
    {
      "inputs": [],
      "name": "ReentrancyGuardReentrantCall",
      "type": "error"
    },
    {
      "anonymous": false,
      "inputs": [
        {
          "indexed": true,
          "internalType": "uint256",
          "name": "documentId",
          "type": "uint256"
        },
        {
          "indexed": true,
          "internalType": "address",
          "name": "grantee",
          "type": "address"
        },
        {
          "indexed": true,
          "internalType": "address",
          "name": "grantor",
          "type": "address"
        },
        {
          "indexed": false,
          "internalType": "uint256",
          "name": "expiresAt",
          "type": "uint256"
        }
      ],
      "name": "AccessGranted",
      "type": "event"
    },
    {
      "anonymous": false,
      "inputs": [
        {
          "indexed": true,
          "internalType": "uint256",
          "name": "documentId",
          "type": "uint256"
        },
        {
          "indexed": true,
          "internalType": "address",
          "name": "grantee",
          "type": "address"
        },
        {
          "indexed": true,
          "internalType": "address",
          "name": "revoker",
          "type": "address"
        }
      ],
      "name": "AccessRevoked",
      "type": "event"
    },
    {
      "anonymous": false,
      "inputs": [
        {
          "indexed": true,
          "internalType": "string",
          "name": "organizationId",
          "type": "string"
        },
        {
          "indexed": true,
          "internalType": "address",
          "name": "member",
          "type": "address"
        },
        {
          "indexed": false,
          "internalType": "string",
          "name": "role",
          "type": "string"
        }
      ],
      "name": "OrganizationJoined",
      "type": "event"
    },
    {
      "anonymous": false,
      "inputs": [
        {
          "indexed": true,
          "internalType": "string",
          "name": "organizationId",
          "type": "string"
        },
        {
          "indexed": true,
          "internalType": "address",
          "name": "member",
          "type": "address"
        }
      ],
      "name": "OrganizationLeft",
      "type": "event"
    },
    {
      "anonymous": false,
      "inputs": [
        {
          "indexed": true,
          "internalType": "bytes32",
          "name": "role",
          "type": "bytes32"
        },
        {
          "indexed": true,
          "internalType": "bytes32",
          "name": "previousAdminRole",
          "type": "bytes32"
        },
        {
          "indexed": true,
          "internalType": "bytes32",
          "name": "newAdminRole",
          "type": "bytes32"
        }
      ],
      "name": "RoleAdminChanged",
      "type": "event"
    },
    {
      "anonymous": false,
      "inputs": [
        {
          "indexed": true,
          "internalType": "bytes32",
          "name": "role",
          "type": "bytes32"
        },
        {
          "indexed": true,
          "internalType": "address",
          "name": "account",
          "type": "address"
        },
        {
          "indexed": true,
          "internalType": "address",
          "name": "sender",
          "type": "address"
        }
      ],
      "name": "RoleGranted",
      "type": "event"
    },
    {
      "anonymous": false,
      "inputs": [
        {
          "indexed": true,
          "internalType": "bytes32",
          "name": "role",
          "type": "bytes32"
        },
        {
          "indexed": true,
          "internalType": "address",
          "name": "account",
          "type": "address"
        },
        {
          "indexed": true,
          "internalType": "address",
          "name": "sender",
          "type": "address"
        }
      ],
      "name": "RoleRevoked",
      "type": "event"
    },
    {
      "inputs": [],
      "name": "ADMIN_ROLE",
      "outputs": [
        {
          "internalType": "bytes32",
          "name": "",
          "type": "bytes32"
        }
      ],
      "stateMutability": "view",
      "type": "function"
    },
    {
      "inputs": [],
      "name": "AUDITOR_ROLE",
      "outputs": [
        {
          "internalType": "bytes32",
          "name": "",
          "type": "bytes32"
        }
      ],
      "stateMutability": "view",
      "type": "function"
    },
    {
      "inputs": [],
      "name": "DEFAULT_ADMIN_ROLE",
      "outputs": [
        {
          "internalType": "bytes32",
          "name": "",
          "type": "bytes32"
        }
      ],
      "stateMutability": "view",
      "type": "function"
    },
    {
      "inputs": [],
      "name": "DOCUMENT_MANAGER_ROLE",
      "outputs": [
        {
          "internalType": "bytes32",
          "name": "",
          "type": "bytes32"
        }
      ],
      "stateMutability": "view",
      "type": "function"
    },
    {
      "inputs": [],
      "name": "MODERATOR_ROLE",
      "outputs": [
        {
          "internalType": "bytes32",
          "name": "",
          "type": "bytes32"
        }
      ],
      "stateMutability": "view",
      "type": "function"
    },
    {
      "inputs": [],
      "name": "USER_ROLE",
      "outputs": [
        {
          "internalType": "bytes32",
          "name": "",
          "type": "bytes32"
        }
      ],
      "stateMutability": "view",
      "type": "function"
    },
    {
      "inputs": [],
      "name": "VERIFIER_ROLE",
      "outputs": [
        {
          "internalType": "bytes32",
          "name": "",
          "type": "bytes32"
        }
      ],
      "stateMutability": "view",
      "type": "function"
    },
    {
      "inputs": [
        {
          "internalType": "uint256",
          "name": "",
          "type": "uint256"
        },
        {
          "internalType": "address",
          "name": "",
          "type": "address"
        }
      ],
      "name": "documentAccess",
      "outputs": [
        {
          "internalType": "uint256",
          "name": "documentId",
          "type": "uint256"
        },
        {
          "internalType": "address",
          "name": "grantee",
          "type": "address"
        },
        {
          "internalType": "address",
          "name": "grantor",
          "type": "address"
        },
        {
          "internalType": "uint256",
          "name": "expiresAt",
          "type": "uint256"
        },
        {
          "internalType": "bool",
          "name": "canRead",
          "type": "bool"
        },
        {
          "internalType": "bool",
          "name": "canVerify",
          "type": "bool"
        },
        {
          "internalType": "bool",
          "name": "canTransfer",
          "type": "bool"
        },
        {
          "internalType": "uint256",
          "name": "grantedAt",
          "type": "uint256"
        },
        {
          "internalType": "bool",
          "name": "isActive",
          "type": "bool"
        }
      ],
      "stateMutability": "view",
      "type": "function"
    },
    {
      "inputs": [
        {
          "internalType": "uint256",
          "name": "",
          "type": "uint256"
        },
        {
          "internalType": "uint256",
          "name": "",
          "type": "uint256"
        }
      ],
      "name": "documentAccessList",
      "outputs": [
        {
          "internalType": "address",
          "name": "",
          "type": "address"
        }
      ],
      "stateMutability": "view",
      "type": "function"
    },
    {
      "inputs": [
        {
          "internalType": "uint256",
          "name": "documentId",
          "type": "uint256"
        },
        {
          "internalType": "address",
          "name": "user",
          "type": "address"
        }
      ],
      "name": "getAccessPermission",
      "outputs": [
        {
          "components": [
            {
              "internalType": "uint256",
              "name": "documentId",
              "type": "uint256"
            },
            {
              "internalType": "address",
              "name": "grantee",
              "type": "address"
            },
            {
              "internalType": "address",
              "name": "grantor",
              "type": "address"
            },
            {
              "internalType": "uint256",
              "name": "expiresAt",
              "type": "uint256"
            },
            {
              "internalType": "bool",
              "name": "canRead",
              "type": "bool"
            },
            {
              "internalType": "bool",
              "name": "canVerify",
              "type": "bool"
            },
            {
              "internalType": "bool",
              "name": "canTransfer",
              "type": "bool"
            },
            {
              "internalType": "uint256",
              "name": "grantedAt",
              "type": "uint256"
            },
            {
              "internalType": "bool",
              "name": "isActive",
              "type": "bool"
            }
          ],
          "internalType": "struct SealGuardAccessControl.AccessPermission",
          "name": "",
          "type": "tuple"
        }
      ],
      "stateMutability": "view",
      "type": "function"
    },
    {
      "inputs": [
        {
          "internalType": "uint256",
          "name": "documentId",
          "type": "uint256"
        }
      ],
      "name": "getDocumentAccessList",
      "outputs": [
        {
          "internalType": "address[]",
          "name": "",
          "type": "address[]"
        }
      ],
      "stateMutability": "view",
      "type": "function"
    },
    {
      "inputs": [
        {
          "internalType": "string",
          "name": "organizationId",
          "type": "string"
        }
      ],
      "name": "getOrganizationMembers",
      "outputs": [
        {
          "internalType": "address[]",
          "name": "",
          "type": "address[]"
        }
      ],
      "stateMutability": "view",
      "type": "function"
    },
    {
      "inputs": [
        {
          "internalType": "bytes32",
          "name": "role",
          "type": "bytes32"
        }
      ],
      "name": "getRoleAdmin",
      "outputs": [
        {
          "internalType": "bytes32",
          "name": "",
          "type": "bytes32"
        }
      ],
      "stateMutability": "view",
      "type": "function"
    },
    {
      "inputs": [
        {
          "internalType": "address",
          "name": "user",
          "type": "address"
        }
      ],
      "name": "getUserOrganizations",
      "outputs": [
        {
          "internalType": "string[]",
          "name": "",
          "type": "string[]"
        }
      ],
      "stateMutability": "view",
      "type": "function"
    },
    {
      "inputs": [
        {
          "internalType": "uint256",
          "name": "documentId",
          "type": "uint256"
        },
        {
          "internalType": "address",
          "name": "grantee",
          "type": "address"
        },
        {
          "internalType": "uint256",
          "name": "expiresAt",
          "type": "uint256"
        },
        {
          "internalType": "bool",
          "name": "canRead",
          "type": "bool"
        },
        {
          "internalType": "bool",
          "name": "canVerify",
          "type": "bool"
        },
        {
          "internalType": "bool",
          "name": "canTransfer",
          "type": "bool"
        }
      ],
      "name": "grantDocumentAccess",
      "outputs": [],
      "stateMutability": "nonpayable",
      "type": "function"
    },
    {
      "inputs": [
        {
          "internalType": "bytes32",
          "name": "role",
          "type": "bytes32"
        },
        {
          "internalType": "address",
          "name": "account",
          "type": "address"
        }
      ],
      "name": "grantRole",
      "outputs": [],
      "stateMutability": "nonpayable",
      "type": "function"
    },
    {
      "inputs": [
        {
          "internalType": "uint256",
          "name": "documentId",
          "type": "uint256"
        },
        {
          "internalType": "address",
          "name": "user",
          "type": "address"
        }
      ],
      "name": "hasReadAccess",
      "outputs": [
        {
          "internalType": "bool",
          "name": "",
          "type": "bool"
        }
      ],
      "stateMutability": "view",
      "type": "function"
    },
    {
      "inputs": [
        {
          "internalType": "bytes32",
          "name": "role",
          "type": "bytes32"
        },
        {
          "internalType": "address",
          "name": "account",
          "type": "address"
        }
      ],
      "name": "hasRole",
      "outputs": [
        {
          "internalType": "bool",
          "name": "",
          "type": "bool"
        }
      ],
      "stateMutability": "view",
      "type": "function"
    },
    {
      "inputs": [
        {
          "internalType": "address",
          "name": "account",
          "type": "address"
        },
        {
          "internalType": "bytes32",
          "name": "role",
          "type": "bytes32"
        }
      ],
      "name": "hasRoleOrHigher",
      "outputs": [
        {
          "internalType": "bool",
          "name": "",
          "type": "bool"
        }
      ],
      "stateMutability": "view",
      "type": "function"
    },
    {
      "inputs": [
        {
          "internalType": "uint256",
          "name": "documentId",
          "type": "uint256"
        },
        {
          "internalType": "address",
          "name": "user",
          "type": "address"
        }
      ],
      "name": "hasTransferAccess",
      "outputs": [
        {
          "internalType": "bool",
          "name": "",
          "type": "bool"
        }
      ],
      "stateMutability": "view",
      "type": "function"
    },
    {
      "inputs": [
        {
          "internalType": "uint256",
          "name": "documentId",
          "type": "uint256"
        },
        {
          "internalType": "address",
          "name": "user",
          "type": "address"
        }
      ],
      "name": "hasVerifyAccess",
      "outputs": [
        {
          "internalType": "bool",
          "name": "",
          "type": "bool"
        }
      ],
      "stateMutability": "view",
      "type": "function"
    },
    {
      "inputs": [
        {
          "internalType": "string",
          "name": "organizationId",
          "type": "string"
        },
        {
          "internalType": "string",
          "name": "role",
          "type": "string"
        }
      ],
      "name": "joinOrganization",
      "outputs": [],
      "stateMutability": "nonpayable",
      "type": "function"
    },
    {
      "inputs": [
        {
          "internalType": "string",
          "name": "organizationId",
          "type": "string"
        }
      ],
      "name": "leaveOrganization",
      "outputs": [],
      "stateMutability": "nonpayable",
      "type": "function"
    },
    {
      "inputs": [
        {
          "internalType": "string",
          "name": "",
          "type": "string"
        },
        {
          "internalType": "address",
          "name": "",
          "type": "address"
        }
      ],
      "name": "orgMemberDetails",
      "outputs": [
        {
          "internalType": "address",
          "name": "member",
          "type": "address"
        },
        {
          "internalType": "string",
          "name": "role",
          "type": "string"
        },
        {
          "internalType": "uint256",
          "name": "joinedAt",
          "type": "uint256"
        },
        {
          "internalType": "bool",
          "name": "isActive",
          "type": "bool"
        }
      ],
      "stateMutability": "view",
      "type": "function"
    },
    {
      "inputs": [
        {
          "internalType": "string",
          "name": "",
          "type": "string"
        },
        {
          "internalType": "uint256",
          "name": "",
          "type": "uint256"
        }
      ],
      "name": "organizationMembers",
      "outputs": [
        {
          "internalType": "address",
          "name": "",
          "type": "address"
        }
      ],
      "stateMutability": "view",
      "type": "function"
    },
    {
      "inputs": [
        {
          "internalType": "bytes32",
          "name": "role",
          "type": "bytes32"
        },
        {
          "internalType": "address",
          "name": "callerConfirmation",
          "type": "address"
        }
      ],
      "name": "renounceRole",
      "outputs": [],
      "stateMutability": "nonpayable",
      "type": "function"
    },
    {
      "inputs": [
        {
          "internalType": "uint256",
          "name": "documentId",
          "type": "uint256"
        },
        {
          "internalType": "address",
          "name": "grantee",
          "type": "address"
        }
      ],
      "name": "revokeDocumentAccess",
      "outputs": [],
      "stateMutability": "nonpayable",
      "type": "function"
    },
    {
      "inputs": [
        {
          "internalType": "bytes32",
          "name": "role",
          "type": "bytes32"
        },
        {
          "internalType": "address",
          "name": "account",
          "type": "address"
        }
      ],
      "name": "revokeRole",
      "outputs": [],
      "stateMutability": "nonpayable",
      "type": "function"
    },
    {
      "inputs": [
        {
          "internalType": "bytes32",
          "name": "",
          "type": "bytes32"
        }
      ],
      "name": "roleHierarchy",
      "outputs": [
        {
          "internalType": "uint8",
          "name": "",
          "type": "uint8"
        }
      ],
      "stateMutability": "view",
      "type": "function"
    },
    {
      "inputs": [
        {
          "internalType": "bytes4",
          "name": "interfaceId",
          "type": "bytes4"
        }
      ],
      "name": "supportsInterface",
      "outputs": [
        {
          "internalType": "bool",
          "name": "",
          "type": "bool"
        }
      ],
      "stateMutability": "view",
      "type": "function"
    },
    {
      "inputs": [
        {
          "internalType": "address",
          "name": "",
          "type": "address"
        },
        {
          "internalType": "uint256",
          "name": "",
          "type": "uint256"
        }
      ],
      "name": "userOrganizations",
      "outputs": [
        {
          "internalType": "string",
          "name": "",
          "type": "string"
        }
      ],
      "stateMutability": "view",
      "type": "function"
    },
    {
      "inputs": [
        {
          "internalType": "address",
          "name": "",
          "type": "address"
        }
      ],
      "name": "userRoles",
      "outputs": [
        {
          "internalType": "bytes32",
          "name": "",
          "type": "bytes32"
        }
      ],
      "stateMutability": "view",
      "type": "function"
    }
  ],
  "bytecode": "0x60406080815234620001d45760018080556200001b33620001d9565b50620000273362000259565b506000805160206200248483398151915260009080825260026020528382209060ff19916006838254161790557f71f3d55856e4058ed06ee057d79ada615f65cdf5f9ee88181b914225088f834f938484528584206005848254161790557f59a1c48e5837ad7a7f3dcedcbe129bf3249ec4fbf651fd4f5e2600ead39fe2f58085528685206004858254161790557f0ce23c3e399818cfee81a7ab0880f714e53d7672b08df0fa62f2843416e1ea09958686528786206003868254161790557f5520d115ceffb88f02315d646cd7618d18024f657afe794865243ed5b75fb04f968787528887206002878254161790557f14823911f2da1b49f045a0929a60b8c1f2a7fc8c06c7284ca3e8ab4e193a08c895868852848a892091825416179055818752866020528389882001948086549655807fbd79b86ffe0ab8e8776151514217cd7cacd52c909f66475c3af44e129f0b00ff9684888b80a4838852848a892001818154915584878a80a48087528389882001908282549255858880a48585528187862001818154915586848780a48284528584200192848454945580a4516121799081620002eb8239f35b600080fd5b6001600160a01b031660008181527fad3228b676f7d3cd4284a5443f17f1962b36e491b30a40b2405849e597ba5fb5602052604081205490919060ff166200025557818052816020526040822081835260205260408220600160ff198254161790553391600080516020620024648339815191528180a4600190565b5090565b6001600160a01b031660008181527f7d7ffb7a348e1c6a02869081a26547b49160dd3df72d1d75a570eb9b698292ec6020526040812054909190600080516020620024848339815191529060ff16620002e557808352826020526040832082845260205260408320600160ff1982541617905560008051602062002464833981519152339380a4600190565b50509056fe608060408181526004908136101561001657600080fd5b600092833560e01c90816301ffc9a714611602575080630b6abe8b14611596578063131191611461155b57806314ebc2d8146114b05780631bc5a1dc146111ee578063248a9ca3146111c457806326efadd71461119c5780632859171a1461112f5780632f2ff15d1461110757806336568abe146110c057806339825cf2146110975780633fef6a5614610dcb5780634db6585114610c8557806358cd8ca514610bdc57806369366e5714610bb45780636b0cdf1d146109c15780636e1d616e1461098657806374d5e1001461094e57806375b238fc14610913578063797669c9146108d8578063856e00191461081157806391d14854146107cb578063969772bc1461079a578063a217fddf1461077f578063a260d07f14610731578063aa097ef01461062a578063cffafec214610601578063d4b5bf561461056e578063d4ee154314610543578063d547741f14610506578063e7705db6146104c75763f147add01461018457600080fd5b346104c357602091826003193601126104bf57803567ffffffffffffffff81116104bb576101b590369083016116ef565b906101be611be7565b8251928251938581818601966101d581838a611777565b81016008815203019020338752855260039460ff868389200154161561048b5781518181865161020681838b611777565b810160088152030190203388528152858288200160ff19815416905581518181865161023381838b611777565b81016006815203019020875b81548082101561047d57610253828461179a565b90546001600160a01b0392918b1b1c8216331461027a57505061027590611fde565b61023f565b60009991929394959697989919810190811161046a576102d3928594926102a76102b4936102d89861179a565b9054911b1c16918461179a565b90919082549060031b9160018060a01b03809116831b921b1916179055565b612003565b3386526007815281862091865b83548082101561045d5761030b6103126102ff848861179a565b50855192838092611802565b03826116cd565b8481519101208751892014610330575061032b90611fde565b6102e5565b92939495965090506000199182810190811161044a5761035361035b918661179a565b50918561179a565b610438579061036991612046565b8254801561042557019261037d848461179a565b919091610413575090816103928793546117c8565b806103d3575b50505050555b6103a83391611fbe565b7f9fdbd38db638563dfdf213622a60ee0d000ebabad5efa2807bde424e404f2db88380a36001805580f35b83601f8083116001146103f0575050509050555b83388080610398565b839294829461040c93528420940160051c840160018501611e9a565b55556103e7565b634e487b7160e01b8752869052602486fd5b634e487b7160e01b875260318552602487fd5b634e487b7160e01b8852878652602488fd5b634e487b7160e01b885260118652602488fd5b505050505050905061039e565b634e487b7160e01b8b526011885260248bfd5b5050509091929394506102d8565b905162461bcd60e51b815291820152600c60248201526b2737ba10309036b2b6b132b960a11b6044820152606490fd5b8480fd5b8380fd5b8280fd5b838234610502578160031936011261050257602090517f0ce23c3e399818cfee81a7ab0880f714e53d7672b08df0fa62f2843416e1ea098152f35b5080fd5b50346104c357806003193601126104c35761053f913561053a600161052961174b565b9383875286602052862001546118bd565b61197f565b5080f35b5090346104c35760203660031901126104c3578160209360ff92358152600285522054169051908152f35b5091346105fe57826003193601126105fe57610588611761565b6001600160a01b031681526007602052828120805460243591908210156104c357906105b39161179a565b9290926105ec5783516105e890856105d6826105cf8189611802565b03836116cd565b51918291602083526020830190611898565b0390f35b634e487b7160e01b8252819052602490fd5b80fd5b838234610502578160031936011261050257602090516000805160206121248339815191528152f35b5091903461050257602090816003193601126104c3576001600160a01b03610650611761565b168352600782528383209182549167ffffffffffffffff831161071e57509290845190610682858260051b01836116cd565b8082528482018094845285842084915b8383106106f357505050508451938085019181865251809252858501958260051b8601019392955b8287106106c75785850386f35b9091929382806106e3600193603f198a82030186528851611898565b96019201960195929190926106ba565b60018881928b9a97989a5161070c8161030b8189611802565b81520192019201919096949396610692565b634e487b7160e01b855260419052602484fd5b5082346105fe57816003193601126105fe576024359235815260056020528181209081548410156105fe57506020926107699161179a565b905491519160018060a01b039160031b1c168152f35b83823461050257816003193601126105025751908152602090f35b5082346105fe57816003193601126105fe57506107c26020926107bb61174b565b9035611ddf565b90519015158152f35b5090346104c357816003193601126104c3578160209360ff926107ec61174b565b903582528186528282206001600160a01b039091168252855220549151911615158152f35b5090346104c357816003193601126104c357803567ffffffffffffffff81116104bf578291610842913691016116ef565b92610863602061085061174b565b9581855193828580945193849201611777565b6008908201908152030190206001600160a01b0394851682526020522080548251931691906108a0846108998160018501611802565b03856116cd565b60ff6003600283015492015416906108c983519586958652608060208701526080860190611898565b92840152151560608301520390f35b838234610502578160031936011261050257602090517f71f3d55856e4058ed06ee057d79ada615f65cdf5f9ee88181b914225088f834f8152f35b838234610502578160031936011261050257602090517fa49807205ce4d355092ef5a8a18f56e8913cf4a201fbe287825b095693c217758152f35b8382346105025760203660031901126105025760209181906001600160a01b03610976611761565b1681526003845220549051908152f35b838234610502578160031936011261050257602090517f59a1c48e5837ad7a7f3dcedcbe129bf3249ec4fbf651fd4f5e2600ead39fe2f58152f35b50346104c357806003193601126104c3578135906109dd61174b565b6109e5611be7565b6000805160206121248339815191528552602091858352808620338752835260ff81872054168015610bad575b8015610b84575b15610b42578386528483528086206001600160a01b03928316808852908452818720600601805491949160ff811615610b0a5760ff1916905584875260059052852090855b825480821015610afe57829085610a75848761179a565b939054600394851b1c1614610a94575050610a8f90611fde565b610a5e565b9091939495966000198201918211610aeb57506102d3928594926102a76102b493610abe9861179a565b33917f260547d4038414ef72f081dcde91825693dff9bc433178f3e92ad36e0cd227508480a46001805580f35b634e487b7160e01b895260119052602488fd5b50505050909150610abe565b835162461bcd60e51b815280890184905260126024820152711058d8d95cdcc81b9bdd0819dc985b9d195960721b6044820152606490fd5b5162461bcd60e51b8152808501839052601f60248201527f4e6f7420617574686f72697a656420746f207265766f6b6520616363657373006044820152606490fd5b508386528483528086206001600160a01b03838116885290845281872060020154163314610a19565b5085610a12565b5082346105fe57816003193601126105fe57506107c2602092610bd561174b565b9035611c0a565b50346104c357806003193601126104c357918260ff61012094610bfd61174b565b93853581528560205281812060018060a01b03809616825260205220918254948460018501541694600285015416600385015491850154928460066005880154970154169681519889526020890152870152606086015281811615156080860152818160081c16151560a086015260101c16151560c084015260e08301521515610100820152f35b50919034610502578260031936011261050257610ca061174b565b83805193610cad8561169a565b80855280602086015280828601528060608601528060808601528060a08601528060c08601528060e086015280610100809601528335815283602052818120600160a01b6001900380941682526020522090845192610d0b8461169a565b82549586855282600185015416916020860192835283600286015416918087019283526003860154916060880192835286015494608088019360ff8716151585528160a08a01968860081c60ff161515885260c08b019860101c60ff16151589528b60058b01549a60e08d019b8c526006015460ff169b019a15158b5284519c8d52511660208c0152511690890152516060880152511515608087015251151560a086015251151560c08501525160e08401525115159082015261012090f35b5090346104c35760c03660031901126104c3578035610de861174b565b9160443593606435908115158203611093576084359485151580960361108f5760a4359283151580940361108b57610e1e611be7565b6001600160a01b03821696871561104857338814611005576000805160206121248339815191528a526020948a8652848b20338c52865260ff858c2054168015610ffe575b15610fbb57908a9392918a610f5d575b610f067f9ffcf664651d52310aeb78c0f8382ca5078d2de7d3cf618cb5ce6e5cabf00992988a87528089528787208c885289528a8888209689600689019960ff8b541615610f43575b5050508655600186016bffffffffffffffffffffffff60a01b908d82825416179055600287019033908254161790558c6003870155850193849060ff801983541691151516179055565b61ff0062ff000084549260101b169260081b169062ffff00191617179055600542910155600160ff19825416179055519485523394a46001805580f35b610f5393815260058d5220611bc2565b8a388f8a90610ebc565b91935091939495428a1115610f7857959493918a9391610e73565b855162461bcd60e51b8152908101879052601d60248201527f4578706972792074696d65206d75737420626520696e206675747572650000006044820152606490fd5b845162461bcd60e51b8152808801879052601e60248201527f4e6f7420617574686f72697a656420746f206772616e742061636365737300006044820152606490fd5b508a610e63565b835162461bcd60e51b8152602081880152601b60248201527f43616e6e6f74206772616e742061636365737320746f2073656c6600000000006044820152606490fd5b835162461bcd60e51b8152602081880152601760248201527f496e76616c6964206772616e74656520616464726573730000000000000000006044820152606490fd5b8880fd5b8780fd5b8680fd5b8382346105025780600319360112610502576020906107c26110b7611761565b602435906119f4565b508290346105025780600319360112610502576110db61174b565b90336001600160a01b038316036110f8575061053f91923561197f565b5163334bd91960e11b81528390fd5b50346104c357806003193601126104c35761053f913561112a600161052961174b565b611901565b5090346104c357816003193601126104c35780359067ffffffffffffffff82116104bf5761115f913691016116ef565b9161117b60206024359481855193828580945193849201611777565b810160068152030190209081548410156105fe57506020926107699161179a565b5082346105fe57816003193601126105fe57506107c26020926111bd61174b565b9035611ce1565b5090346104c35760203660031901126104c357816020936001923581528085522001549051908152f35b50346104c357806003193601126104c35767ffffffffffffffff9180358381116104bb5761121f90369083016116ef565b60249182358581116110935761123890369083016116ef565b92611241611be7565b82511561146e5783511561143d57845195835191602097888181880195611269818389611777565b81016008815203019020338a52885260ff6003888b20015416611409576112ac87518651611298818388611777565b810190600682528a81339303019020611bc2565b33895260078852868920805490600160401b8210156113f757906112d59160018201815561179a565b6113e657856112e391611ef6565b86519360808501928311858410176113d5575050926113b47f39e664301c7d6a710381efac98d5565f2f5d7cbb1cd7366f352467896a809b43959360036113b9946113cb978a523383528a6113988d8c838701918b83528188019442865261135f8160608b019860018a528d8651938492839251928391611777565b600890820190815203019020338352905220955186546001600160a01b0319166001600160a01b03919091161786555160018601611ef6565b51600284015551151591019060ff801983541691151516179055565b611fbe565b93519182918683523396830190611898565b0390a36001805580f35b634e487b7160e01b8a526041905288fd5b50634e487b7160e01b895288845288fd5b634e487b7160e01b8b5260418652828bfd5b8360106064928a8a519362461bcd60e51b85528401528201526f20b63932b0b23c90309036b2b6b132b960811b6044820152fd5b90600c606492602087519362461bcd60e51b85528401528201526b496e76616c696420726f6c6560a01b6044820152fd5b906017606492602087519362461bcd60e51b85528401528201527f496e76616c6964206f7267616e697a6174696f6e2049440000000000000000006044820152fd5b50346104c357602091826003193601126104bf5780359067ffffffffffffffff82116104bb576114e784916114f9933691016116ef565b81845193828580945193849201611777565b810160068152030190209281518093808654928381520195835280832092905b82821061153b576105e88686611531828b03836116cd565b5191829182611656565b83546001600160a01b031687529586019560019384019390910190611519565b838234610502578160031936011261050257602090517f14823911f2da1b49f045a0929a60b8c1f2a7fc8c06c7284ca3e8ab4e193a08c88152f35b50346104c357602091826003193601126104bf57358352600582528083209281518093808654928381520195835280832092905b8282106115e2576105e88686611531828b03836116cd565b83546001600160a01b0316875295860195600193840193909101906115ca565b849084346104c35760203660031901126104c3573563ffffffff60e01b81168091036104c35760209250637965db0b60e01b8114908115611645575b5015158152f35b6301ffc9a760e01b1490508361163e565b6020908160408183019282815285518094520193019160005b82811061167d575050505090565b83516001600160a01b03168552938101939281019260010161166f565b610120810190811067ffffffffffffffff8211176116b757604052565b634e487b7160e01b600052604160045260246000fd5b90601f8019910116810190811067ffffffffffffffff8211176116b757604052565b81601f820112156117465780359067ffffffffffffffff82116116b75760405192611724601f8401601f1916602001856116cd565b8284526020838301011161174657816000926020809301838601378301015290565b600080fd5b602435906001600160a01b038216820361174657565b600435906001600160a01b038216820361174657565b60005b83811061178a5750506000910152565b818101518382015260200161177a565b80548210156117b25760005260206000200190600090565b634e487b7160e01b600052603260045260246000fd5b90600182811c921680156117f8575b60208310146117e257565b634e487b7160e01b600052602260045260246000fd5b91607f16916117d7565b9060009291805491611813836117c8565b9182825260019384811690816000146118755750600114611835575b50505050565b90919394506000526020928360002092846000945b83861061186157505050500101903880808061182f565b80548587018301529401938590820161184a565b9294505050602093945060ff191683830152151560051b0101903880808061182f565b906020916118b181518092818552858086019101611777565b601f01601f1916010190565b80600052600060205260406000203360005260205260ff60406000205416156118e35750565b6044906040519063e2517d3f60e01b82523360048301526024820152fd5b9060009180835282602052604083209160018060a01b03169182845260205260ff6040842054161560001461197a57808352826020526040832082845260205260408320600160ff198254161790557f2f8788117e7eff1d82e926ec794901d17c78024a50270940304540a733656f0d339380a4600190565b505090565b9060009180835282602052604083209160018060a01b03169182845260205260ff60408420541660001461197a5780835282602052604083208284526020526040832060ff1981541690557ff6391f5c32d9c69d2a47ea670b442974b53935d1edc7fd64eb21e047a839171b339380a4600190565b6000918083526020918383526040908185209060018060a01b031690818652845260ff92838387205416611b5b578552600284528282862054167fa49807205ce4d355092ef5a8a18f56e8913cf4a201fbe287825b095693c217758652838387205416811080611bab575b611b5b577f71f3d55856e4058ed06ee057d79ada615f65cdf5f9ee88181b914225088f834f865260028552838387205416811080611b94575b611b5b577f59a1c48e5837ad7a7f3dcedcbe129bf3249ec4fbf651fd4f5e2600ead39fe2f5865260028552838387205416811080611b7d575b611b5b577f0ce23c3e399818cfee81a7ab0880f714e53d7672b08df0fa62f2843416e1ea09865260028552838387205416811080611b66575b611b5b57600080516020612124833981519152865260028552838387205416119384611b42575b50505050611b3c5790565b50600190565b8581528286209186525283205416905038808080611b31565b505050505050600190565b508585528286208287528552838387205416611b0a565b508585528286208287528552838387205416611ad1565b508585528286208287528552838387205416611a98565b508585528286208287528552838387205416611a5f565b90815491600160401b8310156116b757826102b4916001611be59501815561179a565b565b600260015414611bf8576002600155565b604051633ee5aeb560e01b8152600490fd5b90600091825260046020526040822060018060a01b0380921683526020526101006040832060405192611c3c8461169a565b81548452806001830154166020850152600282015416604084015260038101549283606082015260ff600660048401549382808616159586156080870152818160081c16151560a087015260101c16151560c0850152600581015460e085015201541615908115938491015291611cd9575b50611cd5578015159081611ccb575b50611cc85750600190565b90565b9050421138611cbd565b5090565b905038611cae565b6001600160a01b0391821660008181527f1da0b5176dfe03406af5a6eed66ca01dda9b45ac4da671c3fa379cb93717ef8160205260408082205491949392909160ff16611dd557610100928552600460205281852090855260205280842090805193611d4c8561169a565b825485528060018401541660208601526002830154169084015260038101549283606082015260ff60066004840154938285161515608085015282808660081c161595861560a087015260101c16151560c0850152600581015460e085015201541615908115938491015291611cd95750611cd5578015159081611ccb5750611cc85750600190565b5050505050600190565b90600091825260046020526040822060018060a01b0380921683526020526101006040832060405192611e118461169a565b81548452806001830154166020850152600282015416604084015260038101549283606082015260ff600681600485015481811615156080860152818160081c16151560a086015260101c161593841560c0850152600581015460e085015201541615908115938491015291611cd95750611cd5578015159081611ccb5750611cc85750600190565b818110611ea5575050565b60008155600101611e9a565b9190601f8111611ec057505050565b611be5926000526020600020906020601f840160051c83019310611eec575b601f0160051c0190611e9a565b9091508190611edf565b919091825167ffffffffffffffff81116116b757611f1e81611f1884546117c8565b84611eb1565b602080601f8311600114611f5a575081929394600092611f4f575b50508160011b916000199060031b1c1916179055565b015190503880611f39565b90601f198316958460005282600020926000905b888210611fa657505083600195969710611f8d575b505050811b019055565b015160001960f88460031b161c19169055388080611f83565b80600185968294968601518155019501930190611f6e565b611fd690602060405192828480945193849201611777565b810103902090565b6000198114611fed5760010190565b634e487b7160e01b600052601160045260246000fd5b8054801561203057600019019061201a828261179a565b81549060018060a01b039060031b1b1916905555565b634e487b7160e01b600052603160045260246000fd5b9080821461211f5761205881546117c8565b9067ffffffffffffffff82116116b757819061207e8261207886546117c8565b86611eb1565b600090601f83116001146120b4576000926120a95750508160011b916000199060031b1c1916179055565b015490503880611f39565b81526020808220858352818320935090601f1985169083905b8282106121065750509084600195949392106120ed57505050811b019055565b015460001960f88460031b161c19169055388080611f83565b84958192958501548155600180910196019401906120cd565b505056fe5520d115ceffb88f02315d646cd7618d18024f657afe794865243ed5b75fb04fa264697066735822122097ae21f7e673f17ba5fb91c5cfb880901792015b7bcca5b73707ebff5cb0ec3664736f6c634300081400332f8788117e7eff1d82e926ec794901d17c78024a50270940304540a733656f0da49807205ce4d355092ef5a8a18f56e8913cf4a201fbe287825b095693c21775",
  "linkReferences": {},
  "deployedLinkReferences": {}
}