{
  "_format": "hh-sol-artifact-1",
  "contractName": "SealGuardAccessControl",
  "sourceName": "contracts/SealGuardAccessControl.sol",
  "abi": [
    {
      "inputs": [],
      "stateMutability": "nonpayable",
      "type": "constructor"
    },
    {
      "inputs": [],
      "name": "AccessControlBadConfirmation",
      "type": "error"
    },
    {
      "inputs": [
        {
          "internalType": "address",
          "name": "account",
          "type": "address"
        },
        {
          "internalType": "bytes32",
          "name": "neededRole",
          "type": "bytes32"
        }
      ],
      "name": "AccessControlUnauthorizedAccount",
      "type": "error"
    },
    {
      "inputs": [],
      "name": "ReentrancyGuardReentrantCall",
      "type": "error"
    },
    {
      "anonymous": false,
      "inputs": [
        {
          "indexed": true,
          "internalType": "uint256",
          "name": "documentId",
          "type": "uint256"
        },
        {
          "indexed": true,
          "internalType": "address",
          "name": "grantee",
          "type": "address"
        },
        {
          "indexed": true,
          "internalType": "address",
          "name": "grantor",
          "type": "address"
        },
        {
          "indexed": false,
          "internalType": "uint256",
          "name": "expiresAt",
          "type": "uint256"
        }
      ],
      "name": "AccessGranted",
      "type": "event"
    },
    {
      "anonymous": false,
      "inputs": [
        {
          "indexed": true,
          "internalType": "uint256",
          "name": "documentId",
          "type": "uint256"
        },
        {
          "indexed": true,
          "internalType": "address",
          "name": "grantee",
          "type": "address"
        },
        {
          "indexed": true,
          "internalType": "address",
          "name": "revoker",
          "type": "address"
        }
      ],
      "name": "AccessRevoked",
      "type": "event"
    },
    {
      "anonymous": false,
      "inputs": [
        {
          "indexed": true,
          "internalType": "string",
          "name": "organizationId",
          "type": "string"
        },
        {
          "indexed": true,
          "internalType": "address",
          "name": "member",
          "type": "address"
        },
        {
          "indexed": false,
          "internalType": "string",
          "name": "role",
          "type": "string"
        }
      ],
      "name": "OrganizationJoined",
      "type": "event"
    },
    {
      "anonymous": false,
      "inputs": [
        {
          "indexed": true,
          "internalType": "string",
          "name": "organizationId",
          "type": "string"
        },
        {
          "indexed": true,
          "internalType": "address",
          "name": "member",
          "type": "address"
        }
      ],
      "name": "OrganizationLeft",
      "type": "event"
    },
    {
      "anonymous": false,
      "inputs": [
        {
          "indexed": true,
          "internalType": "bytes32",
          "name": "role",
          "type": "bytes32"
        },
        {
          "indexed": true,
          "internalType": "bytes32",
          "name": "previousAdminRole",
          "type": "bytes32"
        },
        {
          "indexed": true,
          "internalType": "bytes32",
          "name": "newAdminRole",
          "type": "bytes32"
        }
      ],
      "name": "RoleAdminChanged",
      "type": "event"
    },
    {
      "anonymous": false,
      "inputs": [
        {
          "indexed": true,
          "internalType": "bytes32",
          "name": "role",
          "type": "bytes32"
        },
        {
          "indexed": true,
          "internalType": "address",
          "name": "account",
          "type": "address"
        },
        {
          "indexed": true,
          "internalType": "address",
          "name": "sender",
          "type": "address"
        }
      ],
      "name": "RoleGranted",
      "type": "event"
    },
    {
      "anonymous": false,
      "inputs": [
        {
          "indexed": true,
          "internalType": "bytes32",
          "name": "role",
          "type": "bytes32"
        },
        {
          "indexed": true,
          "internalType": "address",
          "name": "account",
          "type": "address"
        },
        {
          "indexed": true,
          "internalType": "address",
          "name": "sender",
          "type": "address"
        }
      ],
      "name": "RoleRevoked",
      "type": "event"
    },
    {
      "inputs": [],
      "name": "AUDITOR_ROLE",
      "outputs": [
        {
          "internalType": "bytes32",
          "name": "",
          "type": "bytes32"
        }
      ],
      "stateMutability": "view",
      "type": "function"
    },
    {
      "inputs": [],
      "name": "DEFAULT_ADMIN_ROLE",
      "outputs": [
        {
          "internalType": "bytes32",
          "name": "",
          "type": "bytes32"
        }
      ],
      "stateMutability": "view",
      "type": "function"
    },
    {
      "inputs": [],
      "name": "DOCUMENT_MANAGER_ROLE",
      "outputs": [
        {
          "internalType": "bytes32",
          "name": "",
          "type": "bytes32"
        }
      ],
      "stateMutability": "view",
      "type": "function"
    },
    {
      "inputs": [],
      "name": "VERIFIER_ROLE",
      "outputs": [
        {
          "internalType": "bytes32",
          "name": "",
          "type": "bytes32"
        }
      ],
      "stateMutability": "view",
      "type": "function"
    },
    {
      "inputs": [
        {
          "internalType": "uint256",
          "name": "",
          "type": "uint256"
        },
        {
          "internalType": "address",
          "name": "",
          "type": "address"
        }
      ],
      "name": "documentAccess",
      "outputs": [
        {
          "internalType": "uint256",
          "name": "documentId",
          "type": "uint256"
        },
        {
          "internalType": "address",
          "name": "grantee",
          "type": "address"
        },
        {
          "internalType": "address",
          "name": "grantor",
          "type": "address"
        },
        {
          "internalType": "uint256",
          "name": "expiresAt",
          "type": "uint256"
        },
        {
          "internalType": "bool",
          "name": "canRead",
          "type": "bool"
        },
        {
          "internalType": "bool",
          "name": "canVerify",
          "type": "bool"
        },
        {
          "internalType": "bool",
          "name": "canTransfer",
          "type": "bool"
        },
        {
          "internalType": "uint256",
          "name": "grantedAt",
          "type": "uint256"
        },
        {
          "internalType": "bool",
          "name": "isActive",
          "type": "bool"
        }
      ],
      "stateMutability": "view",
      "type": "function"
    },
    {
      "inputs": [
        {
          "internalType": "uint256",
          "name": "",
          "type": "uint256"
        },
        {
          "internalType": "uint256",
          "name": "",
          "type": "uint256"
        }
      ],
      "name": "documentAccessList",
      "outputs": [
        {
          "internalType": "address",
          "name": "",
          "type": "address"
        }
      ],
      "stateMutability": "view",
      "type": "function"
    },
    {
      "inputs": [
        {
          "internalType": "uint256",
          "name": "documentId",
          "type": "uint256"
        },
        {
          "internalType": "address",
          "name": "user",
          "type": "address"
        }
      ],
      "name": "getAccessPermission",
      "outputs": [
        {
          "components": [
            {
              "internalType": "uint256",
              "name": "documentId",
              "type": "uint256"
            },
            {
              "internalType": "address",
              "name": "grantee",
              "type": "address"
            },
            {
              "internalType": "address",
              "name": "grantor",
              "type": "address"
            },
            {
              "internalType": "uint256",
              "name": "expiresAt",
              "type": "uint256"
            },
            {
              "internalType": "bool",
              "name": "canRead",
              "type": "bool"
            },
            {
              "internalType": "bool",
              "name": "canVerify",
              "type": "bool"
            },
            {
              "internalType": "bool",
              "name": "canTransfer",
              "type": "bool"
            },
            {
              "internalType": "uint256",
              "name": "grantedAt",
              "type": "uint256"
            },
            {
              "internalType": "bool",
              "name": "isActive",
              "type": "bool"
            }
          ],
          "internalType": "struct SealGuardAccessControl.AccessPermission",
          "name": "",
          "type": "tuple"
        }
      ],
      "stateMutability": "view",
      "type": "function"
    },
    {
      "inputs": [
        {
          "internalType": "uint256",
          "name": "documentId",
          "type": "uint256"
        }
      ],
      "name": "getDocumentAccessList",
      "outputs": [
        {
          "internalType": "address[]",
          "name": "",
          "type": "address[]"
        }
      ],
      "stateMutability": "view",
      "type": "function"
    },
    {
      "inputs": [
        {
          "internalType": "string",
          "name": "organizationId",
          "type": "string"
        }
      ],
      "name": "getOrganizationMembers",
      "outputs": [
        {
          "internalType": "address[]",
          "name": "",
          "type": "address[]"
        }
      ],
      "stateMutability": "view",
      "type": "function"
    },
    {
      "inputs": [
        {
          "internalType": "bytes32",
          "name": "role",
          "type": "bytes32"
        }
      ],
      "name": "getRoleAdmin",
      "outputs": [
        {
          "internalType": "bytes32",
          "name": "",
          "type": "bytes32"
        }
      ],
      "stateMutability": "view",
      "type": "function"
    },
    {
      "inputs": [
        {
          "internalType": "address",
          "name": "user",
          "type": "address"
        }
      ],
      "name": "getUserOrganizations",
      "outputs": [
        {
          "internalType": "string[]",
          "name": "",
          "type": "string[]"
        }
      ],
      "stateMutability": "view",
      "type": "function"
    },
    {
      "inputs": [
        {
          "internalType": "uint256",
          "name": "documentId",
          "type": "uint256"
        },
        {
          "internalType": "address",
          "name": "grantee",
          "type": "address"
        },
        {
          "internalType": "uint256",
          "name": "expiresAt",
          "type": "uint256"
        },
        {
          "internalType": "bool",
          "name": "canRead",
          "type": "bool"
        },
        {
          "internalType": "bool",
          "name": "canVerify",
          "type": "bool"
        },
        {
          "internalType": "bool",
          "name": "canTransfer",
          "type": "bool"
        }
      ],
      "name": "grantDocumentAccess",
      "outputs": [],
      "stateMutability": "nonpayable",
      "type": "function"
    },
    {
      "inputs": [
        {
          "internalType": "bytes32",
          "name": "role",
          "type": "bytes32"
        },
        {
          "internalType": "address",
          "name": "account",
          "type": "address"
        }
      ],
      "name": "grantRole",
      "outputs": [],
      "stateMutability": "nonpayable",
      "type": "function"
    },
    {
      "inputs": [
        {
          "internalType": "uint256",
          "name": "documentId",
          "type": "uint256"
        },
        {
          "internalType": "address",
          "name": "user",
          "type": "address"
        }
      ],
      "name": "hasReadAccess",
      "outputs": [
        {
          "internalType": "bool",
          "name": "",
          "type": "bool"
        }
      ],
      "stateMutability": "view",
      "type": "function"
    },
    {
      "inputs": [
        {
          "internalType": "bytes32",
          "name": "role",
          "type": "bytes32"
        },
        {
          "internalType": "address",
          "name": "account",
          "type": "address"
        }
      ],
      "name": "hasRole",
      "outputs": [
        {
          "internalType": "bool",
          "name": "",
          "type": "bool"
        }
      ],
      "stateMutability": "view",
      "type": "function"
    },
    {
      "inputs": [
        {
          "internalType": "uint256",
          "name": "documentId",
          "type": "uint256"
        },
        {
          "internalType": "address",
          "name": "user",
          "type": "address"
        }
      ],
      "name": "hasTransferAccess",
      "outputs": [
        {
          "internalType": "bool",
          "name": "",
          "type": "bool"
        }
      ],
      "stateMutability": "view",
      "type": "function"
    },
    {
      "inputs": [
        {
          "internalType": "uint256",
          "name": "documentId",
          "type": "uint256"
        },
        {
          "internalType": "address",
          "name": "user",
          "type": "address"
        }
      ],
      "name": "hasVerifyAccess",
      "outputs": [
        {
          "internalType": "bool",
          "name": "",
          "type": "bool"
        }
      ],
      "stateMutability": "view",
      "type": "function"
    },
    {
      "inputs": [
        {
          "internalType": "string",
          "name": "organizationId",
          "type": "string"
        },
        {
          "internalType": "string",
          "name": "role",
          "type": "string"
        }
      ],
      "name": "joinOrganization",
      "outputs": [],
      "stateMutability": "nonpayable",
      "type": "function"
    },
    {
      "inputs": [
        {
          "internalType": "string",
          "name": "organizationId",
          "type": "string"
        }
      ],
      "name": "leaveOrganization",
      "outputs": [],
      "stateMutability": "nonpayable",
      "type": "function"
    },
    {
      "inputs": [
        {
          "internalType": "string",
          "name": "",
          "type": "string"
        },
        {
          "internalType": "address",
          "name": "",
          "type": "address"
        }
      ],
      "name": "orgMemberDetails",
      "outputs": [
        {
          "internalType": "address",
          "name": "member",
          "type": "address"
        },
        {
          "internalType": "string",
          "name": "role",
          "type": "string"
        },
        {
          "internalType": "uint256",
          "name": "joinedAt",
          "type": "uint256"
        },
        {
          "internalType": "bool",
          "name": "isActive",
          "type": "bool"
        }
      ],
      "stateMutability": "view",
      "type": "function"
    },
    {
      "inputs": [
        {
          "internalType": "string",
          "name": "",
          "type": "string"
        },
        {
          "internalType": "uint256",
          "name": "",
          "type": "uint256"
        }
      ],
      "name": "organizationMembers",
      "outputs": [
        {
          "internalType": "address",
          "name": "",
          "type": "address"
        }
      ],
      "stateMutability": "view",
      "type": "function"
    },
    {
      "inputs": [
        {
          "internalType": "bytes32",
          "name": "role",
          "type": "bytes32"
        },
        {
          "internalType": "address",
          "name": "callerConfirmation",
          "type": "address"
        }
      ],
      "name": "renounceRole",
      "outputs": [],
      "stateMutability": "nonpayable",
      "type": "function"
    },
    {
      "inputs": [
        {
          "internalType": "uint256",
          "name": "documentId",
          "type": "uint256"
        },
        {
          "internalType": "address",
          "name": "grantee",
          "type": "address"
        }
      ],
      "name": "revokeDocumentAccess",
      "outputs": [],
      "stateMutability": "nonpayable",
      "type": "function"
    },
    {
      "inputs": [
        {
          "internalType": "bytes32",
          "name": "role",
          "type": "bytes32"
        },
        {
          "internalType": "address",
          "name": "account",
          "type": "address"
        }
      ],
      "name": "revokeRole",
      "outputs": [],
      "stateMutability": "nonpayable",
      "type": "function"
    },
    {
      "inputs": [
        {
          "internalType": "bytes4",
          "name": "interfaceId",
          "type": "bytes4"
        }
      ],
      "name": "supportsInterface",
      "outputs": [
        {
          "internalType": "bool",
          "name": "",
          "type": "bool"
        }
      ],
      "stateMutability": "view",
      "type": "function"
    },
    {
      "inputs": [
        {
          "internalType": "address",
          "name": "",
          "type": "address"
        },
        {
          "internalType": "uint256",
          "name": "",
          "type": "uint256"
        }
      ],
      "name": "userOrganizations",
      "outputs": [
        {
          "internalType": "string",
          "name": "",
          "type": "string"
        }
      ],
      "stateMutability": "view",
      "type": "function"
    }
  ],
  "bytecode": "0x60806040523480156200001157600080fd5b506001805562000023600033620000b1565b50620000507f0ce23c3e399818cfee81a7ab0880f714e53d7672b08df0fa62f2843416e1ea0933620000b1565b506200007d7f59a1c48e5837ad7a7f3dcedcbe129bf3249ec4fbf651fd4f5e2600ead39fe2f533620000b1565b50620000aa7f5520d115ceffb88f02315d646cd7618d18024f657afe794865243ed5b75fb04f33620000b1565b5062000160565b6000828152602081815260408083206001600160a01b038516845290915281205460ff1662000156576000838152602081815260408083206001600160a01b03861684529091529020805460ff191660011790556200010d3390565b6001600160a01b0316826001600160a01b0316847f2f8788117e7eff1d82e926ec794901d17c78024a50270940304540a733656f0d60405160405180910390a45060016200015a565b5060005b92915050565b6121b180620001706000396000f3fe608060405234801561001057600080fd5b506004361061018e5760003560e01c80636b0cdf1d116100de578063a260d07f11610097578063d4b5bf5611610071578063d4b5bf561461057a578063d547741f1461059a578063e7705db6146105ad578063f147add0146105d457600080fd5b8063a260d07f14610520578063aa097ef014610533578063cffafec21461055357600080fd5b80636b0cdf1d146104955780636e1d616e146104a8578063856e0019146104cf57806391d14854146104f2578063969772bc14610505578063a217fddf1461051857600080fd5b80632859171a1161014b5780633fef6a56116101255780633fef6a56146102985780634db65851146102ab57806358cd8ca5146103b657806369366e571461048257600080fd5b80632859171a146102475780632f2ff15d1461027257806336568abe1461028557600080fd5b806301ffc9a7146101935780630b6abe8b146101bb57806314ebc2d8146101db5780631bc5a1dc146101ee578063248a9ca31461020357806326efadd714610234575b600080fd5b6101a66101a136600461193a565b6105e7565b60405190151581526020015b60405180910390f35b6101ce6101c936600461196b565b61061e565b6040516101b29190611984565b6101ce6101e9366004611a74565b61068a565b6102016101fc366004611ab1565b610702565b005b61022661021136600461196b565b60009081526020819052604090206001015490565b6040519081526020016101b2565b6101a6610242366004611b31565b610977565b61025a610255366004611b5d565b610aa1565b6040516001600160a01b0390911681526020016101b2565b610201610280366004611b31565b610ae8565b610201610293366004611b31565b610b13565b6102016102a6366004611bb2565b610b4b565b6103a96102b9366004611b31565b6040805161012081018252600080825260208201819052918101829052606081018290526080810182905260a0810182905260c0810182905260e081018290526101008101919091525060009182526002602081815260408085206001600160a01b039485168652825293849020845161012081018652815481526001820154851692810192909252918201549092169282019290925260038201546060820152600482015460ff808216151560808401526101008083048216151560a0850152620100009092048116151560c0840152600584015460e084015260069093015490921615159181019190915290565b6040516101b29190611c18565b61042c6103c4366004611b31565b60026020818152600093845260408085209091529183529120805460018201549282015460038301546004840154600585015460069095015493956001600160a01b0390811695931693919260ff808316936101008404821693620100009004821692911689565b60408051998a526001600160a01b0398891660208b0152969097169588019590955260608701939093529015156080860152151560a0850152151560c084015260e08301521515610100820152610120016101b2565b6101a6610490366004611b31565b610dff565b6102016104a3366004611b31565b610eb8565b6102267f59a1c48e5837ad7a7f3dcedcbe129bf3249ec4fbf651fd4f5e2600ead39fe2f581565b6104e26104dd366004611cb3565b611031565b6040516101b29493929190611d48565b6101a6610500366004611b31565b61110b565b6101a6610513366004611b31565b611134565b610226600081565b61025a61052e366004611d84565b6111ed565b610546610541366004611da6565b611209565b6040516101b29190611dc1565b6102267f5520d115ceffb88f02315d646cd7618d18024f657afe794865243ed5b75fb04f81565b61058d610588366004611e23565b6112f8565b6040516101b29190611e4d565b6102016105a8366004611b31565b6113b1565b6102267f0ce23c3e399818cfee81a7ab0880f714e53d7672b08df0fa62f2843416e1ea0981565b6102016105e2366004611a74565b6113d6565b60006001600160e01b03198216637965db0b60e01b148061061857506301ffc9a760e01b6001600160e01b03198316145b92915050565b60008181526003602090815260409182902080548351818402810184019094528084526060939283018282801561067e57602002820191906000526020600020905b81546001600160a01b03168152600190910190602001808311610660575b50505050509050919050565b606060048260405161069c9190611e60565b908152604080519182900360209081018320805480830285018301909352828452919083018282801561067e576020028201919060005260206000209081546001600160a01b031681526001909101906020018083116106605750505050509050919050565b61070a6114ed565b60008251116107605760405162461bcd60e51b815260206004820152601760248201527f496e76616c6964206f7267616e697a6174696f6e20494400000000000000000060448201526064015b60405180910390fd5b60008151116107a05760405162461bcd60e51b815260206004820152600c60248201526b496e76616c696420726f6c6560a01b6044820152606401610757565b6006826040516107b09190611e60565b9081526040805160209281900383019020336000908152925290206003015460ff16156108125760405162461bcd60e51b815260206004820152601060248201526f20b63932b0b23c90309036b2b6b132b960811b6044820152606401610757565b6004826040516108229190611e60565b908152604080516020928190038301902080546001808201835560009283528483209091018054336001600160a01b03199091168117909155825260058452918120805492830181558152919091200161087c8382611efc565b50604080516080810182523381526020810183905242818301526001606082015290516006906108ad908590611e60565b908152604080516020928190038301902033600090815290835220825181546001600160a01b0319166001600160a01b039091161781559082015160018201906108f79082611efc565b5060408281015160028301556060909201516003909101805460ff191691151591909117905551339061092b908490611e60565b60405180910390207f39e664301c7d6a710381efac98d5565f2f5d7cbb1cd7366f352467896a809b43836040516109629190611e4d565b60405180910390a361097360018055565b5050565b60006109a37f0ce23c3e399818cfee81a7ab0880f714e53d7672b08df0fa62f2843416e1ea098361110b565b156109b057506001610618565b60008381526002602081815260408084206001600160a01b03808816865290835293819020815161012081018352815481526001820154861693810193909352928301549093169281019290925260038101546060830152600481015460ff808216151560808501526101008083048216151560a0860152620100009092048116151560c0850152600583015460e08501526006909201549091161580159183019190915280610a6257508060a00151155b15610a71576000915050610618565b60008160600151118015610a885750806060015142115b15610a97576000915050610618565b5060019392505050565b81516020818401810180516004825292820191850191909120919052805482908110610acc57600080fd5b6000918252602090912001546001600160a01b03169150829050565b600082815260208190526040902060010154610b0381611517565b610b0d8383611521565b50505050565b6001600160a01b0381163314610b3c5760405163334bd91960e11b815260040160405180910390fd5b610b4682826115b3565b505050565b610b536114ed565b6001600160a01b038516610ba95760405162461bcd60e51b815260206004820152601760248201527f496e76616c6964206772616e74656520616464726573730000000000000000006044820152606401610757565b336001600160a01b03861603610c015760405162461bcd60e51b815260206004820152601b60248201527f43616e6e6f74206772616e742061636365737320746f2073656c6600000000006044820152606401610757565b610c2b7f5520d115ceffb88f02315d646cd7618d18024f657afe794865243ed5b75fb04f3361110b565b80610c34575060005b610c805760405162461bcd60e51b815260206004820152601e60248201527f4e6f7420617574686f72697a656420746f206772616e742061636365737300006044820152606401610757565b8315610cd557428411610cd55760405162461bcd60e51b815260206004820152601d60248201527f4578706972792074696d65206d75737420626520696e206675747572650000006044820152606401610757565b60008681526002602090815260408083206001600160a01b03891684529091529020600681015460ff16610d3b5760008781526003602090815260408220805460018101825590835291200180546001600160a01b0319166001600160a01b0388161790555b868155600180820180546001600160a01b03199081166001600160a01b038a16908117909255600284018054339216821790556003840188905560048401805461ffff191688151561ff00191617610100881515021762ff00001916620100008715150217905542600585015560068401805460ff191690931790925560405187815289907f9ffcf664651d52310aeb78c0f8382ca5078d2de7d3cf618cb5ce6e5cabf009929060200160405180910390a450610df760018055565b505050505050565b60008281526002602081815260408084206001600160a01b03868116865290835281852082516101208101845281548152600182015483169481019490945293840154169082015260038201546060820152600482015460ff808216151560808401526101008083048216151560a0850152620100009092048116151560c0840152600584015460e0840152600690930154909216158015928201929092529080610a6257508060800151610a71576000915050610618565b610ec06114ed565b610eea7f5520d115ceffb88f02315d646cd7618d18024f657afe794865243ed5b75fb04f3361110b565b80610ef3575060005b80610f22575060008281526002602081815260408084206001600160a01b038681168652925290922001541633145b610f6e5760405162461bcd60e51b815260206004820152601f60248201527f4e6f7420617574686f72697a656420746f207265766f6b6520616363657373006044820152606401610757565b60008281526002602090815260408083206001600160a01b03851684529091529020600681015460ff16610fd95760405162461bcd60e51b81526020600482015260126024820152711058d8d95cdcc81b9bdd0819dc985b9d195960721b6044820152606401610757565b60068101805460ff19169055610fef838361161e565b60405133906001600160a01b0384169085907f260547d4038414ef72f081dcde91825693dff9bc433178f3e92ad36e0cd2275090600090a45061097360018055565b815160208184018101805160068252928201948201949094209190935290915260009081526040902080546001820180546001600160a01b03909216929161107890611e7c565b80601f01602080910402602001604051908101604052809291908181526020018280546110a490611e7c565b80156110f15780601f106110c6576101008083540402835291602001916110f1565b820191906000526020600020905b8154815290600101906020018083116110d457829003601f168201915b50505050600283015460039093015491929160ff16905084565b6000918252602082815260408084206001600160a01b0393909316845291905290205460ff1690565b60008281526002602081815260408084206001600160a01b03868116865290835281852082516101208101845281548152600182015483169481019490945293840154169082015260038201546060820152600482015460ff808216151560808401526101008083048216151560a0850152620100009092048116151560c0840152600584015460e0840152600690930154909216158015928201929092529080610a6257508060c00151610a71576000915050610618565b60036020528160005260406000208181548110610acc57600080fd5b6001600160a01b0381166000908152600560209081526040808320805482518185028101850190935280835260609492939192909184015b828210156112ed57838290600052602060002001805461126090611e7c565b80601f016020809104026020016040519081016040528092919081815260200182805461128c90611e7c565b80156112d95780601f106112ae576101008083540402835291602001916112d9565b820191906000526020600020905b8154815290600101906020018083116112bc57829003601f168201915b505050505081526020019060010190611241565b505050509050919050565b6005602052816000526040600020818154811061131457600080fd5b9060005260206000200160009150915050805461133090611e7c565b80601f016020809104026020016040519081016040528092919081815260200182805461135c90611e7c565b80156113a95780601f1061137e576101008083540402835291602001916113a9565b820191906000526020600020905b81548152906001019060200180831161138c57829003601f168201915b505050505081565b6000828152602081905260409020600101546113cc81611517565b610b0d83836115b3565b6113de6114ed565b6006816040516113ee9190611e60565b9081526040805160209281900383019020336000908152925290206003015460ff1661144b5760405162461bcd60e51b815260206004820152600c60248201526b2737ba10309036b2b6b132b960a11b6044820152606401610757565b600060068260405161145d9190611e60565b90815260408051602092819003830190203360008181529190935220600301805460ff191692151592909217909155611497908290611734565b6114a133826117ba565b60405133906114b1908390611e60565b604051908190038120907f9fdbd38db638563dfdf213622a60ee0d000ebabad5efa2807bde424e404f2db890600090a36114ea60018055565b50565b60026001540361151057604051633ee5aeb560e01b815260040160405180910390fd5b6002600155565b6114ea81336118b3565b600061152d838361110b565b6115ab576000838152602081815260408083206001600160a01b03861684529091529020805460ff191660011790556115633390565b6001600160a01b0316826001600160a01b0316847f2f8788117e7eff1d82e926ec794901d17c78024a50270940304540a733656f0d60405160405180910390a4506001610618565b506000610618565b60006115bf838361110b565b156115ab576000838152602081815260408083206001600160a01b0386168085529252808320805460ff1916905551339286917ff6391f5c32d9c69d2a47ea670b442974b53935d1edc7fd64eb21e047a839171b9190a4506001610618565b6000828152600360205260408120905b8154811015610b0d57826001600160a01b031682828154811061165357611653611fbc565b6000918252602090912001546001600160a01b031603611722578154829061167d90600190611fe8565b8154811061168d5761168d611fbc565b9060005260206000200160009054906101000a90046001600160a01b03168282815481106116bd576116bd611fbc565b9060005260206000200160006101000a8154816001600160a01b0302191690836001600160a01b03160217905550818054806116fb576116fb611ffb565b600082815260209020810160001990810180546001600160a01b0319169055019055610b0d565b8061172c81612011565b91505061162e565b60006004836040516117469190611e60565b9081526020016040518091039020905060005b8154811015610b0d57826001600160a01b031682828154811061177e5761177e611fbc565b6000918252602090912001546001600160a01b0316036117a8578154829061167d90600190611fe8565b806117b281612011565b915050611759565b6001600160a01b0382166000908152600560205260408120905b8154811015610b0d5782805190602001208282815481106117f7576117f7611fbc565b9060005260206000200160405161180e919061202a565b6040518091039020036118a1578154829061182b90600190611fe8565b8154811061183b5761183b611fbc565b9060005260206000200182828154811061185757611857611fbc565b90600052602060002001908161186d91906120a0565b508180548061187e5761187e611ffb565b60019003818190600052602060002001600061189a91906118ec565b9055610b0d565b806118ab81612011565b9150506117d4565b6118bd828261110b565b6109735760405163e2517d3f60e01b81526001600160a01b038216600482015260248101839052604401610757565b5080546118f890611e7c565b6000825580601f10611908575050565b601f0160209004906000526020600020908101906114ea91905b808211156119365760008155600101611922565b5090565b60006020828403121561194c57600080fd5b81356001600160e01b03198116811461196457600080fd5b9392505050565b60006020828403121561197d57600080fd5b5035919050565b6020808252825182820181905260009190848201906040850190845b818110156119c55783516001600160a01b0316835292840192918401916001016119a0565b50909695505050505050565b634e487b7160e01b600052604160045260246000fd5b600082601f8301126119f857600080fd5b813567ffffffffffffffff80821115611a1357611a136119d1565b604051601f8301601f19908116603f01168101908282118183101715611a3b57611a3b6119d1565b81604052838152866020858801011115611a5457600080fd5b836020870160208301376000602085830101528094505050505092915050565b600060208284031215611a8657600080fd5b813567ffffffffffffffff811115611a9d57600080fd5b611aa9848285016119e7565b949350505050565b60008060408385031215611ac457600080fd5b823567ffffffffffffffff80821115611adc57600080fd5b611ae8868387016119e7565b93506020850135915080821115611afe57600080fd5b50611b0b858286016119e7565b9150509250929050565b80356001600160a01b0381168114611b2c57600080fd5b919050565b60008060408385031215611b4457600080fd5b82359150611b5460208401611b15565b90509250929050565b60008060408385031215611b7057600080fd5b823567ffffffffffffffff811115611b8757600080fd5b611b93858286016119e7565b95602094909401359450505050565b80358015158114611b2c57600080fd5b60008060008060008060c08789031215611bcb57600080fd5b86359550611bdb60208801611b15565b945060408701359350611bf060608801611ba2565b9250611bfe60808801611ba2565b9150611c0c60a08801611ba2565b90509295509295509295565b60006101208201905082518252602083015160018060a01b0380821660208501528060408601511660408501525050606083015160608301526080830151611c64608084018215159052565b5060a0830151611c7860a084018215159052565b5060c0830151611c8c60c084018215159052565b5060e083015160e083015261010080840151611cab8285018215159052565b505092915050565b60008060408385031215611cc657600080fd5b823567ffffffffffffffff811115611cdd57600080fd5b611ce9858286016119e7565b925050611b5460208401611b15565b60005b83811015611d13578181015183820152602001611cfb565b50506000910152565b60008151808452611d34816020860160208601611cf8565b601f01601f19169290920160200192915050565b6001600160a01b0385168152608060208201819052600090611d6c90830186611d1c565b60408301949094525090151560609091015292915050565b60008060408385031215611d9757600080fd5b50508035926020909101359150565b600060208284031215611db857600080fd5b61196482611b15565b6000602080830181845280855180835260408601915060408160051b870101925083870160005b82811015611e1657603f19888603018452611e04858351611d1c565b94509285019290850190600101611de8565b5092979650505050505050565b60008060408385031215611e3657600080fd5b611e3f83611b15565b946020939093013593505050565b6020815260006119646020830184611d1c565b60008251611e72818460208701611cf8565b9190910192915050565b600181811c90821680611e9057607f821691505b602082108103611eb057634e487b7160e01b600052602260045260246000fd5b50919050565b601f821115610b4657600081815260208120601f850160051c81016020861015611edd5750805b601f850160051c820191505b81811015610df757828155600101611ee9565b815167ffffffffffffffff811115611f1657611f166119d1565b611f2a81611f248454611e7c565b84611eb6565b602080601f831160018114611f5f5760008415611f475750858301515b600019600386901b1c1916600185901b178555610df7565b600085815260208120601f198616915b82811015611f8e57888601518255948401946001909101908401611f6f565b5085821015611fac5787850151600019600388901b60f8161c191681555b5050505050600190811b01905550565b634e487b7160e01b600052603260045260246000fd5b634e487b7160e01b600052601160045260246000fd5b8181038181111561061857610618611fd2565b634e487b7160e01b600052603160045260246000fd5b60006001820161202357612023611fd2565b5060010190565b600080835461203881611e7c565b60018281168015612050576001811461206557612094565b60ff1984168752821515830287019450612094565b8760005260208060002060005b8581101561208b5781548a820152908401908201612072565b50505082870194505b50929695505050505050565b8181036120ab575050565b6120b58254611e7c565b67ffffffffffffffff8111156120cd576120cd6119d1565b6120db81611f248454611e7c565b6000601f82116001811461210f57600083156120f75750848201545b600019600385901b1c1916600184901b178455612174565b600085815260209020601f19841690600086815260209020845b838110156121495782860154825560019586019590910190602001612129565b50858310156121675781850154600019600388901b60f8161c191681555b50505060018360011b0184555b505050505056fea26469706673582212202e3daf03c087b91e98e0bff95a1cceca88556864bd4dbecadcf8b7b13c7d940b64736f6c63430008140033",
  "linkReferences": {},
  "deployedLinkReferences": {}
}