{
  "_format": "hh-sol-artifact-1",
  "contractName": "SealGuardRegistry",
  "sourceName": "contracts/SealGuardRegistry.sol",
  "abi": [
    {
      "inputs": [
        {
          "internalType": "address",
          "name": "initialOwner",
          "type": "address"
        },
        {
          "internalType": "address",
          "name": "_accessControl",
          "type": "address"
        }
      ],
      "stateMutability": "nonpayable",
      "type": "constructor"
    },
    {
      "inputs": [
        {
          "internalType": "address",
          "name": "owner",
          "type": "address"
        }
      ],
      "name": "OwnableInvalidOwner",
      "type": "error"
    },
    {
      "inputs": [
        {
          "internalType": "address",
          "name": "account",
          "type": "address"
        }
      ],
      "name": "OwnableUnauthorizedAccount",
      "type": "error"
    },
    {
      "inputs": [],
      "name": "ReentrancyGuardReentrantCall",
      "type": "error"
    },
    {
      "anonymous": false,
      "inputs": [
        {
          "indexed": true,
          "internalType": "string",
          "name": "documentType",
          "type": "string"
        },
        {
          "indexed": false,
          "internalType": "bool",
          "name": "enabled",
          "type": "bool"
        },
        {
          "indexed": false,
          "internalType": "uint256",
          "name": "timeThreshold",
          "type": "uint256"
        },
        {
          "indexed": false,
          "internalType": "uint256",
          "name": "consensusThreshold",
          "type": "uint256"
        }
      ],
      "name": "AutoVerificationConfigUpdated",
      "type": "event"
    },
    {
      "anonymous": false,
      "inputs": [
        {
          "indexed": true,
          "internalType": "uint256",
          "name": "documentId",
          "type": "uint256"
        },
        {
          "indexed": false,
          "internalType": "enum SealGuardRegistry.TriggerType",
          "name": "triggerType",
          "type": "uint8"
        },
        {
          "indexed": true,
          "internalType": "address",
          "name": "triggeredBy",
          "type": "address"
        },
        {
          "indexed": false,
          "internalType": "uint256",
          "name": "timestamp",
          "type": "uint256"
        }
      ],
      "name": "AutoVerificationTriggered",
      "type": "event"
    },
    {
      "anonymous": false,
      "inputs": [
        {
          "indexed": true,
          "internalType": "uint256",
          "name": "documentId",
          "type": "uint256"
        },
        {
          "indexed": true,
          "internalType": "address",
          "name": "owner",
          "type": "address"
        },
        {
          "indexed": false,
          "internalType": "string",
          "name": "filecoinCID",
          "type": "string"
        },
        {
          "indexed": false,
          "internalType": "bytes32",
          "name": "fileHash",
          "type": "bytes32"
        }
      ],
      "name": "DocumentRegistered",
      "type": "event"
    },
    {
      "anonymous": false,
      "inputs": [
        {
          "indexed": true,
          "internalType": "uint256",
          "name": "documentId",
          "type": "uint256"
        },
        {
          "indexed": true,
          "internalType": "address",
          "name": "verifier",
          "type": "address"
        },
        {
          "indexed": false,
          "internalType": "bytes32",
          "name": "proofHash",
          "type": "bytes32"
        },
        {
          "indexed": false,
          "internalType": "bool",
          "name": "isValid",
          "type": "bool"
        }
      ],
      "name": "DocumentVerified",
      "type": "event"
    },
    {
      "anonymous": false,
      "inputs": [
        {
          "indexed": true,
          "internalType": "uint256",
          "name": "documentId",
          "type": "uint256"
        },
        {
          "indexed": false,
          "internalType": "bool",
          "name": "required",
          "type": "bool"
        },
        {
          "indexed": false,
          "internalType": "string",
          "name": "documentType",
          "type": "string"
        }
      ],
      "name": "MultiSigRequirementSet",
      "type": "event"
    },
    {
      "anonymous": false,
      "inputs": [
        {
          "indexed": true,
          "internalType": "uint256",
          "name": "documentId",
          "type": "uint256"
        },
        {
          "indexed": true,
          "internalType": "address",
          "name": "multiSigContract",
          "type": "address"
        },
        {
          "indexed": false,
          "internalType": "uint256",
          "name": "proposalId",
          "type": "uint256"
        }
      ],
      "name": "MultiSigVerificationCompleted",
      "type": "event"
    },
    {
      "anonymous": false,
      "inputs": [
        {
          "indexed": true,
          "internalType": "address",
          "name": "previousOwner",
          "type": "address"
        },
        {
          "indexed": true,
          "internalType": "address",
          "name": "newOwner",
          "type": "address"
        }
      ],
      "name": "OwnershipTransferred",
      "type": "event"
    },
    {
      "anonymous": false,
      "inputs": [
        {
          "indexed": true,
          "internalType": "uint256",
          "name": "documentId",
          "type": "uint256"
        },
        {
          "indexed": true,
          "internalType": "address",
          "name": "previousOwner",
          "type": "address"
        },
        {
          "indexed": true,
          "internalType": "address",
          "name": "newOwner",
          "type": "address"
        }
      ],
      "name": "OwnershipTransferred",
      "type": "event"
    },
    {
      "anonymous": false,
      "inputs": [
        {
          "indexed": true,
          "internalType": "uint256",
          "name": "documentId",
          "type": "uint256"
        },
        {
          "indexed": false,
          "internalType": "uint256",
          "name": "verifierCount",
          "type": "uint256"
        },
        {
          "indexed": false,
          "internalType": "uint256",
          "name": "threshold",
          "type": "uint256"
        }
      ],
      "name": "VerificationThresholdReached",
      "type": "event"
    },
    {
      "inputs": [],
      "name": "accessControl",
      "outputs": [
        {
          "internalType": "contract SealGuardAccessControl",
          "name": "",
          "type": "address"
        }
      ],
      "stateMutability": "view",
      "type": "function"
    },
    {
      "inputs": [
        {
          "internalType": "uint256",
          "name": "documentId",
          "type": "uint256"
        }
      ],
      "name": "archiveDocument",
      "outputs": [],
      "stateMutability": "nonpayable",
      "type": "function"
    },
    {
      "inputs": [
        {
          "internalType": "string",
          "name": "",
          "type": "string"
        }
      ],
      "name": "autoVerificationConfigs",
      "outputs": [
        {
          "internalType": "bool",
          "name": "enabled",
          "type": "bool"
        },
        {
          "internalType": "uint256",
          "name": "timeThreshold",
          "type": "uint256"
        },
        {
          "internalType": "uint256",
          "name": "consensusThreshold",
          "type": "uint256"
        },
        {
          "internalType": "bool",
          "name": "requiresManualApproval",
          "type": "bool"
        },
        {
          "internalType": "uint256",
          "name": "maxAutoVerifications",
          "type": "uint256"
        }
      ],
      "stateMutability": "view",
      "type": "function"
    },
    {
      "inputs": [
        {
          "internalType": "uint256",
          "name": "",
          "type": "uint256"
        }
      ],
      "name": "autoVerificationCount",
      "outputs": [
        {
          "internalType": "uint256",
          "name": "",
          "type": "uint256"
        }
      ],
      "stateMutability": "view",
      "type": "function"
    },
    {
      "inputs": [
        {
          "internalType": "uint256[]",
          "name": "documentIds",
          "type": "uint256[]"
        }
      ],
      "name": "batchProcessAutomatedVerifications",
      "outputs": [],
      "stateMutability": "nonpayable",
      "type": "function"
    },
    {
      "inputs": [
        {
          "internalType": "bytes32",
          "name": "fileHash",
          "type": "bytes32"
        }
      ],
      "name": "documentExistsByHash",
      "outputs": [
        {
          "internalType": "bool",
          "name": "",
          "type": "bool"
        }
      ],
      "stateMutability": "view",
      "type": "function"
    },
    {
      "inputs": [
        {
          "internalType": "uint256",
          "name": "",
          "type": "uint256"
        }
      ],
      "name": "documentExpiry",
      "outputs": [
        {
          "internalType": "uint256",
          "name": "",
          "type": "uint256"
        }
      ],
      "stateMutability": "view",
      "type": "function"
    },
    {
      "inputs": [
        {
          "internalType": "uint256",
          "name": "",
          "type": "uint256"
        },
        {
          "internalType": "uint256",
          "name": "",
          "type": "uint256"
        }
      ],
      "name": "documentProofs",
      "outputs": [
        {
          "internalType": "uint256",
          "name": "documentId",
          "type": "uint256"
        },
        {
          "internalType": "bytes32",
          "name": "proofHash",
          "type": "bytes32"
        },
        {
          "internalType": "uint256",
          "name": "timestamp",
          "type": "uint256"
        },
        {
          "internalType": "address",
          "name": "verifier",
          "type": "address"
        },
        {
          "internalType": "bool",
          "name": "isValid",
          "type": "bool"
        },
        {
          "internalType": "string",
          "name": "proofData",
          "type": "string"
        }
      ],
      "stateMutability": "view",
      "type": "function"
    },
    {
      "inputs": [
        {
          "internalType": "string",
          "name": "",
          "type": "string"
        }
      ],
      "name": "documentTypeExpiry",
      "outputs": [
        {
          "internalType": "uint256",
          "name": "",
          "type": "uint256"
        }
      ],
      "stateMutability": "view",
      "type": "function"
    },
    {
      "inputs": [
        {
          "internalType": "uint256",
          "name": "",
          "type": "uint256"
        }
      ],
      "name": "documents",
      "outputs": [
        {
          "internalType": "uint256",
          "name": "id",
          "type": "uint256"
        },
        {
          "internalType": "string",
          "name": "filecoinCID",
          "type": "string"
        },
        {
          "internalType": "bytes32",
          "name": "fileHash",
          "type": "bytes32"
        },
        {
          "internalType": "bytes32",
          "name": "proofHash",
          "type": "bytes32"
        },
        {
          "internalType": "address",
          "name": "owner",
          "type": "address"
        },
        {
          "internalType": "uint256",
          "name": "timestamp",
          "type": "uint256"
        },
        {
          "internalType": "uint256",
          "name": "lastVerified",
          "type": "uint256"
        },
        {
          "internalType": "bool",
          "name": "isVerified",
          "type": "bool"
        },
        {
          "internalType": "string",
          "name": "metadata",
          "type": "string"
        },
        {
          "internalType": "uint256",
          "name": "fileSize",
          "type": "uint256"
        },
        {
          "internalType": "string",
          "name": "documentType",
          "type": "string"
        },
        {
          "internalType": "enum SealGuardRegistry.DocumentLifecycle",
          "name": "lifecycle",
          "type": "uint8"
        },
        {
          "internalType": "uint256",
          "name": "expiresAt",
          "type": "uint256"
        }
      ],
      "stateMutability": "view",
      "type": "function"
    },
    {
      "inputs": [
        {
          "internalType": "uint256",
          "name": "documentId",
          "type": "uint256"
        }
      ],
      "name": "expireDocument",
      "outputs": [],
      "stateMutability": "nonpayable",
      "type": "function"
    },
    {
      "inputs": [
        {
          "internalType": "string",
          "name": "documentType",
          "type": "string"
        }
      ],
      "name": "getAutoVerificationConfig",
      "outputs": [
        {
          "components": [
            {
              "internalType": "bool",
              "name": "enabled",
              "type": "bool"
            },
            {
              "internalType": "uint256",
              "name": "timeThreshold",
              "type": "uint256"
            },
            {
              "internalType": "uint256",
              "name": "consensusThreshold",
              "type": "uint256"
            },
            {
              "internalType": "bool",
              "name": "requiresManualApproval",
              "type": "bool"
            },
            {
              "internalType": "uint256",
              "name": "maxAutoVerifications",
              "type": "uint256"
            }
          ],
          "internalType": "struct SealGuardRegistry.AutoVerificationConfig",
          "name": "",
          "type": "tuple"
        }
      ],
      "stateMutability": "view",
      "type": "function"
    },
    {
      "inputs": [
        {
          "internalType": "uint256",
          "name": "documentId",
          "type": "uint256"
        }
      ],
      "name": "getDocument",
      "outputs": [
        {
          "components": [
            {
              "internalType": "uint256",
              "name": "id",
              "type": "uint256"
            },
            {
              "internalType": "string",
              "name": "filecoinCID",
              "type": "string"
            },
            {
              "internalType": "bytes32",
              "name": "fileHash",
              "type": "bytes32"
            },
            {
              "internalType": "bytes32",
              "name": "proofHash",
              "type": "bytes32"
            },
            {
              "internalType": "address",
              "name": "owner",
              "type": "address"
            },
            {
              "internalType": "uint256",
              "name": "timestamp",
              "type": "uint256"
            },
            {
              "internalType": "uint256",
              "name": "lastVerified",
              "type": "uint256"
            },
            {
              "internalType": "bool",
              "name": "isVerified",
              "type": "bool"
            },
            {
              "internalType": "string",
              "name": "metadata",
              "type": "string"
            },
            {
              "internalType": "uint256",
              "name": "fileSize",
              "type": "uint256"
            },
            {
              "internalType": "string",
              "name": "documentType",
              "type": "string"
            },
            {
              "internalType": "enum SealGuardRegistry.DocumentLifecycle",
              "name": "lifecycle",
              "type": "uint8"
            },
            {
              "internalType": "uint256",
              "name": "expiresAt",
              "type": "uint256"
            }
          ],
          "internalType": "struct SealGuardRegistry.Document",
          "name": "",
          "type": "tuple"
        }
      ],
      "stateMutability": "view",
      "type": "function"
    },
    {
      "inputs": [
        {
          "internalType": "bytes32",
          "name": "fileHash",
          "type": "bytes32"
        }
      ],
      "name": "getDocumentIdByHash",
      "outputs": [
        {
          "internalType": "uint256",
          "name": "",
          "type": "uint256"
        }
      ],
      "stateMutability": "view",
      "type": "function"
    },
    {
      "inputs": [
        {
          "internalType": "uint256",
          "name": "documentId",
          "type": "uint256"
        }
      ],
      "name": "getDocumentLifecycle",
      "outputs": [
        {
          "internalType": "enum SealGuardRegistry.DocumentLifecycle",
          "name": "",
          "type": "uint8"
        }
      ],
      "stateMutability": "view",
      "type": "function"
    },
    {
      "inputs": [
        {
          "internalType": "uint256",
          "name": "documentId",
          "type": "uint256"
        }
      ],
      "name": "getDocumentProofs",
      "outputs": [
        {
          "components": [
            {
              "internalType": "uint256",
              "name": "documentId",
              "type": "uint256"
            },
            {
              "internalType": "bytes32",
              "name": "proofHash",
              "type": "bytes32"
            },
            {
              "internalType": "uint256",
              "name": "timestamp",
              "type": "uint256"
            },
            {
              "internalType": "address",
              "name": "verifier",
              "type": "address"
            },
            {
              "internalType": "bool",
              "name": "isValid",
              "type": "bool"
            },
            {
              "internalType": "string",
              "name": "proofData",
              "type": "string"
            }
          ],
          "internalType": "struct SealGuardRegistry.VerificationProof[]",
          "name": "",
          "type": "tuple[]"
        }
      ],
      "stateMutability": "view",
      "type": "function"
    },
    {
      "inputs": [
        {
          "internalType": "uint256",
          "name": "documentId",
          "type": "uint256"
        }
      ],
      "name": "getLatestProof",
      "outputs": [
        {
          "components": [
            {
              "internalType": "uint256",
              "name": "documentId",
              "type": "uint256"
            },
            {
              "internalType": "bytes32",
              "name": "proofHash",
              "type": "bytes32"
            },
            {
              "internalType": "uint256",
              "name": "timestamp",
              "type": "uint256"
            },
            {
              "internalType": "address",
              "name": "verifier",
              "type": "address"
            },
            {
              "internalType": "bool",
              "name": "isValid",
              "type": "bool"
            },
            {
              "internalType": "string",
              "name": "proofData",
              "type": "string"
            }
          ],
          "internalType": "struct SealGuardRegistry.VerificationProof",
          "name": "",
          "type": "tuple"
        }
      ],
      "stateMutability": "view",
      "type": "function"
    },
    {
      "inputs": [],
      "name": "getTotalDocuments",
      "outputs": [
        {
          "internalType": "uint256",
          "name": "",
          "type": "uint256"
        }
      ],
      "stateMutability": "view",
      "type": "function"
    },
    {
      "inputs": [
        {
          "internalType": "address",
          "name": "user",
          "type": "address"
        }
      ],
      "name": "getUserDocuments",
      "outputs": [
        {
          "internalType": "uint256[]",
          "name": "",
          "type": "uint256[]"
        }
      ],
      "stateMutability": "view",
      "type": "function"
    },
    {
      "inputs": [
        {
          "internalType": "uint256",
          "name": "documentId",
          "type": "uint256"
        }
      ],
      "name": "getVerificationTrigger",
      "outputs": [
        {
          "internalType": "enum SealGuardRegistry.TriggerType",
          "name": "",
          "type": "uint8"
        }
      ],
      "stateMutability": "view",
      "type": "function"
    },
    {
      "inputs": [
        {
          "internalType": "bytes32",
          "name": "",
          "type": "bytes32"
        }
      ],
      "name": "hashToDocumentId",
      "outputs": [
        {
          "internalType": "uint256",
          "name": "",
          "type": "uint256"
        }
      ],
      "stateMutability": "view",
      "type": "function"
    },
    {
      "inputs": [
        {
          "internalType": "uint256",
          "name": "documentId",
          "type": "uint256"
        }
      ],
      "name": "isDocumentExpired",
      "outputs": [
        {
          "internalType": "bool",
          "name": "",
          "type": "bool"
        }
      ],
      "stateMutability": "view",
      "type": "function"
    },
    {
      "inputs": [
        {
          "internalType": "uint256",
          "name": "documentId",
          "type": "uint256"
        }
      ],
      "name": "isMultiSigVerified",
      "outputs": [
        {
          "internalType": "bool",
          "name": "",
          "type": "bool"
        }
      ],
      "stateMutability": "view",
      "type": "function"
    },
    {
      "inputs": [
        {
          "internalType": "uint256",
          "name": "",
          "type": "uint256"
        }
      ],
      "name": "lastAutoVerification",
      "outputs": [
        {
          "internalType": "uint256",
          "name": "",
          "type": "uint256"
        }
      ],
      "stateMutability": "view",
      "type": "function"
    },
    {
      "inputs": [
        {
          "internalType": "uint256",
          "name": "documentId",
          "type": "uint256"
        },
        {
          "internalType": "uint256",
          "name": "proposalId",
          "type": "uint256"
        }
      ],
      "name": "markMultiSigVerified",
      "outputs": [],
      "stateMutability": "nonpayable",
      "type": "function"
    },
    {
      "inputs": [],
      "name": "multiSig",
      "outputs": [
        {
          "internalType": "contract SealGuardMultiSig",
          "name": "",
          "type": "address"
        }
      ],
      "stateMutability": "view",
      "type": "function"
    },
    {
      "inputs": [
        {
          "internalType": "uint256",
          "name": "",
          "type": "uint256"
        }
      ],
      "name": "multiSigVerified",
      "outputs": [
        {
          "internalType": "bool",
          "name": "",
          "type": "bool"
        }
      ],
      "stateMutability": "view",
      "type": "function"
    },
    {
      "inputs": [],
      "name": "owner",
      "outputs": [
        {
          "internalType": "address",
          "name": "",
          "type": "address"
        }
      ],
      "stateMutability": "view",
      "type": "function"
    },
    {
      "inputs": [
        {
          "internalType": "string",
          "name": "filecoinCID",
          "type": "string"
        },
        {
          "internalType": "bytes32",
          "name": "fileHash",
          "type": "bytes32"
        },
        {
          "internalType": "string",
          "name": "metadata",
          "type": "string"
        },
        {
          "internalType": "uint256",
          "name": "fileSize",
          "type": "uint256"
        },
        {
          "internalType": "string",
          "name": "documentType",
          "type": "string"
        }
      ],
      "name": "registerDocument",
      "outputs": [
        {
          "internalType": "uint256",
          "name": "",
          "type": "uint256"
        }
      ],
      "stateMutability": "nonpayable",
      "type": "function"
    },
    {
      "inputs": [],
      "name": "renounceOwnership",
      "outputs": [],
      "stateMutability": "nonpayable",
      "type": "function"
    },
    {
      "inputs": [
        {
          "internalType": "uint256",
          "name": "",
          "type": "uint256"
        }
      ],
      "name": "requiresMultiSig",
      "outputs": [
        {
          "internalType": "bool",
          "name": "",
          "type": "bool"
        }
      ],
      "stateMutability": "view",
      "type": "function"
    },
    {
      "inputs": [
        {
          "internalType": "uint256",
          "name": "documentId",
          "type": "uint256"
        }
      ],
      "name": "requiresMultiSigApproval",
      "outputs": [
        {
          "internalType": "bool",
          "name": "",
          "type": "bool"
        }
      ],
      "stateMutability": "view",
      "type": "function"
    },
    {
      "inputs": [
        {
          "internalType": "uint256",
          "name": "documentId",
          "type": "uint256"
        },
        {
          "internalType": "bool",
          "name": "required",
          "type": "bool"
        }
      ],
      "name": "setDocumentMultiSigRequirement",
      "outputs": [],
      "stateMutability": "nonpayable",
      "type": "function"
    },
    {
      "inputs": [
        {
          "internalType": "address",
          "name": "_multiSig",
          "type": "address"
        }
      ],
      "name": "setMultiSigContract",
      "outputs": [],
      "stateMutability": "nonpayable",
      "type": "function"
    },
    {
      "inputs": [
        {
          "internalType": "string",
          "name": "documentType",
          "type": "string"
        },
        {
          "internalType": "bool",
          "name": "required",
          "type": "bool"
        }
      ],
      "name": "setTypeMultiSigRequirement",
      "outputs": [],
      "stateMutability": "nonpayable",
      "type": "function"
    },
    {
      "inputs": [
        {
          "internalType": "uint256",
          "name": "documentId",
          "type": "uint256"
        },
        {
          "internalType": "bytes32",
          "name": "proofHash",
          "type": "bytes32"
        },
        {
          "internalType": "string",
          "name": "proofData",
          "type": "string"
        },
        {
          "internalType": "bool",
          "name": "isValid",
          "type": "bool"
        }
      ],
      "name": "submitVerificationProof",
      "outputs": [],
      "stateMutability": "nonpayable",
      "type": "function"
    },
    {
      "inputs": [
        {
          "internalType": "uint256",
          "name": "documentId",
          "type": "uint256"
        },
        {
          "internalType": "address",
          "name": "newOwner",
          "type": "address"
        }
      ],
      "name": "transferDocumentOwnership",
      "outputs": [],
      "stateMutability": "nonpayable",
      "type": "function"
    },
    {
      "inputs": [
        {
          "internalType": "address",
          "name": "newOwner",
          "type": "address"
        }
      ],
      "name": "transferOwnership",
      "outputs": [],
      "stateMutability": "nonpayable",
      "type": "function"
    },
    {
      "inputs": [
        {
          "internalType": "uint256",
          "name": "documentId",
          "type": "uint256"
        },
        {
          "internalType": "enum SealGuardRegistry.TriggerType",
          "name": "triggerType",
          "type": "uint8"
        }
      ],
      "name": "triggerAutomatedVerification",
      "outputs": [],
      "stateMutability": "nonpayable",
      "type": "function"
    },
    {
      "inputs": [
        {
          "internalType": "string",
          "name": "",
          "type": "string"
        }
      ],
      "name": "typeRequiresMultiSig",
      "outputs": [
        {
          "internalType": "bool",
          "name": "",
          "type": "bool"
        }
      ],
      "stateMutability": "view",
      "type": "function"
    },
    {
      "inputs": [
        {
          "internalType": "string",
          "name": "documentType",
          "type": "string"
        },
        {
          "internalType": "bool",
          "name": "enabled",
          "type": "bool"
        },
        {
          "internalType": "uint256",
          "name": "timeThreshold",
          "type": "uint256"
        },
        {
          "internalType": "uint256",
          "name": "consensusThreshold",
          "type": "uint256"
        },
        {
          "internalType": "bool",
          "name": "requiresManualApproval",
          "type": "bool"
        },
        {
          "internalType": "uint256",
          "name": "maxAutoVerifications",
          "type": "uint256"
        }
      ],
      "name": "updateAutoVerificationConfig",
      "outputs": [],
      "stateMutability": "nonpayable",
      "type": "function"
    },
    {
      "inputs": [
        {
          "internalType": "address",
          "name": "",
          "type": "address"
        },
        {
          "internalType": "uint256",
          "name": "",
          "type": "uint256"
        }
      ],
      "name": "userDocuments",
      "outputs": [
        {
          "internalType": "uint256",
          "name": "",
          "type": "uint256"
        }
      ],
      "stateMutability": "view",
      "type": "function"
    },
    {
      "inputs": [
        {
          "internalType": "uint256",
          "name": "",
          "type": "uint256"
        }
      ],
      "name": "verificationTriggers",
      "outputs": [
        {
          "internalType": "enum SealGuardRegistry.TriggerType",
          "name": "",
          "type": "uint8"
        }
      ],
      "stateMutability": "view",
      "type": "function"
    }
  ],
  "bytecode": "0x608034620004555762003d2990601f38839003908101601f19168201906001600160401b038211838310176200045a578083916040958694855283398101031262000455576200005d6020620000558362000490565b920162000490565b6001600160a01b03918216919082156200043d57600080546001600160a01b031980821686178355865195929392909185167f8be0079c531659141344cd1fd0a4f28419497f9722a3daafe3b4186f6b6457e08580a36001938480556003921690825416178155641b1959d85b60da1b93848152600c9081600582015260259020630d2868809055855168199a5b985b98da585b60ba1b958682528260098301526312cc0300602981932055875192661b59591a58d85b60ca1b93848152816007820152602790206338640900905588805195676964656e7469747960c01b94858852600897848982015260289020558151976718dbdb9d1c9858dd60c21b9889815284898201526028902063259806009055825166191959985d5b1d60ca1b94858252600782015260279020630966018090556200019b62000470565b8a815260208101906201518082528481019184835260608201928d84528d6080840192600a84528d8951908c825260058201526025902094511515620001ed90869060ff801983541691151516179055565b51908401555192600293848401555115158583019062000218919060ff801983541691151516179055565b5190600401556200022862000470565b8b8152898d8d602084019061a8c082528885019186835260608601938885526080870195601487528b51918252600982015260299020955115156200027990879060ff801983541691151516179055565b5190850155518484015551151585830190620002a0919060ff801983541691151516179055565b519060040155620002b062000470565b8b815289602082016202a30081528d8784019087825260608501928184528c6080870195600587528b519182528082015260289020955115156200030090879060ff801983541691151516179055565b519085015551848401555115158583019062000327919060ff801983541691151516179055565b5190600401556200033762000470565b948b865260208601615460815285870191838352606088019485526080880196600f8852519081528b600782015260279020965115156200038490889060ff801983541691151516179055565b518c870155519085015551151590830190620003ab919060ff801983541691151516179055565b51906004015587519081526005810160069052602590209560ff19968688825416179055875190815260098101600690526029902085878254161790558651908152828101600690526028902084868254161790558551908152600781016006905260279020838582541617905584519182528101600690526028902091825416179055516138839081620004a68239f35b8351631e4fbdf760e01b815260006004820152602490fd5b600080fd5b634e487b7160e01b600052604160045260246000fd5b6040519060a082016001600160401b038111838210176200045a57604052565b51906001600160a01b0382168203620004555756fe6080604052600436101561001257600080fd5b60003560e01c806305d7835514612d5e5780630b63552f14612d32578063115948d814612cf257806313007d5514612cc95780631415169d146125d357806315ec7e44146123c5578063199520e61461239457806323ecb96f146122285780632acb4f6214611fbf5780632d700f0f14611f7157806334c6d8b514611e2957806336adbe8a1461112057806336e0004a14611e005780633d43eb0714611dd25780633e7fe8ec14611d825780633f9b250a14611b575780634374e8e214611b265780634b3619a614611a95578063577a1b9214611a3d578063597e0f64146119bd578063661e582f146119705780636632d86c1461191457806369ea92471461179f578063715018a6146117465780637b128213146115ea5780637fa5bd5514611451578063825f9220146113b2578063849514ba146113865780638da5cb5b1461135d57806390a4b162146112a9578063945017701461114c57806394bf54f014611120578063a2966e2214610bdf578063a31a770714610a51578063c2ed2b051461093f578063c60be737146106e8578063ce9647ca146106b2578063dd4a8d4514610686578063e7641c5c1461063b578063e90e7ad41461061d578063eb94a8711461035c578063ebf34960146102835763f2fde38b146101f557600080fd5b3461027e57602036600319011261027e5761020e612e80565b610216613089565b6001600160a01b0390811690811561026557600054826001600160601b0360a01b821617600055167f8be0079c531659141344cd1fd0a4f28419497f9722a3daafe3b4186f6b6457e0600080a3005b604051631e4fbdf760e01b815260006004820152602490fd5b600080fd5b3461027e5761029136612eeb565b9080600052600e6020526102ab6040600020541515613123565b6004546001600160a01b0390811633036103095760207fcb74e6315251cdacd74613191272655fc65014edbdd3bc1494cbe3d9c544e2de9183600052600782526040600020600160ff198254161790556004541693604051908152a3005b60405162461bcd60e51b815260206004820152602560248201527f4f6e6c79206d756c74692d73696720636f6e74726163742063616e2063616c6c604482015264207468697360d81b6064820152608490fd5b3461027e57604036600319011261027e57602435600435600582101561027e57806000526020600e81526103966040600020541515613123565b600354604051631d6c8e3f60e21b81526001600160a01b03909116908281600481855afa80156105e05783916000916105ec575b50604051631cc12e7960e11b815233600482015260248101919091529182908180604481015b03915afa9081156105e0576000916105b3575b50156105505781600052600e8152610421600a60406000200161319b565b60405161042d81612dc4565b60ff82541615158152600460018301549283858401526002810154604084015260ff600382015416151560608401520154608082015290156104ef575b600184036104d05761047c90836133bc565b81600052600b8152604060002060ff1981541660ff85161790556104a3604051809461302b565b42908301527f99c8dbdfda1086f488085852794a3f4469c444ee425ca19e06ed87326265772b60403393a3005b600284146104df575b5061047c565b6104e99083613454565b836104d9565b50602760405166191959985d5b1d60ca1b8152600860078201522060046040519161051983612dc4565b60ff815416151583526001810154848401526002810154604084015260ff600382015416151560608401520154608082015261046a565b6084906040519062461bcd60e51b82526004820152603660248201527f4f6e6c792061646d696e2063616e206d616e75616c6c7920747269676765722060448201527530baba37b6b0ba32b2103b32b934b334b1b0ba34b7b760511b6064820152fd5b6105d39150823d84116105d9575b6105cb8183612dfa565b81019061316f565b84610403565b503d6105c1565b6040513d6000823e3d90fd5b82819392503d8311610616575b6106038183612dfa565b8101031261027e575182906103f06103ca565b503d6105f9565b3461027e57600036600319011261027e576020600254604051908152f35b3461027e57602036600319011261027e5760043580600052600e6020526106686040600020541515613123565b600052600e6020526020600c60406000200154421015604051908152f35b3461027e57602036600319011261027e57600435600052600d6020526020604060002054604051908152f35b3461027e57602036600319011261027e57600435600052600b602052602060ff604060002054166106e6604051809261302b565bf35b3461027e5760c036600319011261027e576004356001600160401b03811161027e57610718903690600401612e1b565b610720612e71565b6044356064359060843580151580910361027e57600354604051631d6c8e3f60e21b8152602096916001600160a01b0316908781600481855afa80156105e057889160009161090e575b50604051631cc12e7960e11b815233600482015260248101919091529182908180604481015b03915afa9081156105e0576000916108f1575b501561089557604051946107b686612dc4565b15159485815286810192848452604082019086825260608301908152608083019160a4358352604051958551968b81818901996107f481838d612e96565b810160088152030190209451151561081890869060ff801983541691151516179055565b5160018501555160028401555115156003830190610841919060ff801983541691151516179055565b5190600401556040518092819251809261085a92612e96565b810103902093604051938452830152604082015260607f4d9af8150aa8d6c11cf89bbcc72ca90ae2f67acab18775cdbdeb85087bb5075c91a2005b60405162461bcd60e51b815260048101879052602e60248201527f4f6e6c792061646d696e2063616e20757064617465206175746f2d766572696660448201526d69636174696f6e20636f6e66696760901b6064820152608490fd5b6109089150873d89116105d9576105cb8183612dfa565b876107a3565b82819392503d8311610938575b6109258183612dfa565b8101031261027e5751879061079061076a565b503d61091b565b3461027e57602036600319011261027e57600435600052600e602052604060002080546001820161096f90612f6d565b916002810154600382015490600160a01b6001900360048401541690600584015490600685015490600786015460ff16600887016109ac90612f6d565b92600988015494600a89016109c090612f6d565b96600b8a015460ff1699600c0154986040519c8d9c8d528c6101a06020819201528d016109ec91612ec6565b9560408d015260608c015260808b015260a08a015260c0890152151560e0880152868103610100880152610a1f91612ec6565b90610120860152848103610140860152610a3891612ec6565b916101608401610a4791612eb9565b6101808301520390f35b3461027e5760208060031936011261027e576004359081600052600e8152610a7f6040600020541515613123565b81600052600e8152600c604060002001544210801590610b1d575b15610abc576000918252600e905260409020600b01805460ff19166004179055005b6084906040519062461bcd60e51b82526004820152603460248201527f446f63756d656e74206e6f74207965742065787069726564206f7220696e73756044820152736666696369656e74207065726d697373696f6e7360601b6064820152fd5b50600354604051631d6c8e3f60e21b81526001600160a01b03909116908281600481855afa80156105e0578391600091610bae575b50604051631cc12e7960e11b815233600482015260248101919091529182908180604481015b03915afa9081156105e057600091610b91575b50610a9a565b610ba89150823d84116105d9576105cb8183612dfa565b83610b8b565b82819392503d8311610bd8575b610bc58183612dfa565b8101031261027e57518290610b78610b52565b503d610bbb565b3461027e57608036600319011261027e576044356001600160401b03811161027e57610c0f903690600401612e1b565b60643515156064350361027e57600435600052600e602052610c376040600020541515613123565b610c3f613100565b6024908135156110e7576003546040516373b82edb60e11b81526001600160a01b0390911690602081600481855afa9081156105e0576000916110b3575b50604051631cc12e7960e11b815233600482015260248101919091529060209082908180604481015b03915afa9081156105e057600091611094575b501561104557600435600052600e60205260ff600b60406000200154166006811015611030576004141580611006575b15610fc257600435600052600e602052600b604060002001600160ff1982541617905560405190610d1982612ddf565b6004358252823560208301524260408301523360608301526064351515608083015260a0820152600435600052601060205260406000208054600160401b811015610f9857610d6d91600182018155612f01565b919091610fad578060a091518355602081015160018401556040810151600284015560038301600180841b0360608301511681549060ff851b60808501511515861b16916affffffffffffffffffffff60a81b161717905501518051906001600160401b038211610f9857610de56004840154612f33565b601f8111610f4d575b50602090601f8311600114610edd576004929160009183610ed2575b50508160011b916000199060031b1c1916179101555b60643515610eaf57600435600052600e602052600b60406000208235600382015542600682015560078101600160ff1982541617905501600260ff198254161790555b610e6e60043561322e565b604051903581526064351515602082015233907ffdff159079e40a8417212ba242d6b8b689dee5b49969b511126b6deae0ad495c604060043592a360018055005b600435600052600e602052600b604060002001600360ff19825416179055610e63565b015190508580610e0a565b906004840160005260206000209160005b601f1985168110610f355750918391600193600495601f19811610610f1c575b505050811b01910155610e20565b015160001960f88460031b161c19169055858080610f0e565b91926020600181928685015181550194019201610eee565b600484016000526020600020601f840160051c81019160208510610f8e575b601f0160051c01905b818110610f825750610dee565b60008155600101610f75565b9091508190610f6c565b83634e487b7160e01b60005260416004526000fd5b82634e487b7160e01b60005260006004526000fd5b60405162461bcd60e51b815260206004820152601f818401527f446f63756d656e742069732065787069726564206f72206172636869766564006044820152606490fd5b50600435600052600e60205260ff600b604060002001541660068110156110305760051415610ce9565b82634e487b7160e01b60005260216004526000fd5b60405162461bcd60e51b8152602060048201526022818401527f496e73756666696369656e74207065726d697373696f6e7320746f2076657269604482015261667960f01b6064820152608490fd5b6110ad915060203d6020116105d9576105cb8183612dfa565b83610cb9565b90506020813d6020116110df575b816110ce60209383612dfa565b8101031261027e5751610ca6610c7d565b3d91506110c1565b60405162461bcd60e51b81526020600482015260128184015271092dcecc2d8d2c840e0e4dedecc40d0c2e6d60731b6044820152606490fd5b3461027e57602036600319011261027e5760043560005260116020526020604060002054604051908152f35b3461027e5760208060031936011261027e5760043580600052600e82526111796040600020541515613123565b600052601081526040600020908154916001600160401b03831161129357604051916005936111ac8282871b0185612dfa565b808452818401809360005282600020866000925b848410611225575050505050604051928184019082855251809152604081818601961b85010192916000955b8287106111f95785850386f35b909192938280611215600193603f198a82030186528851613038565b96019201960195929190926111ec565b908560019260409997995161123981612ddf565b855481528486015483820152600286015460408201526003860154858060a01b038116606083015260ff60a091821c161515608083015261127c60048801612f6d565b9082015281520192019201919087909694966111c0565b634e487b7160e01b600052604160045260246000fd5b3461027e5760208060031936011261027e576001600160a01b036112cb612e80565b16600052600f8152604060002060405190818382549182815201908192600052846000209060005b8682821061134957868661130982880383612dfa565b604051928392818401908285525180915260408401929160005b82811061133257505050500390f35b835185528695509381019392810192600101611323565b8354855290930192600192830192016112f3565b3461027e57600036600319011261027e576000546040516001600160a01b039091168152602090f35b3461027e57602036600319011261027e5760043560005260096020526020604060002054604051908152f35b3461027e5760208060031936011261027e576004356001600160401b0380821161027e573660238301121561027e57816004013590811161027e576024820191602436918360051b01011161027e5760005b81811061140d57005b8061141c6114339284866136bf565b35600052600e8552604060002054611438576130b5565b611404565b61144c6114468285876136bf565b3561322e565b6130b5565b3461027e5760208060031936011261027e5760405160043561147282612ddf565b60008252600083830152600060408301526060916000838201526080916000838301528360a08093015280600052600e85526114b46040600020541515613123565b600052601084526040600020918254926001600160401b0384116112935790604051946005936114e88887871b0188612dfa565b858752600093845287842092888089015b888710611587575088805115611550578051600019810190811161153a5761152091613187565b5190611536604051928284938452830190613038565b0390f35b634e487b7160e01b600052601160045260246000fd5b60405162461bcd60e51b815260048101839052600f60248201526e139bc81c1c9bdbd99cc8199bdd5b99608a1b6044820152606490fd5b600191889160405161159881612ddf565b8854815284890154838201526002890154604082015260ff60038a0154868060a01b0381168a840152881c161515868201526115d660048a01612f6d565b8782015281520195019501949389906114f9565b3461027e5760208060031936011261027e57600435906001600160401b03821161027e5761165b8161162260a0943690600401612e1b565b6000608060405161163281612dc4565b828152828582015282604082015282606082015201528160405193828580945193849201612e96565b8101600881520301902060405161167181612dc4565b60ff82541615158152600460018301549283858401526002810154604084015260ff600382015416151560608401520154608082015290156116e2575b6080906040519281511515845280820151908401526040810151604084015260608101511515606084015201516080820152f35b506080602760405166191959985d5b1d60ca1b8152600860078201522060046040519161170e83612dc4565b60ff815416151583526001810154858401526002810154604084015260ff6003820154161515606084015201548282015290506116ae565b3461027e57600036600319011261027e5761175f613089565b600080546001600160a01b0319811682556001600160a01b03167f8be0079c531659141344cd1fd0a4f28419497f9722a3daafe3b4186f6b6457e08280a3005b3461027e5760208060031936011261027e576004359081600052600e81526117cd6040600020541515613123565b6000828152600e82526040902060040154336001600160a01b039182161490811561185a575b5015611816576000918252600e905260409020600b01805460ff19166005179055005b6064906040519062461bcd60e51b82526004820152601f60248201527f4f6e6c79206f776e6572206f722061646d696e2063616e2061726368697665006044820152fd5b600354604051631d6c8e3f60e21b8152911691508281600481855afa80156105e05783916000916118e3575b50604051631cc12e7960e11b815233600482015260248101919091529182908180604481015b03915afa9081156105e0576000916118c6575b50836117f3565b6118dd9150823d84116105d9576105cb8183612dfa565b836118bf565b82819392503d831161190d575b6118fa8183612dfa565b8101031261027e575182906118ac611886565b503d6118f0565b3461027e57602036600319011261027e576004356001600160401b03811161027e5761195d602061194a81933690600401612e1b565b8160405193828580945193849201612e96565b8101600c81520301902054604051908152f35b3461027e57602036600319011261027e5760043580600052600e60205261199d6040600020541515613123565b600052600b602052602060ff604060002054166106e6604051809261302b565b3461027e57602036600319011261027e576004356001600160401b03811161027e576119f4602061194a60a0933690600401612e1b565b8101600881520301902060ff815416906001810154906002810154600460ff60038401541692015492604051941515855260208501526040840152151560608301526080820152f35b3461027e57604036600319011261027e57611a56612e80565b6001600160a01b03166000908152600f602052604090208054602435919082101561027e57602091611a8791613013565b90546040519160031b1c8152f35b3461027e57611aa336612eeb565b906000526010602052604060002090815481101561027e57611ac491612f01565b50805461153660018301549260ff600282015491611ae9600460038301549201612f6d565b9260405196879687526020870152604086015260018060a01b038116606086015260a01c161515608084015260c060a084015260c0830190612ec6565b3461027e57602036600319011261027e576004356000526005602052602060ff604060002054166040519015158152f35b3461027e57602036600319011261027e576000610180604051611b7981612da8565b828152606060208201528260408201528260608201528260808201528260a08201528260c08201528260e0820152606061010082015282610120820152606061014082015282610160820152015260043580600052600e602052611be36040600020541515613123565b600052600e6020526040600020600c60405191611bff83612da8565b80548352611c0f60018201612f6d565b6020840152600281015460408401526003810154606084015260048101546001600160a01b03166080840152600581015460a0840152600681015460c0840152600781015460ff16151560e0840152611c6a60088201612f6d565b6101008401526009810154610120840152611c87600a8201612f6d565b610140840152611ca260ff600b8301541661016085016130d1565b015461018082015260405180916020825280516020830152610180611d63611cdb60208401516101a060408701526101c0860190612ec6565b604084015160608601526060840151608086015260018060a01b0360808501511660a086015260a084015160c086015260c084015160e086015260e08401511515610100860152611d4061010085015191601f19928388830301610120890152612ec6565b906101208501516101408701526101408501519086830301610160870152612ec6565b91611d7661016082015183860190612eb9565b01516101a08301520390f35b3461027e57602036600319011261027e5760043580600052600e602052611daf6040600020541515613123565b600052600e602052602060ff600b60406000200154166106e66040518092612eb9565b3461027e57602036600319011261027e57600435600052601160205260206040600020541515604051908152f35b3461027e57600036600319011261027e576004546040516001600160a01b039091168152602090f35b3461027e5760208060031936011261027e57611e43612e80565b600354604051631d6c8e3f60e21b81526001600160a01b0393918416908281600481855afa80156105e0578391600091611f40575b50604051631cc12e7960e11b815233600482015260248101919091529182908180604481015b03915afa9081156105e057600091611f23575b5015611ed15750166001600160601b0360a01b6004541617600455600080f35b6084906040519062461bcd60e51b82526004820152602560248201527f4f6e6c792061646d696e2063616e20736574206d756c74692d73696720636f6e6044820152641d1c9858dd60da1b6064820152fd5b611f3a9150823d84116105d9576105cb8183612dfa565b84611eb1565b82819392503d8311611f6a575b611f578183612dfa565b8101031261027e57518290611e9e611e78565b503d611f4d565b3461027e57602036600319011261027e576004356001600160401b03811161027e5760ff611fa9602061194a81943690600401612e1b565b8101600681520301902054166040519015158152f35b3461027e57604036600319011261027e57602460043581356001600160a01b038181169182900361027e5782600052602092600e8452816004604060002001541633036121ef5782156121ab573383146121675780600052600e84526004604060002001838154938416936001600160601b0360a01b1617905581600052600f845260406000209360005b8554808210156121575783906120608389613013565b929054600393841b1c1461207e575050612079906130b5565b61204a565b600097929193949596971991828201918211612142576120b16120a46120ca9386613013565b905490871b1c9185613013565b90919082549060031b91821b91600019901b1916179055565b815497881561212e575080600f9596979801926120e78484613013565b81939154921b1b19169055555b84600052526121078160406000206130dd565b7f16b85f49bf01212961345d3016c9a531894accf62eb7680f2045d79185cc0ec0600080a4005b634e487b7160e01b60009081526031600452fd5b89634e487b7160e01b60005260116004526000fd5b505090929450600f9193506120f4565b60405162461bcd60e51b8152600481018590526017818701527f43616e6e6f74207472616e7366657220746f2073656c660000000000000000006044820152606490fd5b60405162461bcd60e51b8152600481018590526019818701527f496e76616c6964206e6577206f776e65722061646472657373000000000000006044820152606490fd5b60405162461bcd60e51b815260048101859052601281870152712737ba103237b1bab6b2b73a1037bbb732b960711b6044820152606490fd5b3461027e57604036600319011261027e576004356001600160401b03811161027e57612258903690600401612e1b565b612260612e71565b600354604051631d6c8e3f60e21b81526001600160a01b039091169260209290918381600481885afa9081156105e057600091612365575b50604051631cc12e7960e11b8152336004820152602481019190915293839085908180604481015b03915afa9384156105e057817f64da4b04b5aea38114faf1e34fe8d4f7437054a7cfaad6ae05365f6d34312a6294612305600097612334948991612348575b506137d6565b604051908186516123198183858b01612e96565b810160068152030190209060ff801983541691151516179055565b61234360405192839283613834565b0390a2005b61235f9150833d85116105d9576105cb8183612dfa565b896122ff565b90508381813d831161238d575b61237c8183612dfa565b8101031261027e57516122c0612298565b503d612372565b3461027e57602036600319011261027e576004356000526007602052602060ff604060002054166040519015158152f35b3461027e57604036600319011261027e576004356123e1612e71565b81600052602090600e82526123fc6040600020541515613123565b600354604051631d6c8e3f60e21b81526001600160a01b0391821693908181600481885afa9081156105e0576000916125a4575b50604051631cc12e7960e11b8152336004820152602481019190915293819085908180604481015b03915afa9384156105e0577f64da4b04b5aea38114faf1e34fe8d4f7437054a7cfaad6ae05365f6d34312a62946124969160009161258757506137d6565b84600052600581526124b88360406000209060ff801983541691151516179055565b600e8152604060002091604051916124cf83612da8565b835483526124df60018501612f6d565b9083015260028301546040830152600383015460608301526004830154166080820152600582015460a0820152600682015460c082015260ff600783015416151560e082015261253160088301612f6d565b6101008201526009820154610120820152610180600c612553600a8501612f6d565b93610140840194855261257160ff600b8301541661016086016130d1565b0154910152519061234360405192839283613834565b61259e9150833d85116105d9576105cb8183612dfa565b876122ff565b90508181813d83116125cc575b6125bb8183612dfa565b8101031261027e5751612458612430565b503d6125b1565b3461027e5760a036600319011261027e576004356001600160401b03811161027e57612603903690600401612e1b565b6044356001600160401b03811161027e57612622903690600401612e1b565b906084356001600160401b03811161027e57612642903690600401612e1b565b9061264b613100565b805115612c8d5760243515612c54576024356000526011602052604060002054612c0f5761267a6002546130b5565b918260025560405160208183516126948183858801612e96565b8101600c815203019020548015612bed575b6126b090426130c4565b90604051946126be86612da8565b8486528360208701526024356040870152600060608701523360808701524260a0870152600060c0870152600060e087015261010086015260643561012086015261014085015260006101608501528061018085015282600052600e60205260406000208451815560208501518051906001600160401b03821161129357819061274b6001850154612f33565b601f8111612b9a575b50602090601f8311600114612b2857600092612b1d575b50508160011b916000199060031b1c19161760018201555b60408501516002820155606085015160038201556004810160018060a01b036080870151166001600160601b0360a01b82541617905560a0850151600582015560c085015160068201556127ec60e08601511515600783019060ff801983541691151516179055565b6101008501518051906001600160401b0382116112935781906128126008850154612f33565b601f8111612aca575b50602090601f8311600114612a5857600092612a4d575b50508160011b916000199060031b1c19161760088201555b61012085015160098201556101408501518051906001600160401b03821161129357819061287b600a850154612f33565b601f81116129fa575b50602090601f83116001146129885760009261297d575b50508160011b916000199060031b1c191617600a8201555b600b8101610160860151600681101561296757602096600c926101809260ff80198354169116179055015191015582600052600d845260406000205533600052600f83526129058260406000206130dd565b6024356000526011835281604060002055817ff17d1b2b79b8ade02c6389d93bacd93e57fc7c62f86281153c916630c919e66c61294d60405193604085526040850190612ec6565b92602435868201528033940390a360018055604051908152f35b634e487b7160e01b600052602160045260246000fd5b01519050878061289b565b9250600a84016000526020600020906000935b601f19841685106129df576001945083601f198116106129c6575b505050811b01600a8201556128b3565b015160001960f88460031b161c191690558780806129b6565b8181015183556020948501946001909301929091019061299b565b909150600a84016000526020600020601f840160051c810160208510612a46575b90849392915b601f830160051c82018110612a37575050612884565b60008155859450600101612a21565b5080612a1b565b015190508780612832565b9250600884016000526020600020906000935b601f1984168510612aaf576001945083601f19811610612a96575b505050811b01600882015561284a565b015160001960f88460031b161c19169055878080612a86565b81810151835560209485019460019093019290910190612a6b565b909150600884016000526020600020601f840160051c810160208510612b16575b90849392915b601f830160051c82018110612b0757505061281b565b60008155859450600101612af1565b5080612aeb565b01519050878061276b565b9250600184016000526020600020906000935b601f1984168510612b7f576001945083601f19811610612b66575b505050811b016001820155612783565b015160001960f88460031b161c19169055878080612b56565b81810151835560209485019460019093019290910190612b3b565b909150600184016000526020600020601f840160051c810160208510612be6575b90849392915b601f830160051c82018110612bd7575050612754565b60008155859450600101612bc1565b5080612bbb565b5060405166191959985d5b1d60ca1b8152600c600782015260279020546126a6565b60405162461bcd60e51b815260206004820152601760248201527f446f63756d656e7420616c7265616479206578697374730000000000000000006044820152606490fd5b60405162461bcd60e51b8152602060048201526011602482015270092dcecc2d8d2c840ccd2d8ca40d0c2e6d607b1b6044820152606490fd5b60405162461bcd60e51b8152602060048201526014602482015273125b9d985b1a5908119a5b1958dbda5b8810d25160621b6044820152606490fd5b3461027e57600036600319011261027e576003546040516001600160a01b039091168152602090f35b3461027e57602036600319011261027e576020612d2860043580600052600e8352612d236040600020541515613123565b6136cf565b6040519015158152f35b3461027e57602036600319011261027e57600435600052600a6020526020604060002054604051908152f35b3461027e57602036600319011261027e5760043580600052600e602052612d8b6040600020541515613123565b6000526007602052602060ff604060002054166040519015158152f35b6101a081019081106001600160401b0382111761129357604052565b60a081019081106001600160401b0382111761129357604052565b60c081019081106001600160401b0382111761129357604052565b90601f801991011681019081106001600160401b0382111761129357604052565b81601f8201121561027e578035906001600160401b0382116112935760405192612e4f601f8401601f191660200185612dfa565b8284526020838301011161027e57816000926020809301838601378301015290565b60243590811515820361027e57565b600435906001600160a01b038216820361027e57565b60005b838110612ea95750506000910152565b8181015183820152602001612e99565b9060068210156129675752565b90602091612edf81518092818552858086019101612e96565b601f01601f1916010190565b604090600319011261027e576004359060243590565b8054821015612f1d576000526005602060002091020190600090565b634e487b7160e01b600052603260045260246000fd5b90600182811c92168015612f63575b6020831014612f4d57565b634e487b7160e01b600052602260045260246000fd5b91607f1691612f42565b9060405191826000825492612f8184612f33565b908184526001948581169081600014612ff05750600114612fad575b5050612fab92500383612dfa565b565b9093915060005260209081600020936000915b818310612fd8575050612fab93508201013880612f9d565b85548884018501529485019487945091830191612fc0565b915050612fab94506020925060ff191682840152151560051b8201013880612f9d565b8054821015612f1d5760005260206000200190600090565b9060058210156129675752565b9060c060a061308693805184526020810151602085015260408101516040850152600180831b0360608201511660608501526080810151151560808501520151918160a08201520190612ec6565b90565b6000546001600160a01b0316330361309d57565b60405163118cdaa760e01b8152336004820152602490fd5b600019811461153a5760010190565b9190820180921161153a57565b60068210156129675752565b90815491600160401b83101561129357826120b1916001612fab95018155613013565b600260015414613111576002600155565b604051633ee5aeb560e01b8152600490fd5b1561312a57565b60405162461bcd60e51b815260206004820152601760248201527f446f63756d656e7420646f6573206e6f742065786973740000000000000000006044820152606490fd5b9081602091031261027e5751801515810361027e5790565b8051821015612f1d5760209160051b010190565b6040519081600082546131ad81612f33565b9360019180831690811561321257506001146131d5575b505060209250600881520301902090565b90915060005260209081600020906000915b8583106131fe5750505050602091810138806131c4565b8054878401528694509183019181016131e7565b92505050602093915060ff1916825280151502810138806131c4565b6000818152600e6020526040908181209061324b600a830161319b565b9280519061325882612dc4565b60ff9182865416151581526004600187015496876020840152600281015484840152846003820154161515606084015201546080820152941561335d575b845115613355576132b060058501546020870151906130c4565b4210158061332a575b61331b575b85835260106020528083205490850151111592836132eb575b5050506132e2575050565b612fab91613454565b600b0154169150600682101561330757506001143880806132d7565b634e487b7160e01b81526021600452602490fd5b61332585876133bc565b6132be565b5081600b85015416600681101561334157156132b9565b634e487b7160e01b84526021600452602484fd5b505050505050565b93506027845166191959985d5b1d60ca1b81526008600782015220600485519161338683612dc4565b83815416151583526001810154602084015260028101548784015283600382015416151560608401520154608082015293613296565b906133c7908261363e565b6133ce5750565b600090808252600e602052604091600b8382200160ff1990600182825416179055600b602052600184832091825416179055600960205282812061341281546130b5565b9055818152600a60205282429120557f99c8dbdfda1086f488085852794a3f4469c444ee425ca19e06ed87326265772b825192600184524260208501523093a3565b9061345f818361363e565b613467575050565b9091600090838252602093601085526040948584209586546001600160401b03811161362a578151976005906134a18584841b018b612dfa565b828a528752838720879085808c015b8584106135c457505050505050845b87518110156134ff5760806134d4828a613187565b5101516134ea575b6134e5906130b5565b6134bf565b946134f76134e5916130b5565b9590506134dc565b50929550929093820192835182101561351a575b5050505050565b7f1322e81f2c7c277c8133babb57e97c6dd5c1aac6f0f4a6fe8ea13db4f995d7919385600052600e825283600020600b81019060ff199160028382541617905560078101600183825416179055600642910155600b8352600285600020918254161790558351600281524283820152867f99c8dbdfda1086f488085852794a3f4469c444ee425ca19e06ed87326265772b863093a351908351928352820152a23880808080613513565b600191859188516135d481612ddf565b85548152848601548382015260028601548a8201526003860154858060a01b038116606083015260ff60a091821c161515608083015261361660048801612f6d565b9082015281520192019201919086906134b0565b634e487b7160e01b86526041600452602486fd5b90600091808352600a6020526040832054908115159182613692575b5081613678575b5061367457606001516130865750600190565b5090565b835250600960205260408220546080820151111538613661565b9091506201518081018091116136ab574210903861365a565b634e487b7160e01b84526011600452602484fd5b9190811015612f1d5760051b0190565b600052600560205260ff604060002054166137d157600e60205260ff6137c26020604060002060405161370181612da8565b8154815261371160018301612f6d565b81840152600282015460408201526003820154606082015260048201546001600160a01b03166080820152600582015460a0820152600682015460c082015260078201548516151560e082015261376a60088301612f6d565b6101008201526009820154610120820152610180600c61378c600a8501612f6d565b9361014084019485526137a988600b8301541661016086016130d1565b0154910152518160405193828580945193849201612e96565b81016006815203019020541690565b600190565b156137dd57565b60405162461bcd60e51b815260206004820152602960248201527f4f6e6c792061646d696e2063616e20736574206d756c74692d73696720726571604482015268756972656d656e747360b81b6064820152608490fd5b6040906130869392151581528160208201520190612ec656fea2646970667358221220b21ea7a55ab1cef9985ff080e7cb3f70a9fc84a01c32ac891aee09865674eceb64736f6c63430008140033",
  "linkReferences": {},
  "deployedLinkReferences": {}
}