{
  "_format": "hh-sol-artifact-1",
  "contractName": "SealGuardRegistry",
  "sourceName": "contracts/SealGuardRegistry.sol",
  "abi": [
    {
      "inputs": [
        {
          "internalType": "address",
          "name": "initialOwner",
          "type": "address"
        }
      ],
      "stateMutability": "nonpayable",
      "type": "constructor"
    },
    {
      "inputs": [
        {
          "internalType": "address",
          "name": "owner",
          "type": "address"
        }
      ],
      "name": "OwnableInvalidOwner",
      "type": "error"
    },
    {
      "inputs": [
        {
          "internalType": "address",
          "name": "account",
          "type": "address"
        }
      ],
      "name": "OwnableUnauthorizedAccount",
      "type": "error"
    },
    {
      "inputs": [],
      "name": "ReentrancyGuardReentrantCall",
      "type": "error"
    },
    {
      "anonymous": false,
      "inputs": [
        {
          "indexed": true,
          "internalType": "uint256",
          "name": "documentId",
          "type": "uint256"
        },
        {
          "indexed": true,
          "internalType": "address",
          "name": "owner",
          "type": "address"
        },
        {
          "indexed": false,
          "internalType": "string",
          "name": "filecoinCID",
          "type": "string"
        },
        {
          "indexed": false,
          "internalType": "bytes32",
          "name": "fileHash",
          "type": "bytes32"
        }
      ],
      "name": "DocumentRegistered",
      "type": "event"
    },
    {
      "anonymous": false,
      "inputs": [
        {
          "indexed": true,
          "internalType": "uint256",
          "name": "documentId",
          "type": "uint256"
        },
        {
          "indexed": true,
          "internalType": "address",
          "name": "verifier",
          "type": "address"
        },
        {
          "indexed": false,
          "internalType": "bytes32",
          "name": "proofHash",
          "type": "bytes32"
        },
        {
          "indexed": false,
          "internalType": "bool",
          "name": "isValid",
          "type": "bool"
        }
      ],
      "name": "DocumentVerified",
      "type": "event"
    },
    {
      "anonymous": false,
      "inputs": [
        {
          "indexed": true,
          "internalType": "address",
          "name": "previousOwner",
          "type": "address"
        },
        {
          "indexed": true,
          "internalType": "address",
          "name": "newOwner",
          "type": "address"
        }
      ],
      "name": "OwnershipTransferred",
      "type": "event"
    },
    {
      "anonymous": false,
      "inputs": [
        {
          "indexed": true,
          "internalType": "uint256",
          "name": "documentId",
          "type": "uint256"
        },
        {
          "indexed": true,
          "internalType": "address",
          "name": "previousOwner",
          "type": "address"
        },
        {
          "indexed": true,
          "internalType": "address",
          "name": "newOwner",
          "type": "address"
        }
      ],
      "name": "OwnershipTransferred",
      "type": "event"
    },
    {
      "inputs": [
        {
          "internalType": "bytes32",
          "name": "fileHash",
          "type": "bytes32"
        }
      ],
      "name": "documentExistsByHash",
      "outputs": [
        {
          "internalType": "bool",
          "name": "",
          "type": "bool"
        }
      ],
      "stateMutability": "view",
      "type": "function"
    },
    {
      "inputs": [
        {
          "internalType": "uint256",
          "name": "",
          "type": "uint256"
        },
        {
          "internalType": "uint256",
          "name": "",
          "type": "uint256"
        }
      ],
      "name": "documentProofs",
      "outputs": [
        {
          "internalType": "uint256",
          "name": "documentId",
          "type": "uint256"
        },
        {
          "internalType": "bytes32",
          "name": "proofHash",
          "type": "bytes32"
        },
        {
          "internalType": "uint256",
          "name": "timestamp",
          "type": "uint256"
        },
        {
          "internalType": "address",
          "name": "verifier",
          "type": "address"
        },
        {
          "internalType": "bool",
          "name": "isValid",
          "type": "bool"
        },
        {
          "internalType": "string",
          "name": "proofData",
          "type": "string"
        }
      ],
      "stateMutability": "view",
      "type": "function"
    },
    {
      "inputs": [
        {
          "internalType": "uint256",
          "name": "",
          "type": "uint256"
        }
      ],
      "name": "documents",
      "outputs": [
        {
          "internalType": "uint256",
          "name": "id",
          "type": "uint256"
        },
        {
          "internalType": "string",
          "name": "filecoinCID",
          "type": "string"
        },
        {
          "internalType": "bytes32",
          "name": "fileHash",
          "type": "bytes32"
        },
        {
          "internalType": "bytes32",
          "name": "proofHash",
          "type": "bytes32"
        },
        {
          "internalType": "address",
          "name": "owner",
          "type": "address"
        },
        {
          "internalType": "uint256",
          "name": "timestamp",
          "type": "uint256"
        },
        {
          "internalType": "uint256",
          "name": "lastVerified",
          "type": "uint256"
        },
        {
          "internalType": "bool",
          "name": "isVerified",
          "type": "bool"
        },
        {
          "internalType": "string",
          "name": "metadata",
          "type": "string"
        },
        {
          "internalType": "uint256",
          "name": "fileSize",
          "type": "uint256"
        },
        {
          "internalType": "string",
          "name": "documentType",
          "type": "string"
        }
      ],
      "stateMutability": "view",
      "type": "function"
    },
    {
      "inputs": [
        {
          "internalType": "uint256",
          "name": "documentId",
          "type": "uint256"
        }
      ],
      "name": "getDocument",
      "outputs": [
        {
          "components": [
            {
              "internalType": "uint256",
              "name": "id",
              "type": "uint256"
            },
            {
              "internalType": "string",
              "name": "filecoinCID",
              "type": "string"
            },
            {
              "internalType": "bytes32",
              "name": "fileHash",
              "type": "bytes32"
            },
            {
              "internalType": "bytes32",
              "name": "proofHash",
              "type": "bytes32"
            },
            {
              "internalType": "address",
              "name": "owner",
              "type": "address"
            },
            {
              "internalType": "uint256",
              "name": "timestamp",
              "type": "uint256"
            },
            {
              "internalType": "uint256",
              "name": "lastVerified",
              "type": "uint256"
            },
            {
              "internalType": "bool",
              "name": "isVerified",
              "type": "bool"
            },
            {
              "internalType": "string",
              "name": "metadata",
              "type": "string"
            },
            {
              "internalType": "uint256",
              "name": "fileSize",
              "type": "uint256"
            },
            {
              "internalType": "string",
              "name": "documentType",
              "type": "string"
            }
          ],
          "internalType": "struct SealGuardRegistry.Document",
          "name": "",
          "type": "tuple"
        }
      ],
      "stateMutability": "view",
      "type": "function"
    },
    {
      "inputs": [
        {
          "internalType": "bytes32",
          "name": "fileHash",
          "type": "bytes32"
        }
      ],
      "name": "getDocumentIdByHash",
      "outputs": [
        {
          "internalType": "uint256",
          "name": "",
          "type": "uint256"
        }
      ],
      "stateMutability": "view",
      "type": "function"
    },
    {
      "inputs": [
        {
          "internalType": "uint256",
          "name": "documentId",
          "type": "uint256"
        }
      ],
      "name": "getDocumentProofs",
      "outputs": [
        {
          "components": [
            {
              "internalType": "uint256",
              "name": "documentId",
              "type": "uint256"
            },
            {
              "internalType": "bytes32",
              "name": "proofHash",
              "type": "bytes32"
            },
            {
              "internalType": "uint256",
              "name": "timestamp",
              "type": "uint256"
            },
            {
              "internalType": "address",
              "name": "verifier",
              "type": "address"
            },
            {
              "internalType": "bool",
              "name": "isValid",
              "type": "bool"
            },
            {
              "internalType": "string",
              "name": "proofData",
              "type": "string"
            }
          ],
          "internalType": "struct SealGuardRegistry.VerificationProof[]",
          "name": "",
          "type": "tuple[]"
        }
      ],
      "stateMutability": "view",
      "type": "function"
    },
    {
      "inputs": [
        {
          "internalType": "uint256",
          "name": "documentId",
          "type": "uint256"
        }
      ],
      "name": "getLatestProof",
      "outputs": [
        {
          "components": [
            {
              "internalType": "uint256",
              "name": "documentId",
              "type": "uint256"
            },
            {
              "internalType": "bytes32",
              "name": "proofHash",
              "type": "bytes32"
            },
            {
              "internalType": "uint256",
              "name": "timestamp",
              "type": "uint256"
            },
            {
              "internalType": "address",
              "name": "verifier",
              "type": "address"
            },
            {
              "internalType": "bool",
              "name": "isValid",
              "type": "bool"
            },
            {
              "internalType": "string",
              "name": "proofData",
              "type": "string"
            }
          ],
          "internalType": "struct SealGuardRegistry.VerificationProof",
          "name": "",
          "type": "tuple"
        }
      ],
      "stateMutability": "view",
      "type": "function"
    },
    {
      "inputs": [],
      "name": "getTotalDocuments",
      "outputs": [
        {
          "internalType": "uint256",
          "name": "",
          "type": "uint256"
        }
      ],
      "stateMutability": "view",
      "type": "function"
    },
    {
      "inputs": [
        {
          "internalType": "address",
          "name": "user",
          "type": "address"
        }
      ],
      "name": "getUserDocuments",
      "outputs": [
        {
          "internalType": "uint256[]",
          "name": "",
          "type": "uint256[]"
        }
      ],
      "stateMutability": "view",
      "type": "function"
    },
    {
      "inputs": [
        {
          "internalType": "bytes32",
          "name": "",
          "type": "bytes32"
        }
      ],
      "name": "hashToDocumentId",
      "outputs": [
        {
          "internalType": "uint256",
          "name": "",
          "type": "uint256"
        }
      ],
      "stateMutability": "view",
      "type": "function"
    },
    {
      "inputs": [],
      "name": "owner",
      "outputs": [
        {
          "internalType": "address",
          "name": "",
          "type": "address"
        }
      ],
      "stateMutability": "view",
      "type": "function"
    },
    {
      "inputs": [
        {
          "internalType": "string",
          "name": "filecoinCID",
          "type": "string"
        },
        {
          "internalType": "bytes32",
          "name": "fileHash",
          "type": "bytes32"
        },
        {
          "internalType": "string",
          "name": "metadata",
          "type": "string"
        },
        {
          "internalType": "uint256",
          "name": "fileSize",
          "type": "uint256"
        },
        {
          "internalType": "string",
          "name": "documentType",
          "type": "string"
        }
      ],
      "name": "registerDocument",
      "outputs": [
        {
          "internalType": "uint256",
          "name": "",
          "type": "uint256"
        }
      ],
      "stateMutability": "nonpayable",
      "type": "function"
    },
    {
      "inputs": [],
      "name": "renounceOwnership",
      "outputs": [],
      "stateMutability": "nonpayable",
      "type": "function"
    },
    {
      "inputs": [
        {
          "internalType": "uint256",
          "name": "documentId",
          "type": "uint256"
        },
        {
          "internalType": "bytes32",
          "name": "proofHash",
          "type": "bytes32"
        },
        {
          "internalType": "string",
          "name": "proofData",
          "type": "string"
        },
        {
          "internalType": "bool",
          "name": "isValid",
          "type": "bool"
        }
      ],
      "name": "submitVerificationProof",
      "outputs": [],
      "stateMutability": "nonpayable",
      "type": "function"
    },
    {
      "inputs": [
        {
          "internalType": "uint256",
          "name": "documentId",
          "type": "uint256"
        },
        {
          "internalType": "address",
          "name": "newOwner",
          "type": "address"
        }
      ],
      "name": "transferDocumentOwnership",
      "outputs": [],
      "stateMutability": "nonpayable",
      "type": "function"
    },
    {
      "inputs": [
        {
          "internalType": "address",
          "name": "newOwner",
          "type": "address"
        }
      ],
      "name": "transferOwnership",
      "outputs": [],
      "stateMutability": "nonpayable",
      "type": "function"
    },
    {
      "inputs": [
        {
          "internalType": "address",
          "name": "",
          "type": "address"
        },
        {
          "internalType": "uint256",
          "name": "",
          "type": "uint256"
        }
      ],
      "name": "userDocuments",
      "outputs": [
        {
          "internalType": "uint256",
          "name": "",
          "type": "uint256"
        }
      ],
      "stateMutability": "view",
      "type": "function"
    }
  ],
  "bytecode": "0x60806040523480156200001157600080fd5b5060405162001d7438038062001d748339810160408190526200003491620000cb565b806001600160a01b0381166200006457604051631e4fbdf760e01b81526000600482015260240160405180910390fd5b6200006f816200007b565b505060018055620000fd565b600080546001600160a01b038381166001600160a01b0319831681178455604051919092169283917f8be0079c531659141344cd1fd0a4f28419497f9722a3daafe3b4186f6b6457e09190a35050565b600060208284031215620000de57600080fd5b81516001600160a01b0381168114620000f657600080fd5b9392505050565b611c67806200010d6000396000f3fe608060405234801561001057600080fd5b506004361061010b5760003560e01c80637fa5bd55116100a257806394bf54f01161007157806394bf54f014610278578063a2966e2214610298578063c2ed2b05146102ab578063e90e7ad4146102d5578063f2fde38b146102dd57600080fd5b80637fa5bd55146101fd5780638da5cb5b1461021d57806390a4b16214610238578063945017701461025857600080fd5b80633f9b250a116100de5780633f9b250a1461019d5780634b3619a6146101bd578063577a1b92146101e2578063715018a6146101f557600080fd5b80631415169d146101105780632acb4f621461013657806336adbe8a1461014b5780633d43eb071461016b575b600080fd5b61012361011e36600461154e565b6102f0565b6040519081526020015b60405180910390f35b610149610144366004611606565b610599565b005b610123610159366004611632565b60009081526006602052604090205490565b61018d610179366004611632565b600090815260066020526040902054151590565b604051901515815260200161012d565b6101b06101ab366004611632565b610740565b60405161012d9190611691565b6101d06101cb366004611767565b610a06565b60405161012d96959493929190611789565b6101236101f03660046117d0565b610af6565b610149610b27565b61021061020b366004611632565b610b3b565b60405161012d9190611853565b6000546040516001600160a01b03909116815260200161012d565b61024b61024636600461186d565b610d60565b60405161012d9190611888565b61026b610266366004611632565b610dcc565b60405161012d91906118cc565b610123610286366004611632565b60066020526000908152604090205481565b6101496102a636600461192e565b610f3e565b6102be6102b9366004611632565b6110f1565b60405161012d9b9a99989796959493929190611996565b600254610123565b6101496102eb36600461186d565b6112f2565b60006102fa611330565b60008651116103475760405162461bcd60e51b8152602060048201526014602482015273125b9d985b1a5908119a5b1958dbda5b8810d25160621b60448201526064015b60405180910390fd5b846103885760405162461bcd60e51b8152602060048201526011602482015270092dcecc2d8d2c840ccd2d8ca40d0c2e6d607b1b604482015260640161033e565b600085815260066020526040902054156103e45760405162461bcd60e51b815260206004820152601760248201527f446f63756d656e7420616c726561647920657869737473000000000000000000604482015260640161033e565b600280549060006103f483611a37565b9091555050600254604080516101608101825282815260208082018a81528284018a90526000606084018190523360808501524260a085015260c0840181905260e0840181905261010084018a905261012084018990526101408401889052858152600390925292902081518155915190919060018201906104769082611ad3565b50604082015160028201556060820151600382015560808201516004820180546001600160a01b0319166001600160a01b0390921691909117905560a0820151600582015560c0820151600682015560e082015160078201805460ff191691151591909117905561010082015160088201906104f29082611ad3565b506101208201516009820155610140820151600a8201906105139082611ad3565b50503360008181526004602090815260408083208054600181018255908452828420018690558a83526006909152908190208490555190915082907ff17d1b2b79b8ade02c6389d93bacd93e57fc7c62f86281153c916630c919e66c9061057d908b908b90611b93565b60405180910390a3905061059060018055565b95945050505050565b60008281526003602052604090206004015482906001600160a01b031633146105f95760405162461bcd60e51b81526020600482015260126024820152712737ba103237b1bab6b2b73a1037bbb732b960711b604482015260640161033e565b6001600160a01b03821661064f5760405162461bcd60e51b815260206004820152601960248201527f496e76616c6964206e6577206f776e6572206164647265737300000000000000604482015260640161033e565b336001600160a01b038316036106a75760405162461bcd60e51b815260206004820152601760248201527f43616e6e6f74207472616e7366657220746f2073656c66000000000000000000604482015260640161033e565b600083815260036020526040902060040180546001600160a01b038481166001600160a01b0319831617909255166106df818561135a565b6001600160a01b038084166000818152600460209081526040808320805460018101825590845291832090910188905551919284169187917f16b85f49bf01212961345d3016c9a531894accf62eb7680f2045d79185cc0ec091a450505050565b604080516101608101825260008082526060602083018190529282018190528282018190526080820181905260a0820181905260c0820181905260e0820181905261010082018390526101208201526101408101919091526000828152600360205260408120548391036107c65760405162461bcd60e51b815260040161033e90611bb5565b6003600084815260200190815260200160002060405180610160016040529081600082015481526020016001820180546107ff90611a50565b80601f016020809104026020016040519081016040528092919081815260200182805461082b90611a50565b80156108785780601f1061084d57610100808354040283529160200191610878565b820191906000526020600020905b81548152906001019060200180831161085b57829003601f168201915b5050509183525050600282015460208201526003820154604082015260048201546001600160a01b0316606082015260058201546080820152600682015460a0820152600782015460ff16151560c082015260088201805460e0909201916108df90611a50565b80601f016020809104026020016040519081016040528092919081815260200182805461090b90611a50565b80156109585780601f1061092d57610100808354040283529160200191610958565b820191906000526020600020905b81548152906001019060200180831161093b57829003601f168201915b5050505050815260200160098201548152602001600a8201805461097b90611a50565b80601f01602080910402602001604051908101604052809291908181526020018280546109a790611a50565b80156109f45780601f106109c9576101008083540402835291602001916109f4565b820191906000526020600020905b8154815290600101906020018083116109d757829003601f168201915b50505050508152505091505b50919050565b60056020528160005260406000208181548110610a2257600080fd5b60009182526020909120600590910201805460018201546002830154600384015460048501805494975092955090936001600160a01b03821693600160a01b90920460ff16929091610a7390611a50565b80601f0160208091040260200160405190810160405280929190818152602001828054610a9f90611a50565b8015610aec5780601f10610ac157610100808354040283529160200191610aec565b820191906000526020600020905b815481529060010190602001808311610acf57829003601f168201915b5050505050905086565b60046020528160005260406000208181548110610b1257600080fd5b90600052602060002001600091509150505481565b610b2f61142e565b610b39600061145b565b565b610b826040518060c0016040528060008152602001600080191681526020016000815260200160006001600160a01b03168152602001600015158152602001606081525090565b600082815260036020526040812054839103610bb05760405162461bcd60e51b815260040161033e90611bb5565b600083815260056020908152604080832080548251818502810185019093528083529192909190849084015b82821015610ce75760008481526020908190206040805160c081018252600586029092018054835260018101549383019390935260028301549082015260038201546001600160a01b0381166060830152600160a01b900460ff161515608082015260048201805491929160a084019190610c5690611a50565b80601f0160208091040260200160405190810160405280929190818152602001828054610c8290611a50565b8015610ccf5780601f10610ca457610100808354040283529160200191610ccf565b820191906000526020600020905b815481529060010190602001808311610cb257829003601f168201915b50505050508152505081526020019060010190610bdc565b5050505090506000815111610d305760405162461bcd60e51b815260206004820152600f60248201526e139bc81c1c9bdbd99cc8199bdd5b99608a1b604482015260640161033e565b8060018251610d3f9190611bec565b81518110610d4f57610d4f611c05565b602002602001015192505050919050565b6001600160a01b038116600090815260046020908152604091829020805483518184028101840190945280845260609392830182828015610dc057602002820191906000526020600020905b815481526020019060010190808311610dac575b50505050509050919050565b60008181526003602052604081205460609183919003610dfe5760405162461bcd60e51b815260040161033e90611bb5565b600083815260056020908152604080832080548251818502810185019093528083529193909284015b82821015610f325760008481526020908190206040805160c081018252600586029092018054835260018101549383019390935260028301549082015260038201546001600160a01b0381166060830152600160a01b900460ff161515608082015260048201805491929160a084019190610ea190611a50565b80601f0160208091040260200160405190810160405280929190818152602001828054610ecd90611a50565b8015610f1a5780601f10610eef57610100808354040283529160200191610f1a565b820191906000526020600020905b815481529060010190602001808311610efd57829003601f168201915b50505050508152505081526020019060010190610e27565b50505050915050919050565b600084815260036020526040812054859103610f6c5760405162461bcd60e51b815260040161033e90611bb5565b610f74611330565b83610fb65760405162461bcd60e51b8152602060048201526012602482015271092dcecc2d8d2c840e0e4dedecc40d0c2e6d60731b604482015260640161033e565b6040805160c08101825286815260208082018781524283850190815233606085019081528715156080860190815260a086018a815260008d8152600580885298812080546001818101835591835297909120885197909902909801958655935196850196909655905160028401555160038301805495511515600160a01b026001600160a81b03199096166001600160a01b03929092169190911794909417909355915190918291600482019061106d9082611ad3565b50505082156110a2576000868152600360208190526040909120908101869055426006820155600701805460ff191660011790555b604080518681528415156020820152339188917ffdff159079e40a8417212ba242d6b8b689dee5b49969b511126b6deae0ad495c910160405180910390a3506110ea60018055565b5050505050565b6003602052600090815260409020805460018201805491929161111390611a50565b80601f016020809104026020016040519081016040528092919081815260200182805461113f90611a50565b801561118c5780601f106111615761010080835404028352916020019161118c565b820191906000526020600020905b81548152906001019060200180831161116f57829003601f168201915b50505050600283015460038401546004850154600586015460068701546007880154600889018054989996989597506001600160a01b03909416959294919360ff90911692916111db90611a50565b80601f016020809104026020016040519081016040528092919081815260200182805461120790611a50565b80156112545780601f1061122957610100808354040283529160200191611254565b820191906000526020600020905b81548152906001019060200180831161123757829003601f168201915b50505050509080600901549080600a01805461126f90611a50565b80601f016020809104026020016040519081016040528092919081815260200182805461129b90611a50565b80156112e85780601f106112bd576101008083540402835291602001916112e8565b820191906000526020600020905b8154815290600101906020018083116112cb57829003601f168201915b505050505090508b565b6112fa61142e565b6001600160a01b03811661132457604051631e4fbdf760e01b81526000600482015260240161033e565b61132d8161145b565b50565b60026001540361135357604051633ee5aeb560e01b815260040160405180910390fd5b6002600155565b6001600160a01b0382166000908152600460205260408120905b8154811015611428578282828154811061139057611390611c05565b90600052602060002001540361141657815482906113b090600190611bec565b815481106113c0576113c0611c05565b90600052602060002001548282815481106113dd576113dd611c05565b9060005260206000200181905550818054806113fb576113fb611c1b565b60019003818190600052602060002001600090559055611428565b8061142081611a37565b915050611374565b50505050565b6000546001600160a01b03163314610b395760405163118cdaa760e01b815233600482015260240161033e565b600080546001600160a01b038381166001600160a01b0319831681178455604051919092169283917f8be0079c531659141344cd1fd0a4f28419497f9722a3daafe3b4186f6b6457e09190a35050565b634e487b7160e01b600052604160045260246000fd5b600082601f8301126114d257600080fd5b813567ffffffffffffffff808211156114ed576114ed6114ab565b604051601f8301601f19908116603f01168101908282118183101715611515576115156114ab565b8160405283815286602085880101111561152e57600080fd5b836020870160208301376000602085830101528094505050505092915050565b600080600080600060a0868803121561156657600080fd5b853567ffffffffffffffff8082111561157e57600080fd5b61158a89838a016114c1565b96506020880135955060408801359150808211156115a757600080fd5b6115b389838a016114c1565b94506060880135935060808801359150808211156115d057600080fd5b506115dd888289016114c1565b9150509295509295909350565b80356001600160a01b038116811461160157600080fd5b919050565b6000806040838503121561161957600080fd5b82359150611629602084016115ea565b90509250929050565b60006020828403121561164457600080fd5b5035919050565b6000815180845260005b8181101561167157602081850181015186830182015201611655565b506000602082860101526020601f19601f83011685010191505092915050565b6020815281516020820152600060208301516101608060408501526116ba61018085018361164b565b9150604085015160608501526060850151608085015260808501516116ea60a08601826001600160a01b03169052565b5060a085015160c085015260c085015160e085015260e08501516101006117148187018315159052565b80870151915050601f19610120818786030181880152611734858461164b565b9088015161014088810191909152880151878203909201848801529350905061175d838261164b565b9695505050505050565b6000806040838503121561177a57600080fd5b50508035926020909101359150565b86815285602082015284604082015260018060a01b0384166060820152821515608082015260c060a082015260006117c460c083018461164b565b98975050505050505050565b600080604083850312156117e357600080fd5b6117ec836115ea565b946020939093013593505050565b80518252602081015160208301526040810151604083015260018060a01b036060820151166060830152608081015115156080830152600060a082015160c060a085015261184b60c085018261164b565b949350505050565b60208152600061186660208301846117fa565b9392505050565b60006020828403121561187f57600080fd5b611866826115ea565b6020808252825182820181905260009190848201906040850190845b818110156118c0578351835292840192918401916001016118a4565b50909695505050505050565b6000602080830181845280855180835260408601915060408160051b870101925083870160005b8281101561192157603f1988860301845261190f8583516117fa565b945092850192908501906001016118f3565b5092979650505050505050565b6000806000806080858703121561194457600080fd5b8435935060208501359250604085013567ffffffffffffffff81111561196957600080fd5b611975878288016114c1565b9250506060850135801515811461198b57600080fd5b939692955090935050565b60006101608d83528060208401526119b08184018e61164b565b90508b60408401528a606084015260018060a01b038a1660808401528860a08401528760c084015286151560e08401528281036101008401526119f3818761164b565b905084610120840152828103610140840152611a0f818561164b565b9e9d5050505050505050505050505050565b634e487b7160e01b600052601160045260246000fd5b600060018201611a4957611a49611a21565b5060010190565b600181811c90821680611a6457607f821691505b602082108103610a0057634e487b7160e01b600052602260045260246000fd5b601f821115611ace57600081815260208120601f850160051c81016020861015611aab5750805b601f850160051c820191505b81811015611aca57828155600101611ab7565b5050505b505050565b815167ffffffffffffffff811115611aed57611aed6114ab565b611b0181611afb8454611a50565b84611a84565b602080601f831160018114611b365760008415611b1e5750858301515b600019600386901b1c1916600185901b178555611aca565b600085815260208120601f198616915b82811015611b6557888601518255948401946001909101908401611b46565b5085821015611b835787850151600019600388901b60f8161c191681555b5050505050600190811b01905550565b604081526000611ba6604083018561164b565b90508260208301529392505050565b60208082526017908201527f446f63756d656e7420646f6573206e6f74206578697374000000000000000000604082015260600190565b81810381811115611bff57611bff611a21565b92915050565b634e487b7160e01b600052603260045260246000fd5b634e487b7160e01b600052603160045260246000fdfea26469706673582212209d1c6d55e6c7cbeaabac2805db4335285d31366c3dbf8f0f81f76e1eb0aafc0e64736f6c63430008140033",
  "linkReferences": {},
  "deployedLinkReferences": {}
}